{
	"contracts/StablecoinVault.sol": {
		"StablecoinVault": {
			"abi": [
				{
					"inputs": [],
					"name": "AccessControlBadConfirmation",
					"type": "error"
				},
				{
					"inputs": [
						{
							"internalType": "address",
							"name": "account",
							"type": "address"
						},
						{
							"internalType": "bytes32",
							"name": "neededRole",
							"type": "bytes32"
						}
					],
					"name": "AccessControlUnauthorizedAccount",
					"type": "error"
				},
				{
					"inputs": [
						{
							"internalType": "address",
							"name": "target",
							"type": "address"
						}
					],
					"name": "AddressEmptyCode",
					"type": "error"
				},
				{
					"inputs": [
						{
							"internalType": "address",
							"name": "implementation",
							"type": "address"
						}
					],
					"name": "ERC1967InvalidImplementation",
					"type": "error"
				},
				{
					"inputs": [],
					"name": "ERC1967NonPayable",
					"type": "error"
				},
				{
					"inputs": [],
					"name": "FailedInnerCall",
					"type": "error"
				},
				{
					"inputs": [],
					"name": "InvalidInitialization",
					"type": "error"
				},
				{
					"inputs": [],
					"name": "NotInitializing",
					"type": "error"
				},
				{
					"inputs": [],
					"name": "UUPSUnauthorizedCallContext",
					"type": "error"
				},
				{
					"inputs": [
						{
							"internalType": "bytes32",
							"name": "slot",
							"type": "bytes32"
						}
					],
					"name": "UUPSUnsupportedProxiableUUID",
					"type": "error"
				},
				{
					"anonymous": false,
					"inputs": [
						{
							"indexed": false,
							"internalType": "uint64",
							"name": "version",
							"type": "uint64"
						}
					],
					"name": "Initialized",
					"type": "event"
				},
				{
					"anonymous": false,
					"inputs": [
						{
							"indexed": true,
							"internalType": "bytes32",
							"name": "role",
							"type": "bytes32"
						},
						{
							"indexed": true,
							"internalType": "bytes32",
							"name": "previousAdminRole",
							"type": "bytes32"
						},
						{
							"indexed": true,
							"internalType": "bytes32",
							"name": "newAdminRole",
							"type": "bytes32"
						}
					],
					"name": "RoleAdminChanged",
					"type": "event"
				},
				{
					"anonymous": false,
					"inputs": [
						{
							"indexed": true,
							"internalType": "bytes32",
							"name": "role",
							"type": "bytes32"
						},
						{
							"indexed": true,
							"internalType": "address",
							"name": "account",
							"type": "address"
						},
						{
							"indexed": true,
							"internalType": "address",
							"name": "sender",
							"type": "address"
						}
					],
					"name": "RoleGranted",
					"type": "event"
				},
				{
					"anonymous": false,
					"inputs": [
						{
							"indexed": true,
							"internalType": "bytes32",
							"name": "role",
							"type": "bytes32"
						},
						{
							"indexed": true,
							"internalType": "address",
							"name": "account",
							"type": "address"
						},
						{
							"indexed": true,
							"internalType": "address",
							"name": "sender",
							"type": "address"
						}
					],
					"name": "RoleRevoked",
					"type": "event"
				},
				{
					"anonymous": false,
					"inputs": [
						{
							"indexed": true,
							"internalType": "address",
							"name": "implementation",
							"type": "address"
						}
					],
					"name": "Upgraded",
					"type": "event"
				},
				{
					"inputs": [],
					"name": "DEFAULT_ADMIN_ROLE",
					"outputs": [
						{
							"internalType": "bytes32",
							"name": "",
							"type": "bytes32"
						}
					],
					"stateMutability": "view",
					"type": "function"
				},
				{
					"inputs": [],
					"name": "UPGRADER_ROLE",
					"outputs": [
						{
							"internalType": "bytes32",
							"name": "",
							"type": "bytes32"
						}
					],
					"stateMutability": "view",
					"type": "function"
				},
				{
					"inputs": [],
					"name": "UPGRADE_INTERFACE_VERSION",
					"outputs": [
						{
							"internalType": "string",
							"name": "",
							"type": "string"
						}
					],
					"stateMutability": "view",
					"type": "function"
				},
				{
					"inputs": [
						{
							"internalType": "address",
							"name": "token",
							"type": "address"
						},
						{
							"internalType": "uint256",
							"name": "amount",
							"type": "uint256"
						}
					],
					"name": "deposit",
					"outputs": [],
					"stateMutability": "nonpayable",
					"type": "function"
				},
				{
					"inputs": [
						{
							"internalType": "address",
							"name": "account",
							"type": "address"
						},
						{
							"internalType": "address",
							"name": "token",
							"type": "address"
						}
					],
					"name": "getBalance",
					"outputs": [
						{
							"internalType": "uint256",
							"name": "",
							"type": "uint256"
						}
					],
					"stateMutability": "view",
					"type": "function"
				},
				{
					"inputs": [
						{
							"internalType": "address",
							"name": "account",
							"type": "address"
						},
						{
							"internalType": "address[]",
							"name": "tokens",
							"type": "address[]"
						}
					],
					"name": "getBalances",
					"outputs": [
						{
							"internalType": "uint256[]",
							"name": "",
							"type": "uint256[]"
						}
					],
					"stateMutability": "view",
					"type": "function"
				},
				{
					"inputs": [
						{
							"internalType": "bytes32",
							"name": "role",
							"type": "bytes32"
						}
					],
					"name": "getRoleAdmin",
					"outputs": [
						{
							"internalType": "bytes32",
							"name": "",
							"type": "bytes32"
						}
					],
					"stateMutability": "view",
					"type": "function"
				},
				{
					"inputs": [
						{
							"internalType": "bytes32",
							"name": "role",
							"type": "bytes32"
						},
						{
							"internalType": "address",
							"name": "account",
							"type": "address"
						}
					],
					"name": "grantRole",
					"outputs": [],
					"stateMutability": "nonpayable",
					"type": "function"
				},
				{
					"inputs": [
						{
							"internalType": "bytes32",
							"name": "role",
							"type": "bytes32"
						},
						{
							"internalType": "address",
							"name": "account",
							"type": "address"
						}
					],
					"name": "hasRole",
					"outputs": [
						{
							"internalType": "bool",
							"name": "",
							"type": "bool"
						}
					],
					"stateMutability": "view",
					"type": "function"
				},
				{
					"inputs": [
						{
							"internalType": "uint256",
							"name": "multisigThreshold",
							"type": "uint256"
						}
					],
					"name": "initVault",
					"outputs": [],
					"stateMutability": "nonpayable",
					"type": "function"
				},
				{
					"inputs": [
						{
							"internalType": "address",
							"name": "defaultAdmin",
							"type": "address"
						},
						{
							"internalType": "address",
							"name": "upgrader",
							"type": "address"
						}
					],
					"name": "initialize",
					"outputs": [],
					"stateMutability": "nonpayable",
					"type": "function"
				},
				{
					"inputs": [],
					"name": "proxiableUUID",
					"outputs": [
						{
							"internalType": "bytes32",
							"name": "",
							"type": "bytes32"
						}
					],
					"stateMutability": "view",
					"type": "function"
				},
				{
					"inputs": [
						{
							"internalType": "bytes32",
							"name": "role",
							"type": "bytes32"
						},
						{
							"internalType": "address",
							"name": "callerConfirmation",
							"type": "address"
						}
					],
					"name": "renounceRole",
					"outputs": [],
					"stateMutability": "nonpayable",
					"type": "function"
				},
				{
					"inputs": [
						{
							"internalType": "bytes32",
							"name": "role",
							"type": "bytes32"
						},
						{
							"internalType": "address",
							"name": "account",
							"type": "address"
						}
					],
					"name": "revokeRole",
					"outputs": [],
					"stateMutability": "nonpayable",
					"type": "function"
				},
				{
					"inputs": [
						{
							"internalType": "address",
							"name": "account",
							"type": "address"
						},
						{
							"internalType": "bool",
							"name": "enabled",
							"type": "bool"
						}
					],
					"name": "setMultisig",
					"outputs": [],
					"stateMutability": "nonpayable",
					"type": "function"
				},
				{
					"inputs": [
						{
							"internalType": "uint256",
							"name": "multisigThreshold",
							"type": "uint256"
						}
					],
					"name": "setMultisigThreshold",
					"outputs": [],
					"stateMutability": "nonpayable",
					"type": "function"
				},
				{
					"inputs": [
						{
							"internalType": "bytes4",
							"name": "interfaceId",
							"type": "bytes4"
						}
					],
					"name": "supportsInterface",
					"outputs": [
						{
							"internalType": "bool",
							"name": "",
							"type": "bool"
						}
					],
					"stateMutability": "view",
					"type": "function"
				},
				{
					"inputs": [
						{
							"internalType": "address",
							"name": "newImplementation",
							"type": "address"
						},
						{
							"internalType": "bytes",
							"name": "data",
							"type": "bytes"
						}
					],
					"name": "upgradeToAndCall",
					"outputs": [],
					"stateMutability": "payable",
					"type": "function"
				},
				{
					"inputs": [
						{
							"internalType": "address",
							"name": "token",
							"type": "address"
						},
						{
							"internalType": "address",
							"name": "recipient",
							"type": "address"
						},
						{
							"internalType": "uint256",
							"name": "amount",
							"type": "uint256"
						}
					],
					"name": "withdraw",
					"outputs": [],
					"stateMutability": "nonpayable",
					"type": "function"
				}
			],
			"devdoc": {
				"errors": {
					"AccessControlBadConfirmation()": [
						{
							"details": "The caller of a function is not the expected one. NOTE: Don't confuse with {AccessControlUnauthorizedAccount}."
						}
					],
					"AccessControlUnauthorizedAccount(address,bytes32)": [
						{
							"details": "The `account` is missing a role."
						}
					],
					"AddressEmptyCode(address)": [
						{
							"details": "There's no code at `target` (it is not a contract)."
						}
					],
					"ERC1967InvalidImplementation(address)": [
						{
							"details": "The `implementation` of the proxy is invalid."
						}
					],
					"ERC1967NonPayable()": [
						{
							"details": "An upgrade function sees `msg.value > 0` that may be lost."
						}
					],
					"FailedInnerCall()": [
						{
							"details": "A call to an address target failed. The target may have reverted."
						}
					],
					"InvalidInitialization()": [
						{
							"details": "The contract is already initialized."
						}
					],
					"NotInitializing()": [
						{
							"details": "The contract is not initializing."
						}
					],
					"UUPSUnauthorizedCallContext()": [
						{
							"details": "The call is from an unauthorized context."
						}
					],
					"UUPSUnsupportedProxiableUUID(bytes32)": [
						{
							"details": "The storage `slot` is unsupported as a UUID."
						}
					]
				},
				"events": {
					"Initialized(uint64)": {
						"details": "Triggered when the contract has been initialized or reinitialized."
					},
					"RoleAdminChanged(bytes32,bytes32,bytes32)": {
						"details": "Emitted when `newAdminRole` is set as ``role``'s admin role, replacing `previousAdminRole` `DEFAULT_ADMIN_ROLE` is the starting admin for all roles, despite {RoleAdminChanged} not being emitted signaling this."
					},
					"RoleGranted(bytes32,address,address)": {
						"details": "Emitted when `account` is granted `role`. `sender` is the account that originated the contract call, an admin role bearer except when using {AccessControl-_setupRole}."
					},
					"RoleRevoked(bytes32,address,address)": {
						"details": "Emitted when `account` is revoked `role`. `sender` is the account that originated the contract call:   - if using `revokeRole`, it is the admin role bearer   - if using `renounceRole`, it is the role bearer (i.e. `account`)"
					},
					"Upgraded(address)": {
						"details": "Emitted when the implementation is upgraded."
					}
				},
				"kind": "dev",
				"methods": {
					"getRoleAdmin(bytes32)": {
						"details": "Returns the admin role that controls `role`. See {grantRole} and {revokeRole}. To change a role's admin, use {_setRoleAdmin}."
					},
					"grantRole(bytes32,address)": {
						"details": "Grants `role` to `account`. If `account` had not been already granted `role`, emits a {RoleGranted} event. Requirements: - the caller must have ``role``'s admin role. May emit a {RoleGranted} event."
					},
					"hasRole(bytes32,address)": {
						"details": "Returns `true` if `account` has been granted `role`."
					},
					"initialize(address,address)": {
						"custom:oz-upgrades-unsafe-allow": "constructor"
					},
					"proxiableUUID()": {
						"details": "Implementation of the ERC1822 {proxiableUUID} function. This returns the storage slot used by the implementation. It is used to validate the implementation's compatibility when performing an upgrade. IMPORTANT: A proxy pointing at a proxiable contract should not be considered proxiable itself, because this risks bricking a proxy that upgrades to it, by delegating to itself until out of gas. Thus it is critical that this function revert if invoked through a proxy. This is guaranteed by the `notDelegated` modifier."
					},
					"renounceRole(bytes32,address)": {
						"details": "Revokes `role` from the calling account. Roles are often managed via {grantRole} and {revokeRole}: this function's purpose is to provide a mechanism for accounts to lose their privileges if they are compromised (such as when a trusted device is misplaced). If the calling account had been revoked `role`, emits a {RoleRevoked} event. Requirements: - the caller must be `callerConfirmation`. May emit a {RoleRevoked} event."
					},
					"revokeRole(bytes32,address)": {
						"details": "Revokes `role` from `account`. If `account` had been granted `role`, emits a {RoleRevoked} event. Requirements: - the caller must have ``role``'s admin role. May emit a {RoleRevoked} event."
					},
					"supportsInterface(bytes4)": {
						"details": "See {IERC165-supportsInterface}."
					},
					"upgradeToAndCall(address,bytes)": {
						"custom:oz-upgrades-unsafe-allow-reachable": "delegatecall",
						"details": "Upgrade the implementation of the proxy to `newImplementation`, and subsequently execute the function call encoded in `data`. Calls {_authorizeUpgrade}. Emits an {Upgraded} event."
					}
				},
				"version": 1
			},
			"evm": {
				"assembly": "    /* \"contracts/StablecoinVault.sol\":421:2334  contract StablecoinVault is Initializable, AccessControlUpgradeable, UUPSUpgradeable {... */\n  mstore(0x40, 0xa0)\n    /* \"@openzeppelin/contracts-upgradeable/proxy/utils/UUPSUpgradeable.sol\":1171:1175  this */\n  address\n    /* \"@openzeppelin/contracts-upgradeable/proxy/utils/UUPSUpgradeable.sol\":1128:1176  address private immutable __self = address(this) */\n  0xffffffffffffffffffffffffffffffffffffffff\n  and\n  0x80\n  swap1\n  0xffffffffffffffffffffffffffffffffffffffff\n  and\n  dup2\n  mstore\n  pop\n    /* \"contracts/StablecoinVault.sol\":421:2334  contract StablecoinVault is Initializable, AccessControlUpgradeable, UUPSUpgradeable {... */\n  callvalue\n  dup1\n  iszero\n  tag_1\n  jumpi\n  0x00\n  dup1\n  revert\ntag_1:\n  pop\n  mload(0x80)\n  codecopy(0x00, dataOffset(sub_0), dataSize(sub_0))\n  0x00\n  assignImmutable(\"0x3b04ad91523c4dcf551e081621e633b9099d51bf9c5461e58c3bc7354a578b27\")\n  return(0x00, dataSize(sub_0))\nstop\n\nsub_0: assembly {\n        /* \"contracts/StablecoinVault.sol\":421:2334  contract StablecoinVault is Initializable, AccessControlUpgradeable, UUPSUpgradeable {... */\n      mstore(0x40, 0x80)\n      jumpi(tag_1, lt(calldatasize, 0x04))\n      shr(0xe0, calldataload(0x00))\n      dup1\n      0x52d1902d\n      gt\n      tag_21\n      jumpi\n      dup1\n      0xad3cb1cc\n      gt\n      tag_22\n      jumpi\n      dup1\n      0xad3cb1cc\n      eq\n      tag_16\n      jumpi\n      dup1\n      0xd4fac45d\n      eq\n      tag_17\n      jumpi\n      dup1\n      0xd547741f\n      eq\n      tag_18\n      jumpi\n      dup1\n      0xd9caed12\n      eq\n      tag_19\n      jumpi\n      dup1\n      0xf72c0d8b\n      eq\n      tag_20\n      jumpi\n      jump(tag_1)\n    tag_22:\n      dup1\n      0x52d1902d\n      eq\n      tag_11\n      jumpi\n      dup1\n      0x6a385ae9\n      eq\n      tag_12\n      jumpi\n      dup1\n      0x88b9a469\n      eq\n      tag_13\n      jumpi\n      dup1\n      0x91d14854\n      eq\n      tag_14\n      jumpi\n      dup1\n      0xa217fddf\n      eq\n      tag_15\n      jumpi\n      jump(tag_1)\n    tag_21:\n      dup1\n      0x36568abe\n      gt\n      tag_23\n      jumpi\n      dup1\n      0x36568abe\n      eq\n      tag_6\n      jumpi\n      dup1\n      0x3f449529\n      eq\n      tag_7\n      jumpi\n      dup1\n      0x47e7ef24\n      eq\n      tag_8\n      jumpi\n      dup1\n      0x485cc955\n      eq\n      tag_9\n      jumpi\n      dup1\n      0x4f1ef286\n      eq\n      tag_10\n      jumpi\n      jump(tag_1)\n    tag_23:\n      dup1\n      0x01ffc9a7\n      eq\n      tag_2\n      jumpi\n      dup1\n      0x14bc6ea3\n      eq\n      tag_3\n      jumpi\n      dup1\n      0x248a9ca3\n      eq\n      tag_4\n      jumpi\n      dup1\n      0x2f2ff15d\n      eq\n      tag_5\n      jumpi\n    tag_1:\n      0x00\n      dup1\n      revert\n        /* \"@openzeppelin/contracts-upgradeable/access/AccessControlUpgradeable.sol\":3443:3645  function supportsInterface(bytes4 interfaceId) public view virtual override returns (bool) {... */\n    tag_2:\n      callvalue\n      dup1\n      iszero\n      tag_24\n      jumpi\n      0x00\n      dup1\n      revert\n    tag_24:\n      pop\n      tag_25\n      0x04\n      dup1\n      calldatasize\n      sub\n      dup2\n      add\n      swap1\n      tag_26\n      swap2\n      swap1\n      tag_27\n      jump\t// in\n    tag_26:\n      tag_28\n      jump\t// in\n    tag_25:\n      mload(0x40)\n      tag_29\n      swap2\n      swap1\n      tag_30\n      jump\t// in\n    tag_29:\n      mload(0x40)\n      dup1\n      swap2\n      sub\n      swap1\n      return\n        /* \"contracts/StablecoinVault.sol\":1255:1403  function setMultisig(address account, bool enabled) external onlyRole(DEFAULT_ADMIN_ROLE) {... */\n    tag_3:\n      callvalue\n      dup1\n      iszero\n      tag_31\n      jumpi\n      0x00\n      dup1\n      revert\n    tag_31:\n      pop\n      tag_32\n      0x04\n      dup1\n      calldatasize\n      sub\n      dup2\n      add\n      swap1\n      tag_33\n      swap2\n      swap1\n      tag_34\n      jump\t// in\n    tag_33:\n      tag_35\n      jump\t// in\n    tag_32:\n      stop\n        /* \"@openzeppelin/contracts-upgradeable/access/AccessControlUpgradeable.sol\":4759:4950  function getRoleAdmin(bytes32 role) public view virtual returns (bytes32) {... */\n    tag_4:\n      callvalue\n      dup1\n      iszero\n      tag_36\n      jumpi\n      0x00\n      dup1\n      revert\n    tag_36:\n      pop\n      tag_37\n      0x04\n      dup1\n      calldatasize\n      sub\n      dup2\n      add\n      swap1\n      tag_38\n      swap2\n      swap1\n      tag_39\n      jump\t// in\n    tag_38:\n      tag_40\n      jump\t// in\n    tag_37:\n      mload(0x40)\n      tag_41\n      swap2\n      swap1\n      tag_42\n      jump\t// in\n    tag_41:\n      mload(0x40)\n      dup1\n      swap2\n      sub\n      swap1\n      return\n        /* \"@openzeppelin/contracts-upgradeable/access/AccessControlUpgradeable.sol\":5246:5382  function grantRole(bytes32 role, address account) public virtual onlyRole(getRoleAdmin(role)) {... */\n    tag_5:\n      callvalue\n      dup1\n      iszero\n      tag_43\n      jumpi\n      0x00\n      dup1\n      revert\n    tag_43:\n      pop\n      tag_44\n      0x04\n      dup1\n      calldatasize\n      sub\n      dup2\n      add\n      swap1\n      tag_45\n      swap2\n      swap1\n      tag_46\n      jump\t// in\n    tag_45:\n      tag_47\n      jump\t// in\n    tag_44:\n      stop\n        /* \"@openzeppelin/contracts-upgradeable/access/AccessControlUpgradeable.sol\":6348:6593  function renounceRole(bytes32 role, address callerConfirmation) public virtual {... */\n    tag_6:\n      callvalue\n      dup1\n      iszero\n      tag_48\n      jumpi\n      0x00\n      dup1\n      revert\n    tag_48:\n      pop\n      tag_49\n      0x04\n      dup1\n      calldatasize\n      sub\n      dup2\n      add\n      swap1\n      tag_50\n      swap2\n      swap1\n      tag_46\n      jump\t// in\n    tag_50:\n      tag_51\n      jump\t// in\n    tag_49:\n      stop\n        /* \"contracts/StablecoinVault.sol\":1411:1545  function setMultisigThreshold(uint256 multisigThreshold) external {... */\n    tag_7:\n      callvalue\n      dup1\n      iszero\n      tag_52\n      jumpi\n      0x00\n      dup1\n      revert\n    tag_52:\n      pop\n      tag_53\n      0x04\n      dup1\n      calldatasize\n      sub\n      dup2\n      add\n      swap1\n      tag_54\n      swap2\n      swap1\n      tag_55\n      jump\t// in\n    tag_54:\n      tag_56\n      jump\t// in\n    tag_53:\n      stop\n        /* \"contracts/StablecoinVault.sol\":1553:1713  function deposit(address token, uint256 amount) external {... */\n    tag_8:\n      callvalue\n      dup1\n      iszero\n      tag_57\n      jumpi\n      0x00\n      dup1\n      revert\n    tag_57:\n      pop\n      tag_58\n      0x04\n      dup1\n      calldatasize\n      sub\n      dup2\n      add\n      swap1\n      tag_59\n      swap2\n      swap1\n      tag_60\n      jump\t// in\n    tag_59:\n      tag_61\n      jump\t// in\n    tag_58:\n      stop\n        /* \"contracts/StablecoinVault.sol\":831:1103  function initialize(address defaultAdmin, address upgrader)... */\n    tag_9:\n      callvalue\n      dup1\n      iszero\n      tag_62\n      jumpi\n      0x00\n      dup1\n      revert\n    tag_62:\n      pop\n      tag_63\n      0x04\n      dup1\n      calldatasize\n      sub\n      dup2\n      add\n      swap1\n      tag_64\n      swap2\n      swap1\n      tag_65\n      jump\t// in\n    tag_64:\n      tag_66\n      jump\t// in\n    tag_63:\n      stop\n        /* \"@openzeppelin/contracts-upgradeable/proxy/utils/UUPSUpgradeable.sol\":4158:4372  function upgradeToAndCall(address newImplementation, bytes memory data) public payable virtual onlyProxy {... */\n    tag_10:\n      tag_67\n      0x04\n      dup1\n      calldatasize\n      sub\n      dup2\n      add\n      swap1\n      tag_68\n      swap2\n      swap1\n      tag_69\n      jump\t// in\n    tag_68:\n      tag_70\n      jump\t// in\n    tag_67:\n      stop\n        /* \"@openzeppelin/contracts-upgradeable/proxy/utils/UUPSUpgradeable.sol\":3705:3839  function proxiableUUID() external view virtual notDelegated returns (bytes32) {... */\n    tag_11:\n      callvalue\n      dup1\n      iszero\n      tag_71\n      jumpi\n      0x00\n      dup1\n      revert\n    tag_71:\n      pop\n      tag_72\n      tag_73\n      jump\t// in\n    tag_72:\n      mload(0x40)\n      tag_74\n      swap2\n      swap1\n      tag_42\n      jump\t// in\n    tag_74:\n      mload(0x40)\n      dup1\n      swap2\n      sub\n      swap1\n      return\n        /* \"contracts/StablecoinVault.sol\":2023:2193  function getBalances(address account, address[] calldata tokens) external view returns (uint256[] memory) {... */\n    tag_12:\n      callvalue\n      dup1\n      iszero\n      tag_75\n      jumpi\n      0x00\n      dup1\n      revert\n    tag_75:\n      pop\n      tag_76\n      0x04\n      dup1\n      calldatasize\n      sub\n      dup2\n      add\n      swap1\n      tag_77\n      swap2\n      swap1\n      tag_78\n      jump\t// in\n    tag_77:\n      tag_79\n      jump\t// in\n    tag_76:\n      mload(0x40)\n      tag_80\n      swap2\n      swap1\n      tag_81\n      jump\t// in\n    tag_80:\n      mload(0x40)\n      dup1\n      swap2\n      sub\n      swap1\n      return\n        /* \"contracts/StablecoinVault.sol\":1111:1247  function initVault(uint256 multisigThreshold) external onlyRole(DEFAULT_ADMIN_ROLE) {... */\n    tag_13:\n      callvalue\n      dup1\n      iszero\n      tag_82\n      jumpi\n      0x00\n      dup1\n      revert\n    tag_82:\n      pop\n      tag_83\n      0x04\n      dup1\n      calldatasize\n      sub\n      dup2\n      add\n      swap1\n      tag_84\n      swap2\n      swap1\n      tag_55\n      jump\t// in\n    tag_84:\n      tag_85\n      jump\t// in\n    tag_83:\n      stop\n        /* \"@openzeppelin/contracts-upgradeable/access/AccessControlUpgradeable.sol\":3732:3939  function hasRole(bytes32 role, address account) public view virtual returns (bool) {... */\n    tag_14:\n      callvalue\n      dup1\n      iszero\n      tag_86\n      jumpi\n      0x00\n      dup1\n      revert\n    tag_86:\n      pop\n      tag_87\n      0x04\n      dup1\n      calldatasize\n      sub\n      dup2\n      add\n      swap1\n      tag_88\n      swap2\n      swap1\n      tag_46\n      jump\t// in\n    tag_88:\n      tag_89\n      jump\t// in\n    tag_87:\n      mload(0x40)\n      tag_90\n      swap2\n      swap1\n      tag_30\n      jump\t// in\n    tag_90:\n      mload(0x40)\n      dup1\n      swap2\n      sub\n      swap1\n      return\n        /* \"@openzeppelin/contracts-upgradeable/access/AccessControlUpgradeable.sol\":2317:2366  bytes32 public constant DEFAULT_ADMIN_ROLE = 0x00 */\n    tag_15:\n      callvalue\n      dup1\n      iszero\n      tag_91\n      jumpi\n      0x00\n      dup1\n      revert\n    tag_91:\n      pop\n      tag_92\n      tag_93\n      jump\t// in\n    tag_92:\n      mload(0x40)\n      tag_94\n      swap2\n      swap1\n      tag_42\n      jump\t// in\n    tag_94:\n      mload(0x40)\n      dup1\n      swap2\n      sub\n      swap1\n      return\n        /* \"@openzeppelin/contracts-upgradeable/proxy/utils/UUPSUpgradeable.sol\":1819:1877  string public constant UPGRADE_INTERFACE_VERSION = \"5.0.0\" */\n    tag_16:\n      callvalue\n      dup1\n      iszero\n      tag_95\n      jumpi\n      0x00\n      dup1\n      revert\n    tag_95:\n      pop\n      tag_96\n      tag_97\n      jump\t// in\n    tag_96:\n      mload(0x40)\n      tag_98\n      swap2\n      swap1\n      tag_99\n      jump\t// in\n    tag_98:\n      mload(0x40)\n      dup1\n      swap2\n      sub\n      swap1\n      return\n        /* \"contracts/StablecoinVault.sol\":1869:2015  function getBalance(address account, address token) external view returns (uint256) {... */\n    tag_17:\n      callvalue\n      dup1\n      iszero\n      tag_100\n      jumpi\n      0x00\n      dup1\n      revert\n    tag_100:\n      pop\n      tag_101\n      0x04\n      dup1\n      calldatasize\n      sub\n      dup2\n      add\n      swap1\n      tag_102\n      swap2\n      swap1\n      tag_65\n      jump\t// in\n    tag_102:\n      tag_103\n      jump\t// in\n    tag_101:\n      mload(0x40)\n      tag_104\n      swap2\n      swap1\n      tag_105\n      jump\t// in\n    tag_104:\n      mload(0x40)\n      dup1\n      swap2\n      sub\n      swap1\n      return\n        /* \"@openzeppelin/contracts-upgradeable/access/AccessControlUpgradeable.sol\":5662:5800  function revokeRole(bytes32 role, address account) public virtual onlyRole(getRoleAdmin(role)) {... */\n    tag_18:\n      callvalue\n      dup1\n      iszero\n      tag_106\n      jumpi\n      0x00\n      dup1\n      revert\n    tag_106:\n      pop\n      tag_107\n      0x04\n      dup1\n      calldatasize\n      sub\n      dup2\n      add\n      swap1\n      tag_108\n      swap2\n      swap1\n      tag_46\n      jump\t// in\n    tag_108:\n      tag_109\n      jump\t// in\n    tag_107:\n      stop\n        /* \"contracts/StablecoinVault.sol\":1721:1861  function withdraw(address token, address recipient, uint256 amount) external {... */\n    tag_19:\n      callvalue\n      dup1\n      iszero\n      tag_110\n      jumpi\n      0x00\n      dup1\n      revert\n    tag_110:\n      pop\n      tag_111\n      0x04\n      dup1\n      calldatasize\n      sub\n      dup2\n      add\n      swap1\n      tag_112\n      swap2\n      swap1\n      tag_113\n      jump\t// in\n    tag_112:\n      tag_114\n      jump\t// in\n    tag_111:\n      stop\n        /* \"contracts/StablecoinVault.sol\":513:579  bytes32 public constant UPGRADER_ROLE = keccak256(\"UPGRADER_ROLE\") */\n    tag_20:\n      callvalue\n      dup1\n      iszero\n      tag_115\n      jumpi\n      0x00\n      dup1\n      revert\n    tag_115:\n      pop\n      tag_116\n      tag_117\n      jump\t// in\n    tag_116:\n      mload(0x40)\n      tag_118\n      swap2\n      swap1\n      tag_42\n      jump\t// in\n    tag_118:\n      mload(0x40)\n      dup1\n      swap2\n      sub\n      swap1\n      return\n        /* \"@openzeppelin/contracts-upgradeable/access/AccessControlUpgradeable.sol\":3443:3645  function supportsInterface(bytes4 interfaceId) public view virtual override returns (bool) {... */\n    tag_28:\n        /* \"@openzeppelin/contracts-upgradeable/access/AccessControlUpgradeable.sol\":3528:3532  bool */\n      0x00\n        /* \"@openzeppelin/contracts-upgradeable/access/AccessControlUpgradeable.sol\":3566:3598  type(IAccessControl).interfaceId */\n      0x7965db0b00000000000000000000000000000000000000000000000000000000\n        /* \"@openzeppelin/contracts-upgradeable/access/AccessControlUpgradeable.sol\":3551:3598  interfaceId == type(IAccessControl).interfaceId */\n      not(0xffffffffffffffffffffffffffffffffffffffffffffffffffffffff)\n      and\n        /* \"@openzeppelin/contracts-upgradeable/access/AccessControlUpgradeable.sol\":3551:3562  interfaceId */\n      dup3\n        /* \"@openzeppelin/contracts-upgradeable/access/AccessControlUpgradeable.sol\":3551:3598  interfaceId == type(IAccessControl).interfaceId */\n      not(0xffffffffffffffffffffffffffffffffffffffffffffffffffffffff)\n      and\n      eq\n        /* \"@openzeppelin/contracts-upgradeable/access/AccessControlUpgradeable.sol\":3551:3638  interfaceId == type(IAccessControl).interfaceId || super.supportsInterface(interfaceId) */\n      dup1\n      tag_120\n      jumpi\n      pop\n        /* \"@openzeppelin/contracts-upgradeable/access/AccessControlUpgradeable.sol\":3602:3638  super.supportsInterface(interfaceId) */\n      tag_121\n        /* \"@openzeppelin/contracts-upgradeable/access/AccessControlUpgradeable.sol\":3626:3637  interfaceId */\n      dup3\n        /* \"@openzeppelin/contracts-upgradeable/access/AccessControlUpgradeable.sol\":3602:3625  super.supportsInterface */\n      tag_122\n        /* \"@openzeppelin/contracts-upgradeable/access/AccessControlUpgradeable.sol\":3602:3638  super.supportsInterface(interfaceId) */\n      jump\t// in\n    tag_121:\n        /* \"@openzeppelin/contracts-upgradeable/access/AccessControlUpgradeable.sol\":3551:3638  interfaceId == type(IAccessControl).interfaceId || super.supportsInterface(interfaceId) */\n    tag_120:\n        /* \"@openzeppelin/contracts-upgradeable/access/AccessControlUpgradeable.sol\":3544:3638  return interfaceId == type(IAccessControl).interfaceId || super.supportsInterface(interfaceId) */\n      swap1\n      pop\n        /* \"@openzeppelin/contracts-upgradeable/access/AccessControlUpgradeable.sol\":3443:3645  function supportsInterface(bytes4 interfaceId) public view virtual override returns (bool) {... */\n      swap2\n      swap1\n      pop\n      jump\t// out\n        /* \"contracts/StablecoinVault.sol\":1255:1403  function setMultisig(address account, bool enabled) external onlyRole(DEFAULT_ADMIN_ROLE) {... */\n    tag_35:\n        /* \"@openzeppelin/contracts-upgradeable/access/AccessControlUpgradeable.sol\":2362:2366  0x00 */\n      0x00\n        /* \"contracts/StablecoinVault.sol\":1325:1343  DEFAULT_ADMIN_ROLE */\n      dup1\n      shl\n        /* \"@openzeppelin/contracts-upgradeable/access/AccessControlUpgradeable.sol\":3191:3207  _checkRole(role) */\n      tag_124\n        /* \"@openzeppelin/contracts-upgradeable/access/AccessControlUpgradeable.sol\":3202:3206  role */\n      dup2\n        /* \"@openzeppelin/contracts-upgradeable/access/AccessControlUpgradeable.sol\":3191:3201  _checkRole */\n      tag_125\n        /* \"@openzeppelin/contracts-upgradeable/access/AccessControlUpgradeable.sol\":3191:3207  _checkRole(role) */\n      jump\t// in\n    tag_124:\n        /* \"contracts/StablecoinVault.sol\":1356:1365  vaultData */\n      0x00\n        /* \"contracts/StablecoinVault.sol\":1356:1377  vaultData.setMultisig */\n      linkerSymbol(\"c686b4266f99eae678e902c2a289beb78f9298df13d92b56868bb010ba7ea514\")\n      0x8defb481\n      swap1\n      swap2\n        /* \"contracts/StablecoinVault.sol\":1378:1385  account */\n      dup6\n        /* \"contracts/StablecoinVault.sol\":1387:1394  enabled */\n      dup6\n        /* \"contracts/StablecoinVault.sol\":1356:1395  vaultData.setMultisig(account, enabled) */\n      mload(0x40)\n      dup5\n      0xffffffff\n      and\n      0xe0\n      shl\n      dup2\n      mstore\n      0x04\n      add\n      tag_127\n      swap4\n      swap3\n      swap2\n      swap1\n      tag_128\n      jump\t// in\n    tag_127:\n      0x00\n      mload(0x40)\n      dup1\n      dup4\n      sub\n      dup2\n      dup7\n      dup1\n      extcodesize\n      iszero\n      dup1\n      iszero\n      tag_129\n      jumpi\n      0x00\n      dup1\n      revert\n    tag_129:\n      pop\n      gas\n      delegatecall\n      iszero\n      dup1\n      iszero\n      tag_131\n      jumpi\n      returndatasize\n      0x00\n      dup1\n      returndatacopy\n      revert(0x00, returndatasize)\n    tag_131:\n      pop\n      pop\n      pop\n      pop\n        /* \"contracts/StablecoinVault.sol\":1255:1403  function setMultisig(address account, bool enabled) external onlyRole(DEFAULT_ADMIN_ROLE) {... */\n      pop\n      pop\n      pop\n      jump\t// out\n        /* \"@openzeppelin/contracts-upgradeable/access/AccessControlUpgradeable.sol\":4759:4950  function getRoleAdmin(bytes32 role) public view virtual returns (bytes32) {... */\n    tag_40:\n        /* \"@openzeppelin/contracts-upgradeable/access/AccessControlUpgradeable.sol\":4824:4831  bytes32 */\n      0x00\n        /* \"@openzeppelin/contracts-upgradeable/access/AccessControlUpgradeable.sol\":4843:4873  AccessControlStorage storage $ */\n      dup1\n        /* \"@openzeppelin/contracts-upgradeable/access/AccessControlUpgradeable.sol\":4876:4902  _getAccessControlStorage() */\n      tag_133\n        /* \"@openzeppelin/contracts-upgradeable/access/AccessControlUpgradeable.sol\":4876:4900  _getAccessControlStorage */\n      tag_134\n        /* \"@openzeppelin/contracts-upgradeable/access/AccessControlUpgradeable.sol\":4876:4902  _getAccessControlStorage() */\n      jump\t// in\n    tag_133:\n        /* \"@openzeppelin/contracts-upgradeable/access/AccessControlUpgradeable.sol\":4843:4902  AccessControlStorage storage $ = _getAccessControlStorage() */\n      swap1\n      pop\n        /* \"@openzeppelin/contracts-upgradeable/access/AccessControlUpgradeable.sol\":4919:4920  $ */\n      dup1\n        /* \"@openzeppelin/contracts-upgradeable/access/AccessControlUpgradeable.sol\":4919:4927  $._roles */\n      0x00\n      add\n        /* \"@openzeppelin/contracts-upgradeable/access/AccessControlUpgradeable.sol\":4919:4933  $._roles[role] */\n      0x00\n        /* \"@openzeppelin/contracts-upgradeable/access/AccessControlUpgradeable.sol\":4928:4932  role */\n      dup5\n        /* \"@openzeppelin/contracts-upgradeable/access/AccessControlUpgradeable.sol\":4919:4933  $._roles[role] */\n      dup2\n      mstore\n      0x20\n      add\n      swap1\n      dup2\n      mstore\n      0x20\n      add\n      0x00\n      keccak256\n        /* \"@openzeppelin/contracts-upgradeable/access/AccessControlUpgradeable.sol\":4919:4943  $._roles[role].adminRole */\n      0x01\n      add\n      sload\n        /* \"@openzeppelin/contracts-upgradeable/access/AccessControlUpgradeable.sol\":4912:4943  return $._roles[role].adminRole */\n      swap2\n      pop\n      pop\n        /* \"@openzeppelin/contracts-upgradeable/access/AccessControlUpgradeable.sol\":4759:4950  function getRoleAdmin(bytes32 role) public view virtual returns (bytes32) {... */\n      swap2\n      swap1\n      pop\n      jump\t// out\n        /* \"@openzeppelin/contracts-upgradeable/access/AccessControlUpgradeable.sol\":5246:5382  function grantRole(bytes32 role, address account) public virtual onlyRole(getRoleAdmin(role)) {... */\n    tag_47:\n        /* \"@openzeppelin/contracts-upgradeable/access/AccessControlUpgradeable.sol\":5320:5338  getRoleAdmin(role) */\n      tag_135\n        /* \"@openzeppelin/contracts-upgradeable/access/AccessControlUpgradeable.sol\":5333:5337  role */\n      dup3\n        /* \"@openzeppelin/contracts-upgradeable/access/AccessControlUpgradeable.sol\":5320:5332  getRoleAdmin */\n      tag_40\n        /* \"@openzeppelin/contracts-upgradeable/access/AccessControlUpgradeable.sol\":5320:5338  getRoleAdmin(role) */\n      jump\t// in\n    tag_135:\n        /* \"@openzeppelin/contracts-upgradeable/access/AccessControlUpgradeable.sol\":3191:3207  _checkRole(role) */\n      tag_137\n        /* \"@openzeppelin/contracts-upgradeable/access/AccessControlUpgradeable.sol\":3202:3206  role */\n      dup2\n        /* \"@openzeppelin/contracts-upgradeable/access/AccessControlUpgradeable.sol\":3191:3201  _checkRole */\n      tag_125\n        /* \"@openzeppelin/contracts-upgradeable/access/AccessControlUpgradeable.sol\":3191:3207  _checkRole(role) */\n      jump\t// in\n    tag_137:\n        /* \"@openzeppelin/contracts-upgradeable/access/AccessControlUpgradeable.sol\":5350:5375  _grantRole(role, account) */\n      tag_139\n        /* \"@openzeppelin/contracts-upgradeable/access/AccessControlUpgradeable.sol\":5361:5365  role */\n      dup4\n        /* \"@openzeppelin/contracts-upgradeable/access/AccessControlUpgradeable.sol\":5367:5374  account */\n      dup4\n        /* \"@openzeppelin/contracts-upgradeable/access/AccessControlUpgradeable.sol\":5350:5360  _grantRole */\n      tag_140\n        /* \"@openzeppelin/contracts-upgradeable/access/AccessControlUpgradeable.sol\":5350:5375  _grantRole(role, account) */\n      jump\t// in\n    tag_139:\n      pop\n        /* \"@openzeppelin/contracts-upgradeable/access/AccessControlUpgradeable.sol\":5246:5382  function grantRole(bytes32 role, address account) public virtual onlyRole(getRoleAdmin(role)) {... */\n      pop\n      pop\n      pop\n      jump\t// out\n        /* \"@openzeppelin/contracts-upgradeable/access/AccessControlUpgradeable.sol\":6348:6593  function renounceRole(bytes32 role, address callerConfirmation) public virtual {... */\n    tag_51:\n        /* \"@openzeppelin/contracts-upgradeable/access/AccessControlUpgradeable.sol\":6463:6475  _msgSender() */\n      tag_142\n        /* \"@openzeppelin/contracts-upgradeable/access/AccessControlUpgradeable.sol\":6463:6473  _msgSender */\n      tag_143\n        /* \"@openzeppelin/contracts-upgradeable/access/AccessControlUpgradeable.sol\":6463:6475  _msgSender() */\n      jump\t// in\n    tag_142:\n        /* \"@openzeppelin/contracts-upgradeable/access/AccessControlUpgradeable.sol\":6441:6475  callerConfirmation != _msgSender() */\n      0xffffffffffffffffffffffffffffffffffffffff\n      and\n        /* \"@openzeppelin/contracts-upgradeable/access/AccessControlUpgradeable.sol\":6441:6459  callerConfirmation */\n      dup2\n        /* \"@openzeppelin/contracts-upgradeable/access/AccessControlUpgradeable.sol\":6441:6475  callerConfirmation != _msgSender() */\n      0xffffffffffffffffffffffffffffffffffffffff\n      and\n      eq\n        /* \"@openzeppelin/contracts-upgradeable/access/AccessControlUpgradeable.sol\":6437:6539  if (callerConfirmation != _msgSender()) {... */\n      tag_144\n      jumpi\n        /* \"@openzeppelin/contracts-upgradeable/access/AccessControlUpgradeable.sol\":6498:6528  AccessControlBadConfirmation() */\n      mload(0x40)\n      0x6697b23200000000000000000000000000000000000000000000000000000000\n      dup2\n      mstore\n      0x04\n      add\n      mload(0x40)\n      dup1\n      swap2\n      sub\n      swap1\n      revert\n        /* \"@openzeppelin/contracts-upgradeable/access/AccessControlUpgradeable.sol\":6437:6539  if (callerConfirmation != _msgSender()) {... */\n    tag_144:\n        /* \"@openzeppelin/contracts-upgradeable/access/AccessControlUpgradeable.sol\":6549:6586  _revokeRole(role, callerConfirmation) */\n      tag_145\n        /* \"@openzeppelin/contracts-upgradeable/access/AccessControlUpgradeable.sol\":6561:6565  role */\n      dup3\n        /* \"@openzeppelin/contracts-upgradeable/access/AccessControlUpgradeable.sol\":6567:6585  callerConfirmation */\n      dup3\n        /* \"@openzeppelin/contracts-upgradeable/access/AccessControlUpgradeable.sol\":6549:6560  _revokeRole */\n      tag_146\n        /* \"@openzeppelin/contracts-upgradeable/access/AccessControlUpgradeable.sol\":6549:6586  _revokeRole(role, callerConfirmation) */\n      jump\t// in\n    tag_145:\n      pop\n        /* \"@openzeppelin/contracts-upgradeable/access/AccessControlUpgradeable.sol\":6348:6593  function renounceRole(bytes32 role, address callerConfirmation) public virtual {... */\n      pop\n      pop\n      jump\t// out\n        /* \"contracts/StablecoinVault.sol\":1411:1545  function setMultisigThreshold(uint256 multisigThreshold) external {... */\n    tag_56:\n        /* \"contracts/StablecoinVault.sol\":1488:1497  vaultData */\n      0x00\n        /* \"contracts/StablecoinVault.sol\":1488:1518  vaultData.setMultisigThreshold */\n      linkerSymbol(\"c686b4266f99eae678e902c2a289beb78f9298df13d92b56868bb010ba7ea514\")\n      0x2422feb9\n      swap1\n      swap2\n        /* \"contracts/StablecoinVault.sol\":1519:1536  multisigThreshold */\n      dup4\n        /* \"contracts/StablecoinVault.sol\":1488:1537  vaultData.setMultisigThreshold(multisigThreshold) */\n      mload(0x40)\n      dup4\n      0xffffffff\n      and\n      0xe0\n      shl\n      dup2\n      mstore\n      0x04\n      add\n      tag_148\n      swap3\n      swap2\n      swap1\n      tag_149\n      jump\t// in\n    tag_148:\n      0x00\n      mload(0x40)\n      dup1\n      dup4\n      sub\n      dup2\n      dup7\n      dup1\n      extcodesize\n      iszero\n      dup1\n      iszero\n      tag_150\n      jumpi\n      0x00\n      dup1\n      revert\n    tag_150:\n      pop\n      gas\n      delegatecall\n      iszero\n      dup1\n      iszero\n      tag_152\n      jumpi\n      returndatasize\n      0x00\n      dup1\n      returndatacopy\n      revert(0x00, returndatasize)\n    tag_152:\n      pop\n      pop\n      pop\n      pop\n        /* \"contracts/StablecoinVault.sol\":1411:1545  function setMultisigThreshold(uint256 multisigThreshold) external {... */\n      pop\n      jump\t// out\n        /* \"contracts/StablecoinVault.sol\":1553:1713  function deposit(address token, uint256 amount) external {... */\n    tag_61:\n        /* \"contracts/StablecoinVault.sol\":1673:1682  vaultData */\n      0x00\n        /* \"contracts/StablecoinVault.sol\":1673:1690  vaultData.deposit */\n      linkerSymbol(\"c686b4266f99eae678e902c2a289beb78f9298df13d92b56868bb010ba7ea514\")\n      0x96e11fc3\n      swap1\n      swap2\n        /* \"contracts/StablecoinVault.sol\":1691:1696  token */\n      dup5\n        /* \"contracts/StablecoinVault.sol\":1698:1704  amount */\n      dup5\n        /* \"contracts/StablecoinVault.sol\":1673:1705  vaultData.deposit(token, amount) */\n      mload(0x40)\n      dup5\n      0xffffffff\n      and\n      0xe0\n      shl\n      dup2\n      mstore\n      0x04\n      add\n      tag_154\n      swap4\n      swap3\n      swap2\n      swap1\n      tag_155\n      jump\t// in\n    tag_154:\n      0x00\n      mload(0x40)\n      dup1\n      dup4\n      sub\n      dup2\n      dup7\n      dup1\n      extcodesize\n      iszero\n      dup1\n      iszero\n      tag_156\n      jumpi\n      0x00\n      dup1\n      revert\n    tag_156:\n      pop\n      gas\n      delegatecall\n      iszero\n      dup1\n      iszero\n      tag_158\n      jumpi\n      returndatasize\n      0x00\n      dup1\n      returndatacopy\n      revert(0x00, returndatasize)\n    tag_158:\n      pop\n      pop\n      pop\n      pop\n        /* \"contracts/StablecoinVault.sol\":1553:1713  function deposit(address token, uint256 amount) external {... */\n      pop\n      pop\n      jump\t// out\n        /* \"contracts/StablecoinVault.sol\":831:1103  function initialize(address defaultAdmin, address upgrader)... */\n    tag_66:\n        /* \"@openzeppelin/contracts-upgradeable/proxy/utils/Initializable.sol\":4158:4188  InitializableStorage storage $ */\n      0x00\n        /* \"@openzeppelin/contracts-upgradeable/proxy/utils/Initializable.sol\":4191:4217  _getInitializableStorage() */\n      tag_160\n        /* \"@openzeppelin/contracts-upgradeable/proxy/utils/Initializable.sol\":4191:4215  _getInitializableStorage */\n      tag_161\n        /* \"@openzeppelin/contracts-upgradeable/proxy/utils/Initializable.sol\":4191:4217  _getInitializableStorage() */\n      jump\t// in\n    tag_160:\n        /* \"@openzeppelin/contracts-upgradeable/proxy/utils/Initializable.sol\":4158:4217  InitializableStorage storage $ = _getInitializableStorage() */\n      swap1\n      pop\n        /* \"@openzeppelin/contracts-upgradeable/proxy/utils/Initializable.sol\":4279:4298  bool isTopLevelCall */\n      0x00\n        /* \"@openzeppelin/contracts-upgradeable/proxy/utils/Initializable.sol\":4302:4303  $ */\n      dup2\n        /* \"@openzeppelin/contracts-upgradeable/proxy/utils/Initializable.sol\":4302:4317  $._initializing */\n      0x00\n      add\n      0x08\n      swap1\n      sload\n      swap1\n      0x0100\n      exp\n      swap1\n      div\n      0xff\n      and\n        /* \"@openzeppelin/contracts-upgradeable/proxy/utils/Initializable.sol\":4301:4317  !$._initializing */\n      iszero\n        /* \"@openzeppelin/contracts-upgradeable/proxy/utils/Initializable.sol\":4279:4317  bool isTopLevelCall = !$._initializing */\n      swap1\n      pop\n        /* \"@openzeppelin/contracts-upgradeable/proxy/utils/Initializable.sol\":4327:4345  uint64 initialized */\n      0x00\n        /* \"@openzeppelin/contracts-upgradeable/proxy/utils/Initializable.sol\":4348:4349  $ */\n      dup3\n        /* \"@openzeppelin/contracts-upgradeable/proxy/utils/Initializable.sol\":4348:4362  $._initialized */\n      0x00\n      add\n      0x00\n      swap1\n      sload\n      swap1\n      0x0100\n      exp\n      swap1\n      div\n      0xffffffffffffffff\n      and\n        /* \"@openzeppelin/contracts-upgradeable/proxy/utils/Initializable.sol\":4327:4362  uint64 initialized = $._initialized */\n      swap1\n      pop\n        /* \"@openzeppelin/contracts-upgradeable/proxy/utils/Initializable.sol\":4706:4723  bool initialSetup */\n      0x00\n        /* \"@openzeppelin/contracts-upgradeable/proxy/utils/Initializable.sol\":4741:4742  0 */\n      dup1\n        /* \"@openzeppelin/contracts-upgradeable/proxy/utils/Initializable.sol\":4726:4737  initialized */\n      dup3\n        /* \"@openzeppelin/contracts-upgradeable/proxy/utils/Initializable.sol\":4726:4742  initialized == 0 */\n      0xffffffffffffffff\n      and\n      eq\n        /* \"@openzeppelin/contracts-upgradeable/proxy/utils/Initializable.sol\":4726:4760  initialized == 0 && isTopLevelCall */\n      dup1\n      iszero\n      tag_162\n      jumpi\n      pop\n        /* \"@openzeppelin/contracts-upgradeable/proxy/utils/Initializable.sol\":4746:4760  isTopLevelCall */\n      dup3\n        /* \"@openzeppelin/contracts-upgradeable/proxy/utils/Initializable.sol\":4726:4760  initialized == 0 && isTopLevelCall */\n    tag_162:\n        /* \"@openzeppelin/contracts-upgradeable/proxy/utils/Initializable.sol\":4706:4760  bool initialSetup = initialized == 0 && isTopLevelCall */\n      swap1\n      pop\n        /* \"@openzeppelin/contracts-upgradeable/proxy/utils/Initializable.sol\":4770:4787  bool construction */\n      0x00\n        /* \"@openzeppelin/contracts-upgradeable/proxy/utils/Initializable.sol\":4805:4806  1 */\n      0x01\n        /* \"@openzeppelin/contracts-upgradeable/proxy/utils/Initializable.sol\":4790:4801  initialized */\n      dup4\n        /* \"@openzeppelin/contracts-upgradeable/proxy/utils/Initializable.sol\":4790:4806  initialized == 1 */\n      0xffffffffffffffff\n      and\n      eq\n        /* \"@openzeppelin/contracts-upgradeable/proxy/utils/Initializable.sol\":4790:4840  initialized == 1 && address(this).code.length == 0 */\n      dup1\n      iszero\n      tag_163\n      jumpi\n      pop\n        /* \"@openzeppelin/contracts-upgradeable/proxy/utils/Initializable.sol\":4839:4840  0 */\n      0x00\n        /* \"@openzeppelin/contracts-upgradeable/proxy/utils/Initializable.sol\":4818:4822  this */\n      address\n        /* \"@openzeppelin/contracts-upgradeable/proxy/utils/Initializable.sol\":4810:4835  address(this).code.length */\n      0xffffffffffffffffffffffffffffffffffffffff\n      and\n      extcodesize\n        /* \"@openzeppelin/contracts-upgradeable/proxy/utils/Initializable.sol\":4810:4840  address(this).code.length == 0 */\n      eq\n        /* \"@openzeppelin/contracts-upgradeable/proxy/utils/Initializable.sol\":4790:4840  initialized == 1 && address(this).code.length == 0 */\n    tag_163:\n        /* \"@openzeppelin/contracts-upgradeable/proxy/utils/Initializable.sol\":4770:4840  bool construction = initialized == 1 && address(this).code.length == 0 */\n      swap1\n      pop\n        /* \"@openzeppelin/contracts-upgradeable/proxy/utils/Initializable.sol\":4856:4868  initialSetup */\n      dup2\n        /* \"@openzeppelin/contracts-upgradeable/proxy/utils/Initializable.sol\":4855:4868  !initialSetup */\n      iszero\n        /* \"@openzeppelin/contracts-upgradeable/proxy/utils/Initializable.sol\":4855:4885  !initialSetup && !construction */\n      dup1\n      iszero\n      tag_164\n      jumpi\n      pop\n        /* \"@openzeppelin/contracts-upgradeable/proxy/utils/Initializable.sol\":4873:4885  construction */\n      dup1\n        /* \"@openzeppelin/contracts-upgradeable/proxy/utils/Initializable.sol\":4872:4885  !construction */\n      iszero\n        /* \"@openzeppelin/contracts-upgradeable/proxy/utils/Initializable.sol\":4855:4885  !initialSetup && !construction */\n    tag_164:\n        /* \"@openzeppelin/contracts-upgradeable/proxy/utils/Initializable.sol\":4851:4942  if (!initialSetup && !construction) {... */\n      iszero\n      tag_165\n      jumpi\n        /* \"@openzeppelin/contracts-upgradeable/proxy/utils/Initializable.sol\":4908:4931  InvalidInitialization() */\n      mload(0x40)\n      0xf92ee8a900000000000000000000000000000000000000000000000000000000\n      dup2\n      mstore\n      0x04\n      add\n      mload(0x40)\n      dup1\n      swap2\n      sub\n      swap1\n      revert\n        /* \"@openzeppelin/contracts-upgradeable/proxy/utils/Initializable.sol\":4851:4942  if (!initialSetup && !construction) {... */\n    tag_165:\n        /* \"@openzeppelin/contracts-upgradeable/proxy/utils/Initializable.sol\":4968:4969  1 */\n      0x01\n        /* \"@openzeppelin/contracts-upgradeable/proxy/utils/Initializable.sol\":4951:4952  $ */\n      dup6\n        /* \"@openzeppelin/contracts-upgradeable/proxy/utils/Initializable.sol\":4951:4965  $._initialized */\n      0x00\n      add\n      0x00\n        /* \"@openzeppelin/contracts-upgradeable/proxy/utils/Initializable.sol\":4951:4969  $._initialized = 1 */\n      0x0100\n      exp\n      dup2\n      sload\n      dup2\n      0xffffffffffffffff\n      mul\n      not\n      and\n      swap1\n      dup4\n      0xffffffffffffffff\n      and\n      mul\n      or\n      swap1\n      sstore\n      pop\n        /* \"@openzeppelin/contracts-upgradeable/proxy/utils/Initializable.sol\":4983:4997  isTopLevelCall */\n      dup4\n        /* \"@openzeppelin/contracts-upgradeable/proxy/utils/Initializable.sol\":4979:5046  if (isTopLevelCall) {... */\n      iszero\n      tag_166\n      jumpi\n        /* \"@openzeppelin/contracts-upgradeable/proxy/utils/Initializable.sol\":5031:5035  true */\n      0x01\n        /* \"@openzeppelin/contracts-upgradeable/proxy/utils/Initializable.sol\":5013:5014  $ */\n      dup6\n        /* \"@openzeppelin/contracts-upgradeable/proxy/utils/Initializable.sol\":5013:5028  $._initializing */\n      0x00\n      add\n      0x08\n        /* \"@openzeppelin/contracts-upgradeable/proxy/utils/Initializable.sol\":5013:5035  $._initializing = true */\n      0x0100\n      exp\n      dup2\n      sload\n      dup2\n      0xff\n      mul\n      not\n      and\n      swap1\n      dup4\n      iszero\n      iszero\n      mul\n      or\n      swap1\n      sstore\n      pop\n        /* \"@openzeppelin/contracts-upgradeable/proxy/utils/Initializable.sol\":4979:5046  if (isTopLevelCall) {... */\n    tag_166:\n        /* \"contracts/StablecoinVault.sol\":935:957  __AccessControl_init() */\n      tag_168\n        /* \"contracts/StablecoinVault.sol\":935:955  __AccessControl_init */\n      tag_169\n        /* \"contracts/StablecoinVault.sol\":935:957  __AccessControl_init() */\n      jump\t// in\n    tag_168:\n        /* \"contracts/StablecoinVault.sol\":968:992  __UUPSUpgradeable_init() */\n      tag_170\n        /* \"contracts/StablecoinVault.sol\":968:990  __UUPSUpgradeable_init */\n      tag_171\n        /* \"contracts/StablecoinVault.sol\":968:992  __UUPSUpgradeable_init() */\n      jump\t// in\n    tag_170:\n        /* \"contracts/StablecoinVault.sol\":1005:1049  _grantRole(DEFAULT_ADMIN_ROLE, defaultAdmin) */\n      tag_172\n        /* \"@openzeppelin/contracts-upgradeable/access/AccessControlUpgradeable.sol\":2362:2366  0x00 */\n      0x00\n        /* \"contracts/StablecoinVault.sol\":1016:1034  DEFAULT_ADMIN_ROLE */\n      dup1\n      shl\n        /* \"contracts/StablecoinVault.sol\":1036:1048  defaultAdmin */\n      dup9\n        /* \"contracts/StablecoinVault.sol\":1005:1015  _grantRole */\n      tag_140\n        /* \"contracts/StablecoinVault.sol\":1005:1049  _grantRole(DEFAULT_ADMIN_ROLE, defaultAdmin) */\n      jump\t// in\n    tag_172:\n      pop\n        /* \"contracts/StablecoinVault.sol\":1060:1095  _grantRole(UPGRADER_ROLE, upgrader) */\n      tag_173\n        /* \"contracts/StablecoinVault.sol\":553:579  keccak256(\"UPGRADER_ROLE\") */\n      0x189ab7a9244df0848122154315af71fe140f3db0fe014031783b0946b8c9d2e3\n        /* \"contracts/StablecoinVault.sol\":1086:1094  upgrader */\n      dup8\n        /* \"contracts/StablecoinVault.sol\":1060:1070  _grantRole */\n      tag_140\n        /* \"contracts/StablecoinVault.sol\":1060:1095  _grantRole(UPGRADER_ROLE, upgrader) */\n      jump\t// in\n    tag_173:\n      pop\n        /* \"@openzeppelin/contracts-upgradeable/proxy/utils/Initializable.sol\":5070:5084  isTopLevelCall */\n      dup4\n        /* \"@openzeppelin/contracts-upgradeable/proxy/utils/Initializable.sol\":5066:5167  if (isTopLevelCall) {... */\n      iszero\n      tag_174\n      jumpi\n        /* \"@openzeppelin/contracts-upgradeable/proxy/utils/Initializable.sol\":5118:5123  false */\n      0x00\n        /* \"@openzeppelin/contracts-upgradeable/proxy/utils/Initializable.sol\":5100:5101  $ */\n      dup6\n        /* \"@openzeppelin/contracts-upgradeable/proxy/utils/Initializable.sol\":5100:5115  $._initializing */\n      0x00\n      add\n      0x08\n        /* \"@openzeppelin/contracts-upgradeable/proxy/utils/Initializable.sol\":5100:5123  $._initializing = false */\n      0x0100\n      exp\n      dup2\n      sload\n      dup2\n      0xff\n      mul\n      not\n      and\n      swap1\n      dup4\n      iszero\n      iszero\n      mul\n      or\n      swap1\n      sstore\n      pop\n        /* \"@openzeppelin/contracts-upgradeable/proxy/utils/Initializable.sol\":5142:5156  Initialized(1) */\n      0xc7f505b2f371ae2175ee4913f4499e1f2633a7b5936321eed1cdaeb6115181d2\n        /* \"@openzeppelin/contracts-upgradeable/proxy/utils/Initializable.sol\":5154:5155  1 */\n      0x01\n        /* \"@openzeppelin/contracts-upgradeable/proxy/utils/Initializable.sol\":5142:5156  Initialized(1) */\n      mload(0x40)\n      tag_175\n      swap2\n      swap1\n      tag_176\n      jump\t// in\n    tag_175:\n      mload(0x40)\n      dup1\n      swap2\n      sub\n      swap1\n      log1\n        /* \"@openzeppelin/contracts-upgradeable/proxy/utils/Initializable.sol\":5066:5167  if (isTopLevelCall) {... */\n    tag_174:\n        /* \"@openzeppelin/contracts-upgradeable/proxy/utils/Initializable.sol\":4092:5173  {... */\n      pop\n      pop\n      pop\n      pop\n      pop\n        /* \"contracts/StablecoinVault.sol\":831:1103  function initialize(address defaultAdmin, address upgrader)... */\n      pop\n      pop\n      jump\t// out\n        /* \"@openzeppelin/contracts-upgradeable/proxy/utils/UUPSUpgradeable.sol\":4158:4372  function upgradeToAndCall(address newImplementation, bytes memory data) public payable virtual onlyProxy {... */\n    tag_70:\n        /* \"@openzeppelin/contracts-upgradeable/proxy/utils/UUPSUpgradeable.sol\":2653:2666  _checkProxy() */\n      tag_178\n        /* \"@openzeppelin/contracts-upgradeable/proxy/utils/UUPSUpgradeable.sol\":2653:2664  _checkProxy */\n      tag_179\n        /* \"@openzeppelin/contracts-upgradeable/proxy/utils/UUPSUpgradeable.sol\":2653:2666  _checkProxy() */\n      jump\t// in\n    tag_178:\n        /* \"@openzeppelin/contracts-upgradeable/proxy/utils/UUPSUpgradeable.sol\":4273:4309  _authorizeUpgrade(newImplementation) */\n      tag_181\n        /* \"@openzeppelin/contracts-upgradeable/proxy/utils/UUPSUpgradeable.sol\":4291:4308  newImplementation */\n      dup3\n        /* \"@openzeppelin/contracts-upgradeable/proxy/utils/UUPSUpgradeable.sol\":4273:4290  _authorizeUpgrade */\n      tag_182\n        /* \"@openzeppelin/contracts-upgradeable/proxy/utils/UUPSUpgradeable.sol\":4273:4309  _authorizeUpgrade(newImplementation) */\n      jump\t// in\n    tag_181:\n        /* \"@openzeppelin/contracts-upgradeable/proxy/utils/UUPSUpgradeable.sol\":4319:4365  _upgradeToAndCallUUPS(newImplementation, data) */\n      tag_183\n        /* \"@openzeppelin/contracts-upgradeable/proxy/utils/UUPSUpgradeable.sol\":4341:4358  newImplementation */\n      dup3\n        /* \"@openzeppelin/contracts-upgradeable/proxy/utils/UUPSUpgradeable.sol\":4360:4364  data */\n      dup3\n        /* \"@openzeppelin/contracts-upgradeable/proxy/utils/UUPSUpgradeable.sol\":4319:4340  _upgradeToAndCallUUPS */\n      tag_184\n        /* \"@openzeppelin/contracts-upgradeable/proxy/utils/UUPSUpgradeable.sol\":4319:4365  _upgradeToAndCallUUPS(newImplementation, data) */\n      jump\t// in\n    tag_183:\n        /* \"@openzeppelin/contracts-upgradeable/proxy/utils/UUPSUpgradeable.sol\":4158:4372  function upgradeToAndCall(address newImplementation, bytes memory data) public payable virtual onlyProxy {... */\n      pop\n      pop\n      jump\t// out\n        /* \"@openzeppelin/contracts-upgradeable/proxy/utils/UUPSUpgradeable.sol\":3705:3839  function proxiableUUID() external view virtual notDelegated returns (bytes32) {... */\n    tag_73:\n        /* \"@openzeppelin/contracts-upgradeable/proxy/utils/UUPSUpgradeable.sol\":3774:3781  bytes32 */\n      0x00\n        /* \"@openzeppelin/contracts-upgradeable/proxy/utils/UUPSUpgradeable.sol\":2924:2944  _checkNotDelegated() */\n      tag_186\n        /* \"@openzeppelin/contracts-upgradeable/proxy/utils/UUPSUpgradeable.sol\":2924:2942  _checkNotDelegated */\n      tag_187\n        /* \"@openzeppelin/contracts-upgradeable/proxy/utils/UUPSUpgradeable.sol\":2924:2944  _checkNotDelegated() */\n      jump\t// in\n    tag_186:\n        /* \"@openzeppelin/contracts/proxy/ERC1967/ERC1967Utils.sol\":1327:1393  0x360894a13ba1a3210667c828492db98dca3e2076cc3735a920a3ca505d382bbc */\n      0x360894a13ba1a3210667c828492db98dca3e2076cc3735a920a3ca505d382bbc\n        /* \"@openzeppelin/contracts-upgradeable/proxy/utils/UUPSUpgradeable.sol\":3800:3832  ERC1967Utils.IMPLEMENTATION_SLOT */\n      0x00\n      shl\n        /* \"@openzeppelin/contracts-upgradeable/proxy/utils/UUPSUpgradeable.sol\":3793:3832  return ERC1967Utils.IMPLEMENTATION_SLOT */\n      swap1\n      pop\n        /* \"@openzeppelin/contracts-upgradeable/proxy/utils/UUPSUpgradeable.sol\":3705:3839  function proxiableUUID() external view virtual notDelegated returns (bytes32) {... */\n      swap1\n      jump\t// out\n        /* \"contracts/StablecoinVault.sol\":2023:2193  function getBalances(address account, address[] calldata tokens) external view returns (uint256[] memory) {... */\n    tag_79:\n        /* \"contracts/StablecoinVault.sol\":2111:2127  uint256[] memory */\n      0x60\n        /* \"contracts/StablecoinVault.sol\":2147:2156  vaultData */\n      0x00\n        /* \"contracts/StablecoinVault.sol\":2147:2168  vaultData.getBalances */\n      linkerSymbol(\"c686b4266f99eae678e902c2a289beb78f9298df13d92b56868bb010ba7ea514\")\n      0xceab90\n      swap1\n      swap2\n        /* \"contracts/StablecoinVault.sol\":2169:2176  account */\n      dup7\n        /* \"contracts/StablecoinVault.sol\":2178:2184  tokens */\n      dup7\n      dup7\n        /* \"contracts/StablecoinVault.sol\":2147:2185  vaultData.getBalances(account, tokens) */\n      mload(0x40)\n      dup6\n      0xffffffff\n      and\n      0xe0\n      shl\n      dup2\n      mstore\n      0x04\n      add\n      tag_190\n      swap5\n      swap4\n      swap3\n      swap2\n      swap1\n      tag_191\n      jump\t// in\n    tag_190:\n      0x00\n      mload(0x40)\n      dup1\n      dup4\n      sub\n      dup2\n      dup7\n      gas\n      delegatecall\n      iszero\n      dup1\n      iszero\n      tag_193\n      jumpi\n      returndatasize\n      0x00\n      dup1\n      returndatacopy\n      revert(0x00, returndatasize)\n    tag_193:\n      pop\n      pop\n      pop\n      pop\n      mload(0x40)\n      returndatasize\n      0x00\n      dup3\n      returndatacopy\n      returndatasize\n      not(0x1f)\n      0x1f\n      dup3\n      add\n      and\n      dup3\n      add\n      dup1\n      0x40\n      mstore\n      pop\n      dup2\n      add\n      swap1\n      tag_194\n      swap2\n      swap1\n      tag_195\n      jump\t// in\n    tag_194:\n        /* \"contracts/StablecoinVault.sol\":2140:2185  return vaultData.getBalances(account, tokens) */\n      swap1\n      pop\n        /* \"contracts/StablecoinVault.sol\":2023:2193  function getBalances(address account, address[] calldata tokens) external view returns (uint256[] memory) {... */\n      swap4\n      swap3\n      pop\n      pop\n      pop\n      jump\t// out\n        /* \"contracts/StablecoinVault.sol\":1111:1247  function initVault(uint256 multisigThreshold) external onlyRole(DEFAULT_ADMIN_ROLE) {... */\n    tag_85:\n        /* \"@openzeppelin/contracts-upgradeable/access/AccessControlUpgradeable.sol\":2362:2366  0x00 */\n      0x00\n        /* \"contracts/StablecoinVault.sol\":1175:1193  DEFAULT_ADMIN_ROLE */\n      dup1\n      shl\n        /* \"@openzeppelin/contracts-upgradeable/access/AccessControlUpgradeable.sol\":3191:3207  _checkRole(role) */\n      tag_197\n        /* \"@openzeppelin/contracts-upgradeable/access/AccessControlUpgradeable.sol\":3202:3206  role */\n      dup2\n        /* \"@openzeppelin/contracts-upgradeable/access/AccessControlUpgradeable.sol\":3191:3201  _checkRole */\n      tag_125\n        /* \"@openzeppelin/contracts-upgradeable/access/AccessControlUpgradeable.sol\":3191:3207  _checkRole(role) */\n      jump\t// in\n    tag_197:\n        /* \"contracts/StablecoinVault.sol\":1206:1215  vaultData */\n      0x00\n        /* \"contracts/StablecoinVault.sol\":1206:1220  vaultData.init */\n      linkerSymbol(\"c686b4266f99eae678e902c2a289beb78f9298df13d92b56868bb010ba7ea514\")\n      0x5fc707ce\n      swap1\n      swap2\n        /* \"contracts/StablecoinVault.sol\":1221:1238  multisigThreshold */\n      dup5\n        /* \"contracts/StablecoinVault.sol\":1206:1239  vaultData.init(multisigThreshold) */\n      mload(0x40)\n      dup4\n      0xffffffff\n      and\n      0xe0\n      shl\n      dup2\n      mstore\n      0x04\n      add\n      tag_199\n      swap3\n      swap2\n      swap1\n      tag_149\n      jump\t// in\n    tag_199:\n      0x00\n      mload(0x40)\n      dup1\n      dup4\n      sub\n      dup2\n      dup7\n      dup1\n      extcodesize\n      iszero\n      dup1\n      iszero\n      tag_200\n      jumpi\n      0x00\n      dup1\n      revert\n    tag_200:\n      pop\n      gas\n      delegatecall\n      iszero\n      dup1\n      iszero\n      tag_202\n      jumpi\n      returndatasize\n      0x00\n      dup1\n      returndatacopy\n      revert(0x00, returndatasize)\n    tag_202:\n      pop\n      pop\n      pop\n      pop\n        /* \"contracts/StablecoinVault.sol\":1111:1247  function initVault(uint256 multisigThreshold) external onlyRole(DEFAULT_ADMIN_ROLE) {... */\n      pop\n      pop\n      jump\t// out\n        /* \"@openzeppelin/contracts-upgradeable/access/AccessControlUpgradeable.sol\":3732:3939  function hasRole(bytes32 role, address account) public view virtual returns (bool) {... */\n    tag_89:\n        /* \"@openzeppelin/contracts-upgradeable/access/AccessControlUpgradeable.sol\":3809:3813  bool */\n      0x00\n        /* \"@openzeppelin/contracts-upgradeable/access/AccessControlUpgradeable.sol\":3825:3855  AccessControlStorage storage $ */\n      dup1\n        /* \"@openzeppelin/contracts-upgradeable/access/AccessControlUpgradeable.sol\":3858:3884  _getAccessControlStorage() */\n      tag_204\n        /* \"@openzeppelin/contracts-upgradeable/access/AccessControlUpgradeable.sol\":3858:3882  _getAccessControlStorage */\n      tag_134\n        /* \"@openzeppelin/contracts-upgradeable/access/AccessControlUpgradeable.sol\":3858:3884  _getAccessControlStorage() */\n      jump\t// in\n    tag_204:\n        /* \"@openzeppelin/contracts-upgradeable/access/AccessControlUpgradeable.sol\":3825:3884  AccessControlStorage storage $ = _getAccessControlStorage() */\n      swap1\n      pop\n        /* \"@openzeppelin/contracts-upgradeable/access/AccessControlUpgradeable.sol\":3901:3902  $ */\n      dup1\n        /* \"@openzeppelin/contracts-upgradeable/access/AccessControlUpgradeable.sol\":3901:3909  $._roles */\n      0x00\n      add\n        /* \"@openzeppelin/contracts-upgradeable/access/AccessControlUpgradeable.sol\":3901:3915  $._roles[role] */\n      0x00\n        /* \"@openzeppelin/contracts-upgradeable/access/AccessControlUpgradeable.sol\":3910:3914  role */\n      dup6\n        /* \"@openzeppelin/contracts-upgradeable/access/AccessControlUpgradeable.sol\":3901:3915  $._roles[role] */\n      dup2\n      mstore\n      0x20\n      add\n      swap1\n      dup2\n      mstore\n      0x20\n      add\n      0x00\n      keccak256\n        /* \"@openzeppelin/contracts-upgradeable/access/AccessControlUpgradeable.sol\":3901:3923  $._roles[role].hasRole */\n      0x00\n      add\n        /* \"@openzeppelin/contracts-upgradeable/access/AccessControlUpgradeable.sol\":3901:3932  $._roles[role].hasRole[account] */\n      0x00\n        /* \"@openzeppelin/contracts-upgradeable/access/AccessControlUpgradeable.sol\":3924:3931  account */\n      dup5\n        /* \"@openzeppelin/contracts-upgradeable/access/AccessControlUpgradeable.sol\":3901:3932  $._roles[role].hasRole[account] */\n      0xffffffffffffffffffffffffffffffffffffffff\n      and\n      0xffffffffffffffffffffffffffffffffffffffff\n      and\n      dup2\n      mstore\n      0x20\n      add\n      swap1\n      dup2\n      mstore\n      0x20\n      add\n      0x00\n      keccak256\n      0x00\n      swap1\n      sload\n      swap1\n      0x0100\n      exp\n      swap1\n      div\n      0xff\n      and\n        /* \"@openzeppelin/contracts-upgradeable/access/AccessControlUpgradeable.sol\":3894:3932  return $._roles[role].hasRole[account] */\n      swap2\n      pop\n      pop\n        /* \"@openzeppelin/contracts-upgradeable/access/AccessControlUpgradeable.sol\":3732:3939  function hasRole(bytes32 role, address account) public view virtual returns (bool) {... */\n      swap3\n      swap2\n      pop\n      pop\n      jump\t// out\n        /* \"@openzeppelin/contracts-upgradeable/access/AccessControlUpgradeable.sol\":2317:2366  bytes32 public constant DEFAULT_ADMIN_ROLE = 0x00 */\n    tag_93:\n        /* \"@openzeppelin/contracts-upgradeable/access/AccessControlUpgradeable.sol\":2362:2366  0x00 */\n      0x00\n        /* \"@openzeppelin/contracts-upgradeable/access/AccessControlUpgradeable.sol\":2317:2366  bytes32 public constant DEFAULT_ADMIN_ROLE = 0x00 */\n      dup1\n      shl\n      dup2\n      jump\t// out\n        /* \"@openzeppelin/contracts-upgradeable/proxy/utils/UUPSUpgradeable.sol\":1819:1877  string public constant UPGRADE_INTERFACE_VERSION = \"5.0.0\" */\n    tag_97:\n      mload(0x40)\n      dup1\n      0x40\n      add\n      0x40\n      mstore\n      dup1\n      0x05\n      dup2\n      mstore\n      0x20\n      add\n      0x352e302e30000000000000000000000000000000000000000000000000000000\n      dup2\n      mstore\n      pop\n      dup2\n      jump\t// out\n        /* \"contracts/StablecoinVault.sol\":1869:2015  function getBalance(address account, address token) external view returns (uint256) {... */\n    tag_103:\n        /* \"contracts/StablecoinVault.sol\":1944:1951  uint256 */\n      0x00\n        /* \"contracts/StablecoinVault.sol\":1971:1980  vaultData */\n      dup1\n        /* \"contracts/StablecoinVault.sol\":1971:1991  vaultData.getBalance */\n      linkerSymbol(\"c686b4266f99eae678e902c2a289beb78f9298df13d92b56868bb010ba7ea514\")\n      0x1620e9a6\n      swap1\n      swap2\n        /* \"contracts/StablecoinVault.sol\":1992:1999  account */\n      dup6\n        /* \"contracts/StablecoinVault.sol\":2001:2006  token */\n      dup6\n        /* \"contracts/StablecoinVault.sol\":1971:2007  vaultData.getBalance(account, token) */\n      mload(0x40)\n      dup5\n      0xffffffff\n      and\n      0xe0\n      shl\n      dup2\n      mstore\n      0x04\n      add\n      tag_206\n      swap4\n      swap3\n      swap2\n      swap1\n      tag_207\n      jump\t// in\n    tag_206:\n      0x20\n      mload(0x40)\n      dup1\n      dup4\n      sub\n      dup2\n      dup7\n      gas\n      delegatecall\n      iszero\n      dup1\n      iszero\n      tag_209\n      jumpi\n      returndatasize\n      0x00\n      dup1\n      returndatacopy\n      revert(0x00, returndatasize)\n    tag_209:\n      pop\n      pop\n      pop\n      pop\n      mload(0x40)\n      returndatasize\n      not(0x1f)\n      0x1f\n      dup3\n      add\n      and\n      dup3\n      add\n      dup1\n      0x40\n      mstore\n      pop\n      dup2\n      add\n      swap1\n      tag_210\n      swap2\n      swap1\n      tag_211\n      jump\t// in\n    tag_210:\n        /* \"contracts/StablecoinVault.sol\":1964:2007  return vaultData.getBalance(account, token) */\n      swap1\n      pop\n        /* \"contracts/StablecoinVault.sol\":1869:2015  function getBalance(address account, address token) external view returns (uint256) {... */\n      swap3\n      swap2\n      pop\n      pop\n      jump\t// out\n        /* \"@openzeppelin/contracts-upgradeable/access/AccessControlUpgradeable.sol\":5662:5800  function revokeRole(bytes32 role, address account) public virtual onlyRole(getRoleAdmin(role)) {... */\n    tag_109:\n        /* \"@openzeppelin/contracts-upgradeable/access/AccessControlUpgradeable.sol\":5737:5755  getRoleAdmin(role) */\n      tag_212\n        /* \"@openzeppelin/contracts-upgradeable/access/AccessControlUpgradeable.sol\":5750:5754  role */\n      dup3\n        /* \"@openzeppelin/contracts-upgradeable/access/AccessControlUpgradeable.sol\":5737:5749  getRoleAdmin */\n      tag_40\n        /* \"@openzeppelin/contracts-upgradeable/access/AccessControlUpgradeable.sol\":5737:5755  getRoleAdmin(role) */\n      jump\t// in\n    tag_212:\n        /* \"@openzeppelin/contracts-upgradeable/access/AccessControlUpgradeable.sol\":3191:3207  _checkRole(role) */\n      tag_214\n        /* \"@openzeppelin/contracts-upgradeable/access/AccessControlUpgradeable.sol\":3202:3206  role */\n      dup2\n        /* \"@openzeppelin/contracts-upgradeable/access/AccessControlUpgradeable.sol\":3191:3201  _checkRole */\n      tag_125\n        /* \"@openzeppelin/contracts-upgradeable/access/AccessControlUpgradeable.sol\":3191:3207  _checkRole(role) */\n      jump\t// in\n    tag_214:\n        /* \"@openzeppelin/contracts-upgradeable/access/AccessControlUpgradeable.sol\":5767:5793  _revokeRole(role, account) */\n      tag_216\n        /* \"@openzeppelin/contracts-upgradeable/access/AccessControlUpgradeable.sol\":5779:5783  role */\n      dup4\n        /* \"@openzeppelin/contracts-upgradeable/access/AccessControlUpgradeable.sol\":5785:5792  account */\n      dup4\n        /* \"@openzeppelin/contracts-upgradeable/access/AccessControlUpgradeable.sol\":5767:5778  _revokeRole */\n      tag_146\n        /* \"@openzeppelin/contracts-upgradeable/access/AccessControlUpgradeable.sol\":5767:5793  _revokeRole(role, account) */\n      jump\t// in\n    tag_216:\n      pop\n        /* \"@openzeppelin/contracts-upgradeable/access/AccessControlUpgradeable.sol\":5662:5800  function revokeRole(bytes32 role, address account) public virtual onlyRole(getRoleAdmin(role)) {... */\n      pop\n      pop\n      pop\n      jump\t// out\n        /* \"contracts/StablecoinVault.sol\":1721:1861  function withdraw(address token, address recipient, uint256 amount) external {... */\n    tag_114:\n        /* \"contracts/StablecoinVault.sol\":1809:1818  vaultData */\n      0x00\n        /* \"contracts/StablecoinVault.sol\":1809:1827  vaultData.withdraw */\n      linkerSymbol(\"c686b4266f99eae678e902c2a289beb78f9298df13d92b56868bb010ba7ea514\")\n      0x017e466a\n      swap1\n      swap2\n        /* \"contracts/StablecoinVault.sol\":1828:1833  token */\n      dup6\n        /* \"contracts/StablecoinVault.sol\":1835:1844  recipient */\n      dup6\n        /* \"contracts/StablecoinVault.sol\":1846:1852  amount */\n      dup6\n        /* \"contracts/StablecoinVault.sol\":1809:1853  vaultData.withdraw(token, recipient, amount) */\n      mload(0x40)\n      dup6\n      0xffffffff\n      and\n      0xe0\n      shl\n      dup2\n      mstore\n      0x04\n      add\n      tag_218\n      swap5\n      swap4\n      swap3\n      swap2\n      swap1\n      tag_219\n      jump\t// in\n    tag_218:\n      0x00\n      mload(0x40)\n      dup1\n      dup4\n      sub\n      dup2\n      dup7\n      dup1\n      extcodesize\n      iszero\n      dup1\n      iszero\n      tag_220\n      jumpi\n      0x00\n      dup1\n      revert\n    tag_220:\n      pop\n      gas\n      delegatecall\n      iszero\n      dup1\n      iszero\n      tag_222\n      jumpi\n      returndatasize\n      0x00\n      dup1\n      returndatacopy\n      revert(0x00, returndatasize)\n    tag_222:\n      pop\n      pop\n      pop\n      pop\n        /* \"contracts/StablecoinVault.sol\":1721:1861  function withdraw(address token, address recipient, uint256 amount) external {... */\n      pop\n      pop\n      pop\n      jump\t// out\n        /* \"contracts/StablecoinVault.sol\":513:579  bytes32 public constant UPGRADER_ROLE = keccak256(\"UPGRADER_ROLE\") */\n    tag_117:\n        /* \"contracts/StablecoinVault.sol\":553:579  keccak256(\"UPGRADER_ROLE\") */\n      0x189ab7a9244df0848122154315af71fe140f3db0fe014031783b0946b8c9d2e3\n        /* \"contracts/StablecoinVault.sol\":513:579  bytes32 public constant UPGRADER_ROLE = keccak256(\"UPGRADER_ROLE\") */\n      dup2\n      jump\t// out\n        /* \"@openzeppelin/contracts-upgradeable/utils/introspection/ERC165Upgradeable.sol\":1034:1180  function supportsInterface(bytes4 interfaceId) public view virtual returns (bool) {... */\n    tag_122:\n        /* \"@openzeppelin/contracts-upgradeable/utils/introspection/ERC165Upgradeable.sol\":1110:1114  bool */\n      0x00\n        /* \"@openzeppelin/contracts-upgradeable/utils/introspection/ERC165Upgradeable.sol\":1148:1173  type(IERC165).interfaceId */\n      0x01ffc9a700000000000000000000000000000000000000000000000000000000\n        /* \"@openzeppelin/contracts-upgradeable/utils/introspection/ERC165Upgradeable.sol\":1133:1173  interfaceId == type(IERC165).interfaceId */\n      not(0xffffffffffffffffffffffffffffffffffffffffffffffffffffffff)\n      and\n        /* \"@openzeppelin/contracts-upgradeable/utils/introspection/ERC165Upgradeable.sol\":1133:1144  interfaceId */\n      dup3\n        /* \"@openzeppelin/contracts-upgradeable/utils/introspection/ERC165Upgradeable.sol\":1133:1173  interfaceId == type(IERC165).interfaceId */\n      not(0xffffffffffffffffffffffffffffffffffffffffffffffffffffffff)\n      and\n      eq\n        /* \"@openzeppelin/contracts-upgradeable/utils/introspection/ERC165Upgradeable.sol\":1126:1173  return interfaceId == type(IERC165).interfaceId */\n      swap1\n      pop\n        /* \"@openzeppelin/contracts-upgradeable/utils/introspection/ERC165Upgradeable.sol\":1034:1180  function supportsInterface(bytes4 interfaceId) public view virtual returns (bool) {... */\n      swap2\n      swap1\n      pop\n      jump\t// out\n        /* \"@openzeppelin/contracts-upgradeable/access/AccessControlUpgradeable.sol\":4148:4251  function _checkRole(bytes32 role) internal view virtual {... */\n    tag_125:\n        /* \"@openzeppelin/contracts-upgradeable/access/AccessControlUpgradeable.sol\":4214:4244  _checkRole(role, _msgSender()) */\n      tag_225\n        /* \"@openzeppelin/contracts-upgradeable/access/AccessControlUpgradeable.sol\":4225:4229  role */\n      dup2\n        /* \"@openzeppelin/contracts-upgradeable/access/AccessControlUpgradeable.sol\":4231:4243  _msgSender() */\n      tag_226\n        /* \"@openzeppelin/contracts-upgradeable/access/AccessControlUpgradeable.sol\":4231:4241  _msgSender */\n      tag_143\n        /* \"@openzeppelin/contracts-upgradeable/access/AccessControlUpgradeable.sol\":4231:4243  _msgSender() */\n      jump\t// in\n    tag_226:\n        /* \"@openzeppelin/contracts-upgradeable/access/AccessControlUpgradeable.sol\":4214:4224  _checkRole */\n      tag_227\n        /* \"@openzeppelin/contracts-upgradeable/access/AccessControlUpgradeable.sol\":4214:4244  _checkRole(role, _msgSender()) */\n      jump\t// in\n    tag_225:\n        /* \"@openzeppelin/contracts-upgradeable/access/AccessControlUpgradeable.sol\":4148:4251  function _checkRole(bytes32 role) internal view virtual {... */\n      pop\n      jump\t// out\n        /* \"@openzeppelin/contracts-upgradeable/access/AccessControlUpgradeable.sol\":2787:2964  function _getAccessControlStorage() private pure returns (AccessControlStorage storage $) {... */\n    tag_134:\n        /* \"@openzeppelin/contracts-upgradeable/access/AccessControlUpgradeable.sol\":2845:2875  AccessControlStorage storage $ */\n      0x00\n        /* \"@openzeppelin/contracts-upgradeable/access/AccessControlUpgradeable.sol\":2920:2948  AccessControlStorageLocation */\n      0x02dd7bc7dec4dceedda775e58dd541e08a116c6c53815c0bd028192f7b626800\n        /* \"@openzeppelin/contracts-upgradeable/access/AccessControlUpgradeable.sol\":2910:2948  $.slot := AccessControlStorageLocation */\n      swap1\n      pop\n        /* \"@openzeppelin/contracts-upgradeable/access/AccessControlUpgradeable.sol\":2787:2964  function _getAccessControlStorage() private pure returns (AccessControlStorage storage $) {... */\n      swap1\n      jump\t// out\n        /* \"@openzeppelin/contracts-upgradeable/access/AccessControlUpgradeable.sol\":7270:7657  function _grantRole(bytes32 role, address account) internal virtual returns (bool) {... */\n    tag_140:\n        /* \"@openzeppelin/contracts-upgradeable/access/AccessControlUpgradeable.sol\":7347:7351  bool */\n      0x00\n        /* \"@openzeppelin/contracts-upgradeable/access/AccessControlUpgradeable.sol\":7363:7393  AccessControlStorage storage $ */\n      dup1\n        /* \"@openzeppelin/contracts-upgradeable/access/AccessControlUpgradeable.sol\":7396:7422  _getAccessControlStorage() */\n      tag_230\n        /* \"@openzeppelin/contracts-upgradeable/access/AccessControlUpgradeable.sol\":7396:7420  _getAccessControlStorage */\n      tag_134\n        /* \"@openzeppelin/contracts-upgradeable/access/AccessControlUpgradeable.sol\":7396:7422  _getAccessControlStorage() */\n      jump\t// in\n    tag_230:\n        /* \"@openzeppelin/contracts-upgradeable/access/AccessControlUpgradeable.sol\":7363:7422  AccessControlStorage storage $ = _getAccessControlStorage() */\n      swap1\n      pop\n        /* \"@openzeppelin/contracts-upgradeable/access/AccessControlUpgradeable.sol\":7437:7459  hasRole(role, account) */\n      tag_231\n        /* \"@openzeppelin/contracts-upgradeable/access/AccessControlUpgradeable.sol\":7445:7449  role */\n      dup5\n        /* \"@openzeppelin/contracts-upgradeable/access/AccessControlUpgradeable.sol\":7451:7458  account */\n      dup5\n        /* \"@openzeppelin/contracts-upgradeable/access/AccessControlUpgradeable.sol\":7437:7444  hasRole */\n      tag_89\n        /* \"@openzeppelin/contracts-upgradeable/access/AccessControlUpgradeable.sol\":7437:7459  hasRole(role, account) */\n      jump\t// in\n    tag_231:\n        /* \"@openzeppelin/contracts-upgradeable/access/AccessControlUpgradeable.sol\":7432:7651  if (!hasRole(role, account)) {... */\n      tag_232\n      jumpi\n        /* \"@openzeppelin/contracts-upgradeable/access/AccessControlUpgradeable.sol\":7509:7513  true */\n      0x01\n        /* \"@openzeppelin/contracts-upgradeable/access/AccessControlUpgradeable.sol\":7475:7476  $ */\n      dup2\n        /* \"@openzeppelin/contracts-upgradeable/access/AccessControlUpgradeable.sol\":7475:7483  $._roles */\n      0x00\n      add\n        /* \"@openzeppelin/contracts-upgradeable/access/AccessControlUpgradeable.sol\":7475:7489  $._roles[role] */\n      0x00\n        /* \"@openzeppelin/contracts-upgradeable/access/AccessControlUpgradeable.sol\":7484:7488  role */\n      dup7\n        /* \"@openzeppelin/contracts-upgradeable/access/AccessControlUpgradeable.sol\":7475:7489  $._roles[role] */\n      dup2\n      mstore\n      0x20\n      add\n      swap1\n      dup2\n      mstore\n      0x20\n      add\n      0x00\n      keccak256\n        /* \"@openzeppelin/contracts-upgradeable/access/AccessControlUpgradeable.sol\":7475:7497  $._roles[role].hasRole */\n      0x00\n      add\n        /* \"@openzeppelin/contracts-upgradeable/access/AccessControlUpgradeable.sol\":7475:7506  $._roles[role].hasRole[account] */\n      0x00\n        /* \"@openzeppelin/contracts-upgradeable/access/AccessControlUpgradeable.sol\":7498:7505  account */\n      dup6\n        /* \"@openzeppelin/contracts-upgradeable/access/AccessControlUpgradeable.sol\":7475:7506  $._roles[role].hasRole[account] */\n      0xffffffffffffffffffffffffffffffffffffffff\n      and\n      0xffffffffffffffffffffffffffffffffffffffff\n      and\n      dup2\n      mstore\n      0x20\n      add\n      swap1\n      dup2\n      mstore\n      0x20\n      add\n      0x00\n      keccak256\n      0x00\n        /* \"@openzeppelin/contracts-upgradeable/access/AccessControlUpgradeable.sol\":7475:7513  $._roles[role].hasRole[account] = true */\n      0x0100\n      exp\n      dup2\n      sload\n      dup2\n      0xff\n      mul\n      not\n      and\n      swap1\n      dup4\n      iszero\n      iszero\n      mul\n      or\n      swap1\n      sstore\n      pop\n        /* \"@openzeppelin/contracts-upgradeable/access/AccessControlUpgradeable.sol\":7559:7571  _msgSender() */\n      tag_233\n        /* \"@openzeppelin/contracts-upgradeable/access/AccessControlUpgradeable.sol\":7559:7569  _msgSender */\n      tag_143\n        /* \"@openzeppelin/contracts-upgradeable/access/AccessControlUpgradeable.sol\":7559:7571  _msgSender() */\n      jump\t// in\n    tag_233:\n        /* \"@openzeppelin/contracts-upgradeable/access/AccessControlUpgradeable.sol\":7532:7572  RoleGranted(role, account, _msgSender()) */\n      0xffffffffffffffffffffffffffffffffffffffff\n      and\n        /* \"@openzeppelin/contracts-upgradeable/access/AccessControlUpgradeable.sol\":7550:7557  account */\n      dup4\n        /* \"@openzeppelin/contracts-upgradeable/access/AccessControlUpgradeable.sol\":7532:7572  RoleGranted(role, account, _msgSender()) */\n      0xffffffffffffffffffffffffffffffffffffffff\n      and\n        /* \"@openzeppelin/contracts-upgradeable/access/AccessControlUpgradeable.sol\":7544:7548  role */\n      dup6\n        /* \"@openzeppelin/contracts-upgradeable/access/AccessControlUpgradeable.sol\":7532:7572  RoleGranted(role, account, _msgSender()) */\n      0x2f8788117e7eff1d82e926ec794901d17c78024a50270940304540a733656f0d\n      mload(0x40)\n      mload(0x40)\n      dup1\n      swap2\n      sub\n      swap1\n      log4\n        /* \"@openzeppelin/contracts-upgradeable/access/AccessControlUpgradeable.sol\":7593:7597  true */\n      0x01\n        /* \"@openzeppelin/contracts-upgradeable/access/AccessControlUpgradeable.sol\":7586:7597  return true */\n      swap2\n      pop\n      pop\n      jump(tag_229)\n        /* \"@openzeppelin/contracts-upgradeable/access/AccessControlUpgradeable.sol\":7432:7651  if (!hasRole(role, account)) {... */\n    tag_232:\n        /* \"@openzeppelin/contracts-upgradeable/access/AccessControlUpgradeable.sol\":7635:7640  false */\n      0x00\n        /* \"@openzeppelin/contracts-upgradeable/access/AccessControlUpgradeable.sol\":7628:7640  return false */\n      swap2\n      pop\n      pop\n        /* \"@openzeppelin/contracts-upgradeable/access/AccessControlUpgradeable.sol\":7270:7657  function _grantRole(bytes32 role, address account) internal virtual returns (bool) {... */\n    tag_229:\n      swap3\n      swap2\n      pop\n      pop\n      jump\t// out\n        /* \"@openzeppelin/contracts-upgradeable/utils/ContextUpgradeable.sol\":887:983  function _msgSender() internal view virtual returns (address) {... */\n    tag_143:\n        /* \"@openzeppelin/contracts-upgradeable/utils/ContextUpgradeable.sol\":940:947  address */\n      0x00\n        /* \"@openzeppelin/contracts-upgradeable/utils/ContextUpgradeable.sol\":966:976  msg.sender */\n      caller\n        /* \"@openzeppelin/contracts-upgradeable/utils/ContextUpgradeable.sol\":959:976  return msg.sender */\n      swap1\n      pop\n        /* \"@openzeppelin/contracts-upgradeable/utils/ContextUpgradeable.sol\":887:983  function _msgSender() internal view virtual returns (address) {... */\n      swap1\n      jump\t// out\n        /* \"@openzeppelin/contracts-upgradeable/access/AccessControlUpgradeable.sol\":7892:8280  function _revokeRole(bytes32 role, address account) internal virtual returns (bool) {... */\n    tag_146:\n        /* \"@openzeppelin/contracts-upgradeable/access/AccessControlUpgradeable.sol\":7970:7974  bool */\n      0x00\n        /* \"@openzeppelin/contracts-upgradeable/access/AccessControlUpgradeable.sol\":7986:8016  AccessControlStorage storage $ */\n      dup1\n        /* \"@openzeppelin/contracts-upgradeable/access/AccessControlUpgradeable.sol\":8019:8045  _getAccessControlStorage() */\n      tag_237\n        /* \"@openzeppelin/contracts-upgradeable/access/AccessControlUpgradeable.sol\":8019:8043  _getAccessControlStorage */\n      tag_134\n        /* \"@openzeppelin/contracts-upgradeable/access/AccessControlUpgradeable.sol\":8019:8045  _getAccessControlStorage() */\n      jump\t// in\n    tag_237:\n        /* \"@openzeppelin/contracts-upgradeable/access/AccessControlUpgradeable.sol\":7986:8045  AccessControlStorage storage $ = _getAccessControlStorage() */\n      swap1\n      pop\n        /* \"@openzeppelin/contracts-upgradeable/access/AccessControlUpgradeable.sol\":8059:8081  hasRole(role, account) */\n      tag_238\n        /* \"@openzeppelin/contracts-upgradeable/access/AccessControlUpgradeable.sol\":8067:8071  role */\n      dup5\n        /* \"@openzeppelin/contracts-upgradeable/access/AccessControlUpgradeable.sol\":8073:8080  account */\n      dup5\n        /* \"@openzeppelin/contracts-upgradeable/access/AccessControlUpgradeable.sol\":8059:8066  hasRole */\n      tag_89\n        /* \"@openzeppelin/contracts-upgradeable/access/AccessControlUpgradeable.sol\":8059:8081  hasRole(role, account) */\n      jump\t// in\n    tag_238:\n        /* \"@openzeppelin/contracts-upgradeable/access/AccessControlUpgradeable.sol\":8055:8274  if (hasRole(role, account)) {... */\n      iszero\n      tag_239\n      jumpi\n        /* \"@openzeppelin/contracts-upgradeable/access/AccessControlUpgradeable.sol\":8131:8136  false */\n      0x00\n        /* \"@openzeppelin/contracts-upgradeable/access/AccessControlUpgradeable.sol\":8097:8098  $ */\n      dup2\n        /* \"@openzeppelin/contracts-upgradeable/access/AccessControlUpgradeable.sol\":8097:8105  $._roles */\n      0x00\n      add\n        /* \"@openzeppelin/contracts-upgradeable/access/AccessControlUpgradeable.sol\":8097:8111  $._roles[role] */\n      0x00\n        /* \"@openzeppelin/contracts-upgradeable/access/AccessControlUpgradeable.sol\":8106:8110  role */\n      dup7\n        /* \"@openzeppelin/contracts-upgradeable/access/AccessControlUpgradeable.sol\":8097:8111  $._roles[role] */\n      dup2\n      mstore\n      0x20\n      add\n      swap1\n      dup2\n      mstore\n      0x20\n      add\n      0x00\n      keccak256\n        /* \"@openzeppelin/contracts-upgradeable/access/AccessControlUpgradeable.sol\":8097:8119  $._roles[role].hasRole */\n      0x00\n      add\n        /* \"@openzeppelin/contracts-upgradeable/access/AccessControlUpgradeable.sol\":8097:8128  $._roles[role].hasRole[account] */\n      0x00\n        /* \"@openzeppelin/contracts-upgradeable/access/AccessControlUpgradeable.sol\":8120:8127  account */\n      dup6\n        /* \"@openzeppelin/contracts-upgradeable/access/AccessControlUpgradeable.sol\":8097:8128  $._roles[role].hasRole[account] */\n      0xffffffffffffffffffffffffffffffffffffffff\n      and\n      0xffffffffffffffffffffffffffffffffffffffff\n      and\n      dup2\n      mstore\n      0x20\n      add\n      swap1\n      dup2\n      mstore\n      0x20\n      add\n      0x00\n      keccak256\n      0x00\n        /* \"@openzeppelin/contracts-upgradeable/access/AccessControlUpgradeable.sol\":8097:8136  $._roles[role].hasRole[account] = false */\n      0x0100\n      exp\n      dup2\n      sload\n      dup2\n      0xff\n      mul\n      not\n      and\n      swap1\n      dup4\n      iszero\n      iszero\n      mul\n      or\n      swap1\n      sstore\n      pop\n        /* \"@openzeppelin/contracts-upgradeable/access/AccessControlUpgradeable.sol\":8182:8194  _msgSender() */\n      tag_240\n        /* \"@openzeppelin/contracts-upgradeable/access/AccessControlUpgradeable.sol\":8182:8192  _msgSender */\n      tag_143\n        /* \"@openzeppelin/contracts-upgradeable/access/AccessControlUpgradeable.sol\":8182:8194  _msgSender() */\n      jump\t// in\n    tag_240:\n        /* \"@openzeppelin/contracts-upgradeable/access/AccessControlUpgradeable.sol\":8155:8195  RoleRevoked(role, account, _msgSender()) */\n      0xffffffffffffffffffffffffffffffffffffffff\n      and\n        /* \"@openzeppelin/contracts-upgradeable/access/AccessControlUpgradeable.sol\":8173:8180  account */\n      dup4\n        /* \"@openzeppelin/contracts-upgradeable/access/AccessControlUpgradeable.sol\":8155:8195  RoleRevoked(role, account, _msgSender()) */\n      0xffffffffffffffffffffffffffffffffffffffff\n      and\n        /* \"@openzeppelin/contracts-upgradeable/access/AccessControlUpgradeable.sol\":8167:8171  role */\n      dup6\n        /* \"@openzeppelin/contracts-upgradeable/access/AccessControlUpgradeable.sol\":8155:8195  RoleRevoked(role, account, _msgSender()) */\n      0xf6391f5c32d9c69d2a47ea670b442974b53935d1edc7fd64eb21e047a839171b\n      mload(0x40)\n      mload(0x40)\n      dup1\n      swap2\n      sub\n      swap1\n      log4\n        /* \"@openzeppelin/contracts-upgradeable/access/AccessControlUpgradeable.sol\":8216:8220  true */\n      0x01\n        /* \"@openzeppelin/contracts-upgradeable/access/AccessControlUpgradeable.sol\":8209:8220  return true */\n      swap2\n      pop\n      pop\n      jump(tag_236)\n        /* \"@openzeppelin/contracts-upgradeable/access/AccessControlUpgradeable.sol\":8055:8274  if (hasRole(role, account)) {... */\n    tag_239:\n        /* \"@openzeppelin/contracts-upgradeable/access/AccessControlUpgradeable.sol\":8258:8263  false */\n      0x00\n        /* \"@openzeppelin/contracts-upgradeable/access/AccessControlUpgradeable.sol\":8251:8263  return false */\n      swap2\n      pop\n      pop\n        /* \"@openzeppelin/contracts-upgradeable/access/AccessControlUpgradeable.sol\":7892:8280  function _revokeRole(bytes32 role, address account) internal virtual returns (bool) {... */\n    tag_236:\n      swap3\n      swap2\n      pop\n      pop\n      jump\t// out\n        /* \"@openzeppelin/contracts-upgradeable/proxy/utils/Initializable.sol\":8737:8907  function _getInitializableStorage() private pure returns (InitializableStorage storage $) {... */\n    tag_161:\n        /* \"@openzeppelin/contracts-upgradeable/proxy/utils/Initializable.sol\":8795:8825  InitializableStorage storage $ */\n      0x00\n        /* \"@openzeppelin/contracts-upgradeable/proxy/utils/Initializable.sol\":8870:8891  INITIALIZABLE_STORAGE */\n      0xf0c57e16840df040f15088dc2f81fe391c3923bec73e23a9662efc9c229c6a00\n        /* \"@openzeppelin/contracts-upgradeable/proxy/utils/Initializable.sol\":8860:8891  $.slot := INITIALIZABLE_STORAGE */\n      swap1\n      pop\n        /* \"@openzeppelin/contracts-upgradeable/proxy/utils/Initializable.sol\":8737:8907  function _getInitializableStorage() private pure returns (InitializableStorage storage $) {... */\n      swap1\n      jump\t// out\n        /* \"@openzeppelin/contracts-upgradeable/access/AccessControlUpgradeable.sol\":3231:3296  function __AccessControl_init() internal onlyInitializing {... */\n    tag_169:\n        /* \"@openzeppelin/contracts-upgradeable/proxy/utils/Initializable.sol\":6931:6951  _checkInitializing() */\n      tag_244\n        /* \"@openzeppelin/contracts-upgradeable/proxy/utils/Initializable.sol\":6931:6949  _checkInitializing */\n      tag_245\n        /* \"@openzeppelin/contracts-upgradeable/proxy/utils/Initializable.sol\":6931:6951  _checkInitializing() */\n      jump\t// in\n    tag_244:\n        /* \"@openzeppelin/contracts-upgradeable/access/AccessControlUpgradeable.sol\":3231:3296  function __AccessControl_init() internal onlyInitializing {... */\n      jump\t// out\n        /* \"@openzeppelin/contracts-upgradeable/proxy/utils/UUPSUpgradeable.sol\":2968:3035  function __UUPSUpgradeable_init() internal onlyInitializing {... */\n    tag_171:\n        /* \"@openzeppelin/contracts-upgradeable/proxy/utils/Initializable.sol\":6931:6951  _checkInitializing() */\n      tag_248\n        /* \"@openzeppelin/contracts-upgradeable/proxy/utils/Initializable.sol\":6931:6949  _checkInitializing */\n      tag_245\n        /* \"@openzeppelin/contracts-upgradeable/proxy/utils/Initializable.sol\":6931:6951  _checkInitializing() */\n      jump\t// in\n    tag_248:\n        /* \"@openzeppelin/contracts-upgradeable/proxy/utils/UUPSUpgradeable.sol\":2968:3035  function __UUPSUpgradeable_init() internal onlyInitializing {... */\n      jump\t// out\n        /* \"@openzeppelin/contracts-upgradeable/proxy/utils/UUPSUpgradeable.sol\":4599:4911  function _checkProxy() internal view virtual {... */\n    tag_179:\n        /* \"@openzeppelin/contracts-upgradeable/proxy/utils/UUPSUpgradeable.sol\":4688:4694  __self */\n      immutable(\"0x3b04ad91523c4dcf551e081621e633b9099d51bf9c5461e58c3bc7354a578b27\")\n        /* \"@openzeppelin/contracts-upgradeable/proxy/utils/UUPSUpgradeable.sol\":4671:4694  address(this) == __self */\n      0xffffffffffffffffffffffffffffffffffffffff\n      and\n        /* \"@openzeppelin/contracts-upgradeable/proxy/utils/UUPSUpgradeable.sol\":4679:4683  this */\n      address\n        /* \"@openzeppelin/contracts-upgradeable/proxy/utils/UUPSUpgradeable.sol\":4671:4694  address(this) == __self */\n      0xffffffffffffffffffffffffffffffffffffffff\n      and\n      eq\n        /* \"@openzeppelin/contracts-upgradeable/proxy/utils/UUPSUpgradeable.sol\":4671:4791  address(this) == __self || // Must be called through delegatecall... */\n      dup1\n      tag_251\n      jumpi\n      pop\n        /* \"@openzeppelin/contracts-upgradeable/proxy/utils/UUPSUpgradeable.sol\":4785:4791  __self */\n      immutable(\"0x3b04ad91523c4dcf551e081621e633b9099d51bf9c5461e58c3bc7354a578b27\")\n        /* \"@openzeppelin/contracts-upgradeable/proxy/utils/UUPSUpgradeable.sol\":4749:4791  ERC1967Utils.getImplementation() != __self */\n      0xffffffffffffffffffffffffffffffffffffffff\n      and\n        /* \"@openzeppelin/contracts-upgradeable/proxy/utils/UUPSUpgradeable.sol\":4749:4781  ERC1967Utils.getImplementation() */\n      tag_252\n        /* \"@openzeppelin/contracts-upgradeable/proxy/utils/UUPSUpgradeable.sol\":4749:4779  ERC1967Utils.getImplementation */\n      tag_253\n        /* \"@openzeppelin/contracts-upgradeable/proxy/utils/UUPSUpgradeable.sol\":4749:4781  ERC1967Utils.getImplementation() */\n      jump\t// in\n    tag_252:\n        /* \"@openzeppelin/contracts-upgradeable/proxy/utils/UUPSUpgradeable.sol\":4749:4791  ERC1967Utils.getImplementation() != __self */\n      0xffffffffffffffffffffffffffffffffffffffff\n      and\n      eq\n      iszero\n        /* \"@openzeppelin/contracts-upgradeable/proxy/utils/UUPSUpgradeable.sol\":4671:4791  address(this) == __self || // Must be called through delegatecall... */\n    tag_251:\n        /* \"@openzeppelin/contracts-upgradeable/proxy/utils/UUPSUpgradeable.sol\":4654:4905  if (... */\n      iszero\n      tag_254\n      jumpi\n        /* \"@openzeppelin/contracts-upgradeable/proxy/utils/UUPSUpgradeable.sol\":4865:4894  UUPSUnauthorizedCallContext() */\n      mload(0x40)\n      0xe07c8dba00000000000000000000000000000000000000000000000000000000\n      dup2\n      mstore\n      0x04\n      add\n      mload(0x40)\n      dup1\n      swap2\n      sub\n      swap1\n      revert\n        /* \"@openzeppelin/contracts-upgradeable/proxy/utils/UUPSUpgradeable.sol\":4654:4905  if (... */\n    tag_254:\n        /* \"@openzeppelin/contracts-upgradeable/proxy/utils/UUPSUpgradeable.sol\":4599:4911  function _checkProxy() internal view virtual {... */\n      jump\t// out\n        /* \"contracts/StablecoinVault.sol\":2201:2331  function _authorizeUpgrade(address newImplementation)... */\n    tag_182:\n        /* \"contracts/StablecoinVault.sol\":553:579  keccak256(\"UPGRADER_ROLE\") */\n      0x189ab7a9244df0848122154315af71fe140f3db0fe014031783b0946b8c9d2e3\n        /* \"@openzeppelin/contracts-upgradeable/access/AccessControlUpgradeable.sol\":3191:3207  _checkRole(role) */\n      tag_256\n        /* \"@openzeppelin/contracts-upgradeable/access/AccessControlUpgradeable.sol\":3202:3206  role */\n      dup2\n        /* \"@openzeppelin/contracts-upgradeable/access/AccessControlUpgradeable.sol\":3191:3201  _checkRole */\n      tag_125\n        /* \"@openzeppelin/contracts-upgradeable/access/AccessControlUpgradeable.sol\":3191:3207  _checkRole(role) */\n      jump\t// in\n    tag_256:\n        /* \"contracts/StablecoinVault.sol\":2201:2331  function _authorizeUpgrade(address newImplementation)... */\n      pop\n      pop\n      jump\t// out\n        /* \"@openzeppelin/contracts-upgradeable/proxy/utils/UUPSUpgradeable.sol\":6052:6590  function _upgradeToAndCallUUPS(address newImplementation, bytes memory data) private {... */\n    tag_184:\n        /* \"@openzeppelin/contracts-upgradeable/proxy/utils/UUPSUpgradeable.sol\":6169:6186  newImplementation */\n      dup2\n        /* \"@openzeppelin/contracts-upgradeable/proxy/utils/UUPSUpgradeable.sol\":6151:6201  IERC1822Proxiable(newImplementation).proxiableUUID */\n      0xffffffffffffffffffffffffffffffffffffffff\n      and\n      0x52d1902d\n        /* \"@openzeppelin/contracts-upgradeable/proxy/utils/UUPSUpgradeable.sol\":6151:6203  IERC1822Proxiable(newImplementation).proxiableUUID() */\n      mload(0x40)\n      dup2\n      0xffffffff\n      and\n      0xe0\n      shl\n      dup2\n      mstore\n      0x04\n      add\n      0x20\n      mload(0x40)\n      dup1\n      dup4\n      sub\n      dup2\n      dup7\n      gas\n      staticcall\n      swap3\n      pop\n      pop\n      pop\n      dup1\n      iszero\n      tag_259\n      jumpi\n      pop\n      mload(0x40)\n      returndatasize\n      not(0x1f)\n      0x1f\n      dup3\n      add\n      and\n      dup3\n      add\n      dup1\n      0x40\n      mstore\n      pop\n      dup2\n      add\n      swap1\n      tag_260\n      swap2\n      swap1\n      tag_261\n      jump\t// in\n    tag_260:\n      0x01\n    tag_259:\n        /* \"@openzeppelin/contracts-upgradeable/proxy/utils/UUPSUpgradeable.sol\":6147:6584  try IERC1822Proxiable(newImplementation).proxiableUUID() returns (bytes32 slot) {... */\n      tag_262\n      jumpi\n        /* \"@openzeppelin/contracts-upgradeable/proxy/utils/UUPSUpgradeable.sol\":6555:6572  newImplementation */\n      dup2\n        /* \"@openzeppelin/contracts-upgradeable/proxy/utils/UUPSUpgradeable.sol\":6513:6573  ERC1967Utils.ERC1967InvalidImplementation(newImplementation) */\n      mload(0x40)\n      0x4c9c8ce300000000000000000000000000000000000000000000000000000000\n      dup2\n      mstore\n      0x04\n      add\n      tag_266\n      swap2\n      swap1\n      tag_267\n      jump\t// in\n    tag_266:\n      mload(0x40)\n      dup1\n      swap2\n      sub\n      swap1\n      revert\n        /* \"@openzeppelin/contracts-upgradeable/proxy/utils/UUPSUpgradeable.sol\":6147:6584  try IERC1822Proxiable(newImplementation).proxiableUUID() returns (bytes32 slot) {... */\n    tag_262:\n        /* \"@openzeppelin/contracts/proxy/ERC1967/ERC1967Utils.sol\":1327:1393  0x360894a13ba1a3210667c828492db98dca3e2076cc3735a920a3ca505d382bbc */\n      0x360894a13ba1a3210667c828492db98dca3e2076cc3735a920a3ca505d382bbc\n        /* \"@openzeppelin/contracts-upgradeable/proxy/utils/UUPSUpgradeable.sol\":6253:6285  ERC1967Utils.IMPLEMENTATION_SLOT */\n      0x00\n      shl\n        /* \"@openzeppelin/contracts-upgradeable/proxy/utils/UUPSUpgradeable.sol\":6245:6249  slot */\n      dup2\n        /* \"@openzeppelin/contracts-upgradeable/proxy/utils/UUPSUpgradeable.sol\":6245:6285  slot != ERC1967Utils.IMPLEMENTATION_SLOT */\n      eq\n        /* \"@openzeppelin/contracts-upgradeable/proxy/utils/UUPSUpgradeable.sol\":6241:6361  if (slot != ERC1967Utils.IMPLEMENTATION_SLOT) {... */\n      tag_269\n      jumpi\n        /* \"@openzeppelin/contracts-upgradeable/proxy/utils/UUPSUpgradeable.sol\":6341:6345  slot */\n      dup1\n        /* \"@openzeppelin/contracts-upgradeable/proxy/utils/UUPSUpgradeable.sol\":6312:6346  UUPSUnsupportedProxiableUUID(slot) */\n      mload(0x40)\n      0xaa1d49a400000000000000000000000000000000000000000000000000000000\n      dup2\n      mstore\n      0x04\n      add\n      tag_270\n      swap2\n      swap1\n      tag_42\n      jump\t// in\n    tag_270:\n      mload(0x40)\n      dup1\n      swap2\n      sub\n      swap1\n      revert\n        /* \"@openzeppelin/contracts-upgradeable/proxy/utils/UUPSUpgradeable.sol\":6241:6361  if (slot != ERC1967Utils.IMPLEMENTATION_SLOT) {... */\n    tag_269:\n        /* \"@openzeppelin/contracts-upgradeable/proxy/utils/UUPSUpgradeable.sol\":6374:6428  ERC1967Utils.upgradeToAndCall(newImplementation, data) */\n      tag_271\n        /* \"@openzeppelin/contracts-upgradeable/proxy/utils/UUPSUpgradeable.sol\":6404:6421  newImplementation */\n      dup4\n        /* \"@openzeppelin/contracts-upgradeable/proxy/utils/UUPSUpgradeable.sol\":6423:6427  data */\n      dup4\n        /* \"@openzeppelin/contracts-upgradeable/proxy/utils/UUPSUpgradeable.sol\":6374:6403  ERC1967Utils.upgradeToAndCall */\n      tag_272\n        /* \"@openzeppelin/contracts-upgradeable/proxy/utils/UUPSUpgradeable.sol\":6374:6428  ERC1967Utils.upgradeToAndCall(newImplementation, data) */\n      jump\t// in\n    tag_271:\n        /* \"@openzeppelin/contracts-upgradeable/proxy/utils/UUPSUpgradeable.sol\":6204:6439  returns (bytes32 slot) {... */\n      pop\n        /* \"@openzeppelin/contracts-upgradeable/proxy/utils/UUPSUpgradeable.sol\":6052:6590  function _upgradeToAndCallUUPS(address newImplementation, bytes memory data) private {... */\n      pop\n      pop\n      jump\t// out\n        /* \"@openzeppelin/contracts-upgradeable/proxy/utils/UUPSUpgradeable.sol\":5028:5241  function _checkNotDelegated() internal view virtual {... */\n    tag_187:\n        /* \"@openzeppelin/contracts-upgradeable/proxy/utils/UUPSUpgradeable.sol\":5111:5117  __self */\n      immutable(\"0x3b04ad91523c4dcf551e081621e633b9099d51bf9c5461e58c3bc7354a578b27\")\n        /* \"@openzeppelin/contracts-upgradeable/proxy/utils/UUPSUpgradeable.sol\":5094:5117  address(this) != __self */\n      0xffffffffffffffffffffffffffffffffffffffff\n      and\n        /* \"@openzeppelin/contracts-upgradeable/proxy/utils/UUPSUpgradeable.sol\":5102:5106  this */\n      address\n        /* \"@openzeppelin/contracts-upgradeable/proxy/utils/UUPSUpgradeable.sol\":5094:5117  address(this) != __self */\n      0xffffffffffffffffffffffffffffffffffffffff\n      and\n      eq\n        /* \"@openzeppelin/contracts-upgradeable/proxy/utils/UUPSUpgradeable.sol\":5090:5235  if (address(this) != __self) {... */\n      tag_274\n      jumpi\n        /* \"@openzeppelin/contracts-upgradeable/proxy/utils/UUPSUpgradeable.sol\":5195:5224  UUPSUnauthorizedCallContext() */\n      mload(0x40)\n      0xe07c8dba00000000000000000000000000000000000000000000000000000000\n      dup2\n      mstore\n      0x04\n      add\n      mload(0x40)\n      dup1\n      swap2\n      sub\n      swap1\n      revert\n        /* \"@openzeppelin/contracts-upgradeable/proxy/utils/UUPSUpgradeable.sol\":5090:5235  if (address(this) != __self) {... */\n    tag_274:\n        /* \"@openzeppelin/contracts-upgradeable/proxy/utils/UUPSUpgradeable.sol\":5028:5241  function _checkNotDelegated() internal view virtual {... */\n      jump\t// out\n        /* \"@openzeppelin/contracts-upgradeable/access/AccessControlUpgradeable.sol\":4381:4578  function _checkRole(bytes32 role, address account) internal view virtual {... */\n    tag_227:\n        /* \"@openzeppelin/contracts-upgradeable/access/AccessControlUpgradeable.sol\":4469:4491  hasRole(role, account) */\n      tag_276\n        /* \"@openzeppelin/contracts-upgradeable/access/AccessControlUpgradeable.sol\":4477:4481  role */\n      dup3\n        /* \"@openzeppelin/contracts-upgradeable/access/AccessControlUpgradeable.sol\":4483:4490  account */\n      dup3\n        /* \"@openzeppelin/contracts-upgradeable/access/AccessControlUpgradeable.sol\":4469:4476  hasRole */\n      tag_89\n        /* \"@openzeppelin/contracts-upgradeable/access/AccessControlUpgradeable.sol\":4469:4491  hasRole(role, account) */\n      jump\t// in\n    tag_276:\n        /* \"@openzeppelin/contracts-upgradeable/access/AccessControlUpgradeable.sol\":4464:4572  if (!hasRole(role, account)) {... */\n      tag_277\n      jumpi\n        /* \"@openzeppelin/contracts-upgradeable/access/AccessControlUpgradeable.sol\":4547:4554  account */\n      dup1\n        /* \"@openzeppelin/contracts-upgradeable/access/AccessControlUpgradeable.sol\":4556:4560  role */\n      dup3\n        /* \"@openzeppelin/contracts-upgradeable/access/AccessControlUpgradeable.sol\":4514:4561  AccessControlUnauthorizedAccount(account, role) */\n      mload(0x40)\n      0xe2517d3f00000000000000000000000000000000000000000000000000000000\n      dup2\n      mstore\n      0x04\n      add\n      tag_278\n      swap3\n      swap2\n      swap1\n      tag_279\n      jump\t// in\n    tag_278:\n      mload(0x40)\n      dup1\n      swap2\n      sub\n      swap1\n      revert\n        /* \"@openzeppelin/contracts-upgradeable/access/AccessControlUpgradeable.sol\":4464:4572  if (!hasRole(role, account)) {... */\n    tag_277:\n        /* \"@openzeppelin/contracts-upgradeable/access/AccessControlUpgradeable.sol\":4381:4578  function _checkRole(bytes32 role, address account) internal view virtual {... */\n      pop\n      pop\n      jump\t// out\n        /* \"@openzeppelin/contracts-upgradeable/proxy/utils/Initializable.sol\":7084:7225  function _checkInitializing() internal view virtual {... */\n    tag_245:\n        /* \"@openzeppelin/contracts-upgradeable/proxy/utils/Initializable.sol\":7151:7168  _isInitializing() */\n      tag_281\n        /* \"@openzeppelin/contracts-upgradeable/proxy/utils/Initializable.sol\":7151:7166  _isInitializing */\n      tag_282\n        /* \"@openzeppelin/contracts-upgradeable/proxy/utils/Initializable.sol\":7151:7168  _isInitializing() */\n      jump\t// in\n    tag_281:\n        /* \"@openzeppelin/contracts-upgradeable/proxy/utils/Initializable.sol\":7146:7219  if (!_isInitializing()) {... */\n      tag_283\n      jumpi\n        /* \"@openzeppelin/contracts-upgradeable/proxy/utils/Initializable.sol\":7191:7208  NotInitializing() */\n      mload(0x40)\n      0xd7e6bcf800000000000000000000000000000000000000000000000000000000\n      dup2\n      mstore\n      0x04\n      add\n      mload(0x40)\n      dup1\n      swap2\n      sub\n      swap1\n      revert\n        /* \"@openzeppelin/contracts-upgradeable/proxy/utils/Initializable.sol\":7146:7219  if (!_isInitializing()) {... */\n    tag_283:\n        /* \"@openzeppelin/contracts-upgradeable/proxy/utils/Initializable.sol\":7084:7225  function _checkInitializing() internal view virtual {... */\n      jump\t// out\n        /* \"@openzeppelin/contracts/proxy/ERC1967/ERC1967Utils.sol\":1957:2095  function getImplementation() internal view returns (address) {... */\n    tag_253:\n        /* \"@openzeppelin/contracts/proxy/ERC1967/ERC1967Utils.sol\":2009:2016  address */\n      0x00\n        /* \"@openzeppelin/contracts/proxy/ERC1967/ERC1967Utils.sol\":2035:2082  StorageSlot.getAddressSlot(IMPLEMENTATION_SLOT) */\n      tag_285\n        /* \"@openzeppelin/contracts/proxy/ERC1967/ERC1967Utils.sol\":1327:1393  0x360894a13ba1a3210667c828492db98dca3e2076cc3735a920a3ca505d382bbc */\n      0x360894a13ba1a3210667c828492db98dca3e2076cc3735a920a3ca505d382bbc\n        /* \"@openzeppelin/contracts/proxy/ERC1967/ERC1967Utils.sol\":2062:2081  IMPLEMENTATION_SLOT */\n      0x00\n      shl\n        /* \"@openzeppelin/contracts/proxy/ERC1967/ERC1967Utils.sol\":2035:2061  StorageSlot.getAddressSlot */\n      tag_286\n        /* \"@openzeppelin/contracts/proxy/ERC1967/ERC1967Utils.sol\":2035:2082  StorageSlot.getAddressSlot(IMPLEMENTATION_SLOT) */\n      jump\t// in\n    tag_285:\n        /* \"@openzeppelin/contracts/proxy/ERC1967/ERC1967Utils.sol\":2035:2088  StorageSlot.getAddressSlot(IMPLEMENTATION_SLOT).value */\n      0x00\n      add\n      0x00\n      swap1\n      sload\n      swap1\n      0x0100\n      exp\n      swap1\n      div\n      0xffffffffffffffffffffffffffffffffffffffff\n      and\n        /* \"@openzeppelin/contracts/proxy/ERC1967/ERC1967Utils.sol\":2028:2088  return StorageSlot.getAddressSlot(IMPLEMENTATION_SLOT).value */\n      swap1\n      pop\n        /* \"@openzeppelin/contracts/proxy/ERC1967/ERC1967Utils.sol\":1957:2095  function getImplementation() internal view returns (address) {... */\n      swap1\n      jump\t// out\n        /* \"@openzeppelin/contracts/proxy/ERC1967/ERC1967Utils.sol\":2779:3114  function upgradeToAndCall(address newImplementation, bytes memory data) internal {... */\n    tag_272:\n        /* \"@openzeppelin/contracts/proxy/ERC1967/ERC1967Utils.sol\":2870:2907  _setImplementation(newImplementation) */\n      tag_288\n        /* \"@openzeppelin/contracts/proxy/ERC1967/ERC1967Utils.sol\":2889:2906  newImplementation */\n      dup3\n        /* \"@openzeppelin/contracts/proxy/ERC1967/ERC1967Utils.sol\":2870:2888  _setImplementation */\n      tag_289\n        /* \"@openzeppelin/contracts/proxy/ERC1967/ERC1967Utils.sol\":2870:2907  _setImplementation(newImplementation) */\n      jump\t// in\n    tag_288:\n        /* \"@openzeppelin/contracts/proxy/ERC1967/ERC1967Utils.sol\":2931:2948  newImplementation */\n      dup2\n        /* \"@openzeppelin/contracts/proxy/ERC1967/ERC1967Utils.sol\":2922:2949  Upgraded(newImplementation) */\n      0xffffffffffffffffffffffffffffffffffffffff\n      and\n      0xbc7cd75a20ee27fd9adebab32041f755214dbc6bffa90cc0225b39da2e5c2d3b\n      mload(0x40)\n      mload(0x40)\n      dup1\n      swap2\n      sub\n      swap1\n      log2\n        /* \"@openzeppelin/contracts/proxy/ERC1967/ERC1967Utils.sol\":2978:2979  0 */\n      0x00\n        /* \"@openzeppelin/contracts/proxy/ERC1967/ERC1967Utils.sol\":2964:2968  data */\n      dup2\n        /* \"@openzeppelin/contracts/proxy/ERC1967/ERC1967Utils.sol\":2964:2975  data.length */\n      mload\n        /* \"@openzeppelin/contracts/proxy/ERC1967/ERC1967Utils.sol\":2964:2979  data.length > 0 */\n      gt\n        /* \"@openzeppelin/contracts/proxy/ERC1967/ERC1967Utils.sol\":2960:3108  if (data.length > 0) {... */\n      iszero\n      tag_290\n      jumpi\n        /* \"@openzeppelin/contracts/proxy/ERC1967/ERC1967Utils.sol\":2995:3048  Address.functionDelegateCall(newImplementation, data) */\n      tag_291\n        /* \"@openzeppelin/contracts/proxy/ERC1967/ERC1967Utils.sol\":3024:3041  newImplementation */\n      dup3\n        /* \"@openzeppelin/contracts/proxy/ERC1967/ERC1967Utils.sol\":3043:3047  data */\n      dup3\n        /* \"@openzeppelin/contracts/proxy/ERC1967/ERC1967Utils.sol\":2995:3023  Address.functionDelegateCall */\n      tag_292\n        /* \"@openzeppelin/contracts/proxy/ERC1967/ERC1967Utils.sol\":2995:3048  Address.functionDelegateCall(newImplementation, data) */\n      jump\t// in\n    tag_291:\n      pop\n        /* \"@openzeppelin/contracts/proxy/ERC1967/ERC1967Utils.sol\":2960:3108  if (data.length > 0) {... */\n      jump(tag_293)\n    tag_290:\n        /* \"@openzeppelin/contracts/proxy/ERC1967/ERC1967Utils.sol\":3079:3097  _checkNonPayable() */\n      tag_294\n        /* \"@openzeppelin/contracts/proxy/ERC1967/ERC1967Utils.sol\":3079:3095  _checkNonPayable */\n      tag_295\n        /* \"@openzeppelin/contracts/proxy/ERC1967/ERC1967Utils.sol\":3079:3097  _checkNonPayable() */\n      jump\t// in\n    tag_294:\n        /* \"@openzeppelin/contracts/proxy/ERC1967/ERC1967Utils.sol\":2960:3108  if (data.length > 0) {... */\n    tag_293:\n        /* \"@openzeppelin/contracts/proxy/ERC1967/ERC1967Utils.sol\":2779:3114  function upgradeToAndCall(address newImplementation, bytes memory data) internal {... */\n      pop\n      pop\n      jump\t// out\n        /* \"@openzeppelin/contracts-upgradeable/proxy/utils/Initializable.sol\":8487:8607  function _isInitializing() internal view returns (bool) {... */\n    tag_282:\n        /* \"@openzeppelin/contracts-upgradeable/proxy/utils/Initializable.sol\":8537:8541  bool */\n      0x00\n        /* \"@openzeppelin/contracts-upgradeable/proxy/utils/Initializable.sol\":8560:8586  _getInitializableStorage() */\n      tag_297\n        /* \"@openzeppelin/contracts-upgradeable/proxy/utils/Initializable.sol\":8560:8584  _getInitializableStorage */\n      tag_161\n        /* \"@openzeppelin/contracts-upgradeable/proxy/utils/Initializable.sol\":8560:8586  _getInitializableStorage() */\n      jump\t// in\n    tag_297:\n        /* \"@openzeppelin/contracts-upgradeable/proxy/utils/Initializable.sol\":8560:8600  _getInitializableStorage()._initializing */\n      0x00\n      add\n      0x08\n      swap1\n      sload\n      swap1\n      0x0100\n      exp\n      swap1\n      div\n      0xff\n      and\n        /* \"@openzeppelin/contracts-upgradeable/proxy/utils/Initializable.sol\":8553:8600  return _getInitializableStorage()._initializing */\n      swap1\n      pop\n        /* \"@openzeppelin/contracts-upgradeable/proxy/utils/Initializable.sol\":8487:8607  function _isInitializing() internal view returns (bool) {... */\n      swap1\n      jump\t// out\n        /* \"@openzeppelin/contracts/utils/StorageSlot.sol\":1684:1874  function getAddressSlot(bytes32 slot) internal pure returns (AddressSlot storage r) {... */\n    tag_286:\n        /* \"@openzeppelin/contracts/utils/StorageSlot.sol\":1745:1766  AddressSlot storage r */\n      0x00\n        /* \"@openzeppelin/contracts/utils/StorageSlot.sol\":1854:1858  slot */\n      dup2\n        /* \"@openzeppelin/contracts/utils/StorageSlot.sol\":1844:1858  r.slot := slot */\n      swap1\n      pop\n        /* \"@openzeppelin/contracts/utils/StorageSlot.sol\":1684:1874  function getAddressSlot(bytes32 slot) internal pure returns (AddressSlot storage r) {... */\n      swap2\n      swap1\n      pop\n      jump\t// out\n        /* \"@openzeppelin/contracts/proxy/ERC1967/ERC1967Utils.sol\":2186:2467  function _setImplementation(address newImplementation) private {... */\n    tag_289:\n        /* \"@openzeppelin/contracts/proxy/ERC1967/ERC1967Utils.sol\":2296:2297  0 */\n      0x00\n        /* \"@openzeppelin/contracts/proxy/ERC1967/ERC1967Utils.sol\":2263:2280  newImplementation */\n      dup2\n        /* \"@openzeppelin/contracts/proxy/ERC1967/ERC1967Utils.sol\":2263:2292  newImplementation.code.length */\n      0xffffffffffffffffffffffffffffffffffffffff\n      and\n      extcodesize\n        /* \"@openzeppelin/contracts/proxy/ERC1967/ERC1967Utils.sol\":2263:2297  newImplementation.code.length == 0 */\n      sub\n        /* \"@openzeppelin/contracts/proxy/ERC1967/ERC1967Utils.sol\":2259:2378  if (newImplementation.code.length == 0) {... */\n      tag_300\n      jumpi\n        /* \"@openzeppelin/contracts/proxy/ERC1967/ERC1967Utils.sol\":2349:2366  newImplementation */\n      dup1\n        /* \"@openzeppelin/contracts/proxy/ERC1967/ERC1967Utils.sol\":2320:2367  ERC1967InvalidImplementation(newImplementation) */\n      mload(0x40)\n      0x4c9c8ce300000000000000000000000000000000000000000000000000000000\n      dup2\n      mstore\n      0x04\n      add\n      tag_301\n      swap2\n      swap1\n      tag_267\n      jump\t// in\n    tag_301:\n      mload(0x40)\n      dup1\n      swap2\n      sub\n      swap1\n      revert\n        /* \"@openzeppelin/contracts/proxy/ERC1967/ERC1967Utils.sol\":2259:2378  if (newImplementation.code.length == 0) {... */\n    tag_300:\n        /* \"@openzeppelin/contracts/proxy/ERC1967/ERC1967Utils.sol\":2443:2460  newImplementation */\n      dup1\n        /* \"@openzeppelin/contracts/proxy/ERC1967/ERC1967Utils.sol\":2387:2434  StorageSlot.getAddressSlot(IMPLEMENTATION_SLOT) */\n      tag_302\n        /* \"@openzeppelin/contracts/proxy/ERC1967/ERC1967Utils.sol\":1327:1393  0x360894a13ba1a3210667c828492db98dca3e2076cc3735a920a3ca505d382bbc */\n      0x360894a13ba1a3210667c828492db98dca3e2076cc3735a920a3ca505d382bbc\n        /* \"@openzeppelin/contracts/proxy/ERC1967/ERC1967Utils.sol\":2414:2433  IMPLEMENTATION_SLOT */\n      0x00\n      shl\n        /* \"@openzeppelin/contracts/proxy/ERC1967/ERC1967Utils.sol\":2387:2413  StorageSlot.getAddressSlot */\n      tag_286\n        /* \"@openzeppelin/contracts/proxy/ERC1967/ERC1967Utils.sol\":2387:2434  StorageSlot.getAddressSlot(IMPLEMENTATION_SLOT) */\n      jump\t// in\n    tag_302:\n        /* \"@openzeppelin/contracts/proxy/ERC1967/ERC1967Utils.sol\":2387:2440  StorageSlot.getAddressSlot(IMPLEMENTATION_SLOT).value */\n      0x00\n      add\n      0x00\n        /* \"@openzeppelin/contracts/proxy/ERC1967/ERC1967Utils.sol\":2387:2460  StorageSlot.getAddressSlot(IMPLEMENTATION_SLOT).value = newImplementation */\n      0x0100\n      exp\n      dup2\n      sload\n      dup2\n      0xffffffffffffffffffffffffffffffffffffffff\n      mul\n      not\n      and\n      swap1\n      dup4\n      0xffffffffffffffffffffffffffffffffffffffff\n      and\n      mul\n      or\n      swap1\n      sstore\n      pop\n        /* \"@openzeppelin/contracts/proxy/ERC1967/ERC1967Utils.sol\":2186:2467  function _setImplementation(address newImplementation) private {... */\n      pop\n      jump\t// out\n        /* \"@openzeppelin/contracts/utils/Address.sol\":4106:4359  function functionDelegateCall(address target, bytes memory data) internal returns (bytes memory) {... */\n    tag_292:\n        /* \"@openzeppelin/contracts/utils/Address.sol\":4189:4201  bytes memory */\n      0x60\n        /* \"@openzeppelin/contracts/utils/Address.sol\":4214:4226  bool success */\n      0x00\n        /* \"@openzeppelin/contracts/utils/Address.sol\":4228:4251  bytes memory returndata */\n      dup1\n        /* \"@openzeppelin/contracts/utils/Address.sol\":4255:4261  target */\n      dup5\n        /* \"@openzeppelin/contracts/utils/Address.sol\":4255:4274  target.delegatecall */\n      0xffffffffffffffffffffffffffffffffffffffff\n      and\n        /* \"@openzeppelin/contracts/utils/Address.sol\":4275:4279  data */\n      dup5\n        /* \"@openzeppelin/contracts/utils/Address.sol\":4255:4280  target.delegatecall(data) */\n      mload(0x40)\n      tag_304\n      swap2\n      swap1\n      tag_305\n      jump\t// in\n    tag_304:\n      0x00\n      mload(0x40)\n      dup1\n      dup4\n      sub\n      dup2\n      dup6\n      gas\n      delegatecall\n      swap2\n      pop\n      pop\n      returndatasize\n      dup1\n      0x00\n      dup2\n      eq\n      tag_308\n      jumpi\n      mload(0x40)\n      swap2\n      pop\n      and(add(returndatasize, 0x3f), not(0x1f))\n      dup3\n      add\n      0x40\n      mstore\n      returndatasize\n      dup3\n      mstore\n      returndatasize\n      0x00\n      0x20\n      dup5\n      add\n      returndatacopy\n      jump(tag_307)\n    tag_308:\n      0x60\n      swap2\n      pop\n    tag_307:\n      pop\n        /* \"@openzeppelin/contracts/utils/Address.sol\":4213:4280  (bool success, bytes memory returndata) = target.delegatecall(data) */\n      swap2\n      pop\n      swap2\n      pop\n        /* \"@openzeppelin/contracts/utils/Address.sol\":4297:4352  verifyCallResultFromTarget(target, success, returndata) */\n      tag_309\n        /* \"@openzeppelin/contracts/utils/Address.sol\":4324:4330  target */\n      dup6\n        /* \"@openzeppelin/contracts/utils/Address.sol\":4332:4339  success */\n      dup4\n        /* \"@openzeppelin/contracts/utils/Address.sol\":4341:4351  returndata */\n      dup4\n        /* \"@openzeppelin/contracts/utils/Address.sol\":4297:4323  verifyCallResultFromTarget */\n      tag_310\n        /* \"@openzeppelin/contracts/utils/Address.sol\":4297:4352  verifyCallResultFromTarget(target, success, returndata) */\n      jump\t// in\n    tag_309:\n        /* \"@openzeppelin/contracts/utils/Address.sol\":4290:4352  return verifyCallResultFromTarget(target, success, returndata) */\n      swap3\n      pop\n      pop\n      pop\n        /* \"@openzeppelin/contracts/utils/Address.sol\":4106:4359  function functionDelegateCall(address target, bytes memory data) internal returns (bytes memory) {... */\n      swap3\n      swap2\n      pop\n      pop\n      jump\t// out\n        /* \"@openzeppelin/contracts/proxy/ERC1967/ERC1967Utils.sol\":6598:6720  function _checkNonPayable() private {... */\n    tag_295:\n        /* \"@openzeppelin/contracts/proxy/ERC1967/ERC1967Utils.sol\":6660:6661  0 */\n      0x00\n        /* \"@openzeppelin/contracts/proxy/ERC1967/ERC1967Utils.sol\":6648:6657  msg.value */\n      callvalue\n        /* \"@openzeppelin/contracts/proxy/ERC1967/ERC1967Utils.sol\":6648:6661  msg.value > 0 */\n      gt\n        /* \"@openzeppelin/contracts/proxy/ERC1967/ERC1967Utils.sol\":6644:6714  if (msg.value > 0) {... */\n      iszero\n      tag_312\n      jumpi\n        /* \"@openzeppelin/contracts/proxy/ERC1967/ERC1967Utils.sol\":6684:6703  ERC1967NonPayable() */\n      mload(0x40)\n      0xb398979f00000000000000000000000000000000000000000000000000000000\n      dup2\n      mstore\n      0x04\n      add\n      mload(0x40)\n      dup1\n      swap2\n      sub\n      swap1\n      revert\n        /* \"@openzeppelin/contracts/proxy/ERC1967/ERC1967Utils.sol\":6644:6714  if (msg.value > 0) {... */\n    tag_312:\n        /* \"@openzeppelin/contracts/proxy/ERC1967/ERC1967Utils.sol\":6598:6720  function _checkNonPayable() private {... */\n      jump\t// out\n        /* \"@openzeppelin/contracts/utils/Address.sol\":4625:5207  function verifyCallResultFromTarget(... */\n    tag_310:\n        /* \"@openzeppelin/contracts/utils/Address.sol\":4769:4781  bytes memory */\n      0x60\n        /* \"@openzeppelin/contracts/utils/Address.sol\":4798:4805  success */\n      dup3\n        /* \"@openzeppelin/contracts/utils/Address.sol\":4793:5201  if (!success) {... */\n      tag_314\n      jumpi\n        /* \"@openzeppelin/contracts/utils/Address.sol\":4821:4840  _revert(returndata) */\n      tag_315\n        /* \"@openzeppelin/contracts/utils/Address.sol\":4829:4839  returndata */\n      dup3\n        /* \"@openzeppelin/contracts/utils/Address.sol\":4821:4828  _revert */\n      tag_316\n        /* \"@openzeppelin/contracts/utils/Address.sol\":4821:4840  _revert(returndata) */\n      jump\t// in\n    tag_315:\n        /* \"@openzeppelin/contracts/utils/Address.sol\":4793:5201  if (!success) {... */\n      jump(tag_317)\n    tag_314:\n        /* \"@openzeppelin/contracts/utils/Address.sol\":5066:5067  0 */\n      0x00\n        /* \"@openzeppelin/contracts/utils/Address.sol\":5045:5055  returndata */\n      dup3\n        /* \"@openzeppelin/contracts/utils/Address.sol\":5045:5062  returndata.length */\n      mload\n        /* \"@openzeppelin/contracts/utils/Address.sol\":5045:5067  returndata.length == 0 */\n      eq\n        /* \"@openzeppelin/contracts/utils/Address.sol\":5045:5094  returndata.length == 0 && target.code.length == 0 */\n      dup1\n      iszero\n      tag_318\n      jumpi\n      pop\n        /* \"@openzeppelin/contracts/utils/Address.sol\":5093:5094  0 */\n      0x00\n        /* \"@openzeppelin/contracts/utils/Address.sol\":5071:5077  target */\n      dup5\n        /* \"@openzeppelin/contracts/utils/Address.sol\":5071:5089  target.code.length */\n      0xffffffffffffffffffffffffffffffffffffffff\n      and\n      extcodesize\n        /* \"@openzeppelin/contracts/utils/Address.sol\":5071:5094  target.code.length == 0 */\n      eq\n        /* \"@openzeppelin/contracts/utils/Address.sol\":5045:5094  returndata.length == 0 && target.code.length == 0 */\n    tag_318:\n        /* \"@openzeppelin/contracts/utils/Address.sol\":5041:5160  if (returndata.length == 0 && target.code.length == 0) {... */\n      iszero\n      tag_319\n      jumpi\n        /* \"@openzeppelin/contracts/utils/Address.sol\":5138:5144  target */\n      dup4\n        /* \"@openzeppelin/contracts/utils/Address.sol\":5121:5145  AddressEmptyCode(target) */\n      mload(0x40)\n      0x9996b31500000000000000000000000000000000000000000000000000000000\n      dup2\n      mstore\n      0x04\n      add\n      tag_320\n      swap2\n      swap1\n      tag_267\n      jump\t// in\n    tag_320:\n      mload(0x40)\n      dup1\n      swap2\n      sub\n      swap1\n      revert\n        /* \"@openzeppelin/contracts/utils/Address.sol\":5041:5160  if (returndata.length == 0 && target.code.length == 0) {... */\n    tag_319:\n        /* \"@openzeppelin/contracts/utils/Address.sol\":5180:5190  returndata */\n      dup2\n        /* \"@openzeppelin/contracts/utils/Address.sol\":5173:5190  return returndata */\n      swap1\n      pop\n      jump(tag_313)\n        /* \"@openzeppelin/contracts/utils/Address.sol\":4793:5201  if (!success) {... */\n    tag_317:\n        /* \"@openzeppelin/contracts/utils/Address.sol\":4625:5207  function verifyCallResultFromTarget(... */\n    tag_313:\n      swap4\n      swap3\n      pop\n      pop\n      pop\n      jump\t// out\n        /* \"@openzeppelin/contracts/utils/Address.sol\":5743:6259  function _revert(bytes memory returndata) private pure {... */\n    tag_316:\n        /* \"@openzeppelin/contracts/utils/Address.sol\":5894:5895  0 */\n      0x00\n        /* \"@openzeppelin/contracts/utils/Address.sol\":5874:5884  returndata */\n      dup2\n        /* \"@openzeppelin/contracts/utils/Address.sol\":5874:5891  returndata.length */\n      mload\n        /* \"@openzeppelin/contracts/utils/Address.sol\":5874:5895  returndata.length > 0 */\n      gt\n        /* \"@openzeppelin/contracts/utils/Address.sol\":5870:6253  if (returndata.length > 0) {... */\n      iszero\n      tag_322\n      jumpi\n        /* \"@openzeppelin/contracts/utils/Address.sol\":6102:6112  returndata */\n      dup1\n        /* \"@openzeppelin/contracts/utils/Address.sol\":6096:6113  mload(returndata) */\n      mload\n        /* \"@openzeppelin/contracts/utils/Address.sol\":6158:6173  returndata_size */\n      dup1\n        /* \"@openzeppelin/contracts/utils/Address.sol\":6145:6155  returndata */\n      dup3\n        /* \"@openzeppelin/contracts/utils/Address.sol\":6141:6143  32 */\n      0x20\n        /* \"@openzeppelin/contracts/utils/Address.sol\":6137:6156  add(32, returndata) */\n      add\n        /* \"@openzeppelin/contracts/utils/Address.sol\":6130:6174  revert(add(32, returndata), returndata_size) */\n      revert\n        /* \"@openzeppelin/contracts/utils/Address.sol\":5870:6253  if (returndata.length > 0) {... */\n    tag_322:\n        /* \"@openzeppelin/contracts/utils/Address.sol\":6225:6242  FailedInnerCall() */\n      mload(0x40)\n      0x1425ea4200000000000000000000000000000000000000000000000000000000\n      dup2\n      mstore\n      0x04\n      add\n      mload(0x40)\n      dup1\n      swap2\n      sub\n      swap1\n      revert\n        /* \"#utility.yul\":7:82   */\n    tag_324:\n        /* \"#utility.yul\":40:46   */\n      0x00\n        /* \"#utility.yul\":73:75   */\n      0x40\n        /* \"#utility.yul\":67:76   */\n      mload\n        /* \"#utility.yul\":57:76   */\n      swap1\n      pop\n        /* \"#utility.yul\":7:82   */\n      swap1\n      jump\t// out\n        /* \"#utility.yul\":88:205   */\n    tag_325:\n        /* \"#utility.yul\":197:198   */\n      0x00\n        /* \"#utility.yul\":194:195   */\n      dup1\n        /* \"#utility.yul\":187:199   */\n      revert\n        /* \"#utility.yul\":211:328   */\n    tag_326:\n        /* \"#utility.yul\":320:321   */\n      0x00\n        /* \"#utility.yul\":317:318   */\n      dup1\n        /* \"#utility.yul\":310:322   */\n      revert\n        /* \"#utility.yul\":334:483   */\n    tag_327:\n        /* \"#utility.yul\":370:377   */\n      0x00\n        /* \"#utility.yul\":410:476   */\n      0xffffffff00000000000000000000000000000000000000000000000000000000\n        /* \"#utility.yul\":403:408   */\n      dup3\n        /* \"#utility.yul\":399:477   */\n      and\n        /* \"#utility.yul\":388:477   */\n      swap1\n      pop\n        /* \"#utility.yul\":334:483   */\n      swap2\n      swap1\n      pop\n      jump\t// out\n        /* \"#utility.yul\":489:609   */\n    tag_328:\n        /* \"#utility.yul\":561:584   */\n      tag_401\n        /* \"#utility.yul\":578:583   */\n      dup2\n        /* \"#utility.yul\":561:584   */\n      tag_327\n      jump\t// in\n    tag_401:\n        /* \"#utility.yul\":554:559   */\n      dup2\n        /* \"#utility.yul\":551:585   */\n      eq\n        /* \"#utility.yul\":541:603   */\n      tag_402\n      jumpi\n        /* \"#utility.yul\":599:600   */\n      0x00\n        /* \"#utility.yul\":596:597   */\n      dup1\n        /* \"#utility.yul\":589:601   */\n      revert\n        /* \"#utility.yul\":541:603   */\n    tag_402:\n        /* \"#utility.yul\":489:609   */\n      pop\n      jump\t// out\n        /* \"#utility.yul\":615:752   */\n    tag_329:\n        /* \"#utility.yul\":660:665   */\n      0x00\n        /* \"#utility.yul\":698:704   */\n      dup2\n        /* \"#utility.yul\":685:705   */\n      calldataload\n        /* \"#utility.yul\":676:705   */\n      swap1\n      pop\n        /* \"#utility.yul\":714:746   */\n      tag_404\n        /* \"#utility.yul\":740:745   */\n      dup2\n        /* \"#utility.yul\":714:746   */\n      tag_328\n      jump\t// in\n    tag_404:\n        /* \"#utility.yul\":615:752   */\n      swap3\n      swap2\n      pop\n      pop\n      jump\t// out\n        /* \"#utility.yul\":758:1085   */\n    tag_27:\n        /* \"#utility.yul\":816:822   */\n      0x00\n        /* \"#utility.yul\":865:867   */\n      0x20\n        /* \"#utility.yul\":853:862   */\n      dup3\n        /* \"#utility.yul\":844:851   */\n      dup5\n        /* \"#utility.yul\":840:863   */\n      sub\n        /* \"#utility.yul\":836:868   */\n      slt\n        /* \"#utility.yul\":833:952   */\n      iszero\n      tag_406\n      jumpi\n        /* \"#utility.yul\":871:950   */\n      tag_407\n      tag_325\n      jump\t// in\n    tag_407:\n        /* \"#utility.yul\":833:952   */\n    tag_406:\n        /* \"#utility.yul\":991:992   */\n      0x00\n        /* \"#utility.yul\":1016:1068   */\n      tag_408\n        /* \"#utility.yul\":1060:1067   */\n      dup5\n        /* \"#utility.yul\":1051:1057   */\n      dup3\n        /* \"#utility.yul\":1040:1049   */\n      dup6\n        /* \"#utility.yul\":1036:1058   */\n      add\n        /* \"#utility.yul\":1016:1068   */\n      tag_329\n      jump\t// in\n    tag_408:\n        /* \"#utility.yul\":1006:1068   */\n      swap2\n      pop\n        /* \"#utility.yul\":962:1078   */\n      pop\n        /* \"#utility.yul\":758:1085   */\n      swap3\n      swap2\n      pop\n      pop\n      jump\t// out\n        /* \"#utility.yul\":1091:1181   */\n    tag_330:\n        /* \"#utility.yul\":1125:1132   */\n      0x00\n        /* \"#utility.yul\":1168:1173   */\n      dup2\n        /* \"#utility.yul\":1161:1174   */\n      iszero\n        /* \"#utility.yul\":1154:1175   */\n      iszero\n        /* \"#utility.yul\":1143:1175   */\n      swap1\n      pop\n        /* \"#utility.yul\":1091:1181   */\n      swap2\n      swap1\n      pop\n      jump\t// out\n        /* \"#utility.yul\":1187:1296   */\n    tag_331:\n        /* \"#utility.yul\":1268:1289   */\n      tag_411\n        /* \"#utility.yul\":1283:1288   */\n      dup2\n        /* \"#utility.yul\":1268:1289   */\n      tag_330\n      jump\t// in\n    tag_411:\n        /* \"#utility.yul\":1263:1266   */\n      dup3\n        /* \"#utility.yul\":1256:1290   */\n      mstore\n        /* \"#utility.yul\":1187:1296   */\n      pop\n      pop\n      jump\t// out\n        /* \"#utility.yul\":1302:1512   */\n    tag_30:\n        /* \"#utility.yul\":1389:1393   */\n      0x00\n        /* \"#utility.yul\":1427:1429   */\n      0x20\n        /* \"#utility.yul\":1416:1425   */\n      dup3\n        /* \"#utility.yul\":1412:1430   */\n      add\n        /* \"#utility.yul\":1404:1430   */\n      swap1\n      pop\n        /* \"#utility.yul\":1440:1505   */\n      tag_413\n        /* \"#utility.yul\":1502:1503   */\n      0x00\n        /* \"#utility.yul\":1491:1500   */\n      dup4\n        /* \"#utility.yul\":1487:1504   */\n      add\n        /* \"#utility.yul\":1478:1484   */\n      dup5\n        /* \"#utility.yul\":1440:1505   */\n      tag_331\n      jump\t// in\n    tag_413:\n        /* \"#utility.yul\":1302:1512   */\n      swap3\n      swap2\n      pop\n      pop\n      jump\t// out\n        /* \"#utility.yul\":1518:1644   */\n    tag_332:\n        /* \"#utility.yul\":1555:1562   */\n      0x00\n        /* \"#utility.yul\":1595:1637   */\n      0xffffffffffffffffffffffffffffffffffffffff\n        /* \"#utility.yul\":1588:1593   */\n      dup3\n        /* \"#utility.yul\":1584:1638   */\n      and\n        /* \"#utility.yul\":1573:1638   */\n      swap1\n      pop\n        /* \"#utility.yul\":1518:1644   */\n      swap2\n      swap1\n      pop\n      jump\t// out\n        /* \"#utility.yul\":1650:1746   */\n    tag_333:\n        /* \"#utility.yul\":1687:1694   */\n      0x00\n        /* \"#utility.yul\":1716:1740   */\n      tag_416\n        /* \"#utility.yul\":1734:1739   */\n      dup3\n        /* \"#utility.yul\":1716:1740   */\n      tag_332\n      jump\t// in\n    tag_416:\n        /* \"#utility.yul\":1705:1740   */\n      swap1\n      pop\n        /* \"#utility.yul\":1650:1746   */\n      swap2\n      swap1\n      pop\n      jump\t// out\n        /* \"#utility.yul\":1752:1874   */\n    tag_334:\n        /* \"#utility.yul\":1825:1849   */\n      tag_418\n        /* \"#utility.yul\":1843:1848   */\n      dup2\n        /* \"#utility.yul\":1825:1849   */\n      tag_333\n      jump\t// in\n    tag_418:\n        /* \"#utility.yul\":1818:1823   */\n      dup2\n        /* \"#utility.yul\":1815:1850   */\n      eq\n        /* \"#utility.yul\":1805:1868   */\n      tag_419\n      jumpi\n        /* \"#utility.yul\":1864:1865   */\n      0x00\n        /* \"#utility.yul\":1861:1862   */\n      dup1\n        /* \"#utility.yul\":1854:1866   */\n      revert\n        /* \"#utility.yul\":1805:1868   */\n    tag_419:\n        /* \"#utility.yul\":1752:1874   */\n      pop\n      jump\t// out\n        /* \"#utility.yul\":1880:2019   */\n    tag_335:\n        /* \"#utility.yul\":1926:1931   */\n      0x00\n        /* \"#utility.yul\":1964:1970   */\n      dup2\n        /* \"#utility.yul\":1951:1971   */\n      calldataload\n        /* \"#utility.yul\":1942:1971   */\n      swap1\n      pop\n        /* \"#utility.yul\":1980:2013   */\n      tag_421\n        /* \"#utility.yul\":2007:2012   */\n      dup2\n        /* \"#utility.yul\":1980:2013   */\n      tag_334\n      jump\t// in\n    tag_421:\n        /* \"#utility.yul\":1880:2019   */\n      swap3\n      swap2\n      pop\n      pop\n      jump\t// out\n        /* \"#utility.yul\":2025:2141   */\n    tag_336:\n        /* \"#utility.yul\":2095:2116   */\n      tag_423\n        /* \"#utility.yul\":2110:2115   */\n      dup2\n        /* \"#utility.yul\":2095:2116   */\n      tag_330\n      jump\t// in\n    tag_423:\n        /* \"#utility.yul\":2088:2093   */\n      dup2\n        /* \"#utility.yul\":2085:2117   */\n      eq\n        /* \"#utility.yul\":2075:2135   */\n      tag_424\n      jumpi\n        /* \"#utility.yul\":2131:2132   */\n      0x00\n        /* \"#utility.yul\":2128:2129   */\n      dup1\n        /* \"#utility.yul\":2121:2133   */\n      revert\n        /* \"#utility.yul\":2075:2135   */\n    tag_424:\n        /* \"#utility.yul\":2025:2141   */\n      pop\n      jump\t// out\n        /* \"#utility.yul\":2147:2280   */\n    tag_337:\n        /* \"#utility.yul\":2190:2195   */\n      0x00\n        /* \"#utility.yul\":2228:2234   */\n      dup2\n        /* \"#utility.yul\":2215:2235   */\n      calldataload\n        /* \"#utility.yul\":2206:2235   */\n      swap1\n      pop\n        /* \"#utility.yul\":2244:2274   */\n      tag_426\n        /* \"#utility.yul\":2268:2273   */\n      dup2\n        /* \"#utility.yul\":2244:2274   */\n      tag_336\n      jump\t// in\n    tag_426:\n        /* \"#utility.yul\":2147:2280   */\n      swap3\n      swap2\n      pop\n      pop\n      jump\t// out\n        /* \"#utility.yul\":2286:2754   */\n    tag_34:\n        /* \"#utility.yul\":2351:2357   */\n      0x00\n        /* \"#utility.yul\":2359:2365   */\n      dup1\n        /* \"#utility.yul\":2408:2410   */\n      0x40\n        /* \"#utility.yul\":2396:2405   */\n      dup4\n        /* \"#utility.yul\":2387:2394   */\n      dup6\n        /* \"#utility.yul\":2383:2406   */\n      sub\n        /* \"#utility.yul\":2379:2411   */\n      slt\n        /* \"#utility.yul\":2376:2495   */\n      iszero\n      tag_428\n      jumpi\n        /* \"#utility.yul\":2414:2493   */\n      tag_429\n      tag_325\n      jump\t// in\n    tag_429:\n        /* \"#utility.yul\":2376:2495   */\n    tag_428:\n        /* \"#utility.yul\":2534:2535   */\n      0x00\n        /* \"#utility.yul\":2559:2612   */\n      tag_430\n        /* \"#utility.yul\":2604:2611   */\n      dup6\n        /* \"#utility.yul\":2595:2601   */\n      dup3\n        /* \"#utility.yul\":2584:2593   */\n      dup7\n        /* \"#utility.yul\":2580:2602   */\n      add\n        /* \"#utility.yul\":2559:2612   */\n      tag_335\n      jump\t// in\n    tag_430:\n        /* \"#utility.yul\":2549:2612   */\n      swap3\n      pop\n        /* \"#utility.yul\":2505:2622   */\n      pop\n        /* \"#utility.yul\":2661:2663   */\n      0x20\n        /* \"#utility.yul\":2687:2737   */\n      tag_431\n        /* \"#utility.yul\":2729:2736   */\n      dup6\n        /* \"#utility.yul\":2720:2726   */\n      dup3\n        /* \"#utility.yul\":2709:2718   */\n      dup7\n        /* \"#utility.yul\":2705:2727   */\n      add\n        /* \"#utility.yul\":2687:2737   */\n      tag_337\n      jump\t// in\n    tag_431:\n        /* \"#utility.yul\":2677:2737   */\n      swap2\n      pop\n        /* \"#utility.yul\":2632:2747   */\n      pop\n        /* \"#utility.yul\":2286:2754   */\n      swap3\n      pop\n      swap3\n      swap1\n      pop\n      jump\t// out\n        /* \"#utility.yul\":2760:2837   */\n    tag_338:\n        /* \"#utility.yul\":2797:2804   */\n      0x00\n        /* \"#utility.yul\":2826:2831   */\n      dup2\n        /* \"#utility.yul\":2815:2831   */\n      swap1\n      pop\n        /* \"#utility.yul\":2760:2837   */\n      swap2\n      swap1\n      pop\n      jump\t// out\n        /* \"#utility.yul\":2843:2965   */\n    tag_339:\n        /* \"#utility.yul\":2916:2940   */\n      tag_434\n        /* \"#utility.yul\":2934:2939   */\n      dup2\n        /* \"#utility.yul\":2916:2940   */\n      tag_338\n      jump\t// in\n    tag_434:\n        /* \"#utility.yul\":2909:2914   */\n      dup2\n        /* \"#utility.yul\":2906:2941   */\n      eq\n        /* \"#utility.yul\":2896:2959   */\n      tag_435\n      jumpi\n        /* \"#utility.yul\":2955:2956   */\n      0x00\n        /* \"#utility.yul\":2952:2953   */\n      dup1\n        /* \"#utility.yul\":2945:2957   */\n      revert\n        /* \"#utility.yul\":2896:2959   */\n    tag_435:\n        /* \"#utility.yul\":2843:2965   */\n      pop\n      jump\t// out\n        /* \"#utility.yul\":2971:3110   */\n    tag_340:\n        /* \"#utility.yul\":3017:3022   */\n      0x00\n        /* \"#utility.yul\":3055:3061   */\n      dup2\n        /* \"#utility.yul\":3042:3062   */\n      calldataload\n        /* \"#utility.yul\":3033:3062   */\n      swap1\n      pop\n        /* \"#utility.yul\":3071:3104   */\n      tag_437\n        /* \"#utility.yul\":3098:3103   */\n      dup2\n        /* \"#utility.yul\":3071:3104   */\n      tag_339\n      jump\t// in\n    tag_437:\n        /* \"#utility.yul\":2971:3110   */\n      swap3\n      swap2\n      pop\n      pop\n      jump\t// out\n        /* \"#utility.yul\":3116:3445   */\n    tag_39:\n        /* \"#utility.yul\":3175:3181   */\n      0x00\n        /* \"#utility.yul\":3224:3226   */\n      0x20\n        /* \"#utility.yul\":3212:3221   */\n      dup3\n        /* \"#utility.yul\":3203:3210   */\n      dup5\n        /* \"#utility.yul\":3199:3222   */\n      sub\n        /* \"#utility.yul\":3195:3227   */\n      slt\n        /* \"#utility.yul\":3192:3311   */\n      iszero\n      tag_439\n      jumpi\n        /* \"#utility.yul\":3230:3309   */\n      tag_440\n      tag_325\n      jump\t// in\n    tag_440:\n        /* \"#utility.yul\":3192:3311   */\n    tag_439:\n        /* \"#utility.yul\":3350:3351   */\n      0x00\n        /* \"#utility.yul\":3375:3428   */\n      tag_441\n        /* \"#utility.yul\":3420:3427   */\n      dup5\n        /* \"#utility.yul\":3411:3417   */\n      dup3\n        /* \"#utility.yul\":3400:3409   */\n      dup6\n        /* \"#utility.yul\":3396:3418   */\n      add\n        /* \"#utility.yul\":3375:3428   */\n      tag_340\n      jump\t// in\n    tag_441:\n        /* \"#utility.yul\":3365:3428   */\n      swap2\n      pop\n        /* \"#utility.yul\":3321:3438   */\n      pop\n        /* \"#utility.yul\":3116:3445   */\n      swap3\n      swap2\n      pop\n      pop\n      jump\t// out\n        /* \"#utility.yul\":3451:3569   */\n    tag_341:\n        /* \"#utility.yul\":3538:3562   */\n      tag_443\n        /* \"#utility.yul\":3556:3561   */\n      dup2\n        /* \"#utility.yul\":3538:3562   */\n      tag_338\n      jump\t// in\n    tag_443:\n        /* \"#utility.yul\":3533:3536   */\n      dup3\n        /* \"#utility.yul\":3526:3563   */\n      mstore\n        /* \"#utility.yul\":3451:3569   */\n      pop\n      pop\n      jump\t// out\n        /* \"#utility.yul\":3575:3797   */\n    tag_42:\n        /* \"#utility.yul\":3668:3672   */\n      0x00\n        /* \"#utility.yul\":3706:3708   */\n      0x20\n        /* \"#utility.yul\":3695:3704   */\n      dup3\n        /* \"#utility.yul\":3691:3709   */\n      add\n        /* \"#utility.yul\":3683:3709   */\n      swap1\n      pop\n        /* \"#utility.yul\":3719:3790   */\n      tag_445\n        /* \"#utility.yul\":3787:3788   */\n      0x00\n        /* \"#utility.yul\":3776:3785   */\n      dup4\n        /* \"#utility.yul\":3772:3789   */\n      add\n        /* \"#utility.yul\":3763:3769   */\n      dup5\n        /* \"#utility.yul\":3719:3790   */\n      tag_341\n      jump\t// in\n    tag_445:\n        /* \"#utility.yul\":3575:3797   */\n      swap3\n      swap2\n      pop\n      pop\n      jump\t// out\n        /* \"#utility.yul\":3803:4277   */\n    tag_46:\n        /* \"#utility.yul\":3871:3877   */\n      0x00\n        /* \"#utility.yul\":3879:3885   */\n      dup1\n        /* \"#utility.yul\":3928:3930   */\n      0x40\n        /* \"#utility.yul\":3916:3925   */\n      dup4\n        /* \"#utility.yul\":3907:3914   */\n      dup6\n        /* \"#utility.yul\":3903:3926   */\n      sub\n        /* \"#utility.yul\":3899:3931   */\n      slt\n        /* \"#utility.yul\":3896:4015   */\n      iszero\n      tag_447\n      jumpi\n        /* \"#utility.yul\":3934:4013   */\n      tag_448\n      tag_325\n      jump\t// in\n    tag_448:\n        /* \"#utility.yul\":3896:4015   */\n    tag_447:\n        /* \"#utility.yul\":4054:4055   */\n      0x00\n        /* \"#utility.yul\":4079:4132   */\n      tag_449\n        /* \"#utility.yul\":4124:4131   */\n      dup6\n        /* \"#utility.yul\":4115:4121   */\n      dup3\n        /* \"#utility.yul\":4104:4113   */\n      dup7\n        /* \"#utility.yul\":4100:4122   */\n      add\n        /* \"#utility.yul\":4079:4132   */\n      tag_340\n      jump\t// in\n    tag_449:\n        /* \"#utility.yul\":4069:4132   */\n      swap3\n      pop\n        /* \"#utility.yul\":4025:4142   */\n      pop\n        /* \"#utility.yul\":4181:4183   */\n      0x20\n        /* \"#utility.yul\":4207:4260   */\n      tag_450\n        /* \"#utility.yul\":4252:4259   */\n      dup6\n        /* \"#utility.yul\":4243:4249   */\n      dup3\n        /* \"#utility.yul\":4232:4241   */\n      dup7\n        /* \"#utility.yul\":4228:4250   */\n      add\n        /* \"#utility.yul\":4207:4260   */\n      tag_335\n      jump\t// in\n    tag_450:\n        /* \"#utility.yul\":4197:4260   */\n      swap2\n      pop\n        /* \"#utility.yul\":4152:4270   */\n      pop\n        /* \"#utility.yul\":3803:4277   */\n      swap3\n      pop\n      swap3\n      swap1\n      pop\n      jump\t// out\n        /* \"#utility.yul\":4283:4360   */\n    tag_342:\n        /* \"#utility.yul\":4320:4327   */\n      0x00\n        /* \"#utility.yul\":4349:4354   */\n      dup2\n        /* \"#utility.yul\":4338:4354   */\n      swap1\n      pop\n        /* \"#utility.yul\":4283:4360   */\n      swap2\n      swap1\n      pop\n      jump\t// out\n        /* \"#utility.yul\":4366:4488   */\n    tag_343:\n        /* \"#utility.yul\":4439:4463   */\n      tag_453\n        /* \"#utility.yul\":4457:4462   */\n      dup2\n        /* \"#utility.yul\":4439:4463   */\n      tag_342\n      jump\t// in\n    tag_453:\n        /* \"#utility.yul\":4432:4437   */\n      dup2\n        /* \"#utility.yul\":4429:4464   */\n      eq\n        /* \"#utility.yul\":4419:4482   */\n      tag_454\n      jumpi\n        /* \"#utility.yul\":4478:4479   */\n      0x00\n        /* \"#utility.yul\":4475:4476   */\n      dup1\n        /* \"#utility.yul\":4468:4480   */\n      revert\n        /* \"#utility.yul\":4419:4482   */\n    tag_454:\n        /* \"#utility.yul\":4366:4488   */\n      pop\n      jump\t// out\n        /* \"#utility.yul\":4494:4633   */\n    tag_344:\n        /* \"#utility.yul\":4540:4545   */\n      0x00\n        /* \"#utility.yul\":4578:4584   */\n      dup2\n        /* \"#utility.yul\":4565:4585   */\n      calldataload\n        /* \"#utility.yul\":4556:4585   */\n      swap1\n      pop\n        /* \"#utility.yul\":4594:4627   */\n      tag_456\n        /* \"#utility.yul\":4621:4626   */\n      dup2\n        /* \"#utility.yul\":4594:4627   */\n      tag_343\n      jump\t// in\n    tag_456:\n        /* \"#utility.yul\":4494:4633   */\n      swap3\n      swap2\n      pop\n      pop\n      jump\t// out\n        /* \"#utility.yul\":4639:4968   */\n    tag_55:\n        /* \"#utility.yul\":4698:4704   */\n      0x00\n        /* \"#utility.yul\":4747:4749   */\n      0x20\n        /* \"#utility.yul\":4735:4744   */\n      dup3\n        /* \"#utility.yul\":4726:4733   */\n      dup5\n        /* \"#utility.yul\":4722:4745   */\n      sub\n        /* \"#utility.yul\":4718:4750   */\n      slt\n        /* \"#utility.yul\":4715:4834   */\n      iszero\n      tag_458\n      jumpi\n        /* \"#utility.yul\":4753:4832   */\n      tag_459\n      tag_325\n      jump\t// in\n    tag_459:\n        /* \"#utility.yul\":4715:4834   */\n    tag_458:\n        /* \"#utility.yul\":4873:4874   */\n      0x00\n        /* \"#utility.yul\":4898:4951   */\n      tag_460\n        /* \"#utility.yul\":4943:4950   */\n      dup5\n        /* \"#utility.yul\":4934:4940   */\n      dup3\n        /* \"#utility.yul\":4923:4932   */\n      dup6\n        /* \"#utility.yul\":4919:4941   */\n      add\n        /* \"#utility.yul\":4898:4951   */\n      tag_344\n      jump\t// in\n    tag_460:\n        /* \"#utility.yul\":4888:4951   */\n      swap2\n      pop\n        /* \"#utility.yul\":4844:4961   */\n      pop\n        /* \"#utility.yul\":4639:4968   */\n      swap3\n      swap2\n      pop\n      pop\n      jump\t// out\n        /* \"#utility.yul\":4974:5448   */\n    tag_60:\n        /* \"#utility.yul\":5042:5048   */\n      0x00\n        /* \"#utility.yul\":5050:5056   */\n      dup1\n        /* \"#utility.yul\":5099:5101   */\n      0x40\n        /* \"#utility.yul\":5087:5096   */\n      dup4\n        /* \"#utility.yul\":5078:5085   */\n      dup6\n        /* \"#utility.yul\":5074:5097   */\n      sub\n        /* \"#utility.yul\":5070:5102   */\n      slt\n        /* \"#utility.yul\":5067:5186   */\n      iszero\n      tag_462\n      jumpi\n        /* \"#utility.yul\":5105:5184   */\n      tag_463\n      tag_325\n      jump\t// in\n    tag_463:\n        /* \"#utility.yul\":5067:5186   */\n    tag_462:\n        /* \"#utility.yul\":5225:5226   */\n      0x00\n        /* \"#utility.yul\":5250:5303   */\n      tag_464\n        /* \"#utility.yul\":5295:5302   */\n      dup6\n        /* \"#utility.yul\":5286:5292   */\n      dup3\n        /* \"#utility.yul\":5275:5284   */\n      dup7\n        /* \"#utility.yul\":5271:5293   */\n      add\n        /* \"#utility.yul\":5250:5303   */\n      tag_335\n      jump\t// in\n    tag_464:\n        /* \"#utility.yul\":5240:5303   */\n      swap3\n      pop\n        /* \"#utility.yul\":5196:5313   */\n      pop\n        /* \"#utility.yul\":5352:5354   */\n      0x20\n        /* \"#utility.yul\":5378:5431   */\n      tag_465\n        /* \"#utility.yul\":5423:5430   */\n      dup6\n        /* \"#utility.yul\":5414:5420   */\n      dup3\n        /* \"#utility.yul\":5403:5412   */\n      dup7\n        /* \"#utility.yul\":5399:5421   */\n      add\n        /* \"#utility.yul\":5378:5431   */\n      tag_344\n      jump\t// in\n    tag_465:\n        /* \"#utility.yul\":5368:5431   */\n      swap2\n      pop\n        /* \"#utility.yul\":5323:5441   */\n      pop\n        /* \"#utility.yul\":4974:5448   */\n      swap3\n      pop\n      swap3\n      swap1\n      pop\n      jump\t// out\n        /* \"#utility.yul\":5454:5928   */\n    tag_65:\n        /* \"#utility.yul\":5522:5528   */\n      0x00\n        /* \"#utility.yul\":5530:5536   */\n      dup1\n        /* \"#utility.yul\":5579:5581   */\n      0x40\n        /* \"#utility.yul\":5567:5576   */\n      dup4\n        /* \"#utility.yul\":5558:5565   */\n      dup6\n        /* \"#utility.yul\":5554:5577   */\n      sub\n        /* \"#utility.yul\":5550:5582   */\n      slt\n        /* \"#utility.yul\":5547:5666   */\n      iszero\n      tag_467\n      jumpi\n        /* \"#utility.yul\":5585:5664   */\n      tag_468\n      tag_325\n      jump\t// in\n    tag_468:\n        /* \"#utility.yul\":5547:5666   */\n    tag_467:\n        /* \"#utility.yul\":5705:5706   */\n      0x00\n        /* \"#utility.yul\":5730:5783   */\n      tag_469\n        /* \"#utility.yul\":5775:5782   */\n      dup6\n        /* \"#utility.yul\":5766:5772   */\n      dup3\n        /* \"#utility.yul\":5755:5764   */\n      dup7\n        /* \"#utility.yul\":5751:5773   */\n      add\n        /* \"#utility.yul\":5730:5783   */\n      tag_335\n      jump\t// in\n    tag_469:\n        /* \"#utility.yul\":5720:5783   */\n      swap3\n      pop\n        /* \"#utility.yul\":5676:5793   */\n      pop\n        /* \"#utility.yul\":5832:5834   */\n      0x20\n        /* \"#utility.yul\":5858:5911   */\n      tag_470\n        /* \"#utility.yul\":5903:5910   */\n      dup6\n        /* \"#utility.yul\":5894:5900   */\n      dup3\n        /* \"#utility.yul\":5883:5892   */\n      dup7\n        /* \"#utility.yul\":5879:5901   */\n      add\n        /* \"#utility.yul\":5858:5911   */\n      tag_335\n      jump\t// in\n    tag_470:\n        /* \"#utility.yul\":5848:5911   */\n      swap2\n      pop\n        /* \"#utility.yul\":5803:5921   */\n      pop\n        /* \"#utility.yul\":5454:5928   */\n      swap3\n      pop\n      swap3\n      swap1\n      pop\n      jump\t// out\n        /* \"#utility.yul\":5934:6051   */\n    tag_345:\n        /* \"#utility.yul\":6043:6044   */\n      0x00\n        /* \"#utility.yul\":6040:6041   */\n      dup1\n        /* \"#utility.yul\":6033:6045   */\n      revert\n        /* \"#utility.yul\":6057:6174   */\n    tag_346:\n        /* \"#utility.yul\":6166:6167   */\n      0x00\n        /* \"#utility.yul\":6163:6164   */\n      dup1\n        /* \"#utility.yul\":6156:6168   */\n      revert\n        /* \"#utility.yul\":6180:6282   */\n    tag_347:\n        /* \"#utility.yul\":6221:6227   */\n      0x00\n        /* \"#utility.yul\":6272:6274   */\n      0x1f\n        /* \"#utility.yul\":6268:6275   */\n      not\n        /* \"#utility.yul\":6263:6265   */\n      0x1f\n        /* \"#utility.yul\":6256:6261   */\n      dup4\n        /* \"#utility.yul\":6252:6266   */\n      add\n        /* \"#utility.yul\":6248:6276   */\n      and\n        /* \"#utility.yul\":6238:6276   */\n      swap1\n      pop\n        /* \"#utility.yul\":6180:6282   */\n      swap2\n      swap1\n      pop\n      jump\t// out\n        /* \"#utility.yul\":6288:6468   */\n    tag_348:\n        /* \"#utility.yul\":6336:6413   */\n      0x4e487b7100000000000000000000000000000000000000000000000000000000\n        /* \"#utility.yul\":6333:6334   */\n      0x00\n        /* \"#utility.yul\":6326:6414   */\n      mstore\n        /* \"#utility.yul\":6433:6437   */\n      0x41\n        /* \"#utility.yul\":6430:6431   */\n      0x04\n        /* \"#utility.yul\":6423:6438   */\n      mstore\n        /* \"#utility.yul\":6457:6461   */\n      0x24\n        /* \"#utility.yul\":6454:6455   */\n      0x00\n        /* \"#utility.yul\":6447:6462   */\n      revert\n        /* \"#utility.yul\":6474:6755   */\n    tag_349:\n        /* \"#utility.yul\":6557:6584   */\n      tag_476\n        /* \"#utility.yul\":6579:6583   */\n      dup3\n        /* \"#utility.yul\":6557:6584   */\n      tag_347\n      jump\t// in\n    tag_476:\n        /* \"#utility.yul\":6549:6555   */\n      dup2\n        /* \"#utility.yul\":6545:6585   */\n      add\n        /* \"#utility.yul\":6687:6693   */\n      dup2\n        /* \"#utility.yul\":6675:6685   */\n      dup2\n        /* \"#utility.yul\":6672:6694   */\n      lt\n        /* \"#utility.yul\":6651:6669   */\n      0xffffffffffffffff\n        /* \"#utility.yul\":6639:6649   */\n      dup3\n        /* \"#utility.yul\":6636:6670   */\n      gt\n        /* \"#utility.yul\":6633:6695   */\n      or\n        /* \"#utility.yul\":6630:6718   */\n      iszero\n      tag_477\n      jumpi\n        /* \"#utility.yul\":6698:6716   */\n      tag_478\n      tag_348\n      jump\t// in\n    tag_478:\n        /* \"#utility.yul\":6630:6718   */\n    tag_477:\n        /* \"#utility.yul\":6738:6748   */\n      dup1\n        /* \"#utility.yul\":6734:6736   */\n      0x40\n        /* \"#utility.yul\":6727:6749   */\n      mstore\n        /* \"#utility.yul\":6517:6755   */\n      pop\n        /* \"#utility.yul\":6474:6755   */\n      pop\n      pop\n      jump\t// out\n        /* \"#utility.yul\":6761:6890   */\n    tag_350:\n        /* \"#utility.yul\":6795:6801   */\n      0x00\n        /* \"#utility.yul\":6822:6842   */\n      tag_480\n      tag_324\n      jump\t// in\n    tag_480:\n        /* \"#utility.yul\":6812:6842   */\n      swap1\n      pop\n        /* \"#utility.yul\":6851:6884   */\n      tag_481\n        /* \"#utility.yul\":6879:6883   */\n      dup3\n        /* \"#utility.yul\":6871:6877   */\n      dup3\n        /* \"#utility.yul\":6851:6884   */\n      tag_349\n      jump\t// in\n    tag_481:\n        /* \"#utility.yul\":6761:6890   */\n      swap2\n      swap1\n      pop\n      jump\t// out\n        /* \"#utility.yul\":6896:7203   */\n    tag_351:\n        /* \"#utility.yul\":6957:6961   */\n      0x00\n        /* \"#utility.yul\":7047:7065   */\n      0xffffffffffffffff\n        /* \"#utility.yul\":7039:7045   */\n      dup3\n        /* \"#utility.yul\":7036:7066   */\n      gt\n        /* \"#utility.yul\":7033:7089   */\n      iszero\n      tag_483\n      jumpi\n        /* \"#utility.yul\":7069:7087   */\n      tag_484\n      tag_348\n      jump\t// in\n    tag_484:\n        /* \"#utility.yul\":7033:7089   */\n    tag_483:\n        /* \"#utility.yul\":7107:7136   */\n      tag_485\n        /* \"#utility.yul\":7129:7135   */\n      dup3\n        /* \"#utility.yul\":7107:7136   */\n      tag_347\n      jump\t// in\n    tag_485:\n        /* \"#utility.yul\":7099:7136   */\n      swap1\n      pop\n        /* \"#utility.yul\":7191:7195   */\n      0x20\n        /* \"#utility.yul\":7185:7189   */\n      dup2\n        /* \"#utility.yul\":7181:7196   */\n      add\n        /* \"#utility.yul\":7173:7196   */\n      swap1\n      pop\n        /* \"#utility.yul\":6896:7203   */\n      swap2\n      swap1\n      pop\n      jump\t// out\n        /* \"#utility.yul\":7209:7355   */\n    tag_352:\n        /* \"#utility.yul\":7306:7312   */\n      dup3\n        /* \"#utility.yul\":7301:7304   */\n      dup2\n        /* \"#utility.yul\":7296:7299   */\n      dup4\n        /* \"#utility.yul\":7283:7313   */\n      calldatacopy\n        /* \"#utility.yul\":7347:7348   */\n      0x00\n        /* \"#utility.yul\":7338:7344   */\n      dup4\n        /* \"#utility.yul\":7333:7336   */\n      dup4\n        /* \"#utility.yul\":7329:7345   */\n      add\n        /* \"#utility.yul\":7322:7349   */\n      mstore\n        /* \"#utility.yul\":7209:7355   */\n      pop\n      pop\n      pop\n      jump\t// out\n        /* \"#utility.yul\":7361:7784   */\n    tag_353:\n        /* \"#utility.yul\":7438:7443   */\n      0x00\n        /* \"#utility.yul\":7463:7528   */\n      tag_488\n        /* \"#utility.yul\":7479:7527   */\n      tag_489\n        /* \"#utility.yul\":7520:7526   */\n      dup5\n        /* \"#utility.yul\":7479:7527   */\n      tag_351\n      jump\t// in\n    tag_489:\n        /* \"#utility.yul\":7463:7528   */\n      tag_350\n      jump\t// in\n    tag_488:\n        /* \"#utility.yul\":7454:7528   */\n      swap1\n      pop\n        /* \"#utility.yul\":7551:7557   */\n      dup3\n        /* \"#utility.yul\":7544:7549   */\n      dup2\n        /* \"#utility.yul\":7537:7558   */\n      mstore\n        /* \"#utility.yul\":7589:7593   */\n      0x20\n        /* \"#utility.yul\":7582:7587   */\n      dup2\n        /* \"#utility.yul\":7578:7594   */\n      add\n        /* \"#utility.yul\":7627:7630   */\n      dup5\n        /* \"#utility.yul\":7618:7624   */\n      dup5\n        /* \"#utility.yul\":7613:7616   */\n      dup5\n        /* \"#utility.yul\":7609:7625   */\n      add\n        /* \"#utility.yul\":7606:7631   */\n      gt\n        /* \"#utility.yul\":7603:7715   */\n      iszero\n      tag_490\n      jumpi\n        /* \"#utility.yul\":7634:7713   */\n      tag_491\n      tag_346\n      jump\t// in\n    tag_491:\n        /* \"#utility.yul\":7603:7715   */\n    tag_490:\n        /* \"#utility.yul\":7724:7778   */\n      tag_492\n        /* \"#utility.yul\":7771:7777   */\n      dup5\n        /* \"#utility.yul\":7766:7769   */\n      dup3\n        /* \"#utility.yul\":7761:7764   */\n      dup6\n        /* \"#utility.yul\":7724:7778   */\n      tag_352\n      jump\t// in\n    tag_492:\n        /* \"#utility.yul\":7444:7784   */\n      pop\n        /* \"#utility.yul\":7361:7784   */\n      swap4\n      swap3\n      pop\n      pop\n      pop\n      jump\t// out\n        /* \"#utility.yul\":7803:8141   */\n    tag_354:\n        /* \"#utility.yul\":7858:7863   */\n      0x00\n        /* \"#utility.yul\":7907:7910   */\n      dup3\n        /* \"#utility.yul\":7900:7904   */\n      0x1f\n        /* \"#utility.yul\":7892:7898   */\n      dup4\n        /* \"#utility.yul\":7888:7905   */\n      add\n        /* \"#utility.yul\":7884:7911   */\n      slt\n        /* \"#utility.yul\":7874:7996   */\n      tag_494\n      jumpi\n        /* \"#utility.yul\":7915:7994   */\n      tag_495\n      tag_345\n      jump\t// in\n    tag_495:\n        /* \"#utility.yul\":7874:7996   */\n    tag_494:\n        /* \"#utility.yul\":8032:8038   */\n      dup2\n        /* \"#utility.yul\":8019:8039   */\n      calldataload\n        /* \"#utility.yul\":8057:8135   */\n      tag_496\n        /* \"#utility.yul\":8131:8134   */\n      dup5\n        /* \"#utility.yul\":8123:8129   */\n      dup3\n        /* \"#utility.yul\":8116:8120   */\n      0x20\n        /* \"#utility.yul\":8108:8114   */\n      dup7\n        /* \"#utility.yul\":8104:8121   */\n      add\n        /* \"#utility.yul\":8057:8135   */\n      tag_353\n      jump\t// in\n    tag_496:\n        /* \"#utility.yul\":8048:8135   */\n      swap2\n      pop\n        /* \"#utility.yul\":7864:8141   */\n      pop\n        /* \"#utility.yul\":7803:8141   */\n      swap3\n      swap2\n      pop\n      pop\n      jump\t// out\n        /* \"#utility.yul\":8147:8799   */\n    tag_69:\n        /* \"#utility.yul\":8224:8230   */\n      0x00\n        /* \"#utility.yul\":8232:8238   */\n      dup1\n        /* \"#utility.yul\":8281:8283   */\n      0x40\n        /* \"#utility.yul\":8269:8278   */\n      dup4\n        /* \"#utility.yul\":8260:8267   */\n      dup6\n        /* \"#utility.yul\":8256:8279   */\n      sub\n        /* \"#utility.yul\":8252:8284   */\n      slt\n        /* \"#utility.yul\":8249:8368   */\n      iszero\n      tag_498\n      jumpi\n        /* \"#utility.yul\":8287:8366   */\n      tag_499\n      tag_325\n      jump\t// in\n    tag_499:\n        /* \"#utility.yul\":8249:8368   */\n    tag_498:\n        /* \"#utility.yul\":8407:8408   */\n      0x00\n        /* \"#utility.yul\":8432:8485   */\n      tag_500\n        /* \"#utility.yul\":8477:8484   */\n      dup6\n        /* \"#utility.yul\":8468:8474   */\n      dup3\n        /* \"#utility.yul\":8457:8466   */\n      dup7\n        /* \"#utility.yul\":8453:8475   */\n      add\n        /* \"#utility.yul\":8432:8485   */\n      tag_335\n      jump\t// in\n    tag_500:\n        /* \"#utility.yul\":8422:8485   */\n      swap3\n      pop\n        /* \"#utility.yul\":8378:8495   */\n      pop\n        /* \"#utility.yul\":8562:8564   */\n      0x20\n        /* \"#utility.yul\":8551:8560   */\n      dup4\n        /* \"#utility.yul\":8547:8565   */\n      add\n        /* \"#utility.yul\":8534:8566   */\n      calldataload\n        /* \"#utility.yul\":8593:8611   */\n      0xffffffffffffffff\n        /* \"#utility.yul\":8585:8591   */\n      dup2\n        /* \"#utility.yul\":8582:8612   */\n      gt\n        /* \"#utility.yul\":8579:8696   */\n      iszero\n      tag_501\n      jumpi\n        /* \"#utility.yul\":8615:8694   */\n      tag_502\n      tag_326\n      jump\t// in\n    tag_502:\n        /* \"#utility.yul\":8579:8696   */\n    tag_501:\n        /* \"#utility.yul\":8720:8782   */\n      tag_503\n        /* \"#utility.yul\":8774:8781   */\n      dup6\n        /* \"#utility.yul\":8765:8771   */\n      dup3\n        /* \"#utility.yul\":8754:8763   */\n      dup7\n        /* \"#utility.yul\":8750:8772   */\n      add\n        /* \"#utility.yul\":8720:8782   */\n      tag_354\n      jump\t// in\n    tag_503:\n        /* \"#utility.yul\":8710:8782   */\n      swap2\n      pop\n        /* \"#utility.yul\":8505:8792   */\n      pop\n        /* \"#utility.yul\":8147:8799   */\n      swap3\n      pop\n      swap3\n      swap1\n      pop\n      jump\t// out\n        /* \"#utility.yul\":8805:8922   */\n    tag_355:\n        /* \"#utility.yul\":8914:8915   */\n      0x00\n        /* \"#utility.yul\":8911:8912   */\n      dup1\n        /* \"#utility.yul\":8904:8916   */\n      revert\n        /* \"#utility.yul\":8928:9045   */\n    tag_356:\n        /* \"#utility.yul\":9037:9038   */\n      0x00\n        /* \"#utility.yul\":9034:9035   */\n      dup1\n        /* \"#utility.yul\":9027:9039   */\n      revert\n        /* \"#utility.yul\":9068:9636   */\n    tag_357:\n        /* \"#utility.yul\":9141:9149   */\n      0x00\n        /* \"#utility.yul\":9151:9157   */\n      dup1\n        /* \"#utility.yul\":9201:9204   */\n      dup4\n        /* \"#utility.yul\":9194:9198   */\n      0x1f\n        /* \"#utility.yul\":9186:9192   */\n      dup5\n        /* \"#utility.yul\":9182:9199   */\n      add\n        /* \"#utility.yul\":9178:9205   */\n      slt\n        /* \"#utility.yul\":9168:9290   */\n      tag_507\n      jumpi\n        /* \"#utility.yul\":9209:9288   */\n      tag_508\n      tag_345\n      jump\t// in\n    tag_508:\n        /* \"#utility.yul\":9168:9290   */\n    tag_507:\n        /* \"#utility.yul\":9322:9328   */\n      dup3\n        /* \"#utility.yul\":9309:9329   */\n      calldataload\n        /* \"#utility.yul\":9299:9329   */\n      swap1\n      pop\n        /* \"#utility.yul\":9352:9370   */\n      0xffffffffffffffff\n        /* \"#utility.yul\":9344:9350   */\n      dup2\n        /* \"#utility.yul\":9341:9371   */\n      gt\n        /* \"#utility.yul\":9338:9455   */\n      iszero\n      tag_509\n      jumpi\n        /* \"#utility.yul\":9374:9453   */\n      tag_510\n      tag_355\n      jump\t// in\n    tag_510:\n        /* \"#utility.yul\":9338:9455   */\n    tag_509:\n        /* \"#utility.yul\":9488:9492   */\n      0x20\n        /* \"#utility.yul\":9480:9486   */\n      dup4\n        /* \"#utility.yul\":9476:9493   */\n      add\n        /* \"#utility.yul\":9464:9493   */\n      swap2\n      pop\n        /* \"#utility.yul\":9542:9545   */\n      dup4\n        /* \"#utility.yul\":9534:9538   */\n      0x20\n        /* \"#utility.yul\":9526:9532   */\n      dup3\n        /* \"#utility.yul\":9522:9539   */\n      mul\n        /* \"#utility.yul\":9512:9520   */\n      dup4\n        /* \"#utility.yul\":9508:9540   */\n      add\n        /* \"#utility.yul\":9505:9546   */\n      gt\n        /* \"#utility.yul\":9502:9630   */\n      iszero\n      tag_511\n      jumpi\n        /* \"#utility.yul\":9549:9628   */\n      tag_512\n      tag_356\n      jump\t// in\n    tag_512:\n        /* \"#utility.yul\":9502:9630   */\n    tag_511:\n        /* \"#utility.yul\":9068:9636   */\n      swap3\n      pop\n      swap3\n      swap1\n      pop\n      jump\t// out\n        /* \"#utility.yul\":9642:10346   */\n    tag_78:\n        /* \"#utility.yul\":9737:9743   */\n      0x00\n        /* \"#utility.yul\":9745:9751   */\n      dup1\n        /* \"#utility.yul\":9753:9759   */\n      0x00\n        /* \"#utility.yul\":9802:9804   */\n      0x40\n        /* \"#utility.yul\":9790:9799   */\n      dup5\n        /* \"#utility.yul\":9781:9788   */\n      dup7\n        /* \"#utility.yul\":9777:9800   */\n      sub\n        /* \"#utility.yul\":9773:9805   */\n      slt\n        /* \"#utility.yul\":9770:9889   */\n      iszero\n      tag_514\n      jumpi\n        /* \"#utility.yul\":9808:9887   */\n      tag_515\n      tag_325\n      jump\t// in\n    tag_515:\n        /* \"#utility.yul\":9770:9889   */\n    tag_514:\n        /* \"#utility.yul\":9928:9929   */\n      0x00\n        /* \"#utility.yul\":9953:10006   */\n      tag_516\n        /* \"#utility.yul\":9998:10005   */\n      dup7\n        /* \"#utility.yul\":9989:9995   */\n      dup3\n        /* \"#utility.yul\":9978:9987   */\n      dup8\n        /* \"#utility.yul\":9974:9996   */\n      add\n        /* \"#utility.yul\":9953:10006   */\n      tag_335\n      jump\t// in\n    tag_516:\n        /* \"#utility.yul\":9943:10006   */\n      swap4\n      pop\n        /* \"#utility.yul\":9899:10016   */\n      pop\n        /* \"#utility.yul\":10083:10085   */\n      0x20\n        /* \"#utility.yul\":10072:10081   */\n      dup5\n        /* \"#utility.yul\":10068:10086   */\n      add\n        /* \"#utility.yul\":10055:10087   */\n      calldataload\n        /* \"#utility.yul\":10114:10132   */\n      0xffffffffffffffff\n        /* \"#utility.yul\":10106:10112   */\n      dup2\n        /* \"#utility.yul\":10103:10133   */\n      gt\n        /* \"#utility.yul\":10100:10217   */\n      iszero\n      tag_517\n      jumpi\n        /* \"#utility.yul\":10136:10215   */\n      tag_518\n      tag_326\n      jump\t// in\n    tag_518:\n        /* \"#utility.yul\":10100:10217   */\n    tag_517:\n        /* \"#utility.yul\":10249:10329   */\n      tag_519\n        /* \"#utility.yul\":10321:10328   */\n      dup7\n        /* \"#utility.yul\":10312:10318   */\n      dup3\n        /* \"#utility.yul\":10301:10310   */\n      dup8\n        /* \"#utility.yul\":10297:10319   */\n      add\n        /* \"#utility.yul\":10249:10329   */\n      tag_357\n      jump\t// in\n    tag_519:\n        /* \"#utility.yul\":10231:10329   */\n      swap3\n      pop\n      swap3\n      pop\n        /* \"#utility.yul\":10026:10339   */\n      pop\n        /* \"#utility.yul\":9642:10346   */\n      swap3\n      pop\n      swap3\n      pop\n      swap3\n      jump\t// out\n        /* \"#utility.yul\":10352:10466   */\n    tag_358:\n        /* \"#utility.yul\":10419:10425   */\n      0x00\n        /* \"#utility.yul\":10453:10458   */\n      dup2\n        /* \"#utility.yul\":10447:10459   */\n      mload\n        /* \"#utility.yul\":10437:10459   */\n      swap1\n      pop\n        /* \"#utility.yul\":10352:10466   */\n      swap2\n      swap1\n      pop\n      jump\t// out\n        /* \"#utility.yul\":10472:10656   */\n    tag_359:\n        /* \"#utility.yul\":10571:10582   */\n      0x00\n        /* \"#utility.yul\":10605:10611   */\n      dup3\n        /* \"#utility.yul\":10600:10603   */\n      dup3\n        /* \"#utility.yul\":10593:10612   */\n      mstore\n        /* \"#utility.yul\":10645:10649   */\n      0x20\n        /* \"#utility.yul\":10640:10643   */\n      dup3\n        /* \"#utility.yul\":10636:10650   */\n      add\n        /* \"#utility.yul\":10621:10650   */\n      swap1\n      pop\n        /* \"#utility.yul\":10472:10656   */\n      swap3\n      swap2\n      pop\n      pop\n      jump\t// out\n        /* \"#utility.yul\":10662:10794   */\n    tag_360:\n        /* \"#utility.yul\":10729:10733   */\n      0x00\n        /* \"#utility.yul\":10752:10755   */\n      dup2\n        /* \"#utility.yul\":10744:10755   */\n      swap1\n      pop\n        /* \"#utility.yul\":10782:10786   */\n      0x20\n        /* \"#utility.yul\":10777:10780   */\n      dup3\n        /* \"#utility.yul\":10773:10787   */\n      add\n        /* \"#utility.yul\":10765:10787   */\n      swap1\n      pop\n        /* \"#utility.yul\":10662:10794   */\n      swap2\n      swap1\n      pop\n      jump\t// out\n        /* \"#utility.yul\":10800:10908   */\n    tag_361:\n        /* \"#utility.yul\":10877:10901   */\n      tag_524\n        /* \"#utility.yul\":10895:10900   */\n      dup2\n        /* \"#utility.yul\":10877:10901   */\n      tag_342\n      jump\t// in\n    tag_524:\n        /* \"#utility.yul\":10872:10875   */\n      dup3\n        /* \"#utility.yul\":10865:10902   */\n      mstore\n        /* \"#utility.yul\":10800:10908   */\n      pop\n      pop\n      jump\t// out\n        /* \"#utility.yul\":10914:11093   */\n    tag_362:\n        /* \"#utility.yul\":10983:10993   */\n      0x00\n        /* \"#utility.yul\":11004:11050   */\n      tag_526\n        /* \"#utility.yul\":11046:11049   */\n      dup4\n        /* \"#utility.yul\":11038:11044   */\n      dup4\n        /* \"#utility.yul\":11004:11050   */\n      tag_361\n      jump\t// in\n    tag_526:\n        /* \"#utility.yul\":11082:11086   */\n      0x20\n        /* \"#utility.yul\":11077:11080   */\n      dup4\n        /* \"#utility.yul\":11073:11087   */\n      add\n        /* \"#utility.yul\":11059:11087   */\n      swap1\n      pop\n        /* \"#utility.yul\":10914:11093   */\n      swap3\n      swap2\n      pop\n      pop\n      jump\t// out\n        /* \"#utility.yul\":11099:11212   */\n    tag_363:\n        /* \"#utility.yul\":11169:11173   */\n      0x00\n        /* \"#utility.yul\":11201:11205   */\n      0x20\n        /* \"#utility.yul\":11196:11199   */\n      dup3\n        /* \"#utility.yul\":11192:11206   */\n      add\n        /* \"#utility.yul\":11184:11206   */\n      swap1\n      pop\n        /* \"#utility.yul\":11099:11212   */\n      swap2\n      swap1\n      pop\n      jump\t// out\n        /* \"#utility.yul\":11248:11980   */\n    tag_364:\n        /* \"#utility.yul\":11367:11370   */\n      0x00\n        /* \"#utility.yul\":11396:11450   */\n      tag_529\n        /* \"#utility.yul\":11444:11449   */\n      dup3\n        /* \"#utility.yul\":11396:11450   */\n      tag_358\n      jump\t// in\n    tag_529:\n        /* \"#utility.yul\":11466:11552   */\n      tag_530\n        /* \"#utility.yul\":11545:11551   */\n      dup2\n        /* \"#utility.yul\":11540:11543   */\n      dup6\n        /* \"#utility.yul\":11466:11552   */\n      tag_359\n      jump\t// in\n    tag_530:\n        /* \"#utility.yul\":11459:11552   */\n      swap4\n      pop\n        /* \"#utility.yul\":11576:11632   */\n      tag_531\n        /* \"#utility.yul\":11626:11631   */\n      dup4\n        /* \"#utility.yul\":11576:11632   */\n      tag_360\n      jump\t// in\n    tag_531:\n        /* \"#utility.yul\":11655:11662   */\n      dup1\n        /* \"#utility.yul\":11686:11687   */\n      0x00\n        /* \"#utility.yul\":11671:11955   */\n    tag_532:\n        /* \"#utility.yul\":11696:11702   */\n      dup4\n        /* \"#utility.yul\":11693:11694   */\n      dup2\n        /* \"#utility.yul\":11690:11703   */\n      lt\n        /* \"#utility.yul\":11671:11955   */\n      iszero\n      tag_534\n      jumpi\n        /* \"#utility.yul\":11772:11778   */\n      dup2\n        /* \"#utility.yul\":11766:11779   */\n      mload\n        /* \"#utility.yul\":11799:11862   */\n      tag_535\n        /* \"#utility.yul\":11858:11861   */\n      dup9\n        /* \"#utility.yul\":11843:11856   */\n      dup3\n        /* \"#utility.yul\":11799:11862   */\n      tag_362\n      jump\t// in\n    tag_535:\n        /* \"#utility.yul\":11792:11862   */\n      swap8\n      pop\n        /* \"#utility.yul\":11885:11945   */\n      tag_536\n        /* \"#utility.yul\":11938:11944   */\n      dup4\n        /* \"#utility.yul\":11885:11945   */\n      tag_363\n      jump\t// in\n    tag_536:\n        /* \"#utility.yul\":11875:11945   */\n      swap3\n      pop\n        /* \"#utility.yul\":11731:11955   */\n      pop\n        /* \"#utility.yul\":11718:11719   */\n      0x01\n        /* \"#utility.yul\":11715:11716   */\n      dup2\n        /* \"#utility.yul\":11711:11720   */\n      add\n        /* \"#utility.yul\":11706:11720   */\n      swap1\n      pop\n        /* \"#utility.yul\":11671:11955   */\n      jump(tag_532)\n    tag_534:\n        /* \"#utility.yul\":11675:11689   */\n      pop\n        /* \"#utility.yul\":11971:11974   */\n      dup6\n        /* \"#utility.yul\":11964:11974   */\n      swap4\n      pop\n        /* \"#utility.yul\":11372:11980   */\n      pop\n      pop\n      pop\n        /* \"#utility.yul\":11248:11980   */\n      swap3\n      swap2\n      pop\n      pop\n      jump\t// out\n        /* \"#utility.yul\":11986:12359   */\n    tag_81:\n        /* \"#utility.yul\":12129:12133   */\n      0x00\n        /* \"#utility.yul\":12167:12169   */\n      0x20\n        /* \"#utility.yul\":12156:12165   */\n      dup3\n        /* \"#utility.yul\":12152:12170   */\n      add\n        /* \"#utility.yul\":12144:12170   */\n      swap1\n      pop\n        /* \"#utility.yul\":12216:12225   */\n      dup2\n        /* \"#utility.yul\":12210:12214   */\n      dup2\n        /* \"#utility.yul\":12206:12226   */\n      sub\n        /* \"#utility.yul\":12202:12203   */\n      0x00\n        /* \"#utility.yul\":12191:12200   */\n      dup4\n        /* \"#utility.yul\":12187:12204   */\n      add\n        /* \"#utility.yul\":12180:12227   */\n      mstore\n        /* \"#utility.yul\":12244:12352   */\n      tag_538\n        /* \"#utility.yul\":12347:12351   */\n      dup2\n        /* \"#utility.yul\":12338:12344   */\n      dup5\n        /* \"#utility.yul\":12244:12352   */\n      tag_364\n      jump\t// in\n    tag_538:\n        /* \"#utility.yul\":12236:12352   */\n      swap1\n      pop\n        /* \"#utility.yul\":11986:12359   */\n      swap3\n      swap2\n      pop\n      pop\n      jump\t// out\n        /* \"#utility.yul\":12365:12464   */\n    tag_365:\n        /* \"#utility.yul\":12417:12423   */\n      0x00\n        /* \"#utility.yul\":12451:12456   */\n      dup2\n        /* \"#utility.yul\":12445:12457   */\n      mload\n        /* \"#utility.yul\":12435:12457   */\n      swap1\n      pop\n        /* \"#utility.yul\":12365:12464   */\n      swap2\n      swap1\n      pop\n      jump\t// out\n        /* \"#utility.yul\":12470:12639   */\n    tag_366:\n        /* \"#utility.yul\":12554:12565   */\n      0x00\n        /* \"#utility.yul\":12588:12594   */\n      dup3\n        /* \"#utility.yul\":12583:12586   */\n      dup3\n        /* \"#utility.yul\":12576:12595   */\n      mstore\n        /* \"#utility.yul\":12628:12632   */\n      0x20\n        /* \"#utility.yul\":12623:12626   */\n      dup3\n        /* \"#utility.yul\":12619:12633   */\n      add\n        /* \"#utility.yul\":12604:12633   */\n      swap1\n      pop\n        /* \"#utility.yul\":12470:12639   */\n      swap3\n      swap2\n      pop\n      pop\n      jump\t// out\n        /* \"#utility.yul\":12645:12891   */\n    tag_367:\n        /* \"#utility.yul\":12726:12727   */\n      0x00\n        /* \"#utility.yul\":12736:12849   */\n    tag_542:\n        /* \"#utility.yul\":12750:12756   */\n      dup4\n        /* \"#utility.yul\":12747:12748   */\n      dup2\n        /* \"#utility.yul\":12744:12757   */\n      lt\n        /* \"#utility.yul\":12736:12849   */\n      iszero\n      tag_544\n      jumpi\n        /* \"#utility.yul\":12835:12836   */\n      dup1\n        /* \"#utility.yul\":12830:12833   */\n      dup3\n        /* \"#utility.yul\":12826:12837   */\n      add\n        /* \"#utility.yul\":12820:12838   */\n      mload\n        /* \"#utility.yul\":12816:12817   */\n      dup2\n        /* \"#utility.yul\":12811:12814   */\n      dup5\n        /* \"#utility.yul\":12807:12818   */\n      add\n        /* \"#utility.yul\":12800:12839   */\n      mstore\n        /* \"#utility.yul\":12772:12774   */\n      0x20\n        /* \"#utility.yul\":12769:12770   */\n      dup2\n        /* \"#utility.yul\":12765:12775   */\n      add\n        /* \"#utility.yul\":12760:12775   */\n      swap1\n      pop\n        /* \"#utility.yul\":12736:12849   */\n      jump(tag_542)\n    tag_544:\n        /* \"#utility.yul\":12883:12884   */\n      0x00\n        /* \"#utility.yul\":12874:12880   */\n      dup5\n        /* \"#utility.yul\":12869:12872   */\n      dup5\n        /* \"#utility.yul\":12865:12881   */\n      add\n        /* \"#utility.yul\":12858:12885   */\n      mstore\n        /* \"#utility.yul\":12707:12891   */\n      pop\n        /* \"#utility.yul\":12645:12891   */\n      pop\n      pop\n      pop\n      jump\t// out\n        /* \"#utility.yul\":12897:13274   */\n    tag_368:\n        /* \"#utility.yul\":12985:12988   */\n      0x00\n        /* \"#utility.yul\":13013:13052   */\n      tag_546\n        /* \"#utility.yul\":13046:13051   */\n      dup3\n        /* \"#utility.yul\":13013:13052   */\n      tag_365\n      jump\t// in\n    tag_546:\n        /* \"#utility.yul\":13068:13139   */\n      tag_547\n        /* \"#utility.yul\":13132:13138   */\n      dup2\n        /* \"#utility.yul\":13127:13130   */\n      dup6\n        /* \"#utility.yul\":13068:13139   */\n      tag_366\n      jump\t// in\n    tag_547:\n        /* \"#utility.yul\":13061:13139   */\n      swap4\n      pop\n        /* \"#utility.yul\":13148:13213   */\n      tag_548\n        /* \"#utility.yul\":13206:13212   */\n      dup2\n        /* \"#utility.yul\":13201:13204   */\n      dup6\n        /* \"#utility.yul\":13194:13198   */\n      0x20\n        /* \"#utility.yul\":13187:13192   */\n      dup7\n        /* \"#utility.yul\":13183:13199   */\n      add\n        /* \"#utility.yul\":13148:13213   */\n      tag_367\n      jump\t// in\n    tag_548:\n        /* \"#utility.yul\":13238:13267   */\n      tag_549\n        /* \"#utility.yul\":13260:13266   */\n      dup2\n        /* \"#utility.yul\":13238:13267   */\n      tag_347\n      jump\t// in\n    tag_549:\n        /* \"#utility.yul\":13233:13236   */\n      dup5\n        /* \"#utility.yul\":13229:13268   */\n      add\n        /* \"#utility.yul\":13222:13268   */\n      swap2\n      pop\n        /* \"#utility.yul\":12989:13274   */\n      pop\n        /* \"#utility.yul\":12897:13274   */\n      swap3\n      swap2\n      pop\n      pop\n      jump\t// out\n        /* \"#utility.yul\":13280:13593   */\n    tag_99:\n        /* \"#utility.yul\":13393:13397   */\n      0x00\n        /* \"#utility.yul\":13431:13433   */\n      0x20\n        /* \"#utility.yul\":13420:13429   */\n      dup3\n        /* \"#utility.yul\":13416:13434   */\n      add\n        /* \"#utility.yul\":13408:13434   */\n      swap1\n      pop\n        /* \"#utility.yul\":13480:13489   */\n      dup2\n        /* \"#utility.yul\":13474:13478   */\n      dup2\n        /* \"#utility.yul\":13470:13490   */\n      sub\n        /* \"#utility.yul\":13466:13467   */\n      0x00\n        /* \"#utility.yul\":13455:13464   */\n      dup4\n        /* \"#utility.yul\":13451:13468   */\n      add\n        /* \"#utility.yul\":13444:13491   */\n      mstore\n        /* \"#utility.yul\":13508:13586   */\n      tag_551\n        /* \"#utility.yul\":13581:13585   */\n      dup2\n        /* \"#utility.yul\":13572:13578   */\n      dup5\n        /* \"#utility.yul\":13508:13586   */\n      tag_368\n      jump\t// in\n    tag_551:\n        /* \"#utility.yul\":13500:13586   */\n      swap1\n      pop\n        /* \"#utility.yul\":13280:13593   */\n      swap3\n      swap2\n      pop\n      pop\n      jump\t// out\n        /* \"#utility.yul\":13599:13717   */\n    tag_369:\n        /* \"#utility.yul\":13686:13710   */\n      tag_553\n        /* \"#utility.yul\":13704:13709   */\n      dup2\n        /* \"#utility.yul\":13686:13710   */\n      tag_342\n      jump\t// in\n    tag_553:\n        /* \"#utility.yul\":13681:13684   */\n      dup3\n        /* \"#utility.yul\":13674:13711   */\n      mstore\n        /* \"#utility.yul\":13599:13717   */\n      pop\n      pop\n      jump\t// out\n        /* \"#utility.yul\":13723:13945   */\n    tag_105:\n        /* \"#utility.yul\":13816:13820   */\n      0x00\n        /* \"#utility.yul\":13854:13856   */\n      0x20\n        /* \"#utility.yul\":13843:13852   */\n      dup3\n        /* \"#utility.yul\":13839:13857   */\n      add\n        /* \"#utility.yul\":13831:13857   */\n      swap1\n      pop\n        /* \"#utility.yul\":13867:13938   */\n      tag_555\n        /* \"#utility.yul\":13935:13936   */\n      0x00\n        /* \"#utility.yul\":13924:13933   */\n      dup4\n        /* \"#utility.yul\":13920:13937   */\n      add\n        /* \"#utility.yul\":13911:13917   */\n      dup5\n        /* \"#utility.yul\":13867:13938   */\n      tag_369\n      jump\t// in\n    tag_555:\n        /* \"#utility.yul\":13723:13945   */\n      swap3\n      swap2\n      pop\n      pop\n      jump\t// out\n        /* \"#utility.yul\":13951:14570   */\n    tag_113:\n        /* \"#utility.yul\":14028:14034   */\n      0x00\n        /* \"#utility.yul\":14036:14042   */\n      dup1\n        /* \"#utility.yul\":14044:14050   */\n      0x00\n        /* \"#utility.yul\":14093:14095   */\n      0x60\n        /* \"#utility.yul\":14081:14090   */\n      dup5\n        /* \"#utility.yul\":14072:14079   */\n      dup7\n        /* \"#utility.yul\":14068:14091   */\n      sub\n        /* \"#utility.yul\":14064:14096   */\n      slt\n        /* \"#utility.yul\":14061:14180   */\n      iszero\n      tag_557\n      jumpi\n        /* \"#utility.yul\":14099:14178   */\n      tag_558\n      tag_325\n      jump\t// in\n    tag_558:\n        /* \"#utility.yul\":14061:14180   */\n    tag_557:\n        /* \"#utility.yul\":14219:14220   */\n      0x00\n        /* \"#utility.yul\":14244:14297   */\n      tag_559\n        /* \"#utility.yul\":14289:14296   */\n      dup7\n        /* \"#utility.yul\":14280:14286   */\n      dup3\n        /* \"#utility.yul\":14269:14278   */\n      dup8\n        /* \"#utility.yul\":14265:14287   */\n      add\n        /* \"#utility.yul\":14244:14297   */\n      tag_335\n      jump\t// in\n    tag_559:\n        /* \"#utility.yul\":14234:14297   */\n      swap4\n      pop\n        /* \"#utility.yul\":14190:14307   */\n      pop\n        /* \"#utility.yul\":14346:14348   */\n      0x20\n        /* \"#utility.yul\":14372:14425   */\n      tag_560\n        /* \"#utility.yul\":14417:14424   */\n      dup7\n        /* \"#utility.yul\":14408:14414   */\n      dup3\n        /* \"#utility.yul\":14397:14406   */\n      dup8\n        /* \"#utility.yul\":14393:14415   */\n      add\n        /* \"#utility.yul\":14372:14425   */\n      tag_335\n      jump\t// in\n    tag_560:\n        /* \"#utility.yul\":14362:14425   */\n      swap3\n      pop\n        /* \"#utility.yul\":14317:14435   */\n      pop\n        /* \"#utility.yul\":14474:14476   */\n      0x40\n        /* \"#utility.yul\":14500:14553   */\n      tag_561\n        /* \"#utility.yul\":14545:14552   */\n      dup7\n        /* \"#utility.yul\":14536:14542   */\n      dup3\n        /* \"#utility.yul\":14525:14534   */\n      dup8\n        /* \"#utility.yul\":14521:14543   */\n      add\n        /* \"#utility.yul\":14500:14553   */\n      tag_344\n      jump\t// in\n    tag_561:\n        /* \"#utility.yul\":14490:14553   */\n      swap2\n      pop\n        /* \"#utility.yul\":14445:14563   */\n      pop\n        /* \"#utility.yul\":13951:14570   */\n      swap3\n      pop\n      swap3\n      pop\n      swap3\n      jump\t// out\n        /* \"#utility.yul\":14576:14711   */\n    tag_370:\n        /* \"#utility.yul\":14699:14704   */\n      dup1\n        /* \"#utility.yul\":14694:14697   */\n      dup3\n        /* \"#utility.yul\":14687:14705   */\n      mstore\n        /* \"#utility.yul\":14576:14711   */\n      pop\n      pop\n      jump\t// out\n        /* \"#utility.yul\":14717:14843   */\n    tag_371:\n        /* \"#utility.yul\":14812:14836   */\n      tag_564\n        /* \"#utility.yul\":14830:14835   */\n      dup2\n        /* \"#utility.yul\":14812:14836   */\n      tag_333\n      jump\t// in\n    tag_564:\n        /* \"#utility.yul\":14807:14810   */\n      dup3\n        /* \"#utility.yul\":14800:14837   */\n      mstore\n        /* \"#utility.yul\":14717:14843   */\n      pop\n      pop\n      jump\t// out\n        /* \"#utility.yul\":14849:14966   */\n    tag_372:\n        /* \"#utility.yul\":14938:14959   */\n      tag_566\n        /* \"#utility.yul\":14953:14958   */\n      dup2\n        /* \"#utility.yul\":14938:14959   */\n      tag_330\n      jump\t// in\n    tag_566:\n        /* \"#utility.yul\":14933:14936   */\n      dup3\n        /* \"#utility.yul\":14926:14960   */\n      mstore\n        /* \"#utility.yul\":14849:14966   */\n      pop\n      pop\n      jump\t// out\n        /* \"#utility.yul\":14972:15490   */\n    tag_128:\n        /* \"#utility.yul\":15151:15155   */\n      0x00\n        /* \"#utility.yul\":15189:15191   */\n      0x60\n        /* \"#utility.yul\":15178:15187   */\n      dup3\n        /* \"#utility.yul\":15174:15192   */\n      add\n        /* \"#utility.yul\":15166:15192   */\n      swap1\n      pop\n        /* \"#utility.yul\":15202:15309   */\n      tag_568\n        /* \"#utility.yul\":15306:15307   */\n      0x00\n        /* \"#utility.yul\":15295:15304   */\n      dup4\n        /* \"#utility.yul\":15291:15308   */\n      add\n        /* \"#utility.yul\":15282:15288   */\n      dup7\n        /* \"#utility.yul\":15202:15309   */\n      tag_370\n      jump\t// in\n    tag_568:\n        /* \"#utility.yul\":15319:15399   */\n      tag_569\n        /* \"#utility.yul\":15395:15397   */\n      0x20\n        /* \"#utility.yul\":15384:15393   */\n      dup4\n        /* \"#utility.yul\":15380:15398   */\n      add\n        /* \"#utility.yul\":15371:15377   */\n      dup6\n        /* \"#utility.yul\":15319:15399   */\n      tag_371\n      jump\t// in\n    tag_569:\n        /* \"#utility.yul\":15409:15483   */\n      tag_570\n        /* \"#utility.yul\":15479:15481   */\n      0x40\n        /* \"#utility.yul\":15468:15477   */\n      dup4\n        /* \"#utility.yul\":15464:15482   */\n      add\n        /* \"#utility.yul\":15455:15461   */\n      dup5\n        /* \"#utility.yul\":15409:15483   */\n      tag_372\n      jump\t// in\n    tag_570:\n        /* \"#utility.yul\":14972:15490   */\n      swap5\n      swap4\n      pop\n      pop\n      pop\n      pop\n      jump\t// out\n        /* \"#utility.yul\":15496:15622   */\n    tag_373:\n        /* \"#utility.yul\":15591:15615   */\n      tag_572\n        /* \"#utility.yul\":15609:15614   */\n      dup2\n        /* \"#utility.yul\":15591:15615   */\n      tag_342\n      jump\t// in\n    tag_572:\n        /* \"#utility.yul\":15586:15589   */\n      dup3\n        /* \"#utility.yul\":15579:15616   */\n      mstore\n        /* \"#utility.yul\":15496:15622   */\n      pop\n      pop\n      jump\t// out\n        /* \"#utility.yul\":15628:16040   */\n    tag_149:\n        /* \"#utility.yul\":15785:15789   */\n      0x00\n        /* \"#utility.yul\":15823:15825   */\n      0x40\n        /* \"#utility.yul\":15812:15821   */\n      dup3\n        /* \"#utility.yul\":15808:15826   */\n      add\n        /* \"#utility.yul\":15800:15826   */\n      swap1\n      pop\n        /* \"#utility.yul\":15836:15943   */\n      tag_574\n        /* \"#utility.yul\":15940:15941   */\n      0x00\n        /* \"#utility.yul\":15929:15938   */\n      dup4\n        /* \"#utility.yul\":15925:15942   */\n      add\n        /* \"#utility.yul\":15916:15922   */\n      dup6\n        /* \"#utility.yul\":15836:15943   */\n      tag_370\n      jump\t// in\n    tag_574:\n        /* \"#utility.yul\":15953:16033   */\n      tag_575\n        /* \"#utility.yul\":16029:16031   */\n      0x20\n        /* \"#utility.yul\":16018:16027   */\n      dup4\n        /* \"#utility.yul\":16014:16032   */\n      add\n        /* \"#utility.yul\":16005:16011   */\n      dup5\n        /* \"#utility.yul\":15953:16033   */\n      tag_373\n      jump\t// in\n    tag_575:\n        /* \"#utility.yul\":15628:16040   */\n      swap4\n      swap3\n      pop\n      pop\n      pop\n      jump\t// out\n        /* \"#utility.yul\":16046:16576   */\n    tag_155:\n        /* \"#utility.yul\":16231:16235   */\n      0x00\n        /* \"#utility.yul\":16269:16271   */\n      0x60\n        /* \"#utility.yul\":16258:16267   */\n      dup3\n        /* \"#utility.yul\":16254:16272   */\n      add\n        /* \"#utility.yul\":16246:16272   */\n      swap1\n      pop\n        /* \"#utility.yul\":16282:16389   */\n      tag_577\n        /* \"#utility.yul\":16386:16387   */\n      0x00\n        /* \"#utility.yul\":16375:16384   */\n      dup4\n        /* \"#utility.yul\":16371:16388   */\n      add\n        /* \"#utility.yul\":16362:16368   */\n      dup7\n        /* \"#utility.yul\":16282:16389   */\n      tag_370\n      jump\t// in\n    tag_577:\n        /* \"#utility.yul\":16399:16479   */\n      tag_578\n        /* \"#utility.yul\":16475:16477   */\n      0x20\n        /* \"#utility.yul\":16464:16473   */\n      dup4\n        /* \"#utility.yul\":16460:16478   */\n      add\n        /* \"#utility.yul\":16451:16457   */\n      dup6\n        /* \"#utility.yul\":16399:16479   */\n      tag_371\n      jump\t// in\n    tag_578:\n        /* \"#utility.yul\":16489:16569   */\n      tag_579\n        /* \"#utility.yul\":16565:16567   */\n      0x40\n        /* \"#utility.yul\":16554:16563   */\n      dup4\n        /* \"#utility.yul\":16550:16568   */\n      add\n        /* \"#utility.yul\":16541:16547   */\n      dup5\n        /* \"#utility.yul\":16489:16569   */\n      tag_373\n      jump\t// in\n    tag_579:\n        /* \"#utility.yul\":16046:16576   */\n      swap5\n      swap4\n      pop\n      pop\n      pop\n      pop\n      jump\t// out\n        /* \"#utility.yul\":16582:16667   */\n    tag_374:\n        /* \"#utility.yul\":16627:16634   */\n      0x00\n        /* \"#utility.yul\":16656:16661   */\n      dup2\n        /* \"#utility.yul\":16645:16661   */\n      swap1\n      pop\n        /* \"#utility.yul\":16582:16667   */\n      swap2\n      swap1\n      pop\n      jump\t// out\n        /* \"#utility.yul\":16673:16774   */\n    tag_375:\n        /* \"#utility.yul\":16709:16716   */\n      0x00\n        /* \"#utility.yul\":16749:16767   */\n      0xffffffffffffffff\n        /* \"#utility.yul\":16742:16747   */\n      dup3\n        /* \"#utility.yul\":16738:16768   */\n      and\n        /* \"#utility.yul\":16727:16768   */\n      swap1\n      pop\n        /* \"#utility.yul\":16673:16774   */\n      swap2\n      swap1\n      pop\n      jump\t// out\n        /* \"#utility.yul\":16780:16840   */\n    tag_376:\n        /* \"#utility.yul\":16808:16811   */\n      0x00\n        /* \"#utility.yul\":16829:16834   */\n      dup2\n        /* \"#utility.yul\":16822:16834   */\n      swap1\n      pop\n        /* \"#utility.yul\":16780:16840   */\n      swap2\n      swap1\n      pop\n      jump\t// out\n        /* \"#utility.yul\":16846:17002   */\n    tag_377:\n        /* \"#utility.yul\":16903:16912   */\n      0x00\n        /* \"#utility.yul\":16936:16996   */\n      tag_584\n        /* \"#utility.yul\":16953:16995   */\n      tag_585\n        /* \"#utility.yul\":16962:16994   */\n      tag_586\n        /* \"#utility.yul\":16988:16993   */\n      dup5\n        /* \"#utility.yul\":16962:16994   */\n      tag_374\n      jump\t// in\n    tag_586:\n        /* \"#utility.yul\":16953:16995   */\n      tag_376\n      jump\t// in\n    tag_585:\n        /* \"#utility.yul\":16936:16996   */\n      tag_375\n      jump\t// in\n    tag_584:\n        /* \"#utility.yul\":16923:16996   */\n      swap1\n      pop\n        /* \"#utility.yul\":16846:17002   */\n      swap2\n      swap1\n      pop\n      jump\t// out\n        /* \"#utility.yul\":17008:17153   */\n    tag_378:\n        /* \"#utility.yul\":17102:17146   */\n      tag_588\n        /* \"#utility.yul\":17140:17145   */\n      dup2\n        /* \"#utility.yul\":17102:17146   */\n      tag_377\n      jump\t// in\n    tag_588:\n        /* \"#utility.yul\":17097:17100   */\n      dup3\n        /* \"#utility.yul\":17090:17147   */\n      mstore\n        /* \"#utility.yul\":17008:17153   */\n      pop\n      pop\n      jump\t// out\n        /* \"#utility.yul\":17159:17395   */\n    tag_176:\n        /* \"#utility.yul\":17259:17263   */\n      0x00\n        /* \"#utility.yul\":17297:17299   */\n      0x20\n        /* \"#utility.yul\":17286:17295   */\n      dup3\n        /* \"#utility.yul\":17282:17300   */\n      add\n        /* \"#utility.yul\":17274:17300   */\n      swap1\n      pop\n        /* \"#utility.yul\":17310:17388   */\n      tag_590\n        /* \"#utility.yul\":17385:17386   */\n      0x00\n        /* \"#utility.yul\":17374:17383   */\n      dup4\n        /* \"#utility.yul\":17370:17387   */\n      add\n        /* \"#utility.yul\":17361:17367   */\n      dup5\n        /* \"#utility.yul\":17310:17388   */\n      tag_378\n      jump\t// in\n    tag_590:\n        /* \"#utility.yul\":17159:17395   */\n      swap3\n      swap2\n      pop\n      pop\n      jump\t// out\n        /* \"#utility.yul\":17401:17593   */\n    tag_379:\n        /* \"#utility.yul\":17508:17519   */\n      0x00\n        /* \"#utility.yul\":17542:17548   */\n      dup3\n        /* \"#utility.yul\":17537:17540   */\n      dup3\n        /* \"#utility.yul\":17530:17549   */\n      mstore\n        /* \"#utility.yul\":17582:17586   */\n      0x20\n        /* \"#utility.yul\":17577:17580   */\n      dup3\n        /* \"#utility.yul\":17573:17587   */\n      add\n        /* \"#utility.yul\":17558:17587   */\n      swap1\n      pop\n        /* \"#utility.yul\":17401:17593   */\n      swap3\n      swap2\n      pop\n      pop\n      jump\t// out\n        /* \"#utility.yul\":17599:17701   */\n    tag_380:\n        /* \"#utility.yul\":17668:17672   */\n      0x00\n        /* \"#utility.yul\":17691:17694   */\n      dup2\n        /* \"#utility.yul\":17683:17694   */\n      swap1\n      pop\n        /* \"#utility.yul\":17599:17701   */\n      swap2\n      swap1\n      pop\n      jump\t// out\n        /* \"#utility.yul\":17707:17823   */\n    tag_381:\n        /* \"#utility.yul\":17792:17816   */\n      tag_594\n        /* \"#utility.yul\":17810:17815   */\n      dup2\n        /* \"#utility.yul\":17792:17816   */\n      tag_333\n      jump\t// in\n    tag_594:\n        /* \"#utility.yul\":17787:17790   */\n      dup3\n        /* \"#utility.yul\":17780:17817   */\n      mstore\n        /* \"#utility.yul\":17707:17823   */\n      pop\n      pop\n      jump\t// out\n        /* \"#utility.yul\":17829:18024   */\n    tag_382:\n        /* \"#utility.yul\":17906:17916   */\n      0x00\n        /* \"#utility.yul\":17927:17981   */\n      tag_596\n        /* \"#utility.yul\":17977:17980   */\n      dup4\n        /* \"#utility.yul\":17969:17975   */\n      dup4\n        /* \"#utility.yul\":17927:17981   */\n      tag_381\n      jump\t// in\n    tag_596:\n        /* \"#utility.yul\":18013:18017   */\n      0x20\n        /* \"#utility.yul\":18008:18011   */\n      dup4\n        /* \"#utility.yul\":18004:18018   */\n      add\n        /* \"#utility.yul\":17990:18018   */\n      swap1\n      pop\n        /* \"#utility.yul\":17829:18024   */\n      swap3\n      swap2\n      pop\n      pop\n      jump\t// out\n        /* \"#utility.yul\":18030:18152   */\n    tag_383:\n        /* \"#utility.yul\":18082:18087   */\n      0x00\n        /* \"#utility.yul\":18107:18146   */\n      tag_598\n        /* \"#utility.yul\":18142:18144   */\n      0x20\n        /* \"#utility.yul\":18137:18140   */\n      dup5\n        /* \"#utility.yul\":18133:18145   */\n      add\n        /* \"#utility.yul\":18128:18131   */\n      dup5\n        /* \"#utility.yul\":18107:18146   */\n      tag_335\n      jump\t// in\n    tag_598:\n        /* \"#utility.yul\":18098:18146   */\n      swap1\n      pop\n        /* \"#utility.yul\":18030:18152   */\n      swap3\n      swap2\n      pop\n      pop\n      jump\t// out\n        /* \"#utility.yul\":18158:18273   */\n    tag_384:\n        /* \"#utility.yul\":18230:18234   */\n      0x00\n        /* \"#utility.yul\":18262:18266   */\n      0x20\n        /* \"#utility.yul\":18257:18260   */\n      dup3\n        /* \"#utility.yul\":18253:18267   */\n      add\n        /* \"#utility.yul\":18245:18267   */\n      swap1\n      pop\n        /* \"#utility.yul\":18158:18273   */\n      swap2\n      swap1\n      pop\n      jump\t// out\n        /* \"#utility.yul\":18309:19032   */\n    tag_385:\n        /* \"#utility.yul\":18446:18449   */\n      0x00\n        /* \"#utility.yul\":18469:18563   */\n      tag_601\n        /* \"#utility.yul\":18556:18562   */\n      dup4\n        /* \"#utility.yul\":18551:18554   */\n      dup6\n        /* \"#utility.yul\":18469:18563   */\n      tag_379\n      jump\t// in\n    tag_601:\n        /* \"#utility.yul\":18462:18563   */\n      swap4\n      pop\n        /* \"#utility.yul\":18587:18645   */\n      tag_602\n        /* \"#utility.yul\":18639:18644   */\n      dup3\n        /* \"#utility.yul\":18587:18645   */\n      tag_380\n      jump\t// in\n    tag_602:\n        /* \"#utility.yul\":18668:18675   */\n      dup1\n        /* \"#utility.yul\":18699:18700   */\n      0x00\n        /* \"#utility.yul\":18684:19007   */\n    tag_603:\n        /* \"#utility.yul\":18709:18715   */\n      dup6\n        /* \"#utility.yul\":18706:18707   */\n      dup2\n        /* \"#utility.yul\":18703:18716   */\n      lt\n        /* \"#utility.yul\":18684:19007   */\n      iszero\n      tag_605\n      jumpi\n        /* \"#utility.yul\":18779:18821   */\n      tag_606\n        /* \"#utility.yul\":18814:18820   */\n      dup3\n        /* \"#utility.yul\":18805:18812   */\n      dup5\n        /* \"#utility.yul\":18779:18821   */\n      tag_383\n      jump\t// in\n    tag_606:\n        /* \"#utility.yul\":18841:18912   */\n      tag_607\n        /* \"#utility.yul\":18908:18911   */\n      dup9\n        /* \"#utility.yul\":18893:18906   */\n      dup3\n        /* \"#utility.yul\":18841:18912   */\n      tag_382\n      jump\t// in\n    tag_607:\n        /* \"#utility.yul\":18834:18912   */\n      swap8\n      pop\n        /* \"#utility.yul\":18935:18997   */\n      tag_608\n        /* \"#utility.yul\":18990:18996   */\n      dup4\n        /* \"#utility.yul\":18935:18997   */\n      tag_384\n      jump\t// in\n    tag_608:\n        /* \"#utility.yul\":18925:18997   */\n      swap3\n      pop\n        /* \"#utility.yul\":18744:19007   */\n      pop\n        /* \"#utility.yul\":18731:18732   */\n      0x01\n        /* \"#utility.yul\":18728:18729   */\n      dup2\n        /* \"#utility.yul\":18724:18733   */\n      add\n        /* \"#utility.yul\":18719:18733   */\n      swap1\n      pop\n        /* \"#utility.yul\":18684:19007   */\n      jump(tag_603)\n    tag_605:\n        /* \"#utility.yul\":18688:18702   */\n      pop\n        /* \"#utility.yul\":19023:19026   */\n      dup6\n        /* \"#utility.yul\":19016:19026   */\n      swap3\n      pop\n        /* \"#utility.yul\":18451:19032   */\n      pop\n      pop\n        /* \"#utility.yul\":18309:19032   */\n      swap4\n      swap3\n      pop\n      pop\n      pop\n      jump\t// out\n        /* \"#utility.yul\":19038:19739   */\n    tag_191:\n        /* \"#utility.yul\":19283:19287   */\n      0x00\n        /* \"#utility.yul\":19321:19323   */\n      0x60\n        /* \"#utility.yul\":19310:19319   */\n      dup3\n        /* \"#utility.yul\":19306:19324   */\n      add\n        /* \"#utility.yul\":19298:19324   */\n      swap1\n      pop\n        /* \"#utility.yul\":19334:19441   */\n      tag_610\n        /* \"#utility.yul\":19438:19439   */\n      0x00\n        /* \"#utility.yul\":19427:19436   */\n      dup4\n        /* \"#utility.yul\":19423:19440   */\n      add\n        /* \"#utility.yul\":19414:19420   */\n      dup8\n        /* \"#utility.yul\":19334:19441   */\n      tag_370\n      jump\t// in\n    tag_610:\n        /* \"#utility.yul\":19451:19531   */\n      tag_611\n        /* \"#utility.yul\":19527:19529   */\n      0x20\n        /* \"#utility.yul\":19516:19525   */\n      dup4\n        /* \"#utility.yul\":19512:19530   */\n      add\n        /* \"#utility.yul\":19503:19509   */\n      dup7\n        /* \"#utility.yul\":19451:19531   */\n      tag_371\n      jump\t// in\n    tag_611:\n        /* \"#utility.yul\":19578:19587   */\n      dup2\n        /* \"#utility.yul\":19572:19576   */\n      dup2\n        /* \"#utility.yul\":19568:19588   */\n      sub\n        /* \"#utility.yul\":19563:19565   */\n      0x40\n        /* \"#utility.yul\":19552:19561   */\n      dup4\n        /* \"#utility.yul\":19548:19566   */\n      add\n        /* \"#utility.yul\":19541:19589   */\n      mstore\n        /* \"#utility.yul\":19606:19732   */\n      tag_612\n        /* \"#utility.yul\":19727:19731   */\n      dup2\n        /* \"#utility.yul\":19718:19724   */\n      dup5\n        /* \"#utility.yul\":19710:19716   */\n      dup7\n        /* \"#utility.yul\":19606:19732   */\n      tag_385\n      jump\t// in\n    tag_612:\n        /* \"#utility.yul\":19598:19732   */\n      swap1\n      pop\n        /* \"#utility.yul\":19038:19739   */\n      swap6\n      swap5\n      pop\n      pop\n      pop\n      pop\n      pop\n      jump\t// out\n        /* \"#utility.yul\":19745:20056   */\n    tag_386:\n        /* \"#utility.yul\":19822:19826   */\n      0x00\n        /* \"#utility.yul\":19912:19930   */\n      0xffffffffffffffff\n        /* \"#utility.yul\":19904:19910   */\n      dup3\n        /* \"#utility.yul\":19901:19931   */\n      gt\n        /* \"#utility.yul\":19898:19954   */\n      iszero\n      tag_614\n      jumpi\n        /* \"#utility.yul\":19934:19952   */\n      tag_615\n      tag_348\n      jump\t// in\n    tag_615:\n        /* \"#utility.yul\":19898:19954   */\n    tag_614:\n        /* \"#utility.yul\":19984:19988   */\n      0x20\n        /* \"#utility.yul\":19976:19982   */\n      dup3\n        /* \"#utility.yul\":19972:19989   */\n      mul\n        /* \"#utility.yul\":19964:19989   */\n      swap1\n      pop\n        /* \"#utility.yul\":20044:20048   */\n      0x20\n        /* \"#utility.yul\":20038:20042   */\n      dup2\n        /* \"#utility.yul\":20034:20049   */\n      add\n        /* \"#utility.yul\":20026:20049   */\n      swap1\n      pop\n        /* \"#utility.yul\":19745:20056   */\n      swap2\n      swap1\n      pop\n      jump\t// out\n        /* \"#utility.yul\":20062:20205   */\n    tag_387:\n        /* \"#utility.yul\":20119:20124   */\n      0x00\n        /* \"#utility.yul\":20150:20156   */\n      dup2\n        /* \"#utility.yul\":20144:20157   */\n      mload\n        /* \"#utility.yul\":20135:20157   */\n      swap1\n      pop\n        /* \"#utility.yul\":20166:20199   */\n      tag_617\n        /* \"#utility.yul\":20193:20198   */\n      dup2\n        /* \"#utility.yul\":20166:20199   */\n      tag_343\n      jump\t// in\n    tag_617:\n        /* \"#utility.yul\":20062:20205   */\n      swap3\n      swap2\n      pop\n      pop\n      jump\t// out\n        /* \"#utility.yul\":20228:20960   */\n    tag_388:\n        /* \"#utility.yul\":20335:20340   */\n      0x00\n        /* \"#utility.yul\":20360:20441   */\n      tag_619\n        /* \"#utility.yul\":20376:20440   */\n      tag_620\n        /* \"#utility.yul\":20433:20439   */\n      dup5\n        /* \"#utility.yul\":20376:20440   */\n      tag_386\n      jump\t// in\n    tag_620:\n        /* \"#utility.yul\":20360:20441   */\n      tag_350\n      jump\t// in\n    tag_619:\n        /* \"#utility.yul\":20351:20441   */\n      swap1\n      pop\n        /* \"#utility.yul\":20461:20466   */\n      dup1\n        /* \"#utility.yul\":20490:20496   */\n      dup4\n        /* \"#utility.yul\":20483:20488   */\n      dup3\n        /* \"#utility.yul\":20476:20497   */\n      mstore\n        /* \"#utility.yul\":20524:20528   */\n      0x20\n        /* \"#utility.yul\":20517:20522   */\n      dup3\n        /* \"#utility.yul\":20513:20529   */\n      add\n        /* \"#utility.yul\":20506:20529   */\n      swap1\n      pop\n        /* \"#utility.yul\":20577:20581   */\n      0x20\n        /* \"#utility.yul\":20569:20575   */\n      dup5\n        /* \"#utility.yul\":20565:20582   */\n      mul\n        /* \"#utility.yul\":20557:20563   */\n      dup4\n        /* \"#utility.yul\":20553:20583   */\n      add\n        /* \"#utility.yul\":20606:20609   */\n      dup6\n        /* \"#utility.yul\":20598:20604   */\n      dup2\n        /* \"#utility.yul\":20595:20610   */\n      gt\n        /* \"#utility.yul\":20592:20714   */\n      iszero\n      tag_621\n      jumpi\n        /* \"#utility.yul\":20625:20704   */\n      tag_622\n      tag_356\n      jump\t// in\n    tag_622:\n        /* \"#utility.yul\":20592:20714   */\n    tag_621:\n        /* \"#utility.yul\":20740:20746   */\n      dup4\n        /* \"#utility.yul\":20723:20954   */\n    tag_623:\n        /* \"#utility.yul\":20757:20763   */\n      dup2\n        /* \"#utility.yul\":20752:20755   */\n      dup2\n        /* \"#utility.yul\":20749:20764   */\n      lt\n        /* \"#utility.yul\":20723:20954   */\n      iszero\n      tag_625\n      jumpi\n        /* \"#utility.yul\":20832:20835   */\n      dup1\n        /* \"#utility.yul\":20861:20909   */\n      tag_626\n        /* \"#utility.yul\":20905:20908   */\n      dup9\n        /* \"#utility.yul\":20893:20903   */\n      dup3\n        /* \"#utility.yul\":20861:20909   */\n      tag_387\n      jump\t// in\n    tag_626:\n        /* \"#utility.yul\":20856:20859   */\n      dup5\n        /* \"#utility.yul\":20849:20910   */\n      mstore\n        /* \"#utility.yul\":20939:20943   */\n      0x20\n        /* \"#utility.yul\":20934:20937   */\n      dup5\n        /* \"#utility.yul\":20930:20944   */\n      add\n        /* \"#utility.yul\":20923:20944   */\n      swap4\n      pop\n        /* \"#utility.yul\":20799:20954   */\n      pop\n        /* \"#utility.yul\":20783:20787   */\n      0x20\n        /* \"#utility.yul\":20778:20781   */\n      dup2\n        /* \"#utility.yul\":20774:20788   */\n      add\n        /* \"#utility.yul\":20767:20788   */\n      swap1\n      pop\n        /* \"#utility.yul\":20723:20954   */\n      jump(tag_623)\n    tag_625:\n        /* \"#utility.yul\":20727:20748   */\n      pop\n        /* \"#utility.yul\":20341:20960   */\n      pop\n      pop\n        /* \"#utility.yul\":20228:20960   */\n      swap4\n      swap3\n      pop\n      pop\n      pop\n      jump\t// out\n        /* \"#utility.yul\":20983:21368   */\n    tag_389:\n        /* \"#utility.yul\":21065:21070   */\n      0x00\n        /* \"#utility.yul\":21114:21117   */\n      dup3\n        /* \"#utility.yul\":21107:21111   */\n      0x1f\n        /* \"#utility.yul\":21099:21105   */\n      dup4\n        /* \"#utility.yul\":21095:21112   */\n      add\n        /* \"#utility.yul\":21091:21118   */\n      slt\n        /* \"#utility.yul\":21081:21203   */\n      tag_628\n      jumpi\n        /* \"#utility.yul\":21122:21201   */\n      tag_629\n      tag_345\n      jump\t// in\n    tag_629:\n        /* \"#utility.yul\":21081:21203   */\n    tag_628:\n        /* \"#utility.yul\":21232:21238   */\n      dup2\n        /* \"#utility.yul\":21226:21239   */\n      mload\n        /* \"#utility.yul\":21257:21362   */\n      tag_630\n        /* \"#utility.yul\":21358:21361   */\n      dup5\n        /* \"#utility.yul\":21350:21356   */\n      dup3\n        /* \"#utility.yul\":21343:21347   */\n      0x20\n        /* \"#utility.yul\":21335:21341   */\n      dup7\n        /* \"#utility.yul\":21331:21348   */\n      add\n        /* \"#utility.yul\":21257:21362   */\n      tag_388\n      jump\t// in\n    tag_630:\n        /* \"#utility.yul\":21248:21362   */\n      swap2\n      pop\n        /* \"#utility.yul\":21071:21368   */\n      pop\n        /* \"#utility.yul\":20983:21368   */\n      swap3\n      swap2\n      pop\n      pop\n      jump\t// out\n        /* \"#utility.yul\":21374:21928   */\n    tag_195:\n        /* \"#utility.yul\":21469:21475   */\n      0x00\n        /* \"#utility.yul\":21518:21520   */\n      0x20\n        /* \"#utility.yul\":21506:21515   */\n      dup3\n        /* \"#utility.yul\":21497:21504   */\n      dup5\n        /* \"#utility.yul\":21493:21516   */\n      sub\n        /* \"#utility.yul\":21489:21521   */\n      slt\n        /* \"#utility.yul\":21486:21605   */\n      iszero\n      tag_632\n      jumpi\n        /* \"#utility.yul\":21524:21603   */\n      tag_633\n      tag_325\n      jump\t// in\n    tag_633:\n        /* \"#utility.yul\":21486:21605   */\n    tag_632:\n        /* \"#utility.yul\":21665:21666   */\n      0x00\n        /* \"#utility.yul\":21654:21663   */\n      dup3\n        /* \"#utility.yul\":21650:21667   */\n      add\n        /* \"#utility.yul\":21644:21668   */\n      mload\n        /* \"#utility.yul\":21695:21713   */\n      0xffffffffffffffff\n        /* \"#utility.yul\":21687:21693   */\n      dup2\n        /* \"#utility.yul\":21684:21714   */\n      gt\n        /* \"#utility.yul\":21681:21798   */\n      iszero\n      tag_634\n      jumpi\n        /* \"#utility.yul\":21717:21796   */\n      tag_635\n      tag_326\n      jump\t// in\n    tag_635:\n        /* \"#utility.yul\":21681:21798   */\n    tag_634:\n        /* \"#utility.yul\":21822:21911   */\n      tag_636\n        /* \"#utility.yul\":21903:21910   */\n      dup5\n        /* \"#utility.yul\":21894:21900   */\n      dup3\n        /* \"#utility.yul\":21883:21892   */\n      dup6\n        /* \"#utility.yul\":21879:21901   */\n      add\n        /* \"#utility.yul\":21822:21911   */\n      tag_389\n      jump\t// in\n    tag_636:\n        /* \"#utility.yul\":21812:21911   */\n      swap2\n      pop\n        /* \"#utility.yul\":21615:21921   */\n      pop\n        /* \"#utility.yul\":21374:21928   */\n      swap3\n      swap2\n      pop\n      pop\n      jump\t// out\n        /* \"#utility.yul\":21934:22464   */\n    tag_207:\n        /* \"#utility.yul\":22119:22123   */\n      0x00\n        /* \"#utility.yul\":22157:22159   */\n      0x60\n        /* \"#utility.yul\":22146:22155   */\n      dup3\n        /* \"#utility.yul\":22142:22160   */\n      add\n        /* \"#utility.yul\":22134:22160   */\n      swap1\n      pop\n        /* \"#utility.yul\":22170:22277   */\n      tag_638\n        /* \"#utility.yul\":22274:22275   */\n      0x00\n        /* \"#utility.yul\":22263:22272   */\n      dup4\n        /* \"#utility.yul\":22259:22276   */\n      add\n        /* \"#utility.yul\":22250:22256   */\n      dup7\n        /* \"#utility.yul\":22170:22277   */\n      tag_370\n      jump\t// in\n    tag_638:\n        /* \"#utility.yul\":22287:22367   */\n      tag_639\n        /* \"#utility.yul\":22363:22365   */\n      0x20\n        /* \"#utility.yul\":22352:22361   */\n      dup4\n        /* \"#utility.yul\":22348:22366   */\n      add\n        /* \"#utility.yul\":22339:22345   */\n      dup6\n        /* \"#utility.yul\":22287:22367   */\n      tag_371\n      jump\t// in\n    tag_639:\n        /* \"#utility.yul\":22377:22457   */\n      tag_640\n        /* \"#utility.yul\":22453:22455   */\n      0x40\n        /* \"#utility.yul\":22442:22451   */\n      dup4\n        /* \"#utility.yul\":22438:22456   */\n      add\n        /* \"#utility.yul\":22429:22435   */\n      dup5\n        /* \"#utility.yul\":22377:22457   */\n      tag_371\n      jump\t// in\n    tag_640:\n        /* \"#utility.yul\":21934:22464   */\n      swap5\n      swap4\n      pop\n      pop\n      pop\n      pop\n      jump\t// out\n        /* \"#utility.yul\":22470:22821   */\n    tag_211:\n        /* \"#utility.yul\":22540:22546   */\n      0x00\n        /* \"#utility.yul\":22589:22591   */\n      0x20\n        /* \"#utility.yul\":22577:22586   */\n      dup3\n        /* \"#utility.yul\":22568:22575   */\n      dup5\n        /* \"#utility.yul\":22564:22587   */\n      sub\n        /* \"#utility.yul\":22560:22592   */\n      slt\n        /* \"#utility.yul\":22557:22676   */\n      iszero\n      tag_642\n      jumpi\n        /* \"#utility.yul\":22595:22674   */\n      tag_643\n      tag_325\n      jump\t// in\n    tag_643:\n        /* \"#utility.yul\":22557:22676   */\n    tag_642:\n        /* \"#utility.yul\":22715:22716   */\n      0x00\n        /* \"#utility.yul\":22740:22804   */\n      tag_644\n        /* \"#utility.yul\":22796:22803   */\n      dup5\n        /* \"#utility.yul\":22787:22793   */\n      dup3\n        /* \"#utility.yul\":22776:22785   */\n      dup6\n        /* \"#utility.yul\":22772:22794   */\n      add\n        /* \"#utility.yul\":22740:22804   */\n      tag_387\n      jump\t// in\n    tag_644:\n        /* \"#utility.yul\":22730:22804   */\n      swap2\n      pop\n        /* \"#utility.yul\":22686:22814   */\n      pop\n        /* \"#utility.yul\":22470:22821   */\n      swap3\n      swap2\n      pop\n      pop\n      jump\t// out\n        /* \"#utility.yul\":22827:23476   */\n    tag_219:\n        /* \"#utility.yul\":23040:23044   */\n      0x00\n        /* \"#utility.yul\":23078:23081   */\n      0x80\n        /* \"#utility.yul\":23067:23076   */\n      dup3\n        /* \"#utility.yul\":23063:23082   */\n      add\n        /* \"#utility.yul\":23055:23082   */\n      swap1\n      pop\n        /* \"#utility.yul\":23092:23199   */\n      tag_646\n        /* \"#utility.yul\":23196:23197   */\n      0x00\n        /* \"#utility.yul\":23185:23194   */\n      dup4\n        /* \"#utility.yul\":23181:23198   */\n      add\n        /* \"#utility.yul\":23172:23178   */\n      dup8\n        /* \"#utility.yul\":23092:23199   */\n      tag_370\n      jump\t// in\n    tag_646:\n        /* \"#utility.yul\":23209:23289   */\n      tag_647\n        /* \"#utility.yul\":23285:23287   */\n      0x20\n        /* \"#utility.yul\":23274:23283   */\n      dup4\n        /* \"#utility.yul\":23270:23288   */\n      add\n        /* \"#utility.yul\":23261:23267   */\n      dup7\n        /* \"#utility.yul\":23209:23289   */\n      tag_371\n      jump\t// in\n    tag_647:\n        /* \"#utility.yul\":23299:23379   */\n      tag_648\n        /* \"#utility.yul\":23375:23377   */\n      0x40\n        /* \"#utility.yul\":23364:23373   */\n      dup4\n        /* \"#utility.yul\":23360:23378   */\n      add\n        /* \"#utility.yul\":23351:23357   */\n      dup6\n        /* \"#utility.yul\":23299:23379   */\n      tag_371\n      jump\t// in\n    tag_648:\n        /* \"#utility.yul\":23389:23469   */\n      tag_649\n        /* \"#utility.yul\":23465:23467   */\n      0x60\n        /* \"#utility.yul\":23454:23463   */\n      dup4\n        /* \"#utility.yul\":23450:23468   */\n      add\n        /* \"#utility.yul\":23441:23447   */\n      dup5\n        /* \"#utility.yul\":23389:23469   */\n      tag_373\n      jump\t// in\n    tag_649:\n        /* \"#utility.yul\":22827:23476   */\n      swap6\n      swap5\n      pop\n      pop\n      pop\n      pop\n      pop\n      jump\t// out\n        /* \"#utility.yul\":23482:23625   */\n    tag_390:\n        /* \"#utility.yul\":23539:23544   */\n      0x00\n        /* \"#utility.yul\":23570:23576   */\n      dup2\n        /* \"#utility.yul\":23564:23577   */\n      mload\n        /* \"#utility.yul\":23555:23577   */\n      swap1\n      pop\n        /* \"#utility.yul\":23586:23619   */\n      tag_651\n        /* \"#utility.yul\":23613:23618   */\n      dup2\n        /* \"#utility.yul\":23586:23619   */\n      tag_339\n      jump\t// in\n    tag_651:\n        /* \"#utility.yul\":23482:23625   */\n      swap3\n      swap2\n      pop\n      pop\n      jump\t// out\n        /* \"#utility.yul\":23631:23982   */\n    tag_261:\n        /* \"#utility.yul\":23701:23707   */\n      0x00\n        /* \"#utility.yul\":23750:23752   */\n      0x20\n        /* \"#utility.yul\":23738:23747   */\n      dup3\n        /* \"#utility.yul\":23729:23736   */\n      dup5\n        /* \"#utility.yul\":23725:23748   */\n      sub\n        /* \"#utility.yul\":23721:23753   */\n      slt\n        /* \"#utility.yul\":23718:23837   */\n      iszero\n      tag_653\n      jumpi\n        /* \"#utility.yul\":23756:23835   */\n      tag_654\n      tag_325\n      jump\t// in\n    tag_654:\n        /* \"#utility.yul\":23718:23837   */\n    tag_653:\n        /* \"#utility.yul\":23876:23877   */\n      0x00\n        /* \"#utility.yul\":23901:23965   */\n      tag_655\n        /* \"#utility.yul\":23957:23964   */\n      dup5\n        /* \"#utility.yul\":23948:23954   */\n      dup3\n        /* \"#utility.yul\":23937:23946   */\n      dup6\n        /* \"#utility.yul\":23933:23955   */\n      add\n        /* \"#utility.yul\":23901:23965   */\n      tag_390\n      jump\t// in\n    tag_655:\n        /* \"#utility.yul\":23891:23965   */\n      swap2\n      pop\n        /* \"#utility.yul\":23847:23975   */\n      pop\n        /* \"#utility.yul\":23631:23982   */\n      swap3\n      swap2\n      pop\n      pop\n      jump\t// out\n        /* \"#utility.yul\":23988:24106   */\n    tag_391:\n        /* \"#utility.yul\":24075:24099   */\n      tag_657\n        /* \"#utility.yul\":24093:24098   */\n      dup2\n        /* \"#utility.yul\":24075:24099   */\n      tag_333\n      jump\t// in\n    tag_657:\n        /* \"#utility.yul\":24070:24073   */\n      dup3\n        /* \"#utility.yul\":24063:24100   */\n      mstore\n        /* \"#utility.yul\":23988:24106   */\n      pop\n      pop\n      jump\t// out\n        /* \"#utility.yul\":24112:24334   */\n    tag_267:\n        /* \"#utility.yul\":24205:24209   */\n      0x00\n        /* \"#utility.yul\":24243:24245   */\n      0x20\n        /* \"#utility.yul\":24232:24241   */\n      dup3\n        /* \"#utility.yul\":24228:24246   */\n      add\n        /* \"#utility.yul\":24220:24246   */\n      swap1\n      pop\n        /* \"#utility.yul\":24256:24327   */\n      tag_659\n        /* \"#utility.yul\":24324:24325   */\n      0x00\n        /* \"#utility.yul\":24313:24322   */\n      dup4\n        /* \"#utility.yul\":24309:24326   */\n      add\n        /* \"#utility.yul\":24300:24306   */\n      dup5\n        /* \"#utility.yul\":24256:24327   */\n      tag_391\n      jump\t// in\n    tag_659:\n        /* \"#utility.yul\":24112:24334   */\n      swap3\n      swap2\n      pop\n      pop\n      jump\t// out\n        /* \"#utility.yul\":24340:24672   */\n    tag_279:\n        /* \"#utility.yul\":24461:24465   */\n      0x00\n        /* \"#utility.yul\":24499:24501   */\n      0x40\n        /* \"#utility.yul\":24488:24497   */\n      dup3\n        /* \"#utility.yul\":24484:24502   */\n      add\n        /* \"#utility.yul\":24476:24502   */\n      swap1\n      pop\n        /* \"#utility.yul\":24512:24583   */\n      tag_661\n        /* \"#utility.yul\":24580:24581   */\n      0x00\n        /* \"#utility.yul\":24569:24578   */\n      dup4\n        /* \"#utility.yul\":24565:24582   */\n      add\n        /* \"#utility.yul\":24556:24562   */\n      dup6\n        /* \"#utility.yul\":24512:24583   */\n      tag_391\n      jump\t// in\n    tag_661:\n        /* \"#utility.yul\":24593:24665   */\n      tag_662\n        /* \"#utility.yul\":24661:24663   */\n      0x20\n        /* \"#utility.yul\":24650:24659   */\n      dup4\n        /* \"#utility.yul\":24646:24664   */\n      add\n        /* \"#utility.yul\":24637:24643   */\n      dup5\n        /* \"#utility.yul\":24593:24665   */\n      tag_341\n      jump\t// in\n    tag_662:\n        /* \"#utility.yul\":24340:24672   */\n      swap4\n      swap3\n      pop\n      pop\n      pop\n      jump\t// out\n        /* \"#utility.yul\":24678:24776   */\n    tag_392:\n        /* \"#utility.yul\":24729:24735   */\n      0x00\n        /* \"#utility.yul\":24763:24768   */\n      dup2\n        /* \"#utility.yul\":24757:24769   */\n      mload\n        /* \"#utility.yul\":24747:24769   */\n      swap1\n      pop\n        /* \"#utility.yul\":24678:24776   */\n      swap2\n      swap1\n      pop\n      jump\t// out\n        /* \"#utility.yul\":24782:24929   */\n    tag_393:\n        /* \"#utility.yul\":24883:24894   */\n      0x00\n        /* \"#utility.yul\":24920:24923   */\n      dup2\n        /* \"#utility.yul\":24905:24923   */\n      swap1\n      pop\n        /* \"#utility.yul\":24782:24929   */\n      swap3\n      swap2\n      pop\n      pop\n      jump\t// out\n        /* \"#utility.yul\":24935:25321   */\n    tag_394:\n        /* \"#utility.yul\":25039:25042   */\n      0x00\n        /* \"#utility.yul\":25067:25105   */\n      tag_666\n        /* \"#utility.yul\":25099:25104   */\n      dup3\n        /* \"#utility.yul\":25067:25105   */\n      tag_392\n      jump\t// in\n    tag_666:\n        /* \"#utility.yul\":25121:25209   */\n      tag_667\n        /* \"#utility.yul\":25202:25208   */\n      dup2\n        /* \"#utility.yul\":25197:25200   */\n      dup6\n        /* \"#utility.yul\":25121:25209   */\n      tag_393\n      jump\t// in\n    tag_667:\n        /* \"#utility.yul\":25114:25209   */\n      swap4\n      pop\n        /* \"#utility.yul\":25218:25283   */\n      tag_668\n        /* \"#utility.yul\":25276:25282   */\n      dup2\n        /* \"#utility.yul\":25271:25274   */\n      dup6\n        /* \"#utility.yul\":25264:25268   */\n      0x20\n        /* \"#utility.yul\":25257:25262   */\n      dup7\n        /* \"#utility.yul\":25253:25269   */\n      add\n        /* \"#utility.yul\":25218:25283   */\n      tag_367\n      jump\t// in\n    tag_668:\n        /* \"#utility.yul\":25308:25314   */\n      dup1\n        /* \"#utility.yul\":25303:25306   */\n      dup5\n        /* \"#utility.yul\":25299:25315   */\n      add\n        /* \"#utility.yul\":25292:25315   */\n      swap2\n      pop\n        /* \"#utility.yul\":25043:25321   */\n      pop\n        /* \"#utility.yul\":24935:25321   */\n      swap3\n      swap2\n      pop\n      pop\n      jump\t// out\n        /* \"#utility.yul\":25327:25598   */\n    tag_305:\n        /* \"#utility.yul\":25457:25460   */\n      0x00\n        /* \"#utility.yul\":25479:25572   */\n      tag_670\n        /* \"#utility.yul\":25568:25571   */\n      dup3\n        /* \"#utility.yul\":25559:25565   */\n      dup5\n        /* \"#utility.yul\":25479:25572   */\n      tag_394\n      jump\t// in\n    tag_670:\n        /* \"#utility.yul\":25472:25572   */\n      swap2\n      pop\n        /* \"#utility.yul\":25589:25592   */\n      dup2\n        /* \"#utility.yul\":25582:25592   */\n      swap1\n      pop\n        /* \"#utility.yul\":25327:25598   */\n      swap3\n      swap2\n      pop\n      pop\n      jump\t// out\n\n    auxdata: 0xa26469706673582212206cd4c522610ab3d107c7aac376becd0b1a781c8439d23d44725806d77e440a4964736f6c63430008180033\n}\n",
				"bytecode": {
					"linkReferences": {
						"contracts/StablecoinVaultLib.sol": {
							"StablecoinVaultLib": [
								{
									"length": 20,
									"start": 1376
								},
								{
									"length": 20,
									"start": 1685
								},
								{
									"length": 20,
									"start": 1791
								},
								{
									"length": 20,
									"start": 2431
								},
								{
									"length": 20,
									"start": 2580
								},
								{
									"length": 20,
									"start": 2864
								},
								{
									"length": 20,
									"start": 3030
								}
							]
						}
					},
					"object": "60a06040523073ffffffffffffffffffffffffffffffffffffffff1660809073ffffffffffffffffffffffffffffffffffffffff16815250348015610042575f80fd5b506080516121c66100695f395f8181610ed601528181610f2b015261110801526121c65ff3fe608060405260043610610113575f3560e01c806352d1902d1161009f578063ad3cb1cc11610063578063ad3cb1cc1461038f578063d4fac45d146103b9578063d547741f146103f5578063d9caed121461041d578063f72c0d8b1461044557610113565b806352d1902d1461029b5780636a385ae9146102c557806388b9a4691461030157806391d1485414610329578063a217fddf1461036557610113565b806336568abe116100e657806336568abe146101df5780633f4495291461020757806347e7ef241461022f578063485cc955146102575780634f1ef2861461027f57610113565b806301ffc9a71461011757806314bc6ea314610153578063248a9ca31461017b5780632f2ff15d146101b7575b5f80fd5b348015610122575f80fd5b5061013d600480360381019061013891906115c6565b61046f565b60405161014a919061160b565b60405180910390f35b34801561015e575f80fd5b50610179600480360381019061017491906116a8565b6104e8565b005b348015610186575f80fd5b506101a1600480360381019061019c9190611719565b610562565b6040516101ae9190611753565b60405180910390f35b3480156101c2575f80fd5b506101dd60048036038101906101d8919061176c565b61058c565b005b3480156101ea575f80fd5b506102056004803603810190610200919061176c565b6105ae565b005b348015610212575f80fd5b5061022d600480360381019061022891906117dd565b610629565b005b34801561023a575f80fd5b5061025560048036038101906102509190611808565b610693565b005b348015610262575f80fd5b5061027d60048036038101906102789190611846565b610700565b005b610299600480360381019061029491906119c0565b6108c1565b005b3480156102a6575f80fd5b506102af6108e0565b6040516102bc9190611753565b60405180910390f35b3480156102d0575f80fd5b506102eb60048036038101906102e69190611a77565b610911565b6040516102f89190611b8b565b60405180910390f35b34801561030c575f80fd5b50610327600480360381019061032291906117dd565b61099c565b005b348015610334575f80fd5b5061034f600480360381019061034a919061176c565b610a13565b60405161035c919061160b565b60405180910390f35b348015610370575f80fd5b50610379610a84565b6040516103869190611753565b60405180910390f35b34801561039a575f80fd5b506103a3610a8a565b6040516103b09190611c25565b60405180910390f35b3480156103c4575f80fd5b506103df60048036038101906103da9190611846565b610ac3565b6040516103ec9190611c54565b60405180910390f35b348015610400575f80fd5b5061041b6004803603810190610416919061176c565b610b48565b005b348015610428575f80fd5b50610443600480360381019061043e9190611c6d565b610b6a565b005b348015610450575f80fd5b50610459610bda565b6040516104669190611753565b60405180910390f35b5f7f7965db0b000000000000000000000000000000000000000000000000000000007bffffffffffffffffffffffffffffffffffffffffffffffffffffffff1916827bffffffffffffffffffffffffffffffffffffffffffffffffffffffff191614806104e157506104e082610bfe565b5b9050919050565b5f801b6104f481610c67565b5f73__$c686b4266f99eae678e902c2a289beb78f$__638defb481909185856040518463ffffffff1660e01b815260040161053193929190611ce2565b5f6040518083038186803b158015610547575f80fd5b505af4158015610559573d5f803e3d5ffd5b50505050505050565b5f8061056c610c7b565b9050805f015f8481526020019081526020015f2060010154915050919050565b61059582610562565b61059e81610c67565b6105a88383610ca2565b50505050565b6105b6610d9a565b73ffffffffffffffffffffffffffffffffffffffff168173ffffffffffffffffffffffffffffffffffffffff161461061a576040517f6697b23200000000000000000000000000000000000000000000000000000000815260040160405180910390fd5b6106248282610da1565b505050565b5f73__$c686b4266f99eae678e902c2a289beb78f$__632422feb99091836040518363ffffffff1660e01b8152600401610664929190611d26565b5f6040518083038186803b15801561067a575f80fd5b505af415801561068c573d5f803e3d5ffd5b5050505050565b5f73__$c686b4266f99eae678e902c2a289beb78f$__6396e11fc3909184846040518463ffffffff1660e01b81526004016106d093929190611d4d565b5f6040518083038186803b1580156106e6575f80fd5b505af41580156106f8573d5f803e3d5ffd5b505050505050565b5f610709610e99565b90505f815f0160089054906101000a900460ff161590505f825f015f9054906101000a900467ffffffffffffffff1690505f808267ffffffffffffffff161480156107515750825b90505f60018367ffffffffffffffff1614801561078457505f3073ffffffffffffffffffffffffffffffffffffffff163b145b905081158015610792575080155b156107c9576040517ff92ee8a900000000000000000000000000000000000000000000000000000000815260040160405180910390fd5b6001855f015f6101000a81548167ffffffffffffffff021916908367ffffffffffffffff1602179055508315610816576001855f0160086101000a81548160ff0219169083151502179055505b61081e610ec0565b610826610eca565b6108325f801b88610ca2565b5061085d7f189ab7a9244df0848122154315af71fe140f3db0fe014031783b0946b8c9d2e387610ca2565b5083156108b8575f855f0160086101000a81548160ff0219169083151502179055507fc7f505b2f371ae2175ee4913f4499e1f2633a7b5936321eed1cdaeb6115181d260016040516108af9190611dd7565b60405180910390a15b50505050505050565b6108c9610ed4565b6108d282610fba565b6108dc8282610fe8565b5050565b5f6108e9611106565b7f360894a13ba1a3210667c828492db98dca3e2076cc3735a920a3ca505d382bbc5f1b905090565b60605f73__$c686b4266f99eae678e902c2a289beb78f$__62ceab9090918686866040518563ffffffff1660e01b81526004016109519493929190611eac565b5f60405180830381865af415801561096b573d5f803e3d5ffd5b505050506040513d5f823e3d601f19601f820116820180604052508101906109939190611fbe565b90509392505050565b5f801b6109a881610c67565b5f73__$c686b4266f99eae678e902c2a289beb78f$__635fc707ce9091846040518363ffffffff1660e01b81526004016109e3929190611d26565b5f6040518083038186803b1580156109f9575f80fd5b505af4158015610a0b573d5f803e3d5ffd5b505050505050565b5f80610a1d610c7b565b9050805f015f8581526020019081526020015f205f015f8473ffffffffffffffffffffffffffffffffffffffff1673ffffffffffffffffffffffffffffffffffffffff1681526020019081526020015f205f9054906101000a900460ff1691505092915050565b5f801b81565b6040518060400160405280600581526020017f352e302e3000000000000000000000000000000000000000000000000000000081525081565b5f8073__$c686b4266f99eae678e902c2a289beb78f$__631620e9a6909185856040518463ffffffff1660e01b8152600401610b0193929190612005565b602060405180830381865af4158015610b1c573d5f803e3d5ffd5b505050506040513d601f19601f82011682018060405250810190610b40919061203a565b905092915050565b610b5182610562565b610b5a81610c67565b610b648383610da1565b50505050565b5f73__$c686b4266f99eae678e902c2a289beb78f$__63017e466a90918585856040518563ffffffff1660e01b8152600401610ba99493929190612065565b5f6040518083038186803b158015610bbf575f80fd5b505af4158015610bd1573d5f803e3d5ffd5b50505050505050565b7f189ab7a9244df0848122154315af71fe140f3db0fe014031783b0946b8c9d2e381565b5f7f01ffc9a7000000000000000000000000000000000000000000000000000000007bffffffffffffffffffffffffffffffffffffffffffffffffffffffff1916827bffffffffffffffffffffffffffffffffffffffffffffffffffffffff1916149050919050565b610c7881610c73610d9a565b61118d565b50565b5f7f02dd7bc7dec4dceedda775e58dd541e08a116c6c53815c0bd028192f7b626800905090565b5f80610cac610c7b565b9050610cb88484610a13565b610d8f576001815f015f8681526020019081526020015f205f015f8573ffffffffffffffffffffffffffffffffffffffff1673ffffffffffffffffffffffffffffffffffffffff1681526020019081526020015f205f6101000a81548160ff021916908315150217905550610d2b610d9a565b73ffffffffffffffffffffffffffffffffffffffff168373ffffffffffffffffffffffffffffffffffffffff16857f2f8788117e7eff1d82e926ec794901d17c78024a50270940304540a733656f0d60405160405180910390a46001915050610d94565b5f9150505b92915050565b5f33905090565b5f80610dab610c7b565b9050610db78484610a13565b15610e8e575f815f015f8681526020019081526020015f205f015f8573ffffffffffffffffffffffffffffffffffffffff1673ffffffffffffffffffffffffffffffffffffffff1681526020019081526020015f205f6101000a81548160ff021916908315150217905550610e2a610d9a565b73ffffffffffffffffffffffffffffffffffffffff168373ffffffffffffffffffffffffffffffffffffffff16857ff6391f5c32d9c69d2a47ea670b442974b53935d1edc7fd64eb21e047a839171b60405160405180910390a46001915050610e93565b5f9150505b92915050565b5f7ff0c57e16840df040f15088dc2f81fe391c3923bec73e23a9662efc9c229c6a00905090565b610ec86111de565b565b610ed26111de565b565b7f000000000000000000000000000000000000000000000000000000000000000073ffffffffffffffffffffffffffffffffffffffff163073ffffffffffffffffffffffffffffffffffffffff161480610f8157507f000000000000000000000000000000000000000000000000000000000000000073ffffffffffffffffffffffffffffffffffffffff16610f6861121e565b73ffffffffffffffffffffffffffffffffffffffff1614155b15610fb8576040517fe07c8dba00000000000000000000000000000000000000000000000000000000815260040160405180910390fd5b565b7f189ab7a9244df0848122154315af71fe140f3db0fe014031783b0946b8c9d2e3610fe481610c67565b5050565b8173ffffffffffffffffffffffffffffffffffffffff166352d1902d6040518163ffffffff1660e01b8152600401602060405180830381865afa92505050801561105057506040513d601f19601f8201168201806040525081019061104d91906120bc565b60015b61109157816040517f4c9c8ce300000000000000000000000000000000000000000000000000000000815260040161108891906120f6565b60405180910390fd5b7f360894a13ba1a3210667c828492db98dca3e2076cc3735a920a3ca505d382bbc5f1b81146110f757806040517faa1d49a40000000000000000000000000000000000000000000000000000000081526004016110ee9190611753565b60405180910390fd5b6111018383611271565b505050565b7f000000000000000000000000000000000000000000000000000000000000000073ffffffffffffffffffffffffffffffffffffffff163073ffffffffffffffffffffffffffffffffffffffff161461118b576040517fe07c8dba00000000000000000000000000000000000000000000000000000000815260040160405180910390fd5b565b6111978282610a13565b6111da5780826040517fe2517d3f0000000000000000000000000000000000000000000000000000000081526004016111d192919061210f565b60405180910390fd5b5050565b6111e66112e3565b61121c576040517fd7e6bcf800000000000000000000000000000000000000000000000000000000815260040160405180910390fd5b565b5f61124a7f360894a13ba1a3210667c828492db98dca3e2076cc3735a920a3ca505d382bbc5f1b611301565b5f015f9054906101000a900473ffffffffffffffffffffffffffffffffffffffff16905090565b61127a8261130a565b8173ffffffffffffffffffffffffffffffffffffffff167fbc7cd75a20ee27fd9adebab32041f755214dbc6bffa90cc0225b39da2e5c2d3b60405160405180910390a25f815111156112d6576112d082826113d3565b506112df565b6112de611453565b5b5050565b5f6112ec610e99565b5f0160089054906101000a900460ff16905090565b5f819050919050565b5f8173ffffffffffffffffffffffffffffffffffffffff163b0361136557806040517f4c9c8ce300000000000000000000000000000000000000000000000000000000815260040161135c91906120f6565b60405180910390fd5b806113917f360894a13ba1a3210667c828492db98dca3e2076cc3735a920a3ca505d382bbc5f1b611301565b5f015f6101000a81548173ffffffffffffffffffffffffffffffffffffffff021916908373ffffffffffffffffffffffffffffffffffffffff16021790555050565b60605f808473ffffffffffffffffffffffffffffffffffffffff16846040516113fc919061217a565b5f60405180830381855af49150503d805f8114611434576040519150601f19603f3d011682016040523d82523d5f602084013e611439565b606091505b509150915061144985838361148f565b9250505092915050565b5f34111561148d576040517fb398979f00000000000000000000000000000000000000000000000000000000815260040160405180910390fd5b565b6060826114a45761149f8261151c565b611514565b5f82511480156114ca57505f8473ffffffffffffffffffffffffffffffffffffffff163b145b1561150c57836040517f9996b31500000000000000000000000000000000000000000000000000000000815260040161150391906120f6565b60405180910390fd5b819050611515565b5b9392505050565b5f8151111561152e5780518082602001fd5b6040517f1425ea4200000000000000000000000000000000000000000000000000000000815260040160405180910390fd5b5f604051905090565b5f80fd5b5f80fd5b5f7fffffffff0000000000000000000000000000000000000000000000000000000082169050919050565b6115a581611571565b81146115af575f80fd5b50565b5f813590506115c08161159c565b92915050565b5f602082840312156115db576115da611569565b5b5f6115e8848285016115b2565b91505092915050565b5f8115159050919050565b611605816115f1565b82525050565b5f60208201905061161e5f8301846115fc565b92915050565b5f73ffffffffffffffffffffffffffffffffffffffff82169050919050565b5f61164d82611624565b9050919050565b61165d81611643565b8114611667575f80fd5b50565b5f8135905061167881611654565b92915050565b611687816115f1565b8114611691575f80fd5b50565b5f813590506116a28161167e565b92915050565b5f80604083850312156116be576116bd611569565b5b5f6116cb8582860161166a565b92505060206116dc85828601611694565b9150509250929050565b5f819050919050565b6116f8816116e6565b8114611702575f80fd5b50565b5f81359050611713816116ef565b92915050565b5f6020828403121561172e5761172d611569565b5b5f61173b84828501611705565b91505092915050565b61174d816116e6565b82525050565b5f6020820190506117665f830184611744565b92915050565b5f806040838503121561178257611781611569565b5b5f61178f85828601611705565b92505060206117a08582860161166a565b9150509250929050565b5f819050919050565b6117bc816117aa565b81146117c6575f80fd5b50565b5f813590506117d7816117b3565b92915050565b5f602082840312156117f2576117f1611569565b5b5f6117ff848285016117c9565b91505092915050565b5f806040838503121561181e5761181d611569565b5b5f61182b8582860161166a565b925050602061183c858286016117c9565b9150509250929050565b5f806040838503121561185c5761185b611569565b5b5f6118698582860161166a565b925050602061187a8582860161166a565b9150509250929050565b5f80fd5b5f80fd5b5f601f19601f8301169050919050565b7f4e487b71000000000000000000000000000000000000000000000000000000005f52604160045260245ffd5b6118d28261188c565b810181811067ffffffffffffffff821117156118f1576118f061189c565b5b80604052505050565b5f611903611560565b905061190f82826118c9565b919050565b5f67ffffffffffffffff82111561192e5761192d61189c565b5b6119378261188c565b9050602081019050919050565b828183375f83830152505050565b5f61196461195f84611914565b6118fa565b9050828152602081018484840111156119805761197f611888565b5b61198b848285611944565b509392505050565b5f82601f8301126119a7576119a6611884565b5b81356119b7848260208601611952565b91505092915050565b5f80604083850312156119d6576119d5611569565b5b5f6119e38582860161166a565b925050602083013567ffffffffffffffff811115611a0457611a0361156d565b5b611a1085828601611993565b9150509250929050565b5f80fd5b5f80fd5b5f8083601f840112611a3757611a36611884565b5b8235905067ffffffffffffffff811115611a5457611a53611a1a565b5b602083019150836020820283011115611a7057611a6f611a1e565b5b9250929050565b5f805f60408486031215611a8e57611a8d611569565b5b5f611a9b8682870161166a565b935050602084013567ffffffffffffffff811115611abc57611abb61156d565b5b611ac886828701611a22565b92509250509250925092565b5f81519050919050565b5f82825260208201905092915050565b5f819050602082019050919050565b611b06816117aa565b82525050565b5f611b178383611afd565b60208301905092915050565b5f602082019050919050565b5f611b3982611ad4565b611b438185611ade565b9350611b4e83611aee565b805f5b83811015611b7e578151611b658882611b0c565b9750611b7083611b23565b925050600181019050611b51565b5085935050505092915050565b5f6020820190508181035f830152611ba38184611b2f565b905092915050565b5f81519050919050565b5f82825260208201905092915050565b5f5b83811015611be2578082015181840152602081019050611bc7565b5f8484015250505050565b5f611bf782611bab565b611c018185611bb5565b9350611c11818560208601611bc5565b611c1a8161188c565b840191505092915050565b5f6020820190508181035f830152611c3d8184611bed565b905092915050565b611c4e816117aa565b82525050565b5f602082019050611c675f830184611c45565b92915050565b5f805f60608486031215611c8457611c83611569565b5b5f611c918682870161166a565b9350506020611ca28682870161166a565b9250506040611cb3868287016117c9565b9150509250925092565b8082525050565b611ccd81611643565b82525050565b611cdc816115f1565b82525050565b5f606082019050611cf55f830186611cbd565b611d026020830185611cc4565b611d0f6040830184611cd3565b949350505050565b611d20816117aa565b82525050565b5f604082019050611d395f830185611cbd565b611d466020830184611d17565b9392505050565b5f606082019050611d605f830186611cbd565b611d6d6020830185611cc4565b611d7a6040830184611d17565b949350505050565b5f819050919050565b5f67ffffffffffffffff82169050919050565b5f819050919050565b5f611dc1611dbc611db784611d82565b611d9e565b611d8b565b9050919050565b611dd181611da7565b82525050565b5f602082019050611dea5f830184611dc8565b92915050565b5f82825260208201905092915050565b5f819050919050565b611e1281611643565b82525050565b5f611e238383611e09565b60208301905092915050565b5f611e3d602084018461166a565b905092915050565b5f602082019050919050565b5f611e5c8385611df0565b9350611e6782611e00565b805f5b85811015611e9f57611e7c8284611e2f565b611e868882611e18565b9750611e9183611e45565b925050600181019050611e6a565b5085925050509392505050565b5f606082019050611ebf5f830187611cbd565b611ecc6020830186611cc4565b8181036040830152611edf818486611e51565b905095945050505050565b5f67ffffffffffffffff821115611f0457611f0361189c565b5b602082029050602081019050919050565b5f81519050611f23816117b3565b92915050565b5f611f3b611f3684611eea565b6118fa565b90508083825260208201905060208402830185811115611f5e57611f5d611a1e565b5b835b81811015611f875780611f738882611f15565b845260208401935050602081019050611f60565b5050509392505050565b5f82601f830112611fa557611fa4611884565b5b8151611fb5848260208601611f29565b91505092915050565b5f60208284031215611fd357611fd2611569565b5b5f82015167ffffffffffffffff811115611ff057611fef61156d565b5b611ffc84828501611f91565b91505092915050565b5f6060820190506120185f830186611cbd565b6120256020830185611cc4565b6120326040830184611cc4565b949350505050565b5f6020828403121561204f5761204e611569565b5b5f61205c84828501611f15565b91505092915050565b5f6080820190506120785f830187611cbd565b6120856020830186611cc4565b6120926040830185611cc4565b61209f6060830184611d17565b95945050505050565b5f815190506120b6816116ef565b92915050565b5f602082840312156120d1576120d0611569565b5b5f6120de848285016120a8565b91505092915050565b6120f081611643565b82525050565b5f6020820190506121095f8301846120e7565b92915050565b5f6040820190506121225f8301856120e7565b61212f6020830184611744565b9392505050565b5f81519050919050565b5f81905092915050565b5f61215482612136565b61215e8185612140565b935061216e818560208601611bc5565b80840191505092915050565b5f612185828461214a565b91508190509291505056fea26469706673582212206cd4c522610ab3d107c7aac376becd0b1a781c8439d23d44725806d77e440a4964736f6c63430008180033",
					"opcodes": "PUSH1 0xA0 PUSH1 0x40 MSTORE ADDRESS PUSH20 0xFFFFFFFFFFFFFFFFFFFFFFFFFFFFFFFFFFFFFFFF AND PUSH1 0x80 SWAP1 PUSH20 0xFFFFFFFFFFFFFFFFFFFFFFFFFFFFFFFFFFFFFFFF AND DUP2 MSTORE POP CALLVALUE DUP1 ISZERO PUSH2 0x42 JUMPI PUSH0 DUP1 REVERT JUMPDEST POP PUSH1 0x80 MLOAD PUSH2 0x21C6 PUSH2 0x69 PUSH0 CODECOPY PUSH0 DUP2 DUP2 PUSH2 0xED6 ADD MSTORE DUP2 DUP2 PUSH2 0xF2B ADD MSTORE PUSH2 0x1108 ADD MSTORE PUSH2 0x21C6 PUSH0 RETURN INVALID PUSH1 0x80 PUSH1 0x40 MSTORE PUSH1 0x4 CALLDATASIZE LT PUSH2 0x113 JUMPI PUSH0 CALLDATALOAD PUSH1 0xE0 SHR DUP1 PUSH4 0x52D1902D GT PUSH2 0x9F JUMPI DUP1 PUSH4 0xAD3CB1CC GT PUSH2 0x63 JUMPI DUP1 PUSH4 0xAD3CB1CC EQ PUSH2 0x38F JUMPI DUP1 PUSH4 0xD4FAC45D EQ PUSH2 0x3B9 JUMPI DUP1 PUSH4 0xD547741F EQ PUSH2 0x3F5 JUMPI DUP1 PUSH4 0xD9CAED12 EQ PUSH2 0x41D JUMPI DUP1 PUSH4 0xF72C0D8B EQ PUSH2 0x445 JUMPI PUSH2 0x113 JUMP JUMPDEST DUP1 PUSH4 0x52D1902D EQ PUSH2 0x29B JUMPI DUP1 PUSH4 0x6A385AE9 EQ PUSH2 0x2C5 JUMPI DUP1 PUSH4 0x88B9A469 EQ PUSH2 0x301 JUMPI DUP1 PUSH4 0x91D14854 EQ PUSH2 0x329 JUMPI DUP1 PUSH4 0xA217FDDF EQ PUSH2 0x365 JUMPI PUSH2 0x113 JUMP JUMPDEST DUP1 PUSH4 0x36568ABE GT PUSH2 0xE6 JUMPI DUP1 PUSH4 0x36568ABE EQ PUSH2 0x1DF JUMPI DUP1 PUSH4 0x3F449529 EQ PUSH2 0x207 JUMPI DUP1 PUSH4 0x47E7EF24 EQ PUSH2 0x22F JUMPI DUP1 PUSH4 0x485CC955 EQ PUSH2 0x257 JUMPI DUP1 PUSH4 0x4F1EF286 EQ PUSH2 0x27F JUMPI PUSH2 0x113 JUMP JUMPDEST DUP1 PUSH4 0x1FFC9A7 EQ PUSH2 0x117 JUMPI DUP1 PUSH4 0x14BC6EA3 EQ PUSH2 0x153 JUMPI DUP1 PUSH4 0x248A9CA3 EQ PUSH2 0x17B JUMPI DUP1 PUSH4 0x2F2FF15D EQ PUSH2 0x1B7 JUMPI JUMPDEST PUSH0 DUP1 REVERT JUMPDEST CALLVALUE DUP1 ISZERO PUSH2 0x122 JUMPI PUSH0 DUP1 REVERT JUMPDEST POP PUSH2 0x13D PUSH1 0x4 DUP1 CALLDATASIZE SUB DUP2 ADD SWAP1 PUSH2 0x138 SWAP2 SWAP1 PUSH2 0x15C6 JUMP JUMPDEST PUSH2 0x46F JUMP JUMPDEST PUSH1 0x40 MLOAD PUSH2 0x14A SWAP2 SWAP1 PUSH2 0x160B JUMP JUMPDEST PUSH1 0x40 MLOAD DUP1 SWAP2 SUB SWAP1 RETURN JUMPDEST CALLVALUE DUP1 ISZERO PUSH2 0x15E JUMPI PUSH0 DUP1 REVERT JUMPDEST POP PUSH2 0x179 PUSH1 0x4 DUP1 CALLDATASIZE SUB DUP2 ADD SWAP1 PUSH2 0x174 SWAP2 SWAP1 PUSH2 0x16A8 JUMP JUMPDEST PUSH2 0x4E8 JUMP JUMPDEST STOP JUMPDEST CALLVALUE DUP1 ISZERO PUSH2 0x186 JUMPI PUSH0 DUP1 REVERT JUMPDEST POP PUSH2 0x1A1 PUSH1 0x4 DUP1 CALLDATASIZE SUB DUP2 ADD SWAP1 PUSH2 0x19C SWAP2 SWAP1 PUSH2 0x1719 JUMP JUMPDEST PUSH2 0x562 JUMP JUMPDEST PUSH1 0x40 MLOAD PUSH2 0x1AE SWAP2 SWAP1 PUSH2 0x1753 JUMP JUMPDEST PUSH1 0x40 MLOAD DUP1 SWAP2 SUB SWAP1 RETURN JUMPDEST CALLVALUE DUP1 ISZERO PUSH2 0x1C2 JUMPI PUSH0 DUP1 REVERT JUMPDEST POP PUSH2 0x1DD PUSH1 0x4 DUP1 CALLDATASIZE SUB DUP2 ADD SWAP1 PUSH2 0x1D8 SWAP2 SWAP1 PUSH2 0x176C JUMP JUMPDEST PUSH2 0x58C JUMP JUMPDEST STOP JUMPDEST CALLVALUE DUP1 ISZERO PUSH2 0x1EA JUMPI PUSH0 DUP1 REVERT JUMPDEST POP PUSH2 0x205 PUSH1 0x4 DUP1 CALLDATASIZE SUB DUP2 ADD SWAP1 PUSH2 0x200 SWAP2 SWAP1 PUSH2 0x176C JUMP JUMPDEST PUSH2 0x5AE JUMP JUMPDEST STOP JUMPDEST CALLVALUE DUP1 ISZERO PUSH2 0x212 JUMPI PUSH0 DUP1 REVERT JUMPDEST POP PUSH2 0x22D PUSH1 0x4 DUP1 CALLDATASIZE SUB DUP2 ADD SWAP1 PUSH2 0x228 SWAP2 SWAP1 PUSH2 0x17DD JUMP JUMPDEST PUSH2 0x629 JUMP JUMPDEST STOP JUMPDEST CALLVALUE DUP1 ISZERO PUSH2 0x23A JUMPI PUSH0 DUP1 REVERT JUMPDEST POP PUSH2 0x255 PUSH1 0x4 DUP1 CALLDATASIZE SUB DUP2 ADD SWAP1 PUSH2 0x250 SWAP2 SWAP1 PUSH2 0x1808 JUMP JUMPDEST PUSH2 0x693 JUMP JUMPDEST STOP JUMPDEST CALLVALUE DUP1 ISZERO PUSH2 0x262 JUMPI PUSH0 DUP1 REVERT JUMPDEST POP PUSH2 0x27D PUSH1 0x4 DUP1 CALLDATASIZE SUB DUP2 ADD SWAP1 PUSH2 0x278 SWAP2 SWAP1 PUSH2 0x1846 JUMP JUMPDEST PUSH2 0x700 JUMP JUMPDEST STOP JUMPDEST PUSH2 0x299 PUSH1 0x4 DUP1 CALLDATASIZE SUB DUP2 ADD SWAP1 PUSH2 0x294 SWAP2 SWAP1 PUSH2 0x19C0 JUMP JUMPDEST PUSH2 0x8C1 JUMP JUMPDEST STOP JUMPDEST CALLVALUE DUP1 ISZERO PUSH2 0x2A6 JUMPI PUSH0 DUP1 REVERT JUMPDEST POP PUSH2 0x2AF PUSH2 0x8E0 JUMP JUMPDEST PUSH1 0x40 MLOAD PUSH2 0x2BC SWAP2 SWAP1 PUSH2 0x1753 JUMP JUMPDEST PUSH1 0x40 MLOAD DUP1 SWAP2 SUB SWAP1 RETURN JUMPDEST CALLVALUE DUP1 ISZERO PUSH2 0x2D0 JUMPI PUSH0 DUP1 REVERT JUMPDEST POP PUSH2 0x2EB PUSH1 0x4 DUP1 CALLDATASIZE SUB DUP2 ADD SWAP1 PUSH2 0x2E6 SWAP2 SWAP1 PUSH2 0x1A77 JUMP JUMPDEST PUSH2 0x911 JUMP JUMPDEST PUSH1 0x40 MLOAD PUSH2 0x2F8 SWAP2 SWAP1 PUSH2 0x1B8B JUMP JUMPDEST PUSH1 0x40 MLOAD DUP1 SWAP2 SUB SWAP1 RETURN JUMPDEST CALLVALUE DUP1 ISZERO PUSH2 0x30C JUMPI PUSH0 DUP1 REVERT JUMPDEST POP PUSH2 0x327 PUSH1 0x4 DUP1 CALLDATASIZE SUB DUP2 ADD SWAP1 PUSH2 0x322 SWAP2 SWAP1 PUSH2 0x17DD JUMP JUMPDEST PUSH2 0x99C JUMP JUMPDEST STOP JUMPDEST CALLVALUE DUP1 ISZERO PUSH2 0x334 JUMPI PUSH0 DUP1 REVERT JUMPDEST POP PUSH2 0x34F PUSH1 0x4 DUP1 CALLDATASIZE SUB DUP2 ADD SWAP1 PUSH2 0x34A SWAP2 SWAP1 PUSH2 0x176C JUMP JUMPDEST PUSH2 0xA13 JUMP JUMPDEST PUSH1 0x40 MLOAD PUSH2 0x35C SWAP2 SWAP1 PUSH2 0x160B JUMP JUMPDEST PUSH1 0x40 MLOAD DUP1 SWAP2 SUB SWAP1 RETURN JUMPDEST CALLVALUE DUP1 ISZERO PUSH2 0x370 JUMPI PUSH0 DUP1 REVERT JUMPDEST POP PUSH2 0x379 PUSH2 0xA84 JUMP JUMPDEST PUSH1 0x40 MLOAD PUSH2 0x386 SWAP2 SWAP1 PUSH2 0x1753 JUMP JUMPDEST PUSH1 0x40 MLOAD DUP1 SWAP2 SUB SWAP1 RETURN JUMPDEST CALLVALUE DUP1 ISZERO PUSH2 0x39A JUMPI PUSH0 DUP1 REVERT JUMPDEST POP PUSH2 0x3A3 PUSH2 0xA8A JUMP JUMPDEST PUSH1 0x40 MLOAD PUSH2 0x3B0 SWAP2 SWAP1 PUSH2 0x1C25 JUMP JUMPDEST PUSH1 0x40 MLOAD DUP1 SWAP2 SUB SWAP1 RETURN JUMPDEST CALLVALUE DUP1 ISZERO PUSH2 0x3C4 JUMPI PUSH0 DUP1 REVERT JUMPDEST POP PUSH2 0x3DF PUSH1 0x4 DUP1 CALLDATASIZE SUB DUP2 ADD SWAP1 PUSH2 0x3DA SWAP2 SWAP1 PUSH2 0x1846 JUMP JUMPDEST PUSH2 0xAC3 JUMP JUMPDEST PUSH1 0x40 MLOAD PUSH2 0x3EC SWAP2 SWAP1 PUSH2 0x1C54 JUMP JUMPDEST PUSH1 0x40 MLOAD DUP1 SWAP2 SUB SWAP1 RETURN JUMPDEST CALLVALUE DUP1 ISZERO PUSH2 0x400 JUMPI PUSH0 DUP1 REVERT JUMPDEST POP PUSH2 0x41B PUSH1 0x4 DUP1 CALLDATASIZE SUB DUP2 ADD SWAP1 PUSH2 0x416 SWAP2 SWAP1 PUSH2 0x176C JUMP JUMPDEST PUSH2 0xB48 JUMP JUMPDEST STOP JUMPDEST CALLVALUE DUP1 ISZERO PUSH2 0x428 JUMPI PUSH0 DUP1 REVERT JUMPDEST POP PUSH2 0x443 PUSH1 0x4 DUP1 CALLDATASIZE SUB DUP2 ADD SWAP1 PUSH2 0x43E SWAP2 SWAP1 PUSH2 0x1C6D JUMP JUMPDEST PUSH2 0xB6A JUMP JUMPDEST STOP JUMPDEST CALLVALUE DUP1 ISZERO PUSH2 0x450 JUMPI PUSH0 DUP1 REVERT JUMPDEST POP PUSH2 0x459 PUSH2 0xBDA JUMP JUMPDEST PUSH1 0x40 MLOAD PUSH2 0x466 SWAP2 SWAP1 PUSH2 0x1753 JUMP JUMPDEST PUSH1 0x40 MLOAD DUP1 SWAP2 SUB SWAP1 RETURN JUMPDEST PUSH0 PUSH32 0x7965DB0B00000000000000000000000000000000000000000000000000000000 PUSH28 0xFFFFFFFFFFFFFFFFFFFFFFFFFFFFFFFFFFFFFFFFFFFFFFFFFFFFFFFF NOT AND DUP3 PUSH28 0xFFFFFFFFFFFFFFFFFFFFFFFFFFFFFFFFFFFFFFFFFFFFFFFFFFFFFFFF NOT AND EQ DUP1 PUSH2 0x4E1 JUMPI POP PUSH2 0x4E0 DUP3 PUSH2 0xBFE JUMP JUMPDEST JUMPDEST SWAP1 POP SWAP2 SWAP1 POP JUMP JUMPDEST PUSH0 DUP1 SHL PUSH2 0x4F4 DUP2 PUSH2 0xC67 JUMP JUMPDEST PUSH0 PUSH20 0x0 PUSH4 0x8DEFB481 SWAP1 SWAP2 DUP6 DUP6 PUSH1 0x40 MLOAD DUP5 PUSH4 0xFFFFFFFF AND PUSH1 0xE0 SHL DUP2 MSTORE PUSH1 0x4 ADD PUSH2 0x531 SWAP4 SWAP3 SWAP2 SWAP1 PUSH2 0x1CE2 JUMP JUMPDEST PUSH0 PUSH1 0x40 MLOAD DUP1 DUP4 SUB DUP2 DUP7 DUP1 EXTCODESIZE ISZERO DUP1 ISZERO PUSH2 0x547 JUMPI PUSH0 DUP1 REVERT JUMPDEST POP GAS DELEGATECALL ISZERO DUP1 ISZERO PUSH2 0x559 JUMPI RETURNDATASIZE PUSH0 DUP1 RETURNDATACOPY RETURNDATASIZE PUSH0 REVERT JUMPDEST POP POP POP POP POP POP POP JUMP JUMPDEST PUSH0 DUP1 PUSH2 0x56C PUSH2 0xC7B JUMP JUMPDEST SWAP1 POP DUP1 PUSH0 ADD PUSH0 DUP5 DUP2 MSTORE PUSH1 0x20 ADD SWAP1 DUP2 MSTORE PUSH1 0x20 ADD PUSH0 KECCAK256 PUSH1 0x1 ADD SLOAD SWAP2 POP POP SWAP2 SWAP1 POP JUMP JUMPDEST PUSH2 0x595 DUP3 PUSH2 0x562 JUMP JUMPDEST PUSH2 0x59E DUP2 PUSH2 0xC67 JUMP JUMPDEST PUSH2 0x5A8 DUP4 DUP4 PUSH2 0xCA2 JUMP JUMPDEST POP POP POP POP JUMP JUMPDEST PUSH2 0x5B6 PUSH2 0xD9A JUMP JUMPDEST PUSH20 0xFFFFFFFFFFFFFFFFFFFFFFFFFFFFFFFFFFFFFFFF AND DUP2 PUSH20 0xFFFFFFFFFFFFFFFFFFFFFFFFFFFFFFFFFFFFFFFF AND EQ PUSH2 0x61A JUMPI PUSH1 0x40 MLOAD PUSH32 0x6697B23200000000000000000000000000000000000000000000000000000000 DUP2 MSTORE PUSH1 0x4 ADD PUSH1 0x40 MLOAD DUP1 SWAP2 SUB SWAP1 REVERT JUMPDEST PUSH2 0x624 DUP3 DUP3 PUSH2 0xDA1 JUMP JUMPDEST POP POP POP JUMP JUMPDEST PUSH0 PUSH20 0x0 PUSH4 0x2422FEB9 SWAP1 SWAP2 DUP4 PUSH1 0x40 MLOAD DUP4 PUSH4 0xFFFFFFFF AND PUSH1 0xE0 SHL DUP2 MSTORE PUSH1 0x4 ADD PUSH2 0x664 SWAP3 SWAP2 SWAP1 PUSH2 0x1D26 JUMP JUMPDEST PUSH0 PUSH1 0x40 MLOAD DUP1 DUP4 SUB DUP2 DUP7 DUP1 EXTCODESIZE ISZERO DUP1 ISZERO PUSH2 0x67A JUMPI PUSH0 DUP1 REVERT JUMPDEST POP GAS DELEGATECALL ISZERO DUP1 ISZERO PUSH2 0x68C JUMPI RETURNDATASIZE PUSH0 DUP1 RETURNDATACOPY RETURNDATASIZE PUSH0 REVERT JUMPDEST POP POP POP POP POP JUMP JUMPDEST PUSH0 PUSH20 0x0 PUSH4 0x96E11FC3 SWAP1 SWAP2 DUP5 DUP5 PUSH1 0x40 MLOAD DUP5 PUSH4 0xFFFFFFFF AND PUSH1 0xE0 SHL DUP2 MSTORE PUSH1 0x4 ADD PUSH2 0x6D0 SWAP4 SWAP3 SWAP2 SWAP1 PUSH2 0x1D4D JUMP JUMPDEST PUSH0 PUSH1 0x40 MLOAD DUP1 DUP4 SUB DUP2 DUP7 DUP1 EXTCODESIZE ISZERO DUP1 ISZERO PUSH2 0x6E6 JUMPI PUSH0 DUP1 REVERT JUMPDEST POP GAS DELEGATECALL ISZERO DUP1 ISZERO PUSH2 0x6F8 JUMPI RETURNDATASIZE PUSH0 DUP1 RETURNDATACOPY RETURNDATASIZE PUSH0 REVERT JUMPDEST POP POP POP POP POP POP JUMP JUMPDEST PUSH0 PUSH2 0x709 PUSH2 0xE99 JUMP JUMPDEST SWAP1 POP PUSH0 DUP2 PUSH0 ADD PUSH1 0x8 SWAP1 SLOAD SWAP1 PUSH2 0x100 EXP SWAP1 DIV PUSH1 0xFF AND ISZERO SWAP1 POP PUSH0 DUP3 PUSH0 ADD PUSH0 SWAP1 SLOAD SWAP1 PUSH2 0x100 EXP SWAP1 DIV PUSH8 0xFFFFFFFFFFFFFFFF AND SWAP1 POP PUSH0 DUP1 DUP3 PUSH8 0xFFFFFFFFFFFFFFFF AND EQ DUP1 ISZERO PUSH2 0x751 JUMPI POP DUP3 JUMPDEST SWAP1 POP PUSH0 PUSH1 0x1 DUP4 PUSH8 0xFFFFFFFFFFFFFFFF AND EQ DUP1 ISZERO PUSH2 0x784 JUMPI POP PUSH0 ADDRESS PUSH20 0xFFFFFFFFFFFFFFFFFFFFFFFFFFFFFFFFFFFFFFFF AND EXTCODESIZE EQ JUMPDEST SWAP1 POP DUP2 ISZERO DUP1 ISZERO PUSH2 0x792 JUMPI POP DUP1 ISZERO JUMPDEST ISZERO PUSH2 0x7C9 JUMPI PUSH1 0x40 MLOAD PUSH32 0xF92EE8A900000000000000000000000000000000000000000000000000000000 DUP2 MSTORE PUSH1 0x4 ADD PUSH1 0x40 MLOAD DUP1 SWAP2 SUB SWAP1 REVERT JUMPDEST PUSH1 0x1 DUP6 PUSH0 ADD PUSH0 PUSH2 0x100 EXP DUP2 SLOAD DUP2 PUSH8 0xFFFFFFFFFFFFFFFF MUL NOT AND SWAP1 DUP4 PUSH8 0xFFFFFFFFFFFFFFFF AND MUL OR SWAP1 SSTORE POP DUP4 ISZERO PUSH2 0x816 JUMPI PUSH1 0x1 DUP6 PUSH0 ADD PUSH1 0x8 PUSH2 0x100 EXP DUP2 SLOAD DUP2 PUSH1 0xFF MUL NOT AND SWAP1 DUP4 ISZERO ISZERO MUL OR SWAP1 SSTORE POP JUMPDEST PUSH2 0x81E PUSH2 0xEC0 JUMP JUMPDEST PUSH2 0x826 PUSH2 0xECA JUMP JUMPDEST PUSH2 0x832 PUSH0 DUP1 SHL DUP9 PUSH2 0xCA2 JUMP JUMPDEST POP PUSH2 0x85D PUSH32 0x189AB7A9244DF0848122154315AF71FE140F3DB0FE014031783B0946B8C9D2E3 DUP8 PUSH2 0xCA2 JUMP JUMPDEST POP DUP4 ISZERO PUSH2 0x8B8 JUMPI PUSH0 DUP6 PUSH0 ADD PUSH1 0x8 PUSH2 0x100 EXP DUP2 SLOAD DUP2 PUSH1 0xFF MUL NOT AND SWAP1 DUP4 ISZERO ISZERO MUL OR SWAP1 SSTORE POP PUSH32 0xC7F505B2F371AE2175EE4913F4499E1F2633A7B5936321EED1CDAEB6115181D2 PUSH1 0x1 PUSH1 0x40 MLOAD PUSH2 0x8AF SWAP2 SWAP1 PUSH2 0x1DD7 JUMP JUMPDEST PUSH1 0x40 MLOAD DUP1 SWAP2 SUB SWAP1 LOG1 JUMPDEST POP POP POP POP POP POP POP JUMP JUMPDEST PUSH2 0x8C9 PUSH2 0xED4 JUMP JUMPDEST PUSH2 0x8D2 DUP3 PUSH2 0xFBA JUMP JUMPDEST PUSH2 0x8DC DUP3 DUP3 PUSH2 0xFE8 JUMP JUMPDEST POP POP JUMP JUMPDEST PUSH0 PUSH2 0x8E9 PUSH2 0x1106 JUMP JUMPDEST PUSH32 0x360894A13BA1A3210667C828492DB98DCA3E2076CC3735A920A3CA505D382BBC PUSH0 SHL SWAP1 POP SWAP1 JUMP JUMPDEST PUSH1 0x60 PUSH0 PUSH20 0x0 PUSH3 0xCEAB90 SWAP1 SWAP2 DUP7 DUP7 DUP7 PUSH1 0x40 MLOAD DUP6 PUSH4 0xFFFFFFFF AND PUSH1 0xE0 SHL DUP2 MSTORE PUSH1 0x4 ADD PUSH2 0x951 SWAP5 SWAP4 SWAP3 SWAP2 SWAP1 PUSH2 0x1EAC JUMP JUMPDEST PUSH0 PUSH1 0x40 MLOAD DUP1 DUP4 SUB DUP2 DUP7 GAS DELEGATECALL ISZERO DUP1 ISZERO PUSH2 0x96B JUMPI RETURNDATASIZE PUSH0 DUP1 RETURNDATACOPY RETURNDATASIZE PUSH0 REVERT JUMPDEST POP POP POP POP PUSH1 0x40 MLOAD RETURNDATASIZE PUSH0 DUP3 RETURNDATACOPY RETURNDATASIZE PUSH1 0x1F NOT PUSH1 0x1F DUP3 ADD AND DUP3 ADD DUP1 PUSH1 0x40 MSTORE POP DUP2 ADD SWAP1 PUSH2 0x993 SWAP2 SWAP1 PUSH2 0x1FBE JUMP JUMPDEST SWAP1 POP SWAP4 SWAP3 POP POP POP JUMP JUMPDEST PUSH0 DUP1 SHL PUSH2 0x9A8 DUP2 PUSH2 0xC67 JUMP JUMPDEST PUSH0 PUSH20 0x0 PUSH4 0x5FC707CE SWAP1 SWAP2 DUP5 PUSH1 0x40 MLOAD DUP4 PUSH4 0xFFFFFFFF AND PUSH1 0xE0 SHL DUP2 MSTORE PUSH1 0x4 ADD PUSH2 0x9E3 SWAP3 SWAP2 SWAP1 PUSH2 0x1D26 JUMP JUMPDEST PUSH0 PUSH1 0x40 MLOAD DUP1 DUP4 SUB DUP2 DUP7 DUP1 EXTCODESIZE ISZERO DUP1 ISZERO PUSH2 0x9F9 JUMPI PUSH0 DUP1 REVERT JUMPDEST POP GAS DELEGATECALL ISZERO DUP1 ISZERO PUSH2 0xA0B JUMPI RETURNDATASIZE PUSH0 DUP1 RETURNDATACOPY RETURNDATASIZE PUSH0 REVERT JUMPDEST POP POP POP POP POP POP JUMP JUMPDEST PUSH0 DUP1 PUSH2 0xA1D PUSH2 0xC7B JUMP JUMPDEST SWAP1 POP DUP1 PUSH0 ADD PUSH0 DUP6 DUP2 MSTORE PUSH1 0x20 ADD SWAP1 DUP2 MSTORE PUSH1 0x20 ADD PUSH0 KECCAK256 PUSH0 ADD PUSH0 DUP5 PUSH20 0xFFFFFFFFFFFFFFFFFFFFFFFFFFFFFFFFFFFFFFFF AND PUSH20 0xFFFFFFFFFFFFFFFFFFFFFFFFFFFFFFFFFFFFFFFF AND DUP2 MSTORE PUSH1 0x20 ADD SWAP1 DUP2 MSTORE PUSH1 0x20 ADD PUSH0 KECCAK256 PUSH0 SWAP1 SLOAD SWAP1 PUSH2 0x100 EXP SWAP1 DIV PUSH1 0xFF AND SWAP2 POP POP SWAP3 SWAP2 POP POP JUMP JUMPDEST PUSH0 DUP1 SHL DUP2 JUMP JUMPDEST PUSH1 0x40 MLOAD DUP1 PUSH1 0x40 ADD PUSH1 0x40 MSTORE DUP1 PUSH1 0x5 DUP2 MSTORE PUSH1 0x20 ADD PUSH32 0x352E302E30000000000000000000000000000000000000000000000000000000 DUP2 MSTORE POP DUP2 JUMP JUMPDEST PUSH0 DUP1 PUSH20 0x0 PUSH4 0x1620E9A6 SWAP1 SWAP2 DUP6 DUP6 PUSH1 0x40 MLOAD DUP5 PUSH4 0xFFFFFFFF AND PUSH1 0xE0 SHL DUP2 MSTORE PUSH1 0x4 ADD PUSH2 0xB01 SWAP4 SWAP3 SWAP2 SWAP1 PUSH2 0x2005 JUMP JUMPDEST PUSH1 0x20 PUSH1 0x40 MLOAD DUP1 DUP4 SUB DUP2 DUP7 GAS DELEGATECALL ISZERO DUP1 ISZERO PUSH2 0xB1C JUMPI RETURNDATASIZE PUSH0 DUP1 RETURNDATACOPY RETURNDATASIZE PUSH0 REVERT JUMPDEST POP POP POP POP PUSH1 0x40 MLOAD RETURNDATASIZE PUSH1 0x1F NOT PUSH1 0x1F DUP3 ADD AND DUP3 ADD DUP1 PUSH1 0x40 MSTORE POP DUP2 ADD SWAP1 PUSH2 0xB40 SWAP2 SWAP1 PUSH2 0x203A JUMP JUMPDEST SWAP1 POP SWAP3 SWAP2 POP POP JUMP JUMPDEST PUSH2 0xB51 DUP3 PUSH2 0x562 JUMP JUMPDEST PUSH2 0xB5A DUP2 PUSH2 0xC67 JUMP JUMPDEST PUSH2 0xB64 DUP4 DUP4 PUSH2 0xDA1 JUMP JUMPDEST POP POP POP POP JUMP JUMPDEST PUSH0 PUSH20 0x0 PUSH4 0x17E466A SWAP1 SWAP2 DUP6 DUP6 DUP6 PUSH1 0x40 MLOAD DUP6 PUSH4 0xFFFFFFFF AND PUSH1 0xE0 SHL DUP2 MSTORE PUSH1 0x4 ADD PUSH2 0xBA9 SWAP5 SWAP4 SWAP3 SWAP2 SWAP1 PUSH2 0x2065 JUMP JUMPDEST PUSH0 PUSH1 0x40 MLOAD DUP1 DUP4 SUB DUP2 DUP7 DUP1 EXTCODESIZE ISZERO DUP1 ISZERO PUSH2 0xBBF JUMPI PUSH0 DUP1 REVERT JUMPDEST POP GAS DELEGATECALL ISZERO DUP1 ISZERO PUSH2 0xBD1 JUMPI RETURNDATASIZE PUSH0 DUP1 RETURNDATACOPY RETURNDATASIZE PUSH0 REVERT JUMPDEST POP POP POP POP POP POP POP JUMP JUMPDEST PUSH32 0x189AB7A9244DF0848122154315AF71FE140F3DB0FE014031783B0946B8C9D2E3 DUP2 JUMP JUMPDEST PUSH0 PUSH32 0x1FFC9A700000000000000000000000000000000000000000000000000000000 PUSH28 0xFFFFFFFFFFFFFFFFFFFFFFFFFFFFFFFFFFFFFFFFFFFFFFFFFFFFFFFF NOT AND DUP3 PUSH28 0xFFFFFFFFFFFFFFFFFFFFFFFFFFFFFFFFFFFFFFFFFFFFFFFFFFFFFFFF NOT AND EQ SWAP1 POP SWAP2 SWAP1 POP JUMP JUMPDEST PUSH2 0xC78 DUP2 PUSH2 0xC73 PUSH2 0xD9A JUMP JUMPDEST PUSH2 0x118D JUMP JUMPDEST POP JUMP JUMPDEST PUSH0 PUSH32 0x2DD7BC7DEC4DCEEDDA775E58DD541E08A116C6C53815C0BD028192F7B626800 SWAP1 POP SWAP1 JUMP JUMPDEST PUSH0 DUP1 PUSH2 0xCAC PUSH2 0xC7B JUMP JUMPDEST SWAP1 POP PUSH2 0xCB8 DUP5 DUP5 PUSH2 0xA13 JUMP JUMPDEST PUSH2 0xD8F JUMPI PUSH1 0x1 DUP2 PUSH0 ADD PUSH0 DUP7 DUP2 MSTORE PUSH1 0x20 ADD SWAP1 DUP2 MSTORE PUSH1 0x20 ADD PUSH0 KECCAK256 PUSH0 ADD PUSH0 DUP6 PUSH20 0xFFFFFFFFFFFFFFFFFFFFFFFFFFFFFFFFFFFFFFFF AND PUSH20 0xFFFFFFFFFFFFFFFFFFFFFFFFFFFFFFFFFFFFFFFF AND DUP2 MSTORE PUSH1 0x20 ADD SWAP1 DUP2 MSTORE PUSH1 0x20 ADD PUSH0 KECCAK256 PUSH0 PUSH2 0x100 EXP DUP2 SLOAD DUP2 PUSH1 0xFF MUL NOT AND SWAP1 DUP4 ISZERO ISZERO MUL OR SWAP1 SSTORE POP PUSH2 0xD2B PUSH2 0xD9A JUMP JUMPDEST PUSH20 0xFFFFFFFFFFFFFFFFFFFFFFFFFFFFFFFFFFFFFFFF AND DUP4 PUSH20 0xFFFFFFFFFFFFFFFFFFFFFFFFFFFFFFFFFFFFFFFF AND DUP6 PUSH32 0x2F8788117E7EFF1D82E926EC794901D17C78024A50270940304540A733656F0D PUSH1 0x40 MLOAD PUSH1 0x40 MLOAD DUP1 SWAP2 SUB SWAP1 LOG4 PUSH1 0x1 SWAP2 POP POP PUSH2 0xD94 JUMP JUMPDEST PUSH0 SWAP2 POP POP JUMPDEST SWAP3 SWAP2 POP POP JUMP JUMPDEST PUSH0 CALLER SWAP1 POP SWAP1 JUMP JUMPDEST PUSH0 DUP1 PUSH2 0xDAB PUSH2 0xC7B JUMP JUMPDEST SWAP1 POP PUSH2 0xDB7 DUP5 DUP5 PUSH2 0xA13 JUMP JUMPDEST ISZERO PUSH2 0xE8E JUMPI PUSH0 DUP2 PUSH0 ADD PUSH0 DUP7 DUP2 MSTORE PUSH1 0x20 ADD SWAP1 DUP2 MSTORE PUSH1 0x20 ADD PUSH0 KECCAK256 PUSH0 ADD PUSH0 DUP6 PUSH20 0xFFFFFFFFFFFFFFFFFFFFFFFFFFFFFFFFFFFFFFFF AND PUSH20 0xFFFFFFFFFFFFFFFFFFFFFFFFFFFFFFFFFFFFFFFF AND DUP2 MSTORE PUSH1 0x20 ADD SWAP1 DUP2 MSTORE PUSH1 0x20 ADD PUSH0 KECCAK256 PUSH0 PUSH2 0x100 EXP DUP2 SLOAD DUP2 PUSH1 0xFF MUL NOT AND SWAP1 DUP4 ISZERO ISZERO MUL OR SWAP1 SSTORE POP PUSH2 0xE2A PUSH2 0xD9A JUMP JUMPDEST PUSH20 0xFFFFFFFFFFFFFFFFFFFFFFFFFFFFFFFFFFFFFFFF AND DUP4 PUSH20 0xFFFFFFFFFFFFFFFFFFFFFFFFFFFFFFFFFFFFFFFF AND DUP6 PUSH32 0xF6391F5C32D9C69D2A47EA670B442974B53935D1EDC7FD64EB21E047A839171B PUSH1 0x40 MLOAD PUSH1 0x40 MLOAD DUP1 SWAP2 SUB SWAP1 LOG4 PUSH1 0x1 SWAP2 POP POP PUSH2 0xE93 JUMP JUMPDEST PUSH0 SWAP2 POP POP JUMPDEST SWAP3 SWAP2 POP POP JUMP JUMPDEST PUSH0 PUSH32 0xF0C57E16840DF040F15088DC2F81FE391C3923BEC73E23A9662EFC9C229C6A00 SWAP1 POP SWAP1 JUMP JUMPDEST PUSH2 0xEC8 PUSH2 0x11DE JUMP JUMPDEST JUMP JUMPDEST PUSH2 0xED2 PUSH2 0x11DE JUMP JUMPDEST JUMP JUMPDEST PUSH32 0x0 PUSH20 0xFFFFFFFFFFFFFFFFFFFFFFFFFFFFFFFFFFFFFFFF AND ADDRESS PUSH20 0xFFFFFFFFFFFFFFFFFFFFFFFFFFFFFFFFFFFFFFFF AND EQ DUP1 PUSH2 0xF81 JUMPI POP PUSH32 0x0 PUSH20 0xFFFFFFFFFFFFFFFFFFFFFFFFFFFFFFFFFFFFFFFF AND PUSH2 0xF68 PUSH2 0x121E JUMP JUMPDEST PUSH20 0xFFFFFFFFFFFFFFFFFFFFFFFFFFFFFFFFFFFFFFFF AND EQ ISZERO JUMPDEST ISZERO PUSH2 0xFB8 JUMPI PUSH1 0x40 MLOAD PUSH32 0xE07C8DBA00000000000000000000000000000000000000000000000000000000 DUP2 MSTORE PUSH1 0x4 ADD PUSH1 0x40 MLOAD DUP1 SWAP2 SUB SWAP1 REVERT JUMPDEST JUMP JUMPDEST PUSH32 0x189AB7A9244DF0848122154315AF71FE140F3DB0FE014031783B0946B8C9D2E3 PUSH2 0xFE4 DUP2 PUSH2 0xC67 JUMP JUMPDEST POP POP JUMP JUMPDEST DUP2 PUSH20 0xFFFFFFFFFFFFFFFFFFFFFFFFFFFFFFFFFFFFFFFF AND PUSH4 0x52D1902D PUSH1 0x40 MLOAD DUP2 PUSH4 0xFFFFFFFF AND PUSH1 0xE0 SHL DUP2 MSTORE PUSH1 0x4 ADD PUSH1 0x20 PUSH1 0x40 MLOAD DUP1 DUP4 SUB DUP2 DUP7 GAS STATICCALL SWAP3 POP POP POP DUP1 ISZERO PUSH2 0x1050 JUMPI POP PUSH1 0x40 MLOAD RETURNDATASIZE PUSH1 0x1F NOT PUSH1 0x1F DUP3 ADD AND DUP3 ADD DUP1 PUSH1 0x40 MSTORE POP DUP2 ADD SWAP1 PUSH2 0x104D SWAP2 SWAP1 PUSH2 0x20BC JUMP JUMPDEST PUSH1 0x1 JUMPDEST PUSH2 0x1091 JUMPI DUP2 PUSH1 0x40 MLOAD PUSH32 0x4C9C8CE300000000000000000000000000000000000000000000000000000000 DUP2 MSTORE PUSH1 0x4 ADD PUSH2 0x1088 SWAP2 SWAP1 PUSH2 0x20F6 JUMP JUMPDEST PUSH1 0x40 MLOAD DUP1 SWAP2 SUB SWAP1 REVERT JUMPDEST PUSH32 0x360894A13BA1A3210667C828492DB98DCA3E2076CC3735A920A3CA505D382BBC PUSH0 SHL DUP2 EQ PUSH2 0x10F7 JUMPI DUP1 PUSH1 0x40 MLOAD PUSH32 0xAA1D49A400000000000000000000000000000000000000000000000000000000 DUP2 MSTORE PUSH1 0x4 ADD PUSH2 0x10EE SWAP2 SWAP1 PUSH2 0x1753 JUMP JUMPDEST PUSH1 0x40 MLOAD DUP1 SWAP2 SUB SWAP1 REVERT JUMPDEST PUSH2 0x1101 DUP4 DUP4 PUSH2 0x1271 JUMP JUMPDEST POP POP POP JUMP JUMPDEST PUSH32 0x0 PUSH20 0xFFFFFFFFFFFFFFFFFFFFFFFFFFFFFFFFFFFFFFFF AND ADDRESS PUSH20 0xFFFFFFFFFFFFFFFFFFFFFFFFFFFFFFFFFFFFFFFF AND EQ PUSH2 0x118B JUMPI PUSH1 0x40 MLOAD PUSH32 0xE07C8DBA00000000000000000000000000000000000000000000000000000000 DUP2 MSTORE PUSH1 0x4 ADD PUSH1 0x40 MLOAD DUP1 SWAP2 SUB SWAP1 REVERT JUMPDEST JUMP JUMPDEST PUSH2 0x1197 DUP3 DUP3 PUSH2 0xA13 JUMP JUMPDEST PUSH2 0x11DA JUMPI DUP1 DUP3 PUSH1 0x40 MLOAD PUSH32 0xE2517D3F00000000000000000000000000000000000000000000000000000000 DUP2 MSTORE PUSH1 0x4 ADD PUSH2 0x11D1 SWAP3 SWAP2 SWAP1 PUSH2 0x210F JUMP JUMPDEST PUSH1 0x40 MLOAD DUP1 SWAP2 SUB SWAP1 REVERT JUMPDEST POP POP JUMP JUMPDEST PUSH2 0x11E6 PUSH2 0x12E3 JUMP JUMPDEST PUSH2 0x121C JUMPI PUSH1 0x40 MLOAD PUSH32 0xD7E6BCF800000000000000000000000000000000000000000000000000000000 DUP2 MSTORE PUSH1 0x4 ADD PUSH1 0x40 MLOAD DUP1 SWAP2 SUB SWAP1 REVERT JUMPDEST JUMP JUMPDEST PUSH0 PUSH2 0x124A PUSH32 0x360894A13BA1A3210667C828492DB98DCA3E2076CC3735A920A3CA505D382BBC PUSH0 SHL PUSH2 0x1301 JUMP JUMPDEST PUSH0 ADD PUSH0 SWAP1 SLOAD SWAP1 PUSH2 0x100 EXP SWAP1 DIV PUSH20 0xFFFFFFFFFFFFFFFFFFFFFFFFFFFFFFFFFFFFFFFF AND SWAP1 POP SWAP1 JUMP JUMPDEST PUSH2 0x127A DUP3 PUSH2 0x130A JUMP JUMPDEST DUP2 PUSH20 0xFFFFFFFFFFFFFFFFFFFFFFFFFFFFFFFFFFFFFFFF AND PUSH32 0xBC7CD75A20EE27FD9ADEBAB32041F755214DBC6BFFA90CC0225B39DA2E5C2D3B PUSH1 0x40 MLOAD PUSH1 0x40 MLOAD DUP1 SWAP2 SUB SWAP1 LOG2 PUSH0 DUP2 MLOAD GT ISZERO PUSH2 0x12D6 JUMPI PUSH2 0x12D0 DUP3 DUP3 PUSH2 0x13D3 JUMP JUMPDEST POP PUSH2 0x12DF JUMP JUMPDEST PUSH2 0x12DE PUSH2 0x1453 JUMP JUMPDEST JUMPDEST POP POP JUMP JUMPDEST PUSH0 PUSH2 0x12EC PUSH2 0xE99 JUMP JUMPDEST PUSH0 ADD PUSH1 0x8 SWAP1 SLOAD SWAP1 PUSH2 0x100 EXP SWAP1 DIV PUSH1 0xFF AND SWAP1 POP SWAP1 JUMP JUMPDEST PUSH0 DUP2 SWAP1 POP SWAP2 SWAP1 POP JUMP JUMPDEST PUSH0 DUP2 PUSH20 0xFFFFFFFFFFFFFFFFFFFFFFFFFFFFFFFFFFFFFFFF AND EXTCODESIZE SUB PUSH2 0x1365 JUMPI DUP1 PUSH1 0x40 MLOAD PUSH32 0x4C9C8CE300000000000000000000000000000000000000000000000000000000 DUP2 MSTORE PUSH1 0x4 ADD PUSH2 0x135C SWAP2 SWAP1 PUSH2 0x20F6 JUMP JUMPDEST PUSH1 0x40 MLOAD DUP1 SWAP2 SUB SWAP1 REVERT JUMPDEST DUP1 PUSH2 0x1391 PUSH32 0x360894A13BA1A3210667C828492DB98DCA3E2076CC3735A920A3CA505D382BBC PUSH0 SHL PUSH2 0x1301 JUMP JUMPDEST PUSH0 ADD PUSH0 PUSH2 0x100 EXP DUP2 SLOAD DUP2 PUSH20 0xFFFFFFFFFFFFFFFFFFFFFFFFFFFFFFFFFFFFFFFF MUL NOT AND SWAP1 DUP4 PUSH20 0xFFFFFFFFFFFFFFFFFFFFFFFFFFFFFFFFFFFFFFFF AND MUL OR SWAP1 SSTORE POP POP JUMP JUMPDEST PUSH1 0x60 PUSH0 DUP1 DUP5 PUSH20 0xFFFFFFFFFFFFFFFFFFFFFFFFFFFFFFFFFFFFFFFF AND DUP5 PUSH1 0x40 MLOAD PUSH2 0x13FC SWAP2 SWAP1 PUSH2 0x217A JUMP JUMPDEST PUSH0 PUSH1 0x40 MLOAD DUP1 DUP4 SUB DUP2 DUP6 GAS DELEGATECALL SWAP2 POP POP RETURNDATASIZE DUP1 PUSH0 DUP2 EQ PUSH2 0x1434 JUMPI PUSH1 0x40 MLOAD SWAP2 POP PUSH1 0x1F NOT PUSH1 0x3F RETURNDATASIZE ADD AND DUP3 ADD PUSH1 0x40 MSTORE RETURNDATASIZE DUP3 MSTORE RETURNDATASIZE PUSH0 PUSH1 0x20 DUP5 ADD RETURNDATACOPY PUSH2 0x1439 JUMP JUMPDEST PUSH1 0x60 SWAP2 POP JUMPDEST POP SWAP2 POP SWAP2 POP PUSH2 0x1449 DUP6 DUP4 DUP4 PUSH2 0x148F JUMP JUMPDEST SWAP3 POP POP POP SWAP3 SWAP2 POP POP JUMP JUMPDEST PUSH0 CALLVALUE GT ISZERO PUSH2 0x148D JUMPI PUSH1 0x40 MLOAD PUSH32 0xB398979F00000000000000000000000000000000000000000000000000000000 DUP2 MSTORE PUSH1 0x4 ADD PUSH1 0x40 MLOAD DUP1 SWAP2 SUB SWAP1 REVERT JUMPDEST JUMP JUMPDEST PUSH1 0x60 DUP3 PUSH2 0x14A4 JUMPI PUSH2 0x149F DUP3 PUSH2 0x151C JUMP JUMPDEST PUSH2 0x1514 JUMP JUMPDEST PUSH0 DUP3 MLOAD EQ DUP1 ISZERO PUSH2 0x14CA JUMPI POP PUSH0 DUP5 PUSH20 0xFFFFFFFFFFFFFFFFFFFFFFFFFFFFFFFFFFFFFFFF AND EXTCODESIZE EQ JUMPDEST ISZERO PUSH2 0x150C JUMPI DUP4 PUSH1 0x40 MLOAD PUSH32 0x9996B31500000000000000000000000000000000000000000000000000000000 DUP2 MSTORE PUSH1 0x4 ADD PUSH2 0x1503 SWAP2 SWAP1 PUSH2 0x20F6 JUMP JUMPDEST PUSH1 0x40 MLOAD DUP1 SWAP2 SUB SWAP1 REVERT JUMPDEST DUP2 SWAP1 POP PUSH2 0x1515 JUMP JUMPDEST JUMPDEST SWAP4 SWAP3 POP POP POP JUMP JUMPDEST PUSH0 DUP2 MLOAD GT ISZERO PUSH2 0x152E JUMPI DUP1 MLOAD DUP1 DUP3 PUSH1 0x20 ADD REVERT JUMPDEST PUSH1 0x40 MLOAD PUSH32 0x1425EA4200000000000000000000000000000000000000000000000000000000 DUP2 MSTORE PUSH1 0x4 ADD PUSH1 0x40 MLOAD DUP1 SWAP2 SUB SWAP1 REVERT JUMPDEST PUSH0 PUSH1 0x40 MLOAD SWAP1 POP SWAP1 JUMP JUMPDEST PUSH0 DUP1 REVERT JUMPDEST PUSH0 DUP1 REVERT JUMPDEST PUSH0 PUSH32 0xFFFFFFFF00000000000000000000000000000000000000000000000000000000 DUP3 AND SWAP1 POP SWAP2 SWAP1 POP JUMP JUMPDEST PUSH2 0x15A5 DUP2 PUSH2 0x1571 JUMP JUMPDEST DUP2 EQ PUSH2 0x15AF JUMPI PUSH0 DUP1 REVERT JUMPDEST POP JUMP JUMPDEST PUSH0 DUP2 CALLDATALOAD SWAP1 POP PUSH2 0x15C0 DUP2 PUSH2 0x159C JUMP JUMPDEST SWAP3 SWAP2 POP POP JUMP JUMPDEST PUSH0 PUSH1 0x20 DUP3 DUP5 SUB SLT ISZERO PUSH2 0x15DB JUMPI PUSH2 0x15DA PUSH2 0x1569 JUMP JUMPDEST JUMPDEST PUSH0 PUSH2 0x15E8 DUP5 DUP3 DUP6 ADD PUSH2 0x15B2 JUMP JUMPDEST SWAP2 POP POP SWAP3 SWAP2 POP POP JUMP JUMPDEST PUSH0 DUP2 ISZERO ISZERO SWAP1 POP SWAP2 SWAP1 POP JUMP JUMPDEST PUSH2 0x1605 DUP2 PUSH2 0x15F1 JUMP JUMPDEST DUP3 MSTORE POP POP JUMP JUMPDEST PUSH0 PUSH1 0x20 DUP3 ADD SWAP1 POP PUSH2 0x161E PUSH0 DUP4 ADD DUP5 PUSH2 0x15FC JUMP JUMPDEST SWAP3 SWAP2 POP POP JUMP JUMPDEST PUSH0 PUSH20 0xFFFFFFFFFFFFFFFFFFFFFFFFFFFFFFFFFFFFFFFF DUP3 AND SWAP1 POP SWAP2 SWAP1 POP JUMP JUMPDEST PUSH0 PUSH2 0x164D DUP3 PUSH2 0x1624 JUMP JUMPDEST SWAP1 POP SWAP2 SWAP1 POP JUMP JUMPDEST PUSH2 0x165D DUP2 PUSH2 0x1643 JUMP JUMPDEST DUP2 EQ PUSH2 0x1667 JUMPI PUSH0 DUP1 REVERT JUMPDEST POP JUMP JUMPDEST PUSH0 DUP2 CALLDATALOAD SWAP1 POP PUSH2 0x1678 DUP2 PUSH2 0x1654 JUMP JUMPDEST SWAP3 SWAP2 POP POP JUMP JUMPDEST PUSH2 0x1687 DUP2 PUSH2 0x15F1 JUMP JUMPDEST DUP2 EQ PUSH2 0x1691 JUMPI PUSH0 DUP1 REVERT JUMPDEST POP JUMP JUMPDEST PUSH0 DUP2 CALLDATALOAD SWAP1 POP PUSH2 0x16A2 DUP2 PUSH2 0x167E JUMP JUMPDEST SWAP3 SWAP2 POP POP JUMP JUMPDEST PUSH0 DUP1 PUSH1 0x40 DUP4 DUP6 SUB SLT ISZERO PUSH2 0x16BE JUMPI PUSH2 0x16BD PUSH2 0x1569 JUMP JUMPDEST JUMPDEST PUSH0 PUSH2 0x16CB DUP6 DUP3 DUP7 ADD PUSH2 0x166A JUMP JUMPDEST SWAP3 POP POP PUSH1 0x20 PUSH2 0x16DC DUP6 DUP3 DUP7 ADD PUSH2 0x1694 JUMP JUMPDEST SWAP2 POP POP SWAP3 POP SWAP3 SWAP1 POP JUMP JUMPDEST PUSH0 DUP2 SWAP1 POP SWAP2 SWAP1 POP JUMP JUMPDEST PUSH2 0x16F8 DUP2 PUSH2 0x16E6 JUMP JUMPDEST DUP2 EQ PUSH2 0x1702 JUMPI PUSH0 DUP1 REVERT JUMPDEST POP JUMP JUMPDEST PUSH0 DUP2 CALLDATALOAD SWAP1 POP PUSH2 0x1713 DUP2 PUSH2 0x16EF JUMP JUMPDEST SWAP3 SWAP2 POP POP JUMP JUMPDEST PUSH0 PUSH1 0x20 DUP3 DUP5 SUB SLT ISZERO PUSH2 0x172E JUMPI PUSH2 0x172D PUSH2 0x1569 JUMP JUMPDEST JUMPDEST PUSH0 PUSH2 0x173B DUP5 DUP3 DUP6 ADD PUSH2 0x1705 JUMP JUMPDEST SWAP2 POP POP SWAP3 SWAP2 POP POP JUMP JUMPDEST PUSH2 0x174D DUP2 PUSH2 0x16E6 JUMP JUMPDEST DUP3 MSTORE POP POP JUMP JUMPDEST PUSH0 PUSH1 0x20 DUP3 ADD SWAP1 POP PUSH2 0x1766 PUSH0 DUP4 ADD DUP5 PUSH2 0x1744 JUMP JUMPDEST SWAP3 SWAP2 POP POP JUMP JUMPDEST PUSH0 DUP1 PUSH1 0x40 DUP4 DUP6 SUB SLT ISZERO PUSH2 0x1782 JUMPI PUSH2 0x1781 PUSH2 0x1569 JUMP JUMPDEST JUMPDEST PUSH0 PUSH2 0x178F DUP6 DUP3 DUP7 ADD PUSH2 0x1705 JUMP JUMPDEST SWAP3 POP POP PUSH1 0x20 PUSH2 0x17A0 DUP6 DUP3 DUP7 ADD PUSH2 0x166A JUMP JUMPDEST SWAP2 POP POP SWAP3 POP SWAP3 SWAP1 POP JUMP JUMPDEST PUSH0 DUP2 SWAP1 POP SWAP2 SWAP1 POP JUMP JUMPDEST PUSH2 0x17BC DUP2 PUSH2 0x17AA JUMP JUMPDEST DUP2 EQ PUSH2 0x17C6 JUMPI PUSH0 DUP1 REVERT JUMPDEST POP JUMP JUMPDEST PUSH0 DUP2 CALLDATALOAD SWAP1 POP PUSH2 0x17D7 DUP2 PUSH2 0x17B3 JUMP JUMPDEST SWAP3 SWAP2 POP POP JUMP JUMPDEST PUSH0 PUSH1 0x20 DUP3 DUP5 SUB SLT ISZERO PUSH2 0x17F2 JUMPI PUSH2 0x17F1 PUSH2 0x1569 JUMP JUMPDEST JUMPDEST PUSH0 PUSH2 0x17FF DUP5 DUP3 DUP6 ADD PUSH2 0x17C9 JUMP JUMPDEST SWAP2 POP POP SWAP3 SWAP2 POP POP JUMP JUMPDEST PUSH0 DUP1 PUSH1 0x40 DUP4 DUP6 SUB SLT ISZERO PUSH2 0x181E JUMPI PUSH2 0x181D PUSH2 0x1569 JUMP JUMPDEST JUMPDEST PUSH0 PUSH2 0x182B DUP6 DUP3 DUP7 ADD PUSH2 0x166A JUMP JUMPDEST SWAP3 POP POP PUSH1 0x20 PUSH2 0x183C DUP6 DUP3 DUP7 ADD PUSH2 0x17C9 JUMP JUMPDEST SWAP2 POP POP SWAP3 POP SWAP3 SWAP1 POP JUMP JUMPDEST PUSH0 DUP1 PUSH1 0x40 DUP4 DUP6 SUB SLT ISZERO PUSH2 0x185C JUMPI PUSH2 0x185B PUSH2 0x1569 JUMP JUMPDEST JUMPDEST PUSH0 PUSH2 0x1869 DUP6 DUP3 DUP7 ADD PUSH2 0x166A JUMP JUMPDEST SWAP3 POP POP PUSH1 0x20 PUSH2 0x187A DUP6 DUP3 DUP7 ADD PUSH2 0x166A JUMP JUMPDEST SWAP2 POP POP SWAP3 POP SWAP3 SWAP1 POP JUMP JUMPDEST PUSH0 DUP1 REVERT JUMPDEST PUSH0 DUP1 REVERT JUMPDEST PUSH0 PUSH1 0x1F NOT PUSH1 0x1F DUP4 ADD AND SWAP1 POP SWAP2 SWAP1 POP JUMP JUMPDEST PUSH32 0x4E487B7100000000000000000000000000000000000000000000000000000000 PUSH0 MSTORE PUSH1 0x41 PUSH1 0x4 MSTORE PUSH1 0x24 PUSH0 REVERT JUMPDEST PUSH2 0x18D2 DUP3 PUSH2 0x188C JUMP JUMPDEST DUP2 ADD DUP2 DUP2 LT PUSH8 0xFFFFFFFFFFFFFFFF DUP3 GT OR ISZERO PUSH2 0x18F1 JUMPI PUSH2 0x18F0 PUSH2 0x189C JUMP JUMPDEST JUMPDEST DUP1 PUSH1 0x40 MSTORE POP POP POP JUMP JUMPDEST PUSH0 PUSH2 0x1903 PUSH2 0x1560 JUMP JUMPDEST SWAP1 POP PUSH2 0x190F DUP3 DUP3 PUSH2 0x18C9 JUMP JUMPDEST SWAP2 SWAP1 POP JUMP JUMPDEST PUSH0 PUSH8 0xFFFFFFFFFFFFFFFF DUP3 GT ISZERO PUSH2 0x192E JUMPI PUSH2 0x192D PUSH2 0x189C JUMP JUMPDEST JUMPDEST PUSH2 0x1937 DUP3 PUSH2 0x188C JUMP JUMPDEST SWAP1 POP PUSH1 0x20 DUP2 ADD SWAP1 POP SWAP2 SWAP1 POP JUMP JUMPDEST DUP3 DUP2 DUP4 CALLDATACOPY PUSH0 DUP4 DUP4 ADD MSTORE POP POP POP JUMP JUMPDEST PUSH0 PUSH2 0x1964 PUSH2 0x195F DUP5 PUSH2 0x1914 JUMP JUMPDEST PUSH2 0x18FA JUMP JUMPDEST SWAP1 POP DUP3 DUP2 MSTORE PUSH1 0x20 DUP2 ADD DUP5 DUP5 DUP5 ADD GT ISZERO PUSH2 0x1980 JUMPI PUSH2 0x197F PUSH2 0x1888 JUMP JUMPDEST JUMPDEST PUSH2 0x198B DUP5 DUP3 DUP6 PUSH2 0x1944 JUMP JUMPDEST POP SWAP4 SWAP3 POP POP POP JUMP JUMPDEST PUSH0 DUP3 PUSH1 0x1F DUP4 ADD SLT PUSH2 0x19A7 JUMPI PUSH2 0x19A6 PUSH2 0x1884 JUMP JUMPDEST JUMPDEST DUP2 CALLDATALOAD PUSH2 0x19B7 DUP5 DUP3 PUSH1 0x20 DUP7 ADD PUSH2 0x1952 JUMP JUMPDEST SWAP2 POP POP SWAP3 SWAP2 POP POP JUMP JUMPDEST PUSH0 DUP1 PUSH1 0x40 DUP4 DUP6 SUB SLT ISZERO PUSH2 0x19D6 JUMPI PUSH2 0x19D5 PUSH2 0x1569 JUMP JUMPDEST JUMPDEST PUSH0 PUSH2 0x19E3 DUP6 DUP3 DUP7 ADD PUSH2 0x166A JUMP JUMPDEST SWAP3 POP POP PUSH1 0x20 DUP4 ADD CALLDATALOAD PUSH8 0xFFFFFFFFFFFFFFFF DUP2 GT ISZERO PUSH2 0x1A04 JUMPI PUSH2 0x1A03 PUSH2 0x156D JUMP JUMPDEST JUMPDEST PUSH2 0x1A10 DUP6 DUP3 DUP7 ADD PUSH2 0x1993 JUMP JUMPDEST SWAP2 POP POP SWAP3 POP SWAP3 SWAP1 POP JUMP JUMPDEST PUSH0 DUP1 REVERT JUMPDEST PUSH0 DUP1 REVERT JUMPDEST PUSH0 DUP1 DUP4 PUSH1 0x1F DUP5 ADD SLT PUSH2 0x1A37 JUMPI PUSH2 0x1A36 PUSH2 0x1884 JUMP JUMPDEST JUMPDEST DUP3 CALLDATALOAD SWAP1 POP PUSH8 0xFFFFFFFFFFFFFFFF DUP2 GT ISZERO PUSH2 0x1A54 JUMPI PUSH2 0x1A53 PUSH2 0x1A1A JUMP JUMPDEST JUMPDEST PUSH1 0x20 DUP4 ADD SWAP2 POP DUP4 PUSH1 0x20 DUP3 MUL DUP4 ADD GT ISZERO PUSH2 0x1A70 JUMPI PUSH2 0x1A6F PUSH2 0x1A1E JUMP JUMPDEST JUMPDEST SWAP3 POP SWAP3 SWAP1 POP JUMP JUMPDEST PUSH0 DUP1 PUSH0 PUSH1 0x40 DUP5 DUP7 SUB SLT ISZERO PUSH2 0x1A8E JUMPI PUSH2 0x1A8D PUSH2 0x1569 JUMP JUMPDEST JUMPDEST PUSH0 PUSH2 0x1A9B DUP7 DUP3 DUP8 ADD PUSH2 0x166A JUMP JUMPDEST SWAP4 POP POP PUSH1 0x20 DUP5 ADD CALLDATALOAD PUSH8 0xFFFFFFFFFFFFFFFF DUP2 GT ISZERO PUSH2 0x1ABC JUMPI PUSH2 0x1ABB PUSH2 0x156D JUMP JUMPDEST JUMPDEST PUSH2 0x1AC8 DUP7 DUP3 DUP8 ADD PUSH2 0x1A22 JUMP JUMPDEST SWAP3 POP SWAP3 POP POP SWAP3 POP SWAP3 POP SWAP3 JUMP JUMPDEST PUSH0 DUP2 MLOAD SWAP1 POP SWAP2 SWAP1 POP JUMP JUMPDEST PUSH0 DUP3 DUP3 MSTORE PUSH1 0x20 DUP3 ADD SWAP1 POP SWAP3 SWAP2 POP POP JUMP JUMPDEST PUSH0 DUP2 SWAP1 POP PUSH1 0x20 DUP3 ADD SWAP1 POP SWAP2 SWAP1 POP JUMP JUMPDEST PUSH2 0x1B06 DUP2 PUSH2 0x17AA JUMP JUMPDEST DUP3 MSTORE POP POP JUMP JUMPDEST PUSH0 PUSH2 0x1B17 DUP4 DUP4 PUSH2 0x1AFD JUMP JUMPDEST PUSH1 0x20 DUP4 ADD SWAP1 POP SWAP3 SWAP2 POP POP JUMP JUMPDEST PUSH0 PUSH1 0x20 DUP3 ADD SWAP1 POP SWAP2 SWAP1 POP JUMP JUMPDEST PUSH0 PUSH2 0x1B39 DUP3 PUSH2 0x1AD4 JUMP JUMPDEST PUSH2 0x1B43 DUP2 DUP6 PUSH2 0x1ADE JUMP JUMPDEST SWAP4 POP PUSH2 0x1B4E DUP4 PUSH2 0x1AEE JUMP JUMPDEST DUP1 PUSH0 JUMPDEST DUP4 DUP2 LT ISZERO PUSH2 0x1B7E JUMPI DUP2 MLOAD PUSH2 0x1B65 DUP9 DUP3 PUSH2 0x1B0C JUMP JUMPDEST SWAP8 POP PUSH2 0x1B70 DUP4 PUSH2 0x1B23 JUMP JUMPDEST SWAP3 POP POP PUSH1 0x1 DUP2 ADD SWAP1 POP PUSH2 0x1B51 JUMP JUMPDEST POP DUP6 SWAP4 POP POP POP POP SWAP3 SWAP2 POP POP JUMP JUMPDEST PUSH0 PUSH1 0x20 DUP3 ADD SWAP1 POP DUP2 DUP2 SUB PUSH0 DUP4 ADD MSTORE PUSH2 0x1BA3 DUP2 DUP5 PUSH2 0x1B2F JUMP JUMPDEST SWAP1 POP SWAP3 SWAP2 POP POP JUMP JUMPDEST PUSH0 DUP2 MLOAD SWAP1 POP SWAP2 SWAP1 POP JUMP JUMPDEST PUSH0 DUP3 DUP3 MSTORE PUSH1 0x20 DUP3 ADD SWAP1 POP SWAP3 SWAP2 POP POP JUMP JUMPDEST PUSH0 JUMPDEST DUP4 DUP2 LT ISZERO PUSH2 0x1BE2 JUMPI DUP1 DUP3 ADD MLOAD DUP2 DUP5 ADD MSTORE PUSH1 0x20 DUP2 ADD SWAP1 POP PUSH2 0x1BC7 JUMP JUMPDEST PUSH0 DUP5 DUP5 ADD MSTORE POP POP POP POP JUMP JUMPDEST PUSH0 PUSH2 0x1BF7 DUP3 PUSH2 0x1BAB JUMP JUMPDEST PUSH2 0x1C01 DUP2 DUP6 PUSH2 0x1BB5 JUMP JUMPDEST SWAP4 POP PUSH2 0x1C11 DUP2 DUP6 PUSH1 0x20 DUP7 ADD PUSH2 0x1BC5 JUMP JUMPDEST PUSH2 0x1C1A DUP2 PUSH2 0x188C JUMP JUMPDEST DUP5 ADD SWAP2 POP POP SWAP3 SWAP2 POP POP JUMP JUMPDEST PUSH0 PUSH1 0x20 DUP3 ADD SWAP1 POP DUP2 DUP2 SUB PUSH0 DUP4 ADD MSTORE PUSH2 0x1C3D DUP2 DUP5 PUSH2 0x1BED JUMP JUMPDEST SWAP1 POP SWAP3 SWAP2 POP POP JUMP JUMPDEST PUSH2 0x1C4E DUP2 PUSH2 0x17AA JUMP JUMPDEST DUP3 MSTORE POP POP JUMP JUMPDEST PUSH0 PUSH1 0x20 DUP3 ADD SWAP1 POP PUSH2 0x1C67 PUSH0 DUP4 ADD DUP5 PUSH2 0x1C45 JUMP JUMPDEST SWAP3 SWAP2 POP POP JUMP JUMPDEST PUSH0 DUP1 PUSH0 PUSH1 0x60 DUP5 DUP7 SUB SLT ISZERO PUSH2 0x1C84 JUMPI PUSH2 0x1C83 PUSH2 0x1569 JUMP JUMPDEST JUMPDEST PUSH0 PUSH2 0x1C91 DUP7 DUP3 DUP8 ADD PUSH2 0x166A JUMP JUMPDEST SWAP4 POP POP PUSH1 0x20 PUSH2 0x1CA2 DUP7 DUP3 DUP8 ADD PUSH2 0x166A JUMP JUMPDEST SWAP3 POP POP PUSH1 0x40 PUSH2 0x1CB3 DUP7 DUP3 DUP8 ADD PUSH2 0x17C9 JUMP JUMPDEST SWAP2 POP POP SWAP3 POP SWAP3 POP SWAP3 JUMP JUMPDEST DUP1 DUP3 MSTORE POP POP JUMP JUMPDEST PUSH2 0x1CCD DUP2 PUSH2 0x1643 JUMP JUMPDEST DUP3 MSTORE POP POP JUMP JUMPDEST PUSH2 0x1CDC DUP2 PUSH2 0x15F1 JUMP JUMPDEST DUP3 MSTORE POP POP JUMP JUMPDEST PUSH0 PUSH1 0x60 DUP3 ADD SWAP1 POP PUSH2 0x1CF5 PUSH0 DUP4 ADD DUP7 PUSH2 0x1CBD JUMP JUMPDEST PUSH2 0x1D02 PUSH1 0x20 DUP4 ADD DUP6 PUSH2 0x1CC4 JUMP JUMPDEST PUSH2 0x1D0F PUSH1 0x40 DUP4 ADD DUP5 PUSH2 0x1CD3 JUMP JUMPDEST SWAP5 SWAP4 POP POP POP POP JUMP JUMPDEST PUSH2 0x1D20 DUP2 PUSH2 0x17AA JUMP JUMPDEST DUP3 MSTORE POP POP JUMP JUMPDEST PUSH0 PUSH1 0x40 DUP3 ADD SWAP1 POP PUSH2 0x1D39 PUSH0 DUP4 ADD DUP6 PUSH2 0x1CBD JUMP JUMPDEST PUSH2 0x1D46 PUSH1 0x20 DUP4 ADD DUP5 PUSH2 0x1D17 JUMP JUMPDEST SWAP4 SWAP3 POP POP POP JUMP JUMPDEST PUSH0 PUSH1 0x60 DUP3 ADD SWAP1 POP PUSH2 0x1D60 PUSH0 DUP4 ADD DUP7 PUSH2 0x1CBD JUMP JUMPDEST PUSH2 0x1D6D PUSH1 0x20 DUP4 ADD DUP6 PUSH2 0x1CC4 JUMP JUMPDEST PUSH2 0x1D7A PUSH1 0x40 DUP4 ADD DUP5 PUSH2 0x1D17 JUMP JUMPDEST SWAP5 SWAP4 POP POP POP POP JUMP JUMPDEST PUSH0 DUP2 SWAP1 POP SWAP2 SWAP1 POP JUMP JUMPDEST PUSH0 PUSH8 0xFFFFFFFFFFFFFFFF DUP3 AND SWAP1 POP SWAP2 SWAP1 POP JUMP JUMPDEST PUSH0 DUP2 SWAP1 POP SWAP2 SWAP1 POP JUMP JUMPDEST PUSH0 PUSH2 0x1DC1 PUSH2 0x1DBC PUSH2 0x1DB7 DUP5 PUSH2 0x1D82 JUMP JUMPDEST PUSH2 0x1D9E JUMP JUMPDEST PUSH2 0x1D8B JUMP JUMPDEST SWAP1 POP SWAP2 SWAP1 POP JUMP JUMPDEST PUSH2 0x1DD1 DUP2 PUSH2 0x1DA7 JUMP JUMPDEST DUP3 MSTORE POP POP JUMP JUMPDEST PUSH0 PUSH1 0x20 DUP3 ADD SWAP1 POP PUSH2 0x1DEA PUSH0 DUP4 ADD DUP5 PUSH2 0x1DC8 JUMP JUMPDEST SWAP3 SWAP2 POP POP JUMP JUMPDEST PUSH0 DUP3 DUP3 MSTORE PUSH1 0x20 DUP3 ADD SWAP1 POP SWAP3 SWAP2 POP POP JUMP JUMPDEST PUSH0 DUP2 SWAP1 POP SWAP2 SWAP1 POP JUMP JUMPDEST PUSH2 0x1E12 DUP2 PUSH2 0x1643 JUMP JUMPDEST DUP3 MSTORE POP POP JUMP JUMPDEST PUSH0 PUSH2 0x1E23 DUP4 DUP4 PUSH2 0x1E09 JUMP JUMPDEST PUSH1 0x20 DUP4 ADD SWAP1 POP SWAP3 SWAP2 POP POP JUMP JUMPDEST PUSH0 PUSH2 0x1E3D PUSH1 0x20 DUP5 ADD DUP5 PUSH2 0x166A JUMP JUMPDEST SWAP1 POP SWAP3 SWAP2 POP POP JUMP JUMPDEST PUSH0 PUSH1 0x20 DUP3 ADD SWAP1 POP SWAP2 SWAP1 POP JUMP JUMPDEST PUSH0 PUSH2 0x1E5C DUP4 DUP6 PUSH2 0x1DF0 JUMP JUMPDEST SWAP4 POP PUSH2 0x1E67 DUP3 PUSH2 0x1E00 JUMP JUMPDEST DUP1 PUSH0 JUMPDEST DUP6 DUP2 LT ISZERO PUSH2 0x1E9F JUMPI PUSH2 0x1E7C DUP3 DUP5 PUSH2 0x1E2F JUMP JUMPDEST PUSH2 0x1E86 DUP9 DUP3 PUSH2 0x1E18 JUMP JUMPDEST SWAP8 POP PUSH2 0x1E91 DUP4 PUSH2 0x1E45 JUMP JUMPDEST SWAP3 POP POP PUSH1 0x1 DUP2 ADD SWAP1 POP PUSH2 0x1E6A JUMP JUMPDEST POP DUP6 SWAP3 POP POP POP SWAP4 SWAP3 POP POP POP JUMP JUMPDEST PUSH0 PUSH1 0x60 DUP3 ADD SWAP1 POP PUSH2 0x1EBF PUSH0 DUP4 ADD DUP8 PUSH2 0x1CBD JUMP JUMPDEST PUSH2 0x1ECC PUSH1 0x20 DUP4 ADD DUP7 PUSH2 0x1CC4 JUMP JUMPDEST DUP2 DUP2 SUB PUSH1 0x40 DUP4 ADD MSTORE PUSH2 0x1EDF DUP2 DUP5 DUP7 PUSH2 0x1E51 JUMP JUMPDEST SWAP1 POP SWAP6 SWAP5 POP POP POP POP POP JUMP JUMPDEST PUSH0 PUSH8 0xFFFFFFFFFFFFFFFF DUP3 GT ISZERO PUSH2 0x1F04 JUMPI PUSH2 0x1F03 PUSH2 0x189C JUMP JUMPDEST JUMPDEST PUSH1 0x20 DUP3 MUL SWAP1 POP PUSH1 0x20 DUP2 ADD SWAP1 POP SWAP2 SWAP1 POP JUMP JUMPDEST PUSH0 DUP2 MLOAD SWAP1 POP PUSH2 0x1F23 DUP2 PUSH2 0x17B3 JUMP JUMPDEST SWAP3 SWAP2 POP POP JUMP JUMPDEST PUSH0 PUSH2 0x1F3B PUSH2 0x1F36 DUP5 PUSH2 0x1EEA JUMP JUMPDEST PUSH2 0x18FA JUMP JUMPDEST SWAP1 POP DUP1 DUP4 DUP3 MSTORE PUSH1 0x20 DUP3 ADD SWAP1 POP PUSH1 0x20 DUP5 MUL DUP4 ADD DUP6 DUP2 GT ISZERO PUSH2 0x1F5E JUMPI PUSH2 0x1F5D PUSH2 0x1A1E JUMP JUMPDEST JUMPDEST DUP4 JUMPDEST DUP2 DUP2 LT ISZERO PUSH2 0x1F87 JUMPI DUP1 PUSH2 0x1F73 DUP9 DUP3 PUSH2 0x1F15 JUMP JUMPDEST DUP5 MSTORE PUSH1 0x20 DUP5 ADD SWAP4 POP POP PUSH1 0x20 DUP2 ADD SWAP1 POP PUSH2 0x1F60 JUMP JUMPDEST POP POP POP SWAP4 SWAP3 POP POP POP JUMP JUMPDEST PUSH0 DUP3 PUSH1 0x1F DUP4 ADD SLT PUSH2 0x1FA5 JUMPI PUSH2 0x1FA4 PUSH2 0x1884 JUMP JUMPDEST JUMPDEST DUP2 MLOAD PUSH2 0x1FB5 DUP5 DUP3 PUSH1 0x20 DUP7 ADD PUSH2 0x1F29 JUMP JUMPDEST SWAP2 POP POP SWAP3 SWAP2 POP POP JUMP JUMPDEST PUSH0 PUSH1 0x20 DUP3 DUP5 SUB SLT ISZERO PUSH2 0x1FD3 JUMPI PUSH2 0x1FD2 PUSH2 0x1569 JUMP JUMPDEST JUMPDEST PUSH0 DUP3 ADD MLOAD PUSH8 0xFFFFFFFFFFFFFFFF DUP2 GT ISZERO PUSH2 0x1FF0 JUMPI PUSH2 0x1FEF PUSH2 0x156D JUMP JUMPDEST JUMPDEST PUSH2 0x1FFC DUP5 DUP3 DUP6 ADD PUSH2 0x1F91 JUMP JUMPDEST SWAP2 POP POP SWAP3 SWAP2 POP POP JUMP JUMPDEST PUSH0 PUSH1 0x60 DUP3 ADD SWAP1 POP PUSH2 0x2018 PUSH0 DUP4 ADD DUP7 PUSH2 0x1CBD JUMP JUMPDEST PUSH2 0x2025 PUSH1 0x20 DUP4 ADD DUP6 PUSH2 0x1CC4 JUMP JUMPDEST PUSH2 0x2032 PUSH1 0x40 DUP4 ADD DUP5 PUSH2 0x1CC4 JUMP JUMPDEST SWAP5 SWAP4 POP POP POP POP JUMP JUMPDEST PUSH0 PUSH1 0x20 DUP3 DUP5 SUB SLT ISZERO PUSH2 0x204F JUMPI PUSH2 0x204E PUSH2 0x1569 JUMP JUMPDEST JUMPDEST PUSH0 PUSH2 0x205C DUP5 DUP3 DUP6 ADD PUSH2 0x1F15 JUMP JUMPDEST SWAP2 POP POP SWAP3 SWAP2 POP POP JUMP JUMPDEST PUSH0 PUSH1 0x80 DUP3 ADD SWAP1 POP PUSH2 0x2078 PUSH0 DUP4 ADD DUP8 PUSH2 0x1CBD JUMP JUMPDEST PUSH2 0x2085 PUSH1 0x20 DUP4 ADD DUP7 PUSH2 0x1CC4 JUMP JUMPDEST PUSH2 0x2092 PUSH1 0x40 DUP4 ADD DUP6 PUSH2 0x1CC4 JUMP JUMPDEST PUSH2 0x209F PUSH1 0x60 DUP4 ADD DUP5 PUSH2 0x1D17 JUMP JUMPDEST SWAP6 SWAP5 POP POP POP POP POP JUMP JUMPDEST PUSH0 DUP2 MLOAD SWAP1 POP PUSH2 0x20B6 DUP2 PUSH2 0x16EF JUMP JUMPDEST SWAP3 SWAP2 POP POP JUMP JUMPDEST PUSH0 PUSH1 0x20 DUP3 DUP5 SUB SLT ISZERO PUSH2 0x20D1 JUMPI PUSH2 0x20D0 PUSH2 0x1569 JUMP JUMPDEST JUMPDEST PUSH0 PUSH2 0x20DE DUP5 DUP3 DUP6 ADD PUSH2 0x20A8 JUMP JUMPDEST SWAP2 POP POP SWAP3 SWAP2 POP POP JUMP JUMPDEST PUSH2 0x20F0 DUP2 PUSH2 0x1643 JUMP JUMPDEST DUP3 MSTORE POP POP JUMP JUMPDEST PUSH0 PUSH1 0x20 DUP3 ADD SWAP1 POP PUSH2 0x2109 PUSH0 DUP4 ADD DUP5 PUSH2 0x20E7 JUMP JUMPDEST SWAP3 SWAP2 POP POP JUMP JUMPDEST PUSH0 PUSH1 0x40 DUP3 ADD SWAP1 POP PUSH2 0x2122 PUSH0 DUP4 ADD DUP6 PUSH2 0x20E7 JUMP JUMPDEST PUSH2 0x212F PUSH1 0x20 DUP4 ADD DUP5 PUSH2 0x1744 JUMP JUMPDEST SWAP4 SWAP3 POP POP POP JUMP JUMPDEST PUSH0 DUP2 MLOAD SWAP1 POP SWAP2 SWAP1 POP JUMP JUMPDEST PUSH0 DUP2 SWAP1 POP SWAP3 SWAP2 POP POP JUMP JUMPDEST PUSH0 PUSH2 0x2154 DUP3 PUSH2 0x2136 JUMP JUMPDEST PUSH2 0x215E DUP2 DUP6 PUSH2 0x2140 JUMP JUMPDEST SWAP4 POP PUSH2 0x216E DUP2 DUP6 PUSH1 0x20 DUP7 ADD PUSH2 0x1BC5 JUMP JUMPDEST DUP1 DUP5 ADD SWAP2 POP POP SWAP3 SWAP2 POP POP JUMP JUMPDEST PUSH0 PUSH2 0x2185 DUP3 DUP5 PUSH2 0x214A JUMP JUMPDEST SWAP2 POP DUP2 SWAP1 POP SWAP3 SWAP2 POP POP JUMP INVALID LOG2 PUSH5 0x6970667358 0x22 SLT KECCAK256 PUSH13 0xD4C522610AB3D107C7AAC376BE 0xCD SIGNEXTEND BYTE PUSH25 0x1C8439D23D44725806D77E440A4964736F6C63430008180033 "
				},
				"gasEstimates": {
					"creation": {
						"codeDepositCost": "1729200",
						"executionCost": "infinite",
						"totalCost": "infinite"
					},
					"external": {
						"DEFAULT_ADMIN_ROLE()": "441",
						"UPGRADER_ROLE()": "435",
						"UPGRADE_INTERFACE_VERSION()": "infinite",
						"deposit(address,uint256)": "infinite",
						"getBalance(address,address)": "infinite",
						"getBalances(address,address[])": "infinite",
						"getRoleAdmin(bytes32)": "infinite",
						"grantRole(bytes32,address)": "infinite",
						"hasRole(bytes32,address)": "3263",
						"initVault(uint256)": "infinite",
						"initialize(address,address)": "infinite",
						"proxiableUUID()": "infinite",
						"renounceRole(bytes32,address)": "infinite",
						"revokeRole(bytes32,address)": "infinite",
						"setMultisig(address,bool)": "infinite",
						"setMultisigThreshold(uint256)": "infinite",
						"supportsInterface(bytes4)": "741",
						"upgradeToAndCall(address,bytes)": "infinite",
						"withdraw(address,address,uint256)": "infinite"
					},
					"internal": {
						"_authorizeUpgrade(address)": "infinite"
					}
				},
				"methodIdentifiers": {
					"DEFAULT_ADMIN_ROLE()": "a217fddf",
					"UPGRADER_ROLE()": "f72c0d8b",
					"UPGRADE_INTERFACE_VERSION()": "ad3cb1cc",
					"deposit(address,uint256)": "47e7ef24",
					"getBalance(address,address)": "d4fac45d",
					"getBalances(address,address[])": "6a385ae9",
					"getRoleAdmin(bytes32)": "248a9ca3",
					"grantRole(bytes32,address)": "2f2ff15d",
					"hasRole(bytes32,address)": "91d14854",
					"initVault(uint256)": "88b9a469",
					"initialize(address,address)": "485cc955",
					"proxiableUUID()": "52d1902d",
					"renounceRole(bytes32,address)": "36568abe",
					"revokeRole(bytes32,address)": "d547741f",
					"setMultisig(address,bool)": "14bc6ea3",
					"setMultisigThreshold(uint256)": "3f449529",
					"supportsInterface(bytes4)": "01ffc9a7",
					"upgradeToAndCall(address,bytes)": "4f1ef286",
					"withdraw(address,address,uint256)": "d9caed12"
				}
			},
			"storageLayout": {
				"storage": [
					{
						"astId": 1767,
						"contract": "contracts/StablecoinVault.sol:StablecoinVault",
						"label": "vaultData",
						"offset": 0,
						"slot": "0",
						"type": "t_struct(VaultData)1933_storage"
					}
				],
				"types": {
					"t_address": {
						"encoding": "inplace",
						"label": "address",
						"numberOfBytes": "20"
					},
					"t_bool": {
						"encoding": "inplace",
						"label": "bool",
						"numberOfBytes": "1"
					},
					"t_mapping(t_address,t_bool)": {
						"encoding": "mapping",
						"key": "t_address",
						"label": "mapping(address => bool)",
						"numberOfBytes": "32",
						"value": "t_bool"
					},
					"t_mapping(t_address,t_mapping(t_address,t_uint256))": {
						"encoding": "mapping",
						"key": "t_address",
						"label": "mapping(address => mapping(address => uint256))",
						"numberOfBytes": "32",
						"value": "t_mapping(t_address,t_uint256)"
					},
					"t_mapping(t_address,t_uint256)": {
						"encoding": "mapping",
						"key": "t_address",
						"label": "mapping(address => uint256)",
						"numberOfBytes": "32",
						"value": "t_uint256"
					},
					"t_struct(VaultData)1933_storage": {
						"encoding": "inplace",
						"label": "struct StablecoinVaultLib.VaultData",
						"members": [
							{
								"astId": 1926,
								"contract": "contracts/StablecoinVault.sol:StablecoinVault",
								"label": "balances",
								"offset": 0,
								"slot": "0",
								"type": "t_mapping(t_address,t_mapping(t_address,t_uint256))"
							},
							{
								"astId": 1930,
								"contract": "contracts/StablecoinVault.sol:StablecoinVault",
								"label": "multisig",
								"offset": 0,
								"slot": "1",
								"type": "t_mapping(t_address,t_bool)"
							},
							{
								"astId": 1932,
								"contract": "contracts/StablecoinVault.sol:StablecoinVault",
								"label": "multisigThreshold",
								"offset": 0,
								"slot": "2",
								"type": "t_uint256"
							}
						],
						"numberOfBytes": "96"
					},
					"t_uint256": {
						"encoding": "inplace",
						"label": "uint256",
						"numberOfBytes": "32"
					}
				}
			},
			"userdoc": {
				"kind": "user",
				"methods": {},
				"version": 1
			}
		}
	}
}