{
	"data": {
		"bytecode": {
			"linkReferences": {},
			"object": "608060405234801562000010575f80fd5b506040516200558038038062005580833981810160405281019062000036919062000a15565b6040518060400160405280600f81526020017f556e6976657273616c20546f6b656e00000000000000000000000000000000008152506040518060400160405280600481526020017f554e495400000000000000000000000000000000000000000000000000000000815250335f80848484848484848484815f73ffffffffffffffffffffffffffffffffffffffff168173ffffffffffffffffffffffffffffffffffffffff160362000115576040517f1ad8836c00000000000000000000000000000000000000000000000000000000815260040160405180910390fd5b62000126816200036960201b60201c565b50620001907feafec4d89fa9619884b60000a4d96624a38f7ac2d8d9a604ecf07c12c77e480c5f1b6040518060400160405280600481526020017fa4d96624000000000000000000000000000000000000000000000000000000008152506200046860201b60201c565b620001c47fdeba1e292f8ba88238e10ab3c7f88bd4be4fac56cad5194b6ecceaf653468af15f1b856200046860201b60201c565b620001f87f2f0a68ab07768e01943a599e73362a0e17a63a72e94dd2e384d2c1d4db9327565f1b846200046860201b60201c565b6200024d7fe0261fa95db2eb3b5439bd033cda66d56b96f92f243a8228fd87550ed7bdfdb35f1b8260405160200162000232919062000a5f565b6040516020818303038152906040526200046860201b60201c565b505050508060025f6101000a81548160ff02191690831515021790555050505050505050505050620002eb3362000289620004c760201b60201c565b600a62000297919062000c03565b6207a120620002a7919062000c53565b60016040518060400160405280600281526020017f3078000000000000000000000000000000000000000000000000000000000000815250620004eb60201b60201c565b620003628162000300620004c760201b60201c565b600a6200030e919062000c03565b6207a1206200031e919062000c53565b60016040518060400160405280600281526020017f3078000000000000000000000000000000000000000000000000000000000000815250620004eb60201b60201c565b50620013ad565b620003796200051560201b60201c565b73ffffffffffffffffffffffffffffffffffffffff168173ffffffffffffffffffffffffffffffffffffffff161462000465578073ffffffffffffffffffffffffffffffffffffffff165f8054906101000a900473ffffffffffffffffffffffffffffffffffffffff1673ffffffffffffffffffffffffffffffffffffffff167f8be0079c531659141344cd1fd0a4f28419497f9722a3daafe3b4186f6b6457e060405160405180910390a3805f806101000a81548173ffffffffffffffffffffffffffffffffffffffff021916908373ffffffffffffffffffffffffffffffffffffffff1602179055505b50565b8060015f8481526020019081526020015f20908162000488919062000ef8565b50817fece574603820d07bc9b91f2a932baadf4628aabcb8afba49776529c14a6104b282604051620004bb919062001066565b60405180910390a25050565b5f60025f9054906101000a900460ff16620004e4576012620004e6565b5f5b905090565b620004fb6200053c60201b60201c565b6200050f84848484620005c060201b60201c565b50505050565b5f805f9054906101000a900473ffffffffffffffffffffffffffffffffffffffff16905090565b3373ffffffffffffffffffffffffffffffffffffffff16620005636200051560201b60201c565b73ffffffffffffffffffffffffffffffffffffffff1614620005be57336040517fbf1169c5000000000000000000000000000000000000000000000000000000008152600401620005b5919062001099565b60405180910390fd5b565b5f73ffffffffffffffffffffffffffffffffffffffff168473ffffffffffffffffffffffffffffffffffffffff160362000626576040517fd2d5ec3000000000000000000000000000000000000000000000000000000000815260040160405180910390fd5b6200063a5f8585846200078660201b60201c565b8260035f8282546200064d9190620010b4565b925050819055508260045f8673ffffffffffffffffffffffffffffffffffffffff1673ffffffffffffffffffffffffffffffffffffffff1681526020019081526020015f205f828254620006a29190620010b4565b925050819055508373ffffffffffffffffffffffffffffffffffffffff165f73ffffffffffffffffffffffffffffffffffffffff163373ffffffffffffffffffffffffffffffffffffffff167f3997e418d2cef0b3b0e907b1e39605c3f7d32dbd061e82ea5b4a770d46a160a686868660405162000723939291906200110a565b60405180910390a46200073f5f8585846200078c60201b60201c565b5f335f8686856040516020016200075b9594939291906200114c565b60405160208183030381529060405290506200077f8584836200079260201b60201c565b5050505050565b50505050565b50505050565b620007ab83636bb56a1460e01b6200090660201b60201c565b156200085d578273ffffffffffffffffffffffffffffffffffffffff16636bb56a147f20804611b3e2ea21c480dc465142210acf4a2485947541770ec1fb87dee4a55c5f1b836040518363ffffffff1660e01b815260040162000810929190620011c8565b5f604051808303815f875af11580156200082c573d5f803e3d5ffd5b505050506040513d5f823e3d601f19601f8201168201806040525081019062000856919062001307565b5062000901565b8162000900575f8373ffffffffffffffffffffffffffffffffffffffff163b14620008c157826040517fa608fbb6000000000000000000000000000000000000000000000000000000008152600401620008b8919062001099565b60405180910390fd5b826040517f26c247f4000000000000000000000000000000000000000000000000000000008152600401620008f7919062001099565b60405180910390fd5b5b505050565b5f80826040516024016200091b919062001392565b6040516020818303038152906040526301ffc9a760e01b6020820180517bffffffffffffffffffffffffffffffffffffffffffffffffffffffff838183161783525050505090505f805f60205f8551602087018a617530fa92503d91505f5190508280156200098b575060208210155b80156200099757505f81115b94505050505092915050565b5f604051905090565b5f80fd5b5f80fd5b5f73ffffffffffffffffffffffffffffffffffffffff82169050919050565b5f620009df82620009b4565b9050919050565b620009f181620009d3565b8114620009fc575f80fd5b50565b5f8151905062000a0f81620009e6565b92915050565b5f6020828403121562000a2d5762000a2c620009ac565b5b5f62000a3c84828501620009ff565b91505092915050565b5f819050919050565b62000a598162000a45565b82525050565b5f60208201905062000a745f83018462000a4e565b92915050565b7f4e487b71000000000000000000000000000000000000000000000000000000005f52601160045260245ffd5b5f8160011c9050919050565b5f808291508390505b600185111562000b045780860481111562000adc5762000adb62000a7a565b5b600185161562000aec5780820291505b808102905062000afc8562000aa7565b945062000abc565b94509492505050565b5f8262000b1e576001905062000bf0565b8162000b2d575f905062000bf0565b816001811462000b46576002811462000b515762000b87565b600191505062000bf0565b60ff84111562000b665762000b6562000a7a565b5b8360020a91508482111562000b805762000b7f62000a7a565b5b5062000bf0565b5060208310610133831016604e8410600b841016171562000bc15782820a90508381111562000bbb5762000bba62000a7a565b5b62000bf0565b62000bd0848484600162000ab3565b9250905081840481111562000bea5762000be962000a7a565b5b81810290505b9392505050565b5f60ff82169050919050565b5f62000c0f8262000a45565b915062000c1c8362000bf7565b925062000c4b7fffffffffffffffffffffffffffffffffffffffffffffffffffffffffffffffff848462000b0d565b905092915050565b5f62000c5f8262000a45565b915062000c6c8362000a45565b925082820262000c7c8162000a45565b9150828204841483151762000c965762000c9562000a7a565b5b5092915050565b5f81519050919050565b7f4e487b71000000000000000000000000000000000000000000000000000000005f52604160045260245ffd5b7f4e487b71000000000000000000000000000000000000000000000000000000005f52602260045260245ffd5b5f600282049050600182168062000d1957607f821691505b60208210810362000d2f5762000d2e62000cd4565b5b50919050565b5f819050815f5260205f209050919050565b5f6020601f8301049050919050565b5f82821b905092915050565b5f6008830262000d937fffffffffffffffffffffffffffffffffffffffffffffffffffffffffffffffff8262000d56565b62000d9f868362000d56565b95508019841693508086168417925050509392505050565b5f819050919050565b5f62000de062000dda62000dd48462000a45565b62000db7565b62000a45565b9050919050565b5f819050919050565b62000dfb8362000dc0565b62000e1362000e0a8262000de7565b84845462000d62565b825550505050565b5f90565b62000e2962000e1b565b62000e3681848462000df0565b505050565b5b8181101562000e5d5762000e515f8262000e1f565b60018101905062000e3c565b5050565b601f82111562000eac5762000e768162000d35565b62000e818462000d47565b8101602085101562000e91578190505b62000ea962000ea08562000d47565b83018262000e3b565b50505b505050565b5f82821c905092915050565b5f62000ece5f198460080262000eb1565b1980831691505092915050565b5f62000ee8838362000ebd565b9150826002028217905092915050565b62000f038262000c9d565b67ffffffffffffffff81111562000f1f5762000f1e62000ca7565b5b62000f2b825462000d01565b62000f3882828562000e61565b5f60209050601f83116001811462000f6e575f841562000f59578287015190505b62000f65858262000edb565b86555062000fd4565b601f19841662000f7e8662000d35565b5f5b8281101562000fa75784890151825560018201915060208501945060208101905062000f80565b8683101562000fc7578489015162000fc3601f89168262000ebd565b8355505b6001600288020188555050505b505050505050565b5f82825260208201905092915050565b5f5b838110156200100b57808201518184015260208101905062000fee565b5f8484015250505050565b5f601f19601f8301169050919050565b5f620010328262000c9d565b6200103e818562000fdc565b93506200105081856020860162000fec565b6200105b8162001016565b840191505092915050565b5f6020820190508181035f83015262001080818462001026565b905092915050565b6200109381620009d3565b82525050565b5f602082019050620010ae5f83018462001088565b92915050565b5f620010c08262000a45565b9150620010cd8362000a45565b9250828201905080821115620010e857620010e762000a7a565b5b92915050565b5f8115159050919050565b6200110481620010ee565b82525050565b5f6060820190506200111f5f83018662000a4e565b6200112e6020830185620010f9565b818103604083015262001142818462001026565b9050949350505050565b5f60a082019050620011615f83018862001088565b62001170602083018762001088565b6200117f604083018662001088565b6200118e606083018562000a4e565b8181036080830152620011a2818462001026565b90509695505050505050565b5f819050919050565b620011c281620011ae565b82525050565b5f604082019050620011dd5f830185620011b7565b8181036020830152620011f1818462001026565b90509392505050565b5f80fd5b5f80fd5b6200120d8262001016565b810181811067ffffffffffffffff821117156200122f576200122e62000ca7565b5b80604052505050565b5f62001243620009a3565b905062001251828262001202565b919050565b5f67ffffffffffffffff82111562001273576200127262000ca7565b5b6200127e8262001016565b9050602081019050919050565b5f620012a16200129b8462001256565b62001238565b905082815260208101848484011115620012c057620012bf620011fe565b5b620012cd84828562000fec565b509392505050565b5f82601f830112620012ec57620012eb620011fa565b5b8151620012fe8482602086016200128b565b91505092915050565b5f602082840312156200131f576200131e620009ac565b5b5f82015167ffffffffffffffff8111156200133f576200133e620009b0565b5b6200134d84828501620012d5565b91505092915050565b5f7fffffffff0000000000000000000000000000000000000000000000000000000082169050919050565b6200138c8162001356565b82525050565b5f602082019050620013a75f83018462001381565b92915050565b6141c580620013bb5f395ff3fe608060405260043610610138575f3560e01c8063715018a6116100aa5780638da5cb5b1161006e5780638da5cb5b146104e1578063979024211461050b578063b49506fd14610527578063d72fc29a1461054f578063dedff9c61461058b578063f2fde38b146105c7576101b1565b8063715018a6146104375780637580d9201461044d578063760d9bba146104755780637b204c4e1461049d5780637f23690c146104c5576101b1565b806344d17187116100fc57806344d17187146102f75780634521748e1461031f57806354f6127f1461034757806365aeaa95146103835780636963d438146103bf57806370a08231146103fb576101b1565b806301ffc9a71461021757806318160ddd146102535780632bc1da821461027d5780632d7667c9146102a5578063313ce567146102cd576101b1565b366101b1575f340361017f576040517fe5099ee3000000000000000000000000000000000000000000000000000000008152600401610176906127cc565b60405180910390fd5b6040517f388f5adc00000000000000000000000000000000000000000000000000000000815260040160405180910390fd5b5f36606060045f36905010156102005782826040517fe5099ee30000000000000000000000000000000000000000000000000000000081526004016101f7929190612834565b60405180910390fd5b61020a83836105ef565b9050915050805190602001f35b348015610222575f80fd5b5061023d600480360381019061023891906128bc565b610765565b60405161024a9190612901565b60405180910390f35b34801561025e575f80fd5b506102676107d5565b6040516102749190612932565b60405180910390f35b348015610288575f80fd5b506102a3600480360381019061029e9190612aed565b6107de565b005b3480156102b0575f80fd5b506102cb60048036038101906102c69190612ea5565b610885565b005b3480156102d8575f80fd5b506102e1610997565b6040516102ee9190612fc3565b60405180910390f35b348015610302575f80fd5b5061031d60048036038101906103189190612aed565b6109b9565b005b34801561032a575f80fd5b5061034560048036038101906103409190612fdc565b610a08565b005b348015610352575f80fd5b5061036d6004803603810190610368919061307b565b610a53565b60405161037a9190613110565b60405180910390f35b34801561038e575f80fd5b506103a960048036038101906103a49190613130565b610a65565b6040516103b69190612932565b60405180910390f35b3480156103ca575f80fd5b506103e560048036038101906103e091906131c7565b610b60565b6040516103f29190613315565b60405180910390f35b348015610406575f80fd5b50610421600480360381019061041c9190613335565b610cd6565b60405161042e9190612932565b60405180910390f35b348015610442575f80fd5b5061044b610d1c565b005b348015610458575f80fd5b50610473600480360381019061046e9190613360565b610d2f565b005b348015610480575f80fd5b5061049b600480360381019061049691906133e0565b610d49565b005b3480156104a8575f80fd5b506104c360048036038101906104be9190612aed565b610e01565b005b6104df60048036038101906104da9190613473565b610e95565b005b3480156104ec575f80fd5b506104f5610ee4565b60405161050291906134dc565b60405180910390f35b610525600480360381019061052091906135b5565b610f0b565b005b348015610532575f80fd5b5061054d60048036038101906105489190612aed565b61101a565b005b34801561055a575f80fd5b5061057560048036038101906105709190613335565b61105f565b60405161058291906136e2565b60405180910390f35b348015610596575f80fd5b506105b160048036038101906105ac9190613702565b6110ad565b6040516105be9190613315565b60405180910390f35b3480156105d2575f80fd5b506105ed60048036038101906105e89190613335565b61115d565b005b60605f61061e5f357fffffffff00000000000000000000000000000000000000000000000000000000166111d6565b5090505f73ffffffffffffffffffffffffffffffffffffffff168173ffffffffffffffffffffffffffffffffffffffff16036106b4575f357fffffffff00000000000000000000000000000000000000000000000000000000166040517fbb370b2b0000000000000000000000000000000000000000000000000000000081526004016106ab9190613758565b60405180910390fd5b5f808273ffffffffffffffffffffffffffffffffffffffff1634878733346040516020016106e59493929190613804565b604051602081830303815290604052604051610701919061386e565b5f6040518083038185875af1925050503d805f811461073b576040519150601f19603f3d011682016040523d82523d5f602084013e610740565b606091505b509150915081156107565780935050505061075f565b80518060208301fd5b92915050565b5f63b3c4928f60e01b7bffffffffffffffffffffffffffffffffffffffffffffffffffffffff1916827bffffffffffffffffffffffffffffffffffffffffffffffffffffffff191614806107be57506107bd8261128c565b5b806107ce57506107cd826112ec565b5b9050919050565b5f600354905090565b5f6107e98433610a65565b90505f810361082f57836040517fcba6e97700000000000000000000000000000000000000000000000000000000815260040161082691906134dc565b60405180910390fd5b5f838261083c91906138b1565b905061084c338683600187611350565b5f338285604051602001610862939291906138e4565b604051602081830303815290604052905061087d8682611619565b505050505050565b5f8551905084518114158061089b575083518114155b806108a7575082518114155b806108b3575081518114155b156108ea576040517f263eee8d00000000000000000000000000000000000000000000000000000000815260040160405180910390fd5b5f5b8181101561098e5761098387828151811061090a57610909613920565b5b602002602001015187838151811061092557610924613920565b5b60200260200101518784815181106109405761093f613920565b5b602002602001015187858151811061095b5761095a613920565b5b602002602001015187868151811061097657610975613920565b5b6020026020010151610d49565b8060010190506108ec565b50505050505050565b5f60025f9054906101000a900460ff166109b25760126109b4565b5f5b905090565b8273ffffffffffffffffffffffffffffffffffffffff163373ffffffffffffffffffffffffffffffffffffffff16146109f8576109f733848461164a565b5b610a0383838361173d565b505050565b610a1533845f8585611350565b8115610a4e575f335f83604051602001610a319392919061398f565b6040516020818303038152906040529050610a4c8482611619565b505b505050565b6060610a5e8261196b565b9050919050565b5f8273ffffffffffffffffffffffffffffffffffffffff168273ffffffffffffffffffffffffffffffffffffffff1603610ade5760045f8373ffffffffffffffffffffffffffffffffffffffff1673ffffffffffffffffffffffffffffffffffffffff1681526020019081526020015f20549050610b5a565b60065f8373ffffffffffffffffffffffffffffffffffffffff1673ffffffffffffffffffffffffffffffffffffffff1681526020019081526020015f205f8473ffffffffffffffffffffffffffffffffffffffff1673ffffffffffffffffffffffffffffffffffffffff1681526020019081526020015f205490505b92915050565b60608282905067ffffffffffffffff811115610b7f57610b7e6129d7565b5b604051908082528060200260200182016040528015610bb257816020015b6060815260200190600190039081610b9d5790505b5090505f5b83839050811015610ccf575f803073ffffffffffffffffffffffffffffffffffffffff16868685818110610bee57610bed613920565b5b9050602002810190610c0091906139d7565b604051610c0e929190613a39565b5f60405180830381855af49150503d805f8114610c46576040519150601f19603f3d011682016040523d82523d5f602084013e610c4b565b606091505b509150915081610ca3575f815114610c665780518082602001fd5b826040517fb774c284000000000000000000000000000000000000000000000000000000008152600401610c9a9190612932565b60405180910390fd5b80848481518110610cb757610cb6613920565b5b60200260200101819052508260010192505050610bb7565b5092915050565b5f60045f8373ffffffffffffffffffffffffffffffffffffffff1673ffffffffffffffffffffffffffffffffffffffff1681526020019081526020015f20549050919050565b610d24611a0c565b610d2d5f611a85565b565b610d37611a0c565b610d4384848484611b7b565b50505050565b8373ffffffffffffffffffffffffffffffffffffffff168573ffffffffffffffffffffffffffffffffffffffff1603610dae576040517fb9afb00000000000000000000000000000000000000000000000000000000000815260040160405180910390fd5b8473ffffffffffffffffffffffffffffffffffffffff163373ffffffffffffffffffffffffffffffffffffffff1614610ded57610dec33868561164a565b5b610dfa8585858585611d20565b5050505050565b5f610e0c8433610a65565b905082811015610e48576040517f0ef76c3500000000000000000000000000000000000000000000000000000000815260040160405180910390fd5b5f8382039050610e5c338683600187611350565b5f338285604051602001610e72939291906138e4565b6040516020818303038152906040529050610e8d8682611619565b505050505050565b610e9d611a0c565b5f3414610ed6576040517ff36ba73700000000000000000000000000000000000000000000000000000000815260040160405180910390fd5b610ee08282611fcd565b5050565b5f805f9054906101000a900473ffffffffffffffffffffffffffffffffffffffff16905090565b610f13611a0c565b5f3414610f4c576040517ff36ba73700000000000000000000000000000000000000000000000000000000815260040160405180910390fd5b8051825114610f87576040517f3bcc897900000000000000000000000000000000000000000000000000000000815260040160405180910390fd5b5f825103610fc1576040517f97da5f9500000000000000000000000000000000000000000000000000000000815260040160405180910390fd5b5f5b82518110156110155761100a838281518110610fe257610fe1613920565b5b6020026020010151838381518110610ffd57610ffc613920565b5b6020026020010151611fcd565b806001019050610fc3565b505050565b611028338484600185611350565b5f33838360405160200161103e939291906138e4565b60405160208183030381529060405290506110598482611619565b50505050565b60606110a660055f8473ffffffffffffffffffffffffffffffffffffffff1673ffffffffffffffffffffffffffffffffffffffff1681526020019081526020015f20611fdb565b9050919050565b6060815167ffffffffffffffff8111156110ca576110c96129d7565b5b6040519080825280602002602001820160405280156110fd57816020015b60608152602001906001900390816110e85790505b5090505f5b82518110156111575761112e83828151811061112157611120613920565b5b602002602001015161196b565b82828151811061114157611140613920565b5b6020026020010181905250806001019050611102565b50919050565b611165611a0c565b5f73ffffffffffffffffffffffffffffffffffffffff168173ffffffffffffffffffffffffffffffffffffffff16036111ca576040517f1ad8836c00000000000000000000000000000000000000000000000000000000815260040160405180910390fd5b6111d381611a85565b50565b5f805f61120f69cee78b4094da8601109660b01b857bffffffffffffffffffffffffffffffffffffffffffffffffffffffff1916611ffa565b90505f61121b8261196b565b9050601481511415801561123057505f815114155b1561127257806040517f42bfe79f0000000000000000000000000000000000000000000000000000000081526004016112699190613110565b60405180910390fd5b8061127c90613aab565b60601c6001935093505050915091565b5f63a918fa6b60e01b7bffffffffffffffffffffffffffffffffffffffffffffffffffffffff1916827bffffffffffffffffffffffffffffffffffffffffffffffffffffffff191614806112e557506112e482612038565b5b9050919050565b5f806112fe6301ffc9a760e01b6111d6565b5090505f73ffffffffffffffffffffffffffffffffffffffff168173ffffffffffffffffffffffffffffffffffffffff160361133d575f91505061134b565b6113478184612101565b9150505b919050565b5f73ffffffffffffffffffffffffffffffffffffffff168473ffffffffffffffffffffffffffffffffffffffff16036113b5576040517f6355e76600000000000000000000000000000000000000000000000000000000815260040160405180910390fd5b8473ffffffffffffffffffffffffffffffffffffffff168473ffffffffffffffffffffffffffffffffffffffff160361141a576040517fdab7504700000000000000000000000000000000000000000000000000000000815260040160405180910390fd5b8260065f8773ffffffffffffffffffffffffffffffffffffffff1673ffffffffffffffffffffffffffffffffffffffff1681526020019081526020015f205f8673ffffffffffffffffffffffffffffffffffffffff1673ffffffffffffffffffffffffffffffffffffffff1681526020019081526020015f20819055505f8314611559576114ed8460055f8873ffffffffffffffffffffffffffffffffffffffff1673ffffffffffffffffffffffffffffffffffffffff1681526020019081526020015f2061219a90919063ffffffff16565b50828573ffffffffffffffffffffffffffffffffffffffff168573ffffffffffffffffffffffffffffffffffffffff167ff772a43bfdf4729b196e3fb54a818b91a2ca6c49d10b2e16278752f9f515c25d8460405161154c9190613110565b60405180910390a4611612565b6115a88460055f8873ffffffffffffffffffffffffffffffffffffffff1673ffffffffffffffffffffffffffffffffffffffff1681526020019081526020015f206121c790919063ffffffff16565b508115158573ffffffffffffffffffffffffffffffffffffffff168573ffffffffffffffffffffffffffffffffffffffff167f0ebf5762d8855cbe012d2ca42fb33a81175e17c8a8751f8859931ba453bd4167846040516116099190613110565b60405180910390a45b5050505050565b611646827f386072cc5a58e61263b434c722725f21031cd06e7c552cfaa06db5de8a320dbc5f1b836121f4565b5050565b5f60065f8473ffffffffffffffffffffffffffffffffffffffff1673ffffffffffffffffffffffffffffffffffffffff1681526020019081526020015f205f8573ffffffffffffffffffffffffffffffffffffffff1673ffffffffffffffffffffffffffffffffffffffff1681526020019081526020015f205490508082111561171157828185846040517ff3a6b6910000000000000000000000000000000000000000000000000000000081526004016117089493929190613b11565b60405180910390fd5b611737838584846117229190613b54565b5f60405180602001604052805f815250611350565b50505050565b5f73ffffffffffffffffffffffffffffffffffffffff168373ffffffffffffffffffffffffffffffffffffffff16036117a2576040517fd2d5ec3000000000000000000000000000000000000000000000000000000000815260040160405180910390fd5b5f60045f8573ffffffffffffffffffffffffffffffffffffffff1673ffffffffffffffffffffffffffffffffffffffff1681526020019081526020015f205490508083111561182c578084846040517f08d4794900000000000000000000000000000000000000000000000000000000815260040161182393929190613b87565b60405180910390fd5b611838845f85856122ae565b8260035f8282546118499190613b54565b925050819055508260045f8673ffffffffffffffffffffffffffffffffffffffff1673ffffffffffffffffffffffffffffffffffffffff1681526020019081526020015f205f82825461189c9190613b54565b925050819055505f73ffffffffffffffffffffffffffffffffffffffff168473ffffffffffffffffffffffffffffffffffffffff163373ffffffffffffffffffffffffffffffffffffffff167f3997e418d2cef0b3b0e907b1e39605c3f7d32dbd061e82ea5b4a770d46a160a6865f8760405161191b93929190613bbc565b60405180910390a461192f845f85856122b4565b5f33855f8686604051602001611949959493929190613bf8565b604051602081830303815290604052905061196485826122ba565b5050505050565b606060015f8381526020019081526020015f20805461198990613c7d565b80601f01602080910402602001604051908101604052809291908181526020018280546119b590613c7d565b8015611a005780601f106119d757610100808354040283529160200191611a00565b820191905f5260205f20905b8154815290600101906020018083116119e357829003601f168201915b50505050509050919050565b3373ffffffffffffffffffffffffffffffffffffffff16611a2b610ee4565b73ffffffffffffffffffffffffffffffffffffffff1614611a8357336040517fbf1169c5000000000000000000000000000000000000000000000000000000008152600401611a7a91906134dc565b60405180910390fd5b565b611a8d610ee4565b73ffffffffffffffffffffffffffffffffffffffff168173ffffffffffffffffffffffffffffffffffffffff1614611b78578073ffffffffffffffffffffffffffffffffffffffff165f8054906101000a900473ffffffffffffffffffffffffffffffffffffffff1673ffffffffffffffffffffffffffffffffffffffff167f8be0079c531659141344cd1fd0a4f28419497f9722a3daafe3b4186f6b6457e060405160405180910390a3805f806101000a81548173ffffffffffffffffffffffffffffffffffffffff021916908373ffffffffffffffffffffffffffffffffffffffff1602179055505b50565b5f73ffffffffffffffffffffffffffffffffffffffff168473ffffffffffffffffffffffffffffffffffffffff1603611be0576040517fd2d5ec3000000000000000000000000000000000000000000000000000000000815260040160405180910390fd5b611bec5f8585846122ae565b8260035f828254611bfd91906138b1565b925050819055508260045f8673ffffffffffffffffffffffffffffffffffffffff1673ffffffffffffffffffffffffffffffffffffffff1681526020019081526020015f205f828254611c5091906138b1565b925050819055508373ffffffffffffffffffffffffffffffffffffffff165f73ffffffffffffffffffffffffffffffffffffffff163373ffffffffffffffffffffffffffffffffffffffff167f3997e418d2cef0b3b0e907b1e39605c3f7d32dbd061e82ea5b4a770d46a160a6868686604051611ccf93929190613bbc565b60405180910390a4611ce35f8585846122b4565b5f335f868685604051602001611cfd959493929190613bf8565b6040516020818303038152906040529050611d198584836122eb565b5050505050565b5f73ffffffffffffffffffffffffffffffffffffffff168573ffffffffffffffffffffffffffffffffffffffff161480611d8557505f73ffffffffffffffffffffffffffffffffffffffff168473ffffffffffffffffffffffffffffffffffffffff16145b15611dbc576040517fd2d5ec3000000000000000000000000000000000000000000000000000000000815260040160405180910390fd5b5f60045f8773ffffffffffffffffffffffffffffffffffffffff1673ffffffffffffffffffffffffffffffffffffffff1681526020019081526020015f2054905080841115611e46578086856040517f08d47949000000000000000000000000000000000000000000000000000000008152600401611e3d93929190613b87565b60405180910390fd5b611e52868686856122ae565b8360045f8873ffffffffffffffffffffffffffffffffffffffff1673ffffffffffffffffffffffffffffffffffffffff1681526020019081526020015f205f828254611e9e9190613b54565b925050819055508360045f8773ffffffffffffffffffffffffffffffffffffffff1673ffffffffffffffffffffffffffffffffffffffff1681526020019081526020015f205f828254611ef191906138b1565b925050819055508473ffffffffffffffffffffffffffffffffffffffff168673ffffffffffffffffffffffffffffffffffffffff163373ffffffffffffffffffffffffffffffffffffffff167f3997e418d2cef0b3b0e907b1e39605c3f7d32dbd061e82ea5b4a770d46a160a6878787604051611f7093929190613bbc565b60405180910390a4611f84868686856122b4565b5f3387878786604051602001611f9e959493929190613bf8565b6040516020818303038152906040529050611fb987826122ba565b611fc48685836122eb565b50505050505050565b611fd7828261244a565b5050565b60605f611fe9835f016125b6565b905060608190508092505050919050565b5f80835f60f01b8460405160200161201493929190613d63565b60405160208183030381529060405290508061202f90613db3565b91505092915050565b5f63629aa69460e01b7bffffffffffffffffffffffffffffffffffffffffffffffffffffffff1916827bffffffffffffffffffffffffffffffffffffffffffffffffffffffff19161480612091575061209082612098565b5b9050919050565b5f7f01ffc9a7000000000000000000000000000000000000000000000000000000007bffffffffffffffffffffffffffffffffffffffffffffffffffffffff1916827bffffffffffffffffffffffffffffffffffffffffffffffffffffffff1916149050919050565b5f80826040516024016121149190613758565b6040516020818303038152906040526301ffc9a760e01b6020820180517bffffffffffffffffffffffffffffffffffffffffffffffffffffffff838183161783525050505090505f805f60205f8551602087018a617530fa92503d91505f519050828015612183575060208210155b801561218e57505f81115b94505050505092915050565b5f6121bf835f018373ffffffffffffffffffffffffffffffffffffffff165f1b61260f565b905092915050565b5f6121ec835f018373ffffffffffffffffffffffffffffffffffffffff165f1b612676565b905092915050565b612224636bb56a1460e01b8473ffffffffffffffffffffffffffffffffffffffff1661210190919063ffffffff16565b156122a9578273ffffffffffffffffffffffffffffffffffffffff16636bb56a1483836040518363ffffffff1660e01b8152600401612264929190613e28565b5f604051808303815f875af115801561227f573d5f803e3d5ffd5b505050506040513d5f823e3d601f19601f820116820180604052508101906122a79190613ec4565b505b505050565b50505050565b50505050565b6122e7827f429ac7a06903dbc9c13dfcb3c9d11df8194581fa047c96d7a4171fc7402958ea5f1b836121f4565b5050565b6122fc83636bb56a1460e01b612101565b156123a7578273ffffffffffffffffffffffffffffffffffffffff16636bb56a147f20804611b3e2ea21c480dc465142210acf4a2485947541770ec1fb87dee4a55c5f1b836040518363ffffffff1660e01b815260040161235e929190613e28565b5f604051808303815f875af1158015612379573d5f803e3d5ffd5b505050506040513d5f823e3d601f19601f820116820180604052508101906123a19190613ec4565b50612445565b81612444575f8373ffffffffffffffffffffffffffffffffffffffff163b1461240757826040517fa608fbb60000000000000000000000000000000000000000000000000000000081526004016123fe91906134dc565b60405180910390fd5b826040517f26c247f400000000000000000000000000000000000000000000000000000000815260040161243b91906134dc565b60405180910390fd5b5b505050565b7fdeba1e292f8ba88238e10ab3c7f88bd4be4fac56cad5194b6ecceaf653468af15f1b82036124a5576040517f85c169bd00000000000000000000000000000000000000000000000000000000815260040160405180910390fd5b7f2f0a68ab07768e01943a599e73362a0e17a63a72e94dd2e384d2c1d4db9327565f1b8203612500576040517f76755b3800000000000000000000000000000000000000000000000000000000815260040160405180910390fd5b7fe0261fa95db2eb3b5439bd033cda66d56b96f92f243a8228fd87550ed7bdfdb35f1b820361255b576040517f4ef6d7fb00000000000000000000000000000000000000000000000000000000815260040160405180910390fd5b8060015f8481526020019081526020015f2090816125799190614093565b50817fece574603820d07bc9b91f2a932baadf4628aabcb8afba49776529c14a6104b2826040516125aa9190613110565b60405180910390a25050565b6060815f0180548060200260200160405190810160405280929190818152602001828054801561260357602002820191905f5260205f20905b8154815260200190600101908083116125ef575b50505050509050919050565b5f61261a8383612772565b61266c57825f0182908060018154018082558091505060019003905f5260205f20015f9091909190915055825f0180549050836001015f8481526020019081526020015f208190555060019050612670565b5f90505b92915050565b5f80836001015f8481526020019081526020015f205490505f8114612767575f6001826126a39190613b54565b90505f6001865f01805490506126b99190613b54565b905080821461271f575f865f0182815481106126d8576126d7613920565b5b905f5260205f200154905080875f0184815481106126f9576126f8613920565b5b905f5260205f20018190555083876001015f8381526020019081526020015f2081905550505b855f0180548061273257612731614162565b5b600190038181905f5260205f20015f90559055856001015f8681526020019081526020015f205f90556001935050505061276c565b5f9150505b92915050565b5f80836001015f8481526020019081526020015f20541415905092915050565b5f82825260208201905092915050565b5f8082015250565b5f6127b6600483612792565b91506127c1826127a2565b602082019050919050565b5f6020820190508181035f8301526127e3816127aa565b9050919050565b828183375f83830152505050565b5f601f19601f8301169050919050565b5f6128138385612792565b93506128208385846127ea565b612829836127f8565b840190509392505050565b5f6020820190508181035f83015261284d818486612808565b90509392505050565b5f604051905090565b5f80fd5b5f80fd5b5f7fffffffff0000000000000000000000000000000000000000000000000000000082169050919050565b61289b81612867565b81146128a5575f80fd5b50565b5f813590506128b681612892565b92915050565b5f602082840312156128d1576128d061285f565b5b5f6128de848285016128a8565b91505092915050565b5f8115159050919050565b6128fb816128e7565b82525050565b5f6020820190506129145f8301846128f2565b92915050565b5f819050919050565b61292c8161291a565b82525050565b5f6020820190506129455f830184612923565b92915050565b5f73ffffffffffffffffffffffffffffffffffffffff82169050919050565b5f6129748261294b565b9050919050565b6129848161296a565b811461298e575f80fd5b50565b5f8135905061299f8161297b565b92915050565b6129ae8161291a565b81146129b8575f80fd5b50565b5f813590506129c9816129a5565b92915050565b5f80fd5b5f80fd5b7f4e487b71000000000000000000000000000000000000000000000000000000005f52604160045260245ffd5b612a0d826127f8565b810181811067ffffffffffffffff82111715612a2c57612a2b6129d7565b5b80604052505050565b5f612a3e612856565b9050612a4a8282612a04565b919050565b5f67ffffffffffffffff821115612a6957612a686129d7565b5b612a72826127f8565b9050602081019050919050565b5f612a91612a8c84612a4f565b612a35565b905082815260208101848484011115612aad57612aac6129d3565b5b612ab88482856127ea565b509392505050565b5f82601f830112612ad457612ad36129cf565b5b8135612ae4848260208601612a7f565b91505092915050565b5f805f60608486031215612b0457612b0361285f565b5b5f612b1186828701612991565b9350506020612b22868287016129bb565b925050604084013567ffffffffffffffff811115612b4357612b42612863565b5b612b4f86828701612ac0565b9150509250925092565b5f67ffffffffffffffff821115612b7357612b726129d7565b5b602082029050602081019050919050565b5f80fd5b5f612b9a612b9584612b59565b612a35565b90508083825260208201905060208402830185811115612bbd57612bbc612b84565b5b835b81811015612be65780612bd28882612991565b845260208401935050602081019050612bbf565b5050509392505050565b5f82601f830112612c0457612c036129cf565b5b8135612c14848260208601612b88565b91505092915050565b5f67ffffffffffffffff821115612c3757612c366129d7565b5b602082029050602081019050919050565b5f612c5a612c5584612c1d565b612a35565b90508083825260208201905060208402830185811115612c7d57612c7c612b84565b5b835b81811015612ca65780612c9288826129bb565b845260208401935050602081019050612c7f565b5050509392505050565b5f82601f830112612cc457612cc36129cf565b5b8135612cd4848260208601612c48565b91505092915050565b5f67ffffffffffffffff821115612cf757612cf66129d7565b5b602082029050602081019050919050565b612d11816128e7565b8114612d1b575f80fd5b50565b5f81359050612d2c81612d08565b92915050565b5f612d44612d3f84612cdd565b612a35565b90508083825260208201905060208402830185811115612d6757612d66612b84565b5b835b81811015612d905780612d7c8882612d1e565b845260208401935050602081019050612d69565b5050509392505050565b5f82601f830112612dae57612dad6129cf565b5b8135612dbe848260208601612d32565b91505092915050565b5f67ffffffffffffffff821115612de157612de06129d7565b5b602082029050602081019050919050565b5f612e04612dff84612dc7565b612a35565b90508083825260208201905060208402830185811115612e2757612e26612b84565b5b835b81811015612e6e57803567ffffffffffffffff811115612e4c57612e4b6129cf565b5b808601612e598982612ac0565b85526020850194505050602081019050612e29565b5050509392505050565b5f82601f830112612e8c57612e8b6129cf565b5b8135612e9c848260208601612df2565b91505092915050565b5f805f805f60a08688031215612ebe57612ebd61285f565b5b5f86013567ffffffffffffffff811115612edb57612eda612863565b5b612ee788828901612bf0565b955050602086013567ffffffffffffffff811115612f0857612f07612863565b5b612f1488828901612bf0565b945050604086013567ffffffffffffffff811115612f3557612f34612863565b5b612f4188828901612cb0565b935050606086013567ffffffffffffffff811115612f6257612f61612863565b5b612f6e88828901612d9a565b925050608086013567ffffffffffffffff811115612f8f57612f8e612863565b5b612f9b88828901612e78565b9150509295509295909350565b5f60ff82169050919050565b612fbd81612fa8565b82525050565b5f602082019050612fd65f830184612fb4565b92915050565b5f805f60608486031215612ff357612ff261285f565b5b5f61300086828701612991565b935050602061301186828701612d1e565b925050604084013567ffffffffffffffff81111561303257613031612863565b5b61303e86828701612ac0565b9150509250925092565b5f819050919050565b61305a81613048565b8114613064575f80fd5b50565b5f8135905061307581613051565b92915050565b5f602082840312156130905761308f61285f565b5b5f61309d84828501613067565b91505092915050565b5f81519050919050565b5f5b838110156130cd5780820151818401526020810190506130b2565b5f8484015250505050565b5f6130e2826130a6565b6130ec8185612792565b93506130fc8185602086016130b0565b613105816127f8565b840191505092915050565b5f6020820190508181035f83015261312881846130d8565b905092915050565b5f80604083850312156131465761314561285f565b5b5f61315385828601612991565b925050602061316485828601612991565b9150509250929050565b5f80fd5b5f8083601f840112613187576131866129cf565b5b8235905067ffffffffffffffff8111156131a4576131a361316e565b5b6020830191508360208202830111156131c0576131bf612b84565b5b9250929050565b5f80602083850312156131dd576131dc61285f565b5b5f83013567ffffffffffffffff8111156131fa576131f9612863565b5b61320685828601613172565b92509250509250929050565b5f81519050919050565b5f82825260208201905092915050565b5f819050602082019050919050565b5f82825260208201905092915050565b5f613255826130a6565b61325f818561323b565b935061326f8185602086016130b0565b613278816127f8565b840191505092915050565b5f61328e838361324b565b905092915050565b5f602082019050919050565b5f6132ac82613212565b6132b6818561321c565b9350836020820285016132c88561322c565b805f5b8581101561330357848403895281516132e48582613283565b94506132ef83613296565b925060208a019950506001810190506132cb565b50829750879550505050505092915050565b5f6020820190508181035f83015261332d81846132a2565b905092915050565b5f6020828403121561334a5761334961285f565b5b5f61335784828501612991565b91505092915050565b5f805f80608085870312156133785761337761285f565b5b5f61338587828801612991565b9450506020613396878288016129bb565b93505060406133a787828801612d1e565b925050606085013567ffffffffffffffff8111156133c8576133c7612863565b5b6133d487828801612ac0565b91505092959194509250565b5f805f805f60a086880312156133f9576133f861285f565b5b5f61340688828901612991565b955050602061341788828901612991565b9450506040613428888289016129bb565b935050606061343988828901612d1e565b925050608086013567ffffffffffffffff81111561345a57613459612863565b5b61346688828901612ac0565b9150509295509295909350565b5f80604083850312156134895761348861285f565b5b5f61349685828601613067565b925050602083013567ffffffffffffffff8111156134b7576134b6612863565b5b6134c385828601612ac0565b9150509250929050565b6134d68161296a565b82525050565b5f6020820190506134ef5f8301846134cd565b92915050565b5f67ffffffffffffffff82111561350f5761350e6129d7565b5b602082029050602081019050919050565b5f61353261352d846134f5565b612a35565b9050808382526020820190506020840283018581111561355557613554612b84565b5b835b8181101561357e578061356a8882613067565b845260208401935050602081019050613557565b5050509392505050565b5f82601f83011261359c5761359b6129cf565b5b81356135ac848260208601613520565b91505092915050565b5f80604083850312156135cb576135ca61285f565b5b5f83013567ffffffffffffffff8111156135e8576135e7612863565b5b6135f485828601613588565b925050602083013567ffffffffffffffff81111561361557613614612863565b5b61362185828601612e78565b9150509250929050565b5f81519050919050565b5f82825260208201905092915050565b5f819050602082019050919050565b61365d8161296a565b82525050565b5f61366e8383613654565b60208301905092915050565b5f602082019050919050565b5f6136908261362b565b61369a8185613635565b93506136a583613645565b805f5b838110156136d55781516136bc8882613663565b97506136c78361367a565b9250506001810190506136a8565b5085935050505092915050565b5f6020820190508181035f8301526136fa8184613686565b905092915050565b5f602082840312156137175761371661285f565b5b5f82013567ffffffffffffffff81111561373457613733612863565b5b61374084828501613588565b91505092915050565b61375281612867565b82525050565b5f60208201905061376b5f830184613749565b92915050565b5f81905092915050565b5f6137868385613771565b93506137938385846127ea565b82840190509392505050565b5f8160601b9050919050565b5f6137b58261379f565b9050919050565b5f6137c6826137ab565b9050919050565b6137de6137d98261296a565b6137bc565b82525050565b5f819050919050565b6137fe6137f98261291a565b6137e4565b82525050565b5f61381082868861377b565b915061381c82856137cd565b60148201915061382c82846137ed565b60208201915081905095945050505050565b5f613848826130a6565b6138528185613771565b93506138628185602086016130b0565b80840191505092915050565b5f613879828461383e565b915081905092915050565b7f4e487b71000000000000000000000000000000000000000000000000000000005f52601160045260245ffd5b5f6138bb8261291a565b91506138c68361291a565b92508282019050808211156138de576138dd613884565b5b92915050565b5f6060820190506138f75f8301866134cd565b6139046020830185612923565b818103604083015261391681846130d8565b9050949350505050565b7f4e487b71000000000000000000000000000000000000000000000000000000005f52603260045260245ffd5b5f819050919050565b5f819050919050565b5f61397961397461396f8461394d565b613956565b612fa8565b9050919050565b6139898161395f565b82525050565b5f6060820190506139a25f8301866134cd565b6139af6020830185613980565b81810360408301526139c181846130d8565b9050949350505050565b5f80fd5b5f80fd5b5f80fd5b5f80833560016020038436030381126139f3576139f26139cb565b5b80840192508235915067ffffffffffffffff821115613a1557613a146139cf565b5b602083019250600182023603831315613a3157613a306139d3565b5b509250929050565b5f613a4582848661377b565b91508190509392505050565b5f819050602082019050919050565b5f7fffffffffffffffffffffffffffffffffffffffff00000000000000000000000082169050919050565b5f613a968251613a60565b80915050919050565b5f82821b905092915050565b5f613ab5826130a6565b82613abf84613a51565b9050613aca81613a8b565b92506014821015613b0a57613b057fffffffffffffffffffffffffffffffffffffffff00000000000000000000000083601403600802613a9f565b831692505b5050919050565b5f608082019050613b245f8301876134cd565b613b316020830186612923565b613b3e60408301856134cd565b613b4b6060830184612923565b95945050505050565b5f613b5e8261291a565b9150613b698361291a565b9250828203905081811115613b8157613b80613884565b5b92915050565b5f606082019050613b9a5f830186612923565b613ba760208301856134cd565b613bb46040830184612923565b949350505050565b5f606082019050613bcf5f830186612923565b613bdc60208301856128f2565b8181036040830152613bee81846130d8565b9050949350505050565b5f60a082019050613c0b5f8301886134cd565b613c1860208301876134cd565b613c2560408301866134cd565b613c326060830185612923565b8181036080830152613c4481846130d8565b90509695505050505050565b7f4e487b71000000000000000000000000000000000000000000000000000000005f52602260045260245ffd5b5f6002820490506001821680613c9457607f821691505b602082108103613ca757613ca6613c50565b5b50919050565b5f7fffffffffffffffffffff0000000000000000000000000000000000000000000082169050919050565b5f819050919050565b613cf2613ced82613cad565b613cd8565b82525050565b5f7fffff00000000000000000000000000000000000000000000000000000000000082169050919050565b5f819050919050565b613d3d613d3882613cf8565b613d23565b82525050565b5f819050919050565b613d5d613d5882613a60565b613d43565b82525050565b5f613d6e8286613ce1565b600a82019150613d7e8285613d2c565b600282019150613d8e8284613d4c565b601482019150819050949350505050565b5f613daa8251613048565b80915050919050565b5f613dbd826130a6565b82613dc784613a51565b9050613dd281613d9f565b92506020821015613e1257613e0d7fffffffffffffffffffffffffffffffffffffffffffffffffffffffffffffffff83602003600802613a9f565b831692505b5050919050565b613e2281613048565b82525050565b5f604082019050613e3b5f830185613e19565b8181036020830152613e4d81846130d8565b90509392505050565b5f613e68613e6384612a4f565b612a35565b905082815260208101848484011115613e8457613e836129d3565b5b613e8f8482856130b0565b509392505050565b5f82601f830112613eab57613eaa6129cf565b5b8151613ebb848260208601613e56565b91505092915050565b5f60208284031215613ed957613ed861285f565b5b5f82015167ffffffffffffffff811115613ef657613ef5612863565b5b613f0284828501613e97565b91505092915050565b5f819050815f5260205f209050919050565b5f6020601f8301049050919050565b5f60088302613f5b7fffffffffffffffffffffffffffffffffffffffffffffffffffffffffffffffff82613a9f565b613f658683613a9f565b95508019841693508086168417925050509392505050565b5f613f97613f92613f8d8461291a565b613956565b61291a565b9050919050565b5f819050919050565b613fb083613f7d565b613fc4613fbc82613f9e565b848454613f2c565b825550505050565b5f90565b613fd8613fcc565b613fe3818484613fa7565b505050565b5b8181101561400657613ffb5f82613fd0565b600181019050613fe9565b5050565b601f82111561404b5761401c81613f0b565b61402584613f1d565b81016020851015614034578190505b61404861404085613f1d565b830182613fe8565b50505b505050565b5f82821c905092915050565b5f61406b5f1984600802614050565b1980831691505092915050565b5f614083838361405c565b9150826002028217905092915050565b61409c826130a6565b67ffffffffffffffff8111156140b5576140b46129d7565b5b6140bf8254613c7d565b6140ca82828561400a565b5f60209050601f8311600181146140fb575f84156140e9578287015190505b6140f38582614078565b86555061415a565b601f19841661410986613f0b565b5f5b828110156141305784890151825560018201915060208501945060208101905061410b565b8683101561414d5784890151614149601f89168261405c565b8355505b6001600288020188555050505b505050505050565b7f4e487b71000000000000000000000000000000000000000000000000000000005f52603160045260245ffdfea26469706673582212203f3a3fce86d36617e99afb4a29fa875188d512e6618b0979a92241d77d847e7864736f6c63430008180033",
			"opcodes": "PUSH1 0x80 PUSH1 0x40 MSTORE CALLVALUE DUP1 ISZERO PUSH3 0x10 JUMPI PUSH0 DUP1 REVERT JUMPDEST POP PUSH1 0x40 MLOAD PUSH3 0x5580 CODESIZE SUB DUP1 PUSH3 0x5580 DUP4 CODECOPY DUP2 DUP2 ADD PUSH1 0x40 MSTORE DUP2 ADD SWAP1 PUSH3 0x36 SWAP2 SWAP1 PUSH3 0xA15 JUMP JUMPDEST PUSH1 0x40 MLOAD DUP1 PUSH1 0x40 ADD PUSH1 0x40 MSTORE DUP1 PUSH1 0xF DUP2 MSTORE PUSH1 0x20 ADD PUSH32 0x556E6976657273616C20546F6B656E0000000000000000000000000000000000 DUP2 MSTORE POP PUSH1 0x40 MLOAD DUP1 PUSH1 0x40 ADD PUSH1 0x40 MSTORE DUP1 PUSH1 0x4 DUP2 MSTORE PUSH1 0x20 ADD PUSH32 0x554E495400000000000000000000000000000000000000000000000000000000 DUP2 MSTORE POP CALLER PUSH0 DUP1 DUP5 DUP5 DUP5 DUP5 DUP5 DUP5 DUP5 DUP5 DUP5 DUP2 PUSH0 PUSH20 0xFFFFFFFFFFFFFFFFFFFFFFFFFFFFFFFFFFFFFFFF AND DUP2 PUSH20 0xFFFFFFFFFFFFFFFFFFFFFFFFFFFFFFFFFFFFFFFF AND SUB PUSH3 0x115 JUMPI PUSH1 0x40 MLOAD PUSH32 0x1AD8836C00000000000000000000000000000000000000000000000000000000 DUP2 MSTORE PUSH1 0x4 ADD PUSH1 0x40 MLOAD DUP1 SWAP2 SUB SWAP1 REVERT JUMPDEST PUSH3 0x126 DUP2 PUSH3 0x369 PUSH1 0x20 SHL PUSH1 0x20 SHR JUMP JUMPDEST POP PUSH3 0x190 PUSH32 0xEAFEC4D89FA9619884B60000A4D96624A38F7AC2D8D9A604ECF07C12C77E480C PUSH0 SHL PUSH1 0x40 MLOAD DUP1 PUSH1 0x40 ADD PUSH1 0x40 MSTORE DUP1 PUSH1 0x4 DUP2 MSTORE PUSH1 0x20 ADD PUSH32 0xA4D9662400000000000000000000000000000000000000000000000000000000 DUP2 MSTORE POP PUSH3 0x468 PUSH1 0x20 SHL PUSH1 0x20 SHR JUMP JUMPDEST PUSH3 0x1C4 PUSH32 0xDEBA1E292F8BA88238E10AB3C7F88BD4BE4FAC56CAD5194B6ECCEAF653468AF1 PUSH0 SHL DUP6 PUSH3 0x468 PUSH1 0x20 SHL PUSH1 0x20 SHR JUMP JUMPDEST PUSH3 0x1F8 PUSH32 0x2F0A68AB07768E01943A599E73362A0E17A63A72E94DD2E384D2C1D4DB932756 PUSH0 SHL DUP5 PUSH3 0x468 PUSH1 0x20 SHL PUSH1 0x20 SHR JUMP JUMPDEST PUSH3 0x24D PUSH32 0xE0261FA95DB2EB3B5439BD033CDA66D56B96F92F243A8228FD87550ED7BDFDB3 PUSH0 SHL DUP3 PUSH1 0x40 MLOAD PUSH1 0x20 ADD PUSH3 0x232 SWAP2 SWAP1 PUSH3 0xA5F JUMP JUMPDEST PUSH1 0x40 MLOAD PUSH1 0x20 DUP2 DUP4 SUB SUB DUP2 MSTORE SWAP1 PUSH1 0x40 MSTORE PUSH3 0x468 PUSH1 0x20 SHL PUSH1 0x20 SHR JUMP JUMPDEST POP POP POP POP DUP1 PUSH1 0x2 PUSH0 PUSH2 0x100 EXP DUP2 SLOAD DUP2 PUSH1 0xFF MUL NOT AND SWAP1 DUP4 ISZERO ISZERO MUL OR SWAP1 SSTORE POP POP POP POP POP POP POP POP POP POP POP PUSH3 0x2EB CALLER PUSH3 0x289 PUSH3 0x4C7 PUSH1 0x20 SHL PUSH1 0x20 SHR JUMP JUMPDEST PUSH1 0xA PUSH3 0x297 SWAP2 SWAP1 PUSH3 0xC03 JUMP JUMPDEST PUSH3 0x7A120 PUSH3 0x2A7 SWAP2 SWAP1 PUSH3 0xC53 JUMP JUMPDEST PUSH1 0x1 PUSH1 0x40 MLOAD DUP1 PUSH1 0x40 ADD PUSH1 0x40 MSTORE DUP1 PUSH1 0x2 DUP2 MSTORE PUSH1 0x20 ADD PUSH32 0x3078000000000000000000000000000000000000000000000000000000000000 DUP2 MSTORE POP PUSH3 0x4EB PUSH1 0x20 SHL PUSH1 0x20 SHR JUMP JUMPDEST PUSH3 0x362 DUP2 PUSH3 0x300 PUSH3 0x4C7 PUSH1 0x20 SHL PUSH1 0x20 SHR JUMP JUMPDEST PUSH1 0xA PUSH3 0x30E SWAP2 SWAP1 PUSH3 0xC03 JUMP JUMPDEST PUSH3 0x7A120 PUSH3 0x31E SWAP2 SWAP1 PUSH3 0xC53 JUMP JUMPDEST PUSH1 0x1 PUSH1 0x40 MLOAD DUP1 PUSH1 0x40 ADD PUSH1 0x40 MSTORE DUP1 PUSH1 0x2 DUP2 MSTORE PUSH1 0x20 ADD PUSH32 0x3078000000000000000000000000000000000000000000000000000000000000 DUP2 MSTORE POP PUSH3 0x4EB PUSH1 0x20 SHL PUSH1 0x20 SHR JUMP JUMPDEST POP PUSH3 0x13AD JUMP JUMPDEST PUSH3 0x379 PUSH3 0x515 PUSH1 0x20 SHL PUSH1 0x20 SHR JUMP JUMPDEST PUSH20 0xFFFFFFFFFFFFFFFFFFFFFFFFFFFFFFFFFFFFFFFF AND DUP2 PUSH20 0xFFFFFFFFFFFFFFFFFFFFFFFFFFFFFFFFFFFFFFFF AND EQ PUSH3 0x465 JUMPI DUP1 PUSH20 0xFFFFFFFFFFFFFFFFFFFFFFFFFFFFFFFFFFFFFFFF AND PUSH0 DUP1 SLOAD SWAP1 PUSH2 0x100 EXP SWAP1 DIV PUSH20 0xFFFFFFFFFFFFFFFFFFFFFFFFFFFFFFFFFFFFFFFF AND PUSH20 0xFFFFFFFFFFFFFFFFFFFFFFFFFFFFFFFFFFFFFFFF AND PUSH32 0x8BE0079C531659141344CD1FD0A4F28419497F9722A3DAAFE3B4186F6B6457E0 PUSH1 0x40 MLOAD PUSH1 0x40 MLOAD DUP1 SWAP2 SUB SWAP1 LOG3 DUP1 PUSH0 DUP1 PUSH2 0x100 EXP DUP2 SLOAD DUP2 PUSH20 0xFFFFFFFFFFFFFFFFFFFFFFFFFFFFFFFFFFFFFFFF MUL NOT AND SWAP1 DUP4 PUSH20 0xFFFFFFFFFFFFFFFFFFFFFFFFFFFFFFFFFFFFFFFF AND MUL OR SWAP1 SSTORE POP JUMPDEST POP JUMP JUMPDEST DUP1 PUSH1 0x1 PUSH0 DUP5 DUP2 MSTORE PUSH1 0x20 ADD SWAP1 DUP2 MSTORE PUSH1 0x20 ADD PUSH0 KECCAK256 SWAP1 DUP2 PUSH3 0x488 SWAP2 SWAP1 PUSH3 0xEF8 JUMP JUMPDEST POP DUP2 PUSH32 0xECE574603820D07BC9B91F2A932BAADF4628AABCB8AFBA49776529C14A6104B2 DUP3 PUSH1 0x40 MLOAD PUSH3 0x4BB SWAP2 SWAP1 PUSH3 0x1066 JUMP JUMPDEST PUSH1 0x40 MLOAD DUP1 SWAP2 SUB SWAP1 LOG2 POP POP JUMP JUMPDEST PUSH0 PUSH1 0x2 PUSH0 SWAP1 SLOAD SWAP1 PUSH2 0x100 EXP SWAP1 DIV PUSH1 0xFF AND PUSH3 0x4E4 JUMPI PUSH1 0x12 PUSH3 0x4E6 JUMP JUMPDEST PUSH0 JUMPDEST SWAP1 POP SWAP1 JUMP JUMPDEST PUSH3 0x4FB PUSH3 0x53C PUSH1 0x20 SHL PUSH1 0x20 SHR JUMP JUMPDEST PUSH3 0x50F DUP5 DUP5 DUP5 DUP5 PUSH3 0x5C0 PUSH1 0x20 SHL PUSH1 0x20 SHR JUMP JUMPDEST POP POP POP POP JUMP JUMPDEST PUSH0 DUP1 PUSH0 SWAP1 SLOAD SWAP1 PUSH2 0x100 EXP SWAP1 DIV PUSH20 0xFFFFFFFFFFFFFFFFFFFFFFFFFFFFFFFFFFFFFFFF AND SWAP1 POP SWAP1 JUMP JUMPDEST CALLER PUSH20 0xFFFFFFFFFFFFFFFFFFFFFFFFFFFFFFFFFFFFFFFF AND PUSH3 0x563 PUSH3 0x515 PUSH1 0x20 SHL PUSH1 0x20 SHR JUMP JUMPDEST PUSH20 0xFFFFFFFFFFFFFFFFFFFFFFFFFFFFFFFFFFFFFFFF AND EQ PUSH3 0x5BE JUMPI CALLER PUSH1 0x40 MLOAD PUSH32 0xBF1169C500000000000000000000000000000000000000000000000000000000 DUP2 MSTORE PUSH1 0x4 ADD PUSH3 0x5B5 SWAP2 SWAP1 PUSH3 0x1099 JUMP JUMPDEST PUSH1 0x40 MLOAD DUP1 SWAP2 SUB SWAP1 REVERT JUMPDEST JUMP JUMPDEST PUSH0 PUSH20 0xFFFFFFFFFFFFFFFFFFFFFFFFFFFFFFFFFFFFFFFF AND DUP5 PUSH20 0xFFFFFFFFFFFFFFFFFFFFFFFFFFFFFFFFFFFFFFFF AND SUB PUSH3 0x626 JUMPI PUSH1 0x40 MLOAD PUSH32 0xD2D5EC3000000000000000000000000000000000000000000000000000000000 DUP2 MSTORE PUSH1 0x4 ADD PUSH1 0x40 MLOAD DUP1 SWAP2 SUB SWAP1 REVERT JUMPDEST PUSH3 0x63A PUSH0 DUP6 DUP6 DUP5 PUSH3 0x786 PUSH1 0x20 SHL PUSH1 0x20 SHR JUMP JUMPDEST DUP3 PUSH1 0x3 PUSH0 DUP3 DUP3 SLOAD PUSH3 0x64D SWAP2 SWAP1 PUSH3 0x10B4 JUMP JUMPDEST SWAP3 POP POP DUP2 SWAP1 SSTORE POP DUP3 PUSH1 0x4 PUSH0 DUP7 PUSH20 0xFFFFFFFFFFFFFFFFFFFFFFFFFFFFFFFFFFFFFFFF AND PUSH20 0xFFFFFFFFFFFFFFFFFFFFFFFFFFFFFFFFFFFFFFFF AND DUP2 MSTORE PUSH1 0x20 ADD SWAP1 DUP2 MSTORE PUSH1 0x20 ADD PUSH0 KECCAK256 PUSH0 DUP3 DUP3 SLOAD PUSH3 0x6A2 SWAP2 SWAP1 PUSH3 0x10B4 JUMP JUMPDEST SWAP3 POP POP DUP2 SWAP1 SSTORE POP DUP4 PUSH20 0xFFFFFFFFFFFFFFFFFFFFFFFFFFFFFFFFFFFFFFFF AND PUSH0 PUSH20 0xFFFFFFFFFFFFFFFFFFFFFFFFFFFFFFFFFFFFFFFF AND CALLER PUSH20 0xFFFFFFFFFFFFFFFFFFFFFFFFFFFFFFFFFFFFFFFF AND PUSH32 0x3997E418D2CEF0B3B0E907B1E39605C3F7D32DBD061E82EA5B4A770D46A160A6 DUP7 DUP7 DUP7 PUSH1 0x40 MLOAD PUSH3 0x723 SWAP4 SWAP3 SWAP2 SWAP1 PUSH3 0x110A JUMP JUMPDEST PUSH1 0x40 MLOAD DUP1 SWAP2 SUB SWAP1 LOG4 PUSH3 0x73F PUSH0 DUP6 DUP6 DUP5 PUSH3 0x78C PUSH1 0x20 SHL PUSH1 0x20 SHR JUMP JUMPDEST PUSH0 CALLER PUSH0 DUP7 DUP7 DUP6 PUSH1 0x40 MLOAD PUSH1 0x20 ADD PUSH3 0x75B SWAP6 SWAP5 SWAP4 SWAP3 SWAP2 SWAP1 PUSH3 0x114C JUMP JUMPDEST PUSH1 0x40 MLOAD PUSH1 0x20 DUP2 DUP4 SUB SUB DUP2 MSTORE SWAP1 PUSH1 0x40 MSTORE SWAP1 POP PUSH3 0x77F DUP6 DUP5 DUP4 PUSH3 0x792 PUSH1 0x20 SHL PUSH1 0x20 SHR JUMP JUMPDEST POP POP POP POP POP JUMP JUMPDEST POP POP POP POP JUMP JUMPDEST POP POP POP POP JUMP JUMPDEST PUSH3 0x7AB DUP4 PUSH4 0x6BB56A14 PUSH1 0xE0 SHL PUSH3 0x906 PUSH1 0x20 SHL PUSH1 0x20 SHR JUMP JUMPDEST ISZERO PUSH3 0x85D JUMPI DUP3 PUSH20 0xFFFFFFFFFFFFFFFFFFFFFFFFFFFFFFFFFFFFFFFF AND PUSH4 0x6BB56A14 PUSH32 0x20804611B3E2EA21C480DC465142210ACF4A2485947541770EC1FB87DEE4A55C PUSH0 SHL DUP4 PUSH1 0x40 MLOAD DUP4 PUSH4 0xFFFFFFFF AND PUSH1 0xE0 SHL DUP2 MSTORE PUSH1 0x4 ADD PUSH3 0x810 SWAP3 SWAP2 SWAP1 PUSH3 0x11C8 JUMP JUMPDEST PUSH0 PUSH1 0x40 MLOAD DUP1 DUP4 SUB DUP2 PUSH0 DUP8 GAS CALL ISZERO DUP1 ISZERO PUSH3 0x82C JUMPI RETURNDATASIZE PUSH0 DUP1 RETURNDATACOPY RETURNDATASIZE PUSH0 REVERT JUMPDEST POP POP POP POP PUSH1 0x40 MLOAD RETURNDATASIZE PUSH0 DUP3 RETURNDATACOPY RETURNDATASIZE PUSH1 0x1F NOT PUSH1 0x1F DUP3 ADD AND DUP3 ADD DUP1 PUSH1 0x40 MSTORE POP DUP2 ADD SWAP1 PUSH3 0x856 SWAP2 SWAP1 PUSH3 0x1307 JUMP JUMPDEST POP PUSH3 0x901 JUMP JUMPDEST DUP2 PUSH3 0x900 JUMPI PUSH0 DUP4 PUSH20 0xFFFFFFFFFFFFFFFFFFFFFFFFFFFFFFFFFFFFFFFF AND EXTCODESIZE EQ PUSH3 0x8C1 JUMPI DUP3 PUSH1 0x40 MLOAD PUSH32 0xA608FBB600000000000000000000000000000000000000000000000000000000 DUP2 MSTORE PUSH1 0x4 ADD PUSH3 0x8B8 SWAP2 SWAP1 PUSH3 0x1099 JUMP JUMPDEST PUSH1 0x40 MLOAD DUP1 SWAP2 SUB SWAP1 REVERT JUMPDEST DUP3 PUSH1 0x40 MLOAD PUSH32 0x26C247F400000000000000000000000000000000000000000000000000000000 DUP2 MSTORE PUSH1 0x4 ADD PUSH3 0x8F7 SWAP2 SWAP1 PUSH3 0x1099 JUMP JUMPDEST PUSH1 0x40 MLOAD DUP1 SWAP2 SUB SWAP1 REVERT JUMPDEST JUMPDEST POP POP POP JUMP JUMPDEST PUSH0 DUP1 DUP3 PUSH1 0x40 MLOAD PUSH1 0x24 ADD PUSH3 0x91B SWAP2 SWAP1 PUSH3 0x1392 JUMP JUMPDEST PUSH1 0x40 MLOAD PUSH1 0x20 DUP2 DUP4 SUB SUB DUP2 MSTORE SWAP1 PUSH1 0x40 MSTORE PUSH4 0x1FFC9A7 PUSH1 0xE0 SHL PUSH1 0x20 DUP3 ADD DUP1 MLOAD PUSH28 0xFFFFFFFFFFFFFFFFFFFFFFFFFFFFFFFFFFFFFFFFFFFFFFFFFFFFFFFF DUP4 DUP2 DUP4 AND OR DUP4 MSTORE POP POP POP POP SWAP1 POP PUSH0 DUP1 PUSH0 PUSH1 0x20 PUSH0 DUP6 MLOAD PUSH1 0x20 DUP8 ADD DUP11 PUSH2 0x7530 STATICCALL SWAP3 POP RETURNDATASIZE SWAP2 POP PUSH0 MLOAD SWAP1 POP DUP3 DUP1 ISZERO PUSH3 0x98B JUMPI POP PUSH1 0x20 DUP3 LT ISZERO JUMPDEST DUP1 ISZERO PUSH3 0x997 JUMPI POP PUSH0 DUP2 GT JUMPDEST SWAP5 POP POP POP POP POP SWAP3 SWAP2 POP POP JUMP JUMPDEST PUSH0 PUSH1 0x40 MLOAD SWAP1 POP SWAP1 JUMP JUMPDEST PUSH0 DUP1 REVERT JUMPDEST PUSH0 DUP1 REVERT JUMPDEST PUSH0 PUSH20 0xFFFFFFFFFFFFFFFFFFFFFFFFFFFFFFFFFFFFFFFF DUP3 AND SWAP1 POP SWAP2 SWAP1 POP JUMP JUMPDEST PUSH0 PUSH3 0x9DF DUP3 PUSH3 0x9B4 JUMP JUMPDEST SWAP1 POP SWAP2 SWAP1 POP JUMP JUMPDEST PUSH3 0x9F1 DUP2 PUSH3 0x9D3 JUMP JUMPDEST DUP2 EQ PUSH3 0x9FC JUMPI PUSH0 DUP1 REVERT JUMPDEST POP JUMP JUMPDEST PUSH0 DUP2 MLOAD SWAP1 POP PUSH3 0xA0F DUP2 PUSH3 0x9E6 JUMP JUMPDEST SWAP3 SWAP2 POP POP JUMP JUMPDEST PUSH0 PUSH1 0x20 DUP3 DUP5 SUB SLT ISZERO PUSH3 0xA2D JUMPI PUSH3 0xA2C PUSH3 0x9AC JUMP JUMPDEST JUMPDEST PUSH0 PUSH3 0xA3C DUP5 DUP3 DUP6 ADD PUSH3 0x9FF JUMP JUMPDEST SWAP2 POP POP SWAP3 SWAP2 POP POP JUMP JUMPDEST PUSH0 DUP2 SWAP1 POP SWAP2 SWAP1 POP JUMP JUMPDEST PUSH3 0xA59 DUP2 PUSH3 0xA45 JUMP JUMPDEST DUP3 MSTORE POP POP JUMP JUMPDEST PUSH0 PUSH1 0x20 DUP3 ADD SWAP1 POP PUSH3 0xA74 PUSH0 DUP4 ADD DUP5 PUSH3 0xA4E JUMP JUMPDEST SWAP3 SWAP2 POP POP JUMP JUMPDEST PUSH32 0x4E487B7100000000000000000000000000000000000000000000000000000000 PUSH0 MSTORE PUSH1 0x11 PUSH1 0x4 MSTORE PUSH1 0x24 PUSH0 REVERT JUMPDEST PUSH0 DUP2 PUSH1 0x1 SHR SWAP1 POP SWAP2 SWAP1 POP JUMP JUMPDEST PUSH0 DUP1 DUP3 SWAP2 POP DUP4 SWAP1 POP JUMPDEST PUSH1 0x1 DUP6 GT ISZERO PUSH3 0xB04 JUMPI DUP1 DUP7 DIV DUP2 GT ISZERO PUSH3 0xADC JUMPI PUSH3 0xADB PUSH3 0xA7A JUMP JUMPDEST JUMPDEST PUSH1 0x1 DUP6 AND ISZERO PUSH3 0xAEC JUMPI DUP1 DUP3 MUL SWAP2 POP JUMPDEST DUP1 DUP2 MUL SWAP1 POP PUSH3 0xAFC DUP6 PUSH3 0xAA7 JUMP JUMPDEST SWAP5 POP PUSH3 0xABC JUMP JUMPDEST SWAP5 POP SWAP5 SWAP3 POP POP POP JUMP JUMPDEST PUSH0 DUP3 PUSH3 0xB1E JUMPI PUSH1 0x1 SWAP1 POP PUSH3 0xBF0 JUMP JUMPDEST DUP2 PUSH3 0xB2D JUMPI PUSH0 SWAP1 POP PUSH3 0xBF0 JUMP JUMPDEST DUP2 PUSH1 0x1 DUP2 EQ PUSH3 0xB46 JUMPI PUSH1 0x2 DUP2 EQ PUSH3 0xB51 JUMPI PUSH3 0xB87 JUMP JUMPDEST PUSH1 0x1 SWAP2 POP POP PUSH3 0xBF0 JUMP JUMPDEST PUSH1 0xFF DUP5 GT ISZERO PUSH3 0xB66 JUMPI PUSH3 0xB65 PUSH3 0xA7A JUMP JUMPDEST JUMPDEST DUP4 PUSH1 0x2 EXP SWAP2 POP DUP5 DUP3 GT ISZERO PUSH3 0xB80 JUMPI PUSH3 0xB7F PUSH3 0xA7A JUMP JUMPDEST JUMPDEST POP PUSH3 0xBF0 JUMP JUMPDEST POP PUSH1 0x20 DUP4 LT PUSH2 0x133 DUP4 LT AND PUSH1 0x4E DUP5 LT PUSH1 0xB DUP5 LT AND OR ISZERO PUSH3 0xBC1 JUMPI DUP3 DUP3 EXP SWAP1 POP DUP4 DUP2 GT ISZERO PUSH3 0xBBB JUMPI PUSH3 0xBBA PUSH3 0xA7A JUMP JUMPDEST JUMPDEST PUSH3 0xBF0 JUMP JUMPDEST PUSH3 0xBD0 DUP5 DUP5 DUP5 PUSH1 0x1 PUSH3 0xAB3 JUMP JUMPDEST SWAP3 POP SWAP1 POP DUP2 DUP5 DIV DUP2 GT ISZERO PUSH3 0xBEA JUMPI PUSH3 0xBE9 PUSH3 0xA7A JUMP JUMPDEST JUMPDEST DUP2 DUP2 MUL SWAP1 POP JUMPDEST SWAP4 SWAP3 POP POP POP JUMP JUMPDEST PUSH0 PUSH1 0xFF DUP3 AND SWAP1 POP SWAP2 SWAP1 POP JUMP JUMPDEST PUSH0 PUSH3 0xC0F DUP3 PUSH3 0xA45 JUMP JUMPDEST SWAP2 POP PUSH3 0xC1C DUP4 PUSH3 0xBF7 JUMP JUMPDEST SWAP3 POP PUSH3 0xC4B PUSH32 0xFFFFFFFFFFFFFFFFFFFFFFFFFFFFFFFFFFFFFFFFFFFFFFFFFFFFFFFFFFFFFFFF DUP5 DUP5 PUSH3 0xB0D JUMP JUMPDEST SWAP1 POP SWAP3 SWAP2 POP POP JUMP JUMPDEST PUSH0 PUSH3 0xC5F DUP3 PUSH3 0xA45 JUMP JUMPDEST SWAP2 POP PUSH3 0xC6C DUP4 PUSH3 0xA45 JUMP JUMPDEST SWAP3 POP DUP3 DUP3 MUL PUSH3 0xC7C DUP2 PUSH3 0xA45 JUMP JUMPDEST SWAP2 POP DUP3 DUP3 DIV DUP5 EQ DUP4 ISZERO OR PUSH3 0xC96 JUMPI PUSH3 0xC95 PUSH3 0xA7A JUMP JUMPDEST JUMPDEST POP SWAP3 SWAP2 POP POP JUMP JUMPDEST PUSH0 DUP2 MLOAD SWAP1 POP SWAP2 SWAP1 POP JUMP JUMPDEST PUSH32 0x4E487B7100000000000000000000000000000000000000000000000000000000 PUSH0 MSTORE PUSH1 0x41 PUSH1 0x4 MSTORE PUSH1 0x24 PUSH0 REVERT JUMPDEST PUSH32 0x4E487B7100000000000000000000000000000000000000000000000000000000 PUSH0 MSTORE PUSH1 0x22 PUSH1 0x4 MSTORE PUSH1 0x24 PUSH0 REVERT JUMPDEST PUSH0 PUSH1 0x2 DUP3 DIV SWAP1 POP PUSH1 0x1 DUP3 AND DUP1 PUSH3 0xD19 JUMPI PUSH1 0x7F DUP3 AND SWAP2 POP JUMPDEST PUSH1 0x20 DUP3 LT DUP2 SUB PUSH3 0xD2F JUMPI PUSH3 0xD2E PUSH3 0xCD4 JUMP JUMPDEST JUMPDEST POP SWAP2 SWAP1 POP JUMP JUMPDEST PUSH0 DUP2 SWAP1 POP DUP2 PUSH0 MSTORE PUSH1 0x20 PUSH0 KECCAK256 SWAP1 POP SWAP2 SWAP1 POP JUMP JUMPDEST PUSH0 PUSH1 0x20 PUSH1 0x1F DUP4 ADD DIV SWAP1 POP SWAP2 SWAP1 POP JUMP JUMPDEST PUSH0 DUP3 DUP3 SHL SWAP1 POP SWAP3 SWAP2 POP POP JUMP JUMPDEST PUSH0 PUSH1 0x8 DUP4 MUL PUSH3 0xD93 PUSH32 0xFFFFFFFFFFFFFFFFFFFFFFFFFFFFFFFFFFFFFFFFFFFFFFFFFFFFFFFFFFFFFFFF DUP3 PUSH3 0xD56 JUMP JUMPDEST PUSH3 0xD9F DUP7 DUP4 PUSH3 0xD56 JUMP JUMPDEST SWAP6 POP DUP1 NOT DUP5 AND SWAP4 POP DUP1 DUP7 AND DUP5 OR SWAP3 POP POP POP SWAP4 SWAP3 POP POP POP JUMP JUMPDEST PUSH0 DUP2 SWAP1 POP SWAP2 SWAP1 POP JUMP JUMPDEST PUSH0 PUSH3 0xDE0 PUSH3 0xDDA PUSH3 0xDD4 DUP5 PUSH3 0xA45 JUMP JUMPDEST PUSH3 0xDB7 JUMP JUMPDEST PUSH3 0xA45 JUMP JUMPDEST SWAP1 POP SWAP2 SWAP1 POP JUMP JUMPDEST PUSH0 DUP2 SWAP1 POP SWAP2 SWAP1 POP JUMP JUMPDEST PUSH3 0xDFB DUP4 PUSH3 0xDC0 JUMP JUMPDEST PUSH3 0xE13 PUSH3 0xE0A DUP3 PUSH3 0xDE7 JUMP JUMPDEST DUP5 DUP5 SLOAD PUSH3 0xD62 JUMP JUMPDEST DUP3 SSTORE POP POP POP POP JUMP JUMPDEST PUSH0 SWAP1 JUMP JUMPDEST PUSH3 0xE29 PUSH3 0xE1B JUMP JUMPDEST PUSH3 0xE36 DUP2 DUP5 DUP5 PUSH3 0xDF0 JUMP JUMPDEST POP POP POP JUMP JUMPDEST JUMPDEST DUP2 DUP2 LT ISZERO PUSH3 0xE5D JUMPI PUSH3 0xE51 PUSH0 DUP3 PUSH3 0xE1F JUMP JUMPDEST PUSH1 0x1 DUP2 ADD SWAP1 POP PUSH3 0xE3C JUMP JUMPDEST POP POP JUMP JUMPDEST PUSH1 0x1F DUP3 GT ISZERO PUSH3 0xEAC JUMPI PUSH3 0xE76 DUP2 PUSH3 0xD35 JUMP JUMPDEST PUSH3 0xE81 DUP5 PUSH3 0xD47 JUMP JUMPDEST DUP2 ADD PUSH1 0x20 DUP6 LT ISZERO PUSH3 0xE91 JUMPI DUP2 SWAP1 POP JUMPDEST PUSH3 0xEA9 PUSH3 0xEA0 DUP6 PUSH3 0xD47 JUMP JUMPDEST DUP4 ADD DUP3 PUSH3 0xE3B JUMP JUMPDEST POP POP JUMPDEST POP POP POP JUMP JUMPDEST PUSH0 DUP3 DUP3 SHR SWAP1 POP SWAP3 SWAP2 POP POP JUMP JUMPDEST PUSH0 PUSH3 0xECE PUSH0 NOT DUP5 PUSH1 0x8 MUL PUSH3 0xEB1 JUMP JUMPDEST NOT DUP1 DUP4 AND SWAP2 POP POP SWAP3 SWAP2 POP POP JUMP JUMPDEST PUSH0 PUSH3 0xEE8 DUP4 DUP4 PUSH3 0xEBD JUMP JUMPDEST SWAP2 POP DUP3 PUSH1 0x2 MUL DUP3 OR SWAP1 POP SWAP3 SWAP2 POP POP JUMP JUMPDEST PUSH3 0xF03 DUP3 PUSH3 0xC9D JUMP JUMPDEST PUSH8 0xFFFFFFFFFFFFFFFF DUP2 GT ISZERO PUSH3 0xF1F JUMPI PUSH3 0xF1E PUSH3 0xCA7 JUMP JUMPDEST JUMPDEST PUSH3 0xF2B DUP3 SLOAD PUSH3 0xD01 JUMP JUMPDEST PUSH3 0xF38 DUP3 DUP3 DUP6 PUSH3 0xE61 JUMP JUMPDEST PUSH0 PUSH1 0x20 SWAP1 POP PUSH1 0x1F DUP4 GT PUSH1 0x1 DUP2 EQ PUSH3 0xF6E JUMPI PUSH0 DUP5 ISZERO PUSH3 0xF59 JUMPI DUP3 DUP8 ADD MLOAD SWAP1 POP JUMPDEST PUSH3 0xF65 DUP6 DUP3 PUSH3 0xEDB JUMP JUMPDEST DUP7 SSTORE POP PUSH3 0xFD4 JUMP JUMPDEST PUSH1 0x1F NOT DUP5 AND PUSH3 0xF7E DUP7 PUSH3 0xD35 JUMP JUMPDEST PUSH0 JUMPDEST DUP3 DUP2 LT ISZERO PUSH3 0xFA7 JUMPI DUP5 DUP10 ADD MLOAD DUP3 SSTORE PUSH1 0x1 DUP3 ADD SWAP2 POP PUSH1 0x20 DUP6 ADD SWAP5 POP PUSH1 0x20 DUP2 ADD SWAP1 POP PUSH3 0xF80 JUMP JUMPDEST DUP7 DUP4 LT ISZERO PUSH3 0xFC7 JUMPI DUP5 DUP10 ADD MLOAD PUSH3 0xFC3 PUSH1 0x1F DUP10 AND DUP3 PUSH3 0xEBD JUMP JUMPDEST DUP4 SSTORE POP JUMPDEST PUSH1 0x1 PUSH1 0x2 DUP9 MUL ADD DUP9 SSTORE POP POP POP JUMPDEST POP POP POP POP POP POP JUMP JUMPDEST PUSH0 DUP3 DUP3 MSTORE PUSH1 0x20 DUP3 ADD SWAP1 POP SWAP3 SWAP2 POP POP JUMP JUMPDEST PUSH0 JUMPDEST DUP4 DUP2 LT ISZERO PUSH3 0x100B JUMPI DUP1 DUP3 ADD MLOAD DUP2 DUP5 ADD MSTORE PUSH1 0x20 DUP2 ADD SWAP1 POP PUSH3 0xFEE JUMP JUMPDEST PUSH0 DUP5 DUP5 ADD MSTORE POP POP POP POP JUMP JUMPDEST PUSH0 PUSH1 0x1F NOT PUSH1 0x1F DUP4 ADD AND SWAP1 POP SWAP2 SWAP1 POP JUMP JUMPDEST PUSH0 PUSH3 0x1032 DUP3 PUSH3 0xC9D JUMP JUMPDEST PUSH3 0x103E DUP2 DUP6 PUSH3 0xFDC JUMP JUMPDEST SWAP4 POP PUSH3 0x1050 DUP2 DUP6 PUSH1 0x20 DUP7 ADD PUSH3 0xFEC JUMP JUMPDEST PUSH3 0x105B DUP2 PUSH3 0x1016 JUMP JUMPDEST DUP5 ADD SWAP2 POP POP SWAP3 SWAP2 POP POP JUMP JUMPDEST PUSH0 PUSH1 0x20 DUP3 ADD SWAP1 POP DUP2 DUP2 SUB PUSH0 DUP4 ADD MSTORE PUSH3 0x1080 DUP2 DUP5 PUSH3 0x1026 JUMP JUMPDEST SWAP1 POP SWAP3 SWAP2 POP POP JUMP JUMPDEST PUSH3 0x1093 DUP2 PUSH3 0x9D3 JUMP JUMPDEST DUP3 MSTORE POP POP JUMP JUMPDEST PUSH0 PUSH1 0x20 DUP3 ADD SWAP1 POP PUSH3 0x10AE PUSH0 DUP4 ADD DUP5 PUSH3 0x1088 JUMP JUMPDEST SWAP3 SWAP2 POP POP JUMP JUMPDEST PUSH0 PUSH3 0x10C0 DUP3 PUSH3 0xA45 JUMP JUMPDEST SWAP2 POP PUSH3 0x10CD DUP4 PUSH3 0xA45 JUMP JUMPDEST SWAP3 POP DUP3 DUP3 ADD SWAP1 POP DUP1 DUP3 GT ISZERO PUSH3 0x10E8 JUMPI PUSH3 0x10E7 PUSH3 0xA7A JUMP JUMPDEST JUMPDEST SWAP3 SWAP2 POP POP JUMP JUMPDEST PUSH0 DUP2 ISZERO ISZERO SWAP1 POP SWAP2 SWAP1 POP JUMP JUMPDEST PUSH3 0x1104 DUP2 PUSH3 0x10EE JUMP JUMPDEST DUP3 MSTORE POP POP JUMP JUMPDEST PUSH0 PUSH1 0x60 DUP3 ADD SWAP1 POP PUSH3 0x111F PUSH0 DUP4 ADD DUP7 PUSH3 0xA4E JUMP JUMPDEST PUSH3 0x112E PUSH1 0x20 DUP4 ADD DUP6 PUSH3 0x10F9 JUMP JUMPDEST DUP2 DUP2 SUB PUSH1 0x40 DUP4 ADD MSTORE PUSH3 0x1142 DUP2 DUP5 PUSH3 0x1026 JUMP JUMPDEST SWAP1 POP SWAP5 SWAP4 POP POP POP POP JUMP JUMPDEST PUSH0 PUSH1 0xA0 DUP3 ADD SWAP1 POP PUSH3 0x1161 PUSH0 DUP4 ADD DUP9 PUSH3 0x1088 JUMP JUMPDEST PUSH3 0x1170 PUSH1 0x20 DUP4 ADD DUP8 PUSH3 0x1088 JUMP JUMPDEST PUSH3 0x117F PUSH1 0x40 DUP4 ADD DUP7 PUSH3 0x1088 JUMP JUMPDEST PUSH3 0x118E PUSH1 0x60 DUP4 ADD DUP6 PUSH3 0xA4E JUMP JUMPDEST DUP2 DUP2 SUB PUSH1 0x80 DUP4 ADD MSTORE PUSH3 0x11A2 DUP2 DUP5 PUSH3 0x1026 JUMP JUMPDEST SWAP1 POP SWAP7 SWAP6 POP POP POP POP POP POP JUMP JUMPDEST PUSH0 DUP2 SWAP1 POP SWAP2 SWAP1 POP JUMP JUMPDEST PUSH3 0x11C2 DUP2 PUSH3 0x11AE JUMP JUMPDEST DUP3 MSTORE POP POP JUMP JUMPDEST PUSH0 PUSH1 0x40 DUP3 ADD SWAP1 POP PUSH3 0x11DD PUSH0 DUP4 ADD DUP6 PUSH3 0x11B7 JUMP JUMPDEST DUP2 DUP2 SUB PUSH1 0x20 DUP4 ADD MSTORE PUSH3 0x11F1 DUP2 DUP5 PUSH3 0x1026 JUMP JUMPDEST SWAP1 POP SWAP4 SWAP3 POP POP POP JUMP JUMPDEST PUSH0 DUP1 REVERT JUMPDEST PUSH0 DUP1 REVERT JUMPDEST PUSH3 0x120D DUP3 PUSH3 0x1016 JUMP JUMPDEST DUP2 ADD DUP2 DUP2 LT PUSH8 0xFFFFFFFFFFFFFFFF DUP3 GT OR ISZERO PUSH3 0x122F JUMPI PUSH3 0x122E PUSH3 0xCA7 JUMP JUMPDEST JUMPDEST DUP1 PUSH1 0x40 MSTORE POP POP POP JUMP JUMPDEST PUSH0 PUSH3 0x1243 PUSH3 0x9A3 JUMP JUMPDEST SWAP1 POP PUSH3 0x1251 DUP3 DUP3 PUSH3 0x1202 JUMP JUMPDEST SWAP2 SWAP1 POP JUMP JUMPDEST PUSH0 PUSH8 0xFFFFFFFFFFFFFFFF DUP3 GT ISZERO PUSH3 0x1273 JUMPI PUSH3 0x1272 PUSH3 0xCA7 JUMP JUMPDEST JUMPDEST PUSH3 0x127E DUP3 PUSH3 0x1016 JUMP JUMPDEST SWAP1 POP PUSH1 0x20 DUP2 ADD SWAP1 POP SWAP2 SWAP1 POP JUMP JUMPDEST PUSH0 PUSH3 0x12A1 PUSH3 0x129B DUP5 PUSH3 0x1256 JUMP JUMPDEST PUSH3 0x1238 JUMP JUMPDEST SWAP1 POP DUP3 DUP2 MSTORE PUSH1 0x20 DUP2 ADD DUP5 DUP5 DUP5 ADD GT ISZERO PUSH3 0x12C0 JUMPI PUSH3 0x12BF PUSH3 0x11FE JUMP JUMPDEST JUMPDEST PUSH3 0x12CD DUP5 DUP3 DUP6 PUSH3 0xFEC JUMP JUMPDEST POP SWAP4 SWAP3 POP POP POP JUMP JUMPDEST PUSH0 DUP3 PUSH1 0x1F DUP4 ADD SLT PUSH3 0x12EC JUMPI PUSH3 0x12EB PUSH3 0x11FA JUMP JUMPDEST JUMPDEST DUP2 MLOAD PUSH3 0x12FE DUP5 DUP3 PUSH1 0x20 DUP7 ADD PUSH3 0x128B JUMP JUMPDEST SWAP2 POP POP SWAP3 SWAP2 POP POP JUMP JUMPDEST PUSH0 PUSH1 0x20 DUP3 DUP5 SUB SLT ISZERO PUSH3 0x131F JUMPI PUSH3 0x131E PUSH3 0x9AC JUMP JUMPDEST JUMPDEST PUSH0 DUP3 ADD MLOAD PUSH8 0xFFFFFFFFFFFFFFFF DUP2 GT ISZERO PUSH3 0x133F JUMPI PUSH3 0x133E PUSH3 0x9B0 JUMP JUMPDEST JUMPDEST PUSH3 0x134D DUP5 DUP3 DUP6 ADD PUSH3 0x12D5 JUMP JUMPDEST SWAP2 POP POP SWAP3 SWAP2 POP POP JUMP JUMPDEST PUSH0 PUSH32 0xFFFFFFFF00000000000000000000000000000000000000000000000000000000 DUP3 AND SWAP1 POP SWAP2 SWAP1 POP JUMP JUMPDEST PUSH3 0x138C DUP2 PUSH3 0x1356 JUMP JUMPDEST DUP3 MSTORE POP POP JUMP JUMPDEST PUSH0 PUSH1 0x20 DUP3 ADD SWAP1 POP PUSH3 0x13A7 PUSH0 DUP4 ADD DUP5 PUSH3 0x1381 JUMP JUMPDEST SWAP3 SWAP2 POP POP JUMP JUMPDEST PUSH2 0x41C5 DUP1 PUSH3 0x13BB PUSH0 CODECOPY PUSH0 RETURN INVALID PUSH1 0x80 PUSH1 0x40 MSTORE PUSH1 0x4 CALLDATASIZE LT PUSH2 0x138 JUMPI PUSH0 CALLDATALOAD PUSH1 0xE0 SHR DUP1 PUSH4 0x715018A6 GT PUSH2 0xAA JUMPI DUP1 PUSH4 0x8DA5CB5B GT PUSH2 0x6E JUMPI DUP1 PUSH4 0x8DA5CB5B EQ PUSH2 0x4E1 JUMPI DUP1 PUSH4 0x97902421 EQ PUSH2 0x50B JUMPI DUP1 PUSH4 0xB49506FD EQ PUSH2 0x527 JUMPI DUP1 PUSH4 0xD72FC29A EQ PUSH2 0x54F JUMPI DUP1 PUSH4 0xDEDFF9C6 EQ PUSH2 0x58B JUMPI DUP1 PUSH4 0xF2FDE38B EQ PUSH2 0x5C7 JUMPI PUSH2 0x1B1 JUMP JUMPDEST DUP1 PUSH4 0x715018A6 EQ PUSH2 0x437 JUMPI DUP1 PUSH4 0x7580D920 EQ PUSH2 0x44D JUMPI DUP1 PUSH4 0x760D9BBA EQ PUSH2 0x475 JUMPI DUP1 PUSH4 0x7B204C4E EQ PUSH2 0x49D JUMPI DUP1 PUSH4 0x7F23690C EQ PUSH2 0x4C5 JUMPI PUSH2 0x1B1 JUMP JUMPDEST DUP1 PUSH4 0x44D17187 GT PUSH2 0xFC JUMPI DUP1 PUSH4 0x44D17187 EQ PUSH2 0x2F7 JUMPI DUP1 PUSH4 0x4521748E EQ PUSH2 0x31F JUMPI DUP1 PUSH4 0x54F6127F EQ PUSH2 0x347 JUMPI DUP1 PUSH4 0x65AEAA95 EQ PUSH2 0x383 JUMPI DUP1 PUSH4 0x6963D438 EQ PUSH2 0x3BF JUMPI DUP1 PUSH4 0x70A08231 EQ PUSH2 0x3FB JUMPI PUSH2 0x1B1 JUMP JUMPDEST DUP1 PUSH4 0x1FFC9A7 EQ PUSH2 0x217 JUMPI DUP1 PUSH4 0x18160DDD EQ PUSH2 0x253 JUMPI DUP1 PUSH4 0x2BC1DA82 EQ PUSH2 0x27D JUMPI DUP1 PUSH4 0x2D7667C9 EQ PUSH2 0x2A5 JUMPI DUP1 PUSH4 0x313CE567 EQ PUSH2 0x2CD JUMPI PUSH2 0x1B1 JUMP JUMPDEST CALLDATASIZE PUSH2 0x1B1 JUMPI PUSH0 CALLVALUE SUB PUSH2 0x17F JUMPI PUSH1 0x40 MLOAD PUSH32 0xE5099EE300000000000000000000000000000000000000000000000000000000 DUP2 MSTORE PUSH1 0x4 ADD PUSH2 0x176 SWAP1 PUSH2 0x27CC JUMP JUMPDEST PUSH1 0x40 MLOAD DUP1 SWAP2 SUB SWAP1 REVERT JUMPDEST PUSH1 0x40 MLOAD PUSH32 0x388F5ADC00000000000000000000000000000000000000000000000000000000 DUP2 MSTORE PUSH1 0x4 ADD PUSH1 0x40 MLOAD DUP1 SWAP2 SUB SWAP1 REVERT JUMPDEST PUSH0 CALLDATASIZE PUSH1 0x60 PUSH1 0x4 PUSH0 CALLDATASIZE SWAP1 POP LT ISZERO PUSH2 0x200 JUMPI DUP3 DUP3 PUSH1 0x40 MLOAD PUSH32 0xE5099EE300000000000000000000000000000000000000000000000000000000 DUP2 MSTORE PUSH1 0x4 ADD PUSH2 0x1F7 SWAP3 SWAP2 SWAP1 PUSH2 0x2834 JUMP JUMPDEST PUSH1 0x40 MLOAD DUP1 SWAP2 SUB SWAP1 REVERT JUMPDEST PUSH2 0x20A DUP4 DUP4 PUSH2 0x5EF JUMP JUMPDEST SWAP1 POP SWAP2 POP POP DUP1 MLOAD SWAP1 PUSH1 0x20 ADD RETURN JUMPDEST CALLVALUE DUP1 ISZERO PUSH2 0x222 JUMPI PUSH0 DUP1 REVERT JUMPDEST POP PUSH2 0x23D PUSH1 0x4 DUP1 CALLDATASIZE SUB DUP2 ADD SWAP1 PUSH2 0x238 SWAP2 SWAP1 PUSH2 0x28BC JUMP JUMPDEST PUSH2 0x765 JUMP JUMPDEST PUSH1 0x40 MLOAD PUSH2 0x24A SWAP2 SWAP1 PUSH2 0x2901 JUMP JUMPDEST PUSH1 0x40 MLOAD DUP1 SWAP2 SUB SWAP1 RETURN JUMPDEST CALLVALUE DUP1 ISZERO PUSH2 0x25E JUMPI PUSH0 DUP1 REVERT JUMPDEST POP PUSH2 0x267 PUSH2 0x7D5 JUMP JUMPDEST PUSH1 0x40 MLOAD PUSH2 0x274 SWAP2 SWAP1 PUSH2 0x2932 JUMP JUMPDEST PUSH1 0x40 MLOAD DUP1 SWAP2 SUB SWAP1 RETURN JUMPDEST CALLVALUE DUP1 ISZERO PUSH2 0x288 JUMPI PUSH0 DUP1 REVERT JUMPDEST POP PUSH2 0x2A3 PUSH1 0x4 DUP1 CALLDATASIZE SUB DUP2 ADD SWAP1 PUSH2 0x29E SWAP2 SWAP1 PUSH2 0x2AED JUMP JUMPDEST PUSH2 0x7DE JUMP JUMPDEST STOP JUMPDEST CALLVALUE DUP1 ISZERO PUSH2 0x2B0 JUMPI PUSH0 DUP1 REVERT JUMPDEST POP PUSH2 0x2CB PUSH1 0x4 DUP1 CALLDATASIZE SUB DUP2 ADD SWAP1 PUSH2 0x2C6 SWAP2 SWAP1 PUSH2 0x2EA5 JUMP JUMPDEST PUSH2 0x885 JUMP JUMPDEST STOP JUMPDEST CALLVALUE DUP1 ISZERO PUSH2 0x2D8 JUMPI PUSH0 DUP1 REVERT JUMPDEST POP PUSH2 0x2E1 PUSH2 0x997 JUMP JUMPDEST PUSH1 0x40 MLOAD PUSH2 0x2EE SWAP2 SWAP1 PUSH2 0x2FC3 JUMP JUMPDEST PUSH1 0x40 MLOAD DUP1 SWAP2 SUB SWAP1 RETURN JUMPDEST CALLVALUE DUP1 ISZERO PUSH2 0x302 JUMPI PUSH0 DUP1 REVERT JUMPDEST POP PUSH2 0x31D PUSH1 0x4 DUP1 CALLDATASIZE SUB DUP2 ADD SWAP1 PUSH2 0x318 SWAP2 SWAP1 PUSH2 0x2AED JUMP JUMPDEST PUSH2 0x9B9 JUMP JUMPDEST STOP JUMPDEST CALLVALUE DUP1 ISZERO PUSH2 0x32A JUMPI PUSH0 DUP1 REVERT JUMPDEST POP PUSH2 0x345 PUSH1 0x4 DUP1 CALLDATASIZE SUB DUP2 ADD SWAP1 PUSH2 0x340 SWAP2 SWAP1 PUSH2 0x2FDC JUMP JUMPDEST PUSH2 0xA08 JUMP JUMPDEST STOP JUMPDEST CALLVALUE DUP1 ISZERO PUSH2 0x352 JUMPI PUSH0 DUP1 REVERT JUMPDEST POP PUSH2 0x36D PUSH1 0x4 DUP1 CALLDATASIZE SUB DUP2 ADD SWAP1 PUSH2 0x368 SWAP2 SWAP1 PUSH2 0x307B JUMP JUMPDEST PUSH2 0xA53 JUMP JUMPDEST PUSH1 0x40 MLOAD PUSH2 0x37A SWAP2 SWAP1 PUSH2 0x3110 JUMP JUMPDEST PUSH1 0x40 MLOAD DUP1 SWAP2 SUB SWAP1 RETURN JUMPDEST CALLVALUE DUP1 ISZERO PUSH2 0x38E JUMPI PUSH0 DUP1 REVERT JUMPDEST POP PUSH2 0x3A9 PUSH1 0x4 DUP1 CALLDATASIZE SUB DUP2 ADD SWAP1 PUSH2 0x3A4 SWAP2 SWAP1 PUSH2 0x3130 JUMP JUMPDEST PUSH2 0xA65 JUMP JUMPDEST PUSH1 0x40 MLOAD PUSH2 0x3B6 SWAP2 SWAP1 PUSH2 0x2932 JUMP JUMPDEST PUSH1 0x40 MLOAD DUP1 SWAP2 SUB SWAP1 RETURN JUMPDEST CALLVALUE DUP1 ISZERO PUSH2 0x3CA JUMPI PUSH0 DUP1 REVERT JUMPDEST POP PUSH2 0x3E5 PUSH1 0x4 DUP1 CALLDATASIZE SUB DUP2 ADD SWAP1 PUSH2 0x3E0 SWAP2 SWAP1 PUSH2 0x31C7 JUMP JUMPDEST PUSH2 0xB60 JUMP JUMPDEST PUSH1 0x40 MLOAD PUSH2 0x3F2 SWAP2 SWAP1 PUSH2 0x3315 JUMP JUMPDEST PUSH1 0x40 MLOAD DUP1 SWAP2 SUB SWAP1 RETURN JUMPDEST CALLVALUE DUP1 ISZERO PUSH2 0x406 JUMPI PUSH0 DUP1 REVERT JUMPDEST POP PUSH2 0x421 PUSH1 0x4 DUP1 CALLDATASIZE SUB DUP2 ADD SWAP1 PUSH2 0x41C SWAP2 SWAP1 PUSH2 0x3335 JUMP JUMPDEST PUSH2 0xCD6 JUMP JUMPDEST PUSH1 0x40 MLOAD PUSH2 0x42E SWAP2 SWAP1 PUSH2 0x2932 JUMP JUMPDEST PUSH1 0x40 MLOAD DUP1 SWAP2 SUB SWAP1 RETURN JUMPDEST CALLVALUE DUP1 ISZERO PUSH2 0x442 JUMPI PUSH0 DUP1 REVERT JUMPDEST POP PUSH2 0x44B PUSH2 0xD1C JUMP JUMPDEST STOP JUMPDEST CALLVALUE DUP1 ISZERO PUSH2 0x458 JUMPI PUSH0 DUP1 REVERT JUMPDEST POP PUSH2 0x473 PUSH1 0x4 DUP1 CALLDATASIZE SUB DUP2 ADD SWAP1 PUSH2 0x46E SWAP2 SWAP1 PUSH2 0x3360 JUMP JUMPDEST PUSH2 0xD2F JUMP JUMPDEST STOP JUMPDEST CALLVALUE DUP1 ISZERO PUSH2 0x480 JUMPI PUSH0 DUP1 REVERT JUMPDEST POP PUSH2 0x49B PUSH1 0x4 DUP1 CALLDATASIZE SUB DUP2 ADD SWAP1 PUSH2 0x496 SWAP2 SWAP1 PUSH2 0x33E0 JUMP JUMPDEST PUSH2 0xD49 JUMP JUMPDEST STOP JUMPDEST CALLVALUE DUP1 ISZERO PUSH2 0x4A8 JUMPI PUSH0 DUP1 REVERT JUMPDEST POP PUSH2 0x4C3 PUSH1 0x4 DUP1 CALLDATASIZE SUB DUP2 ADD SWAP1 PUSH2 0x4BE SWAP2 SWAP1 PUSH2 0x2AED JUMP JUMPDEST PUSH2 0xE01 JUMP JUMPDEST STOP JUMPDEST PUSH2 0x4DF PUSH1 0x4 DUP1 CALLDATASIZE SUB DUP2 ADD SWAP1 PUSH2 0x4DA SWAP2 SWAP1 PUSH2 0x3473 JUMP JUMPDEST PUSH2 0xE95 JUMP JUMPDEST STOP JUMPDEST CALLVALUE DUP1 ISZERO PUSH2 0x4EC JUMPI PUSH0 DUP1 REVERT JUMPDEST POP PUSH2 0x4F5 PUSH2 0xEE4 JUMP JUMPDEST PUSH1 0x40 MLOAD PUSH2 0x502 SWAP2 SWAP1 PUSH2 0x34DC JUMP JUMPDEST PUSH1 0x40 MLOAD DUP1 SWAP2 SUB SWAP1 RETURN JUMPDEST PUSH2 0x525 PUSH1 0x4 DUP1 CALLDATASIZE SUB DUP2 ADD SWAP1 PUSH2 0x520 SWAP2 SWAP1 PUSH2 0x35B5 JUMP JUMPDEST PUSH2 0xF0B JUMP JUMPDEST STOP JUMPDEST CALLVALUE DUP1 ISZERO PUSH2 0x532 JUMPI PUSH0 DUP1 REVERT JUMPDEST POP PUSH2 0x54D PUSH1 0x4 DUP1 CALLDATASIZE SUB DUP2 ADD SWAP1 PUSH2 0x548 SWAP2 SWAP1 PUSH2 0x2AED JUMP JUMPDEST PUSH2 0x101A JUMP JUMPDEST STOP JUMPDEST CALLVALUE DUP1 ISZERO PUSH2 0x55A JUMPI PUSH0 DUP1 REVERT JUMPDEST POP PUSH2 0x575 PUSH1 0x4 DUP1 CALLDATASIZE SUB DUP2 ADD SWAP1 PUSH2 0x570 SWAP2 SWAP1 PUSH2 0x3335 JUMP JUMPDEST PUSH2 0x105F JUMP JUMPDEST PUSH1 0x40 MLOAD PUSH2 0x582 SWAP2 SWAP1 PUSH2 0x36E2 JUMP JUMPDEST PUSH1 0x40 MLOAD DUP1 SWAP2 SUB SWAP1 RETURN JUMPDEST CALLVALUE DUP1 ISZERO PUSH2 0x596 JUMPI PUSH0 DUP1 REVERT JUMPDEST POP PUSH2 0x5B1 PUSH1 0x4 DUP1 CALLDATASIZE SUB DUP2 ADD SWAP1 PUSH2 0x5AC SWAP2 SWAP1 PUSH2 0x3702 JUMP JUMPDEST PUSH2 0x10AD JUMP JUMPDEST PUSH1 0x40 MLOAD PUSH2 0x5BE SWAP2 SWAP1 PUSH2 0x3315 JUMP JUMPDEST PUSH1 0x40 MLOAD DUP1 SWAP2 SUB SWAP1 RETURN JUMPDEST CALLVALUE DUP1 ISZERO PUSH2 0x5D2 JUMPI PUSH0 DUP1 REVERT JUMPDEST POP PUSH2 0x5ED PUSH1 0x4 DUP1 CALLDATASIZE SUB DUP2 ADD SWAP1 PUSH2 0x5E8 SWAP2 SWAP1 PUSH2 0x3335 JUMP JUMPDEST PUSH2 0x115D JUMP JUMPDEST STOP JUMPDEST PUSH1 0x60 PUSH0 PUSH2 0x61E PUSH0 CALLDATALOAD PUSH32 0xFFFFFFFF00000000000000000000000000000000000000000000000000000000 AND PUSH2 0x11D6 JUMP JUMPDEST POP SWAP1 POP PUSH0 PUSH20 0xFFFFFFFFFFFFFFFFFFFFFFFFFFFFFFFFFFFFFFFF AND DUP2 PUSH20 0xFFFFFFFFFFFFFFFFFFFFFFFFFFFFFFFFFFFFFFFF AND SUB PUSH2 0x6B4 JUMPI PUSH0 CALLDATALOAD PUSH32 0xFFFFFFFF00000000000000000000000000000000000000000000000000000000 AND PUSH1 0x40 MLOAD PUSH32 0xBB370B2B00000000000000000000000000000000000000000000000000000000 DUP2 MSTORE PUSH1 0x4 ADD PUSH2 0x6AB SWAP2 SWAP1 PUSH2 0x3758 JUMP JUMPDEST PUSH1 0x40 MLOAD DUP1 SWAP2 SUB SWAP1 REVERT JUMPDEST PUSH0 DUP1 DUP3 PUSH20 0xFFFFFFFFFFFFFFFFFFFFFFFFFFFFFFFFFFFFFFFF AND CALLVALUE DUP8 DUP8 CALLER CALLVALUE PUSH1 0x40 MLOAD PUSH1 0x20 ADD PUSH2 0x6E5 SWAP5 SWAP4 SWAP3 SWAP2 SWAP1 PUSH2 0x3804 JUMP JUMPDEST PUSH1 0x40 MLOAD PUSH1 0x20 DUP2 DUP4 SUB SUB DUP2 MSTORE SWAP1 PUSH1 0x40 MSTORE PUSH1 0x40 MLOAD PUSH2 0x701 SWAP2 SWAP1 PUSH2 0x386E JUMP JUMPDEST PUSH0 PUSH1 0x40 MLOAD DUP1 DUP4 SUB DUP2 DUP6 DUP8 GAS CALL SWAP3 POP POP POP RETURNDATASIZE DUP1 PUSH0 DUP2 EQ PUSH2 0x73B JUMPI PUSH1 0x40 MLOAD SWAP2 POP PUSH1 0x1F NOT PUSH1 0x3F RETURNDATASIZE ADD AND DUP3 ADD PUSH1 0x40 MSTORE RETURNDATASIZE DUP3 MSTORE RETURNDATASIZE PUSH0 PUSH1 0x20 DUP5 ADD RETURNDATACOPY PUSH2 0x740 JUMP JUMPDEST PUSH1 0x60 SWAP2 POP JUMPDEST POP SWAP2 POP SWAP2 POP DUP2 ISZERO PUSH2 0x756 JUMPI DUP1 SWAP4 POP POP POP POP PUSH2 0x75F JUMP JUMPDEST DUP1 MLOAD DUP1 PUSH1 0x20 DUP4 ADD REVERT JUMPDEST SWAP3 SWAP2 POP POP JUMP JUMPDEST PUSH0 PUSH4 0xB3C4928F PUSH1 0xE0 SHL PUSH28 0xFFFFFFFFFFFFFFFFFFFFFFFFFFFFFFFFFFFFFFFFFFFFFFFFFFFFFFFF NOT AND DUP3 PUSH28 0xFFFFFFFFFFFFFFFFFFFFFFFFFFFFFFFFFFFFFFFFFFFFFFFFFFFFFFFF NOT AND EQ DUP1 PUSH2 0x7BE JUMPI POP PUSH2 0x7BD DUP3 PUSH2 0x128C JUMP JUMPDEST JUMPDEST DUP1 PUSH2 0x7CE JUMPI POP PUSH2 0x7CD DUP3 PUSH2 0x12EC JUMP JUMPDEST JUMPDEST SWAP1 POP SWAP2 SWAP1 POP JUMP JUMPDEST PUSH0 PUSH1 0x3 SLOAD SWAP1 POP SWAP1 JUMP JUMPDEST PUSH0 PUSH2 0x7E9 DUP5 CALLER PUSH2 0xA65 JUMP JUMPDEST SWAP1 POP PUSH0 DUP2 SUB PUSH2 0x82F JUMPI DUP4 PUSH1 0x40 MLOAD PUSH32 0xCBA6E97700000000000000000000000000000000000000000000000000000000 DUP2 MSTORE PUSH1 0x4 ADD PUSH2 0x826 SWAP2 SWAP1 PUSH2 0x34DC JUMP JUMPDEST PUSH1 0x40 MLOAD DUP1 SWAP2 SUB SWAP1 REVERT JUMPDEST PUSH0 DUP4 DUP3 PUSH2 0x83C SWAP2 SWAP1 PUSH2 0x38B1 JUMP JUMPDEST SWAP1 POP PUSH2 0x84C CALLER DUP7 DUP4 PUSH1 0x1 DUP8 PUSH2 0x1350 JUMP JUMPDEST PUSH0 CALLER DUP3 DUP6 PUSH1 0x40 MLOAD PUSH1 0x20 ADD PUSH2 0x862 SWAP4 SWAP3 SWAP2 SWAP1 PUSH2 0x38E4 JUMP JUMPDEST PUSH1 0x40 MLOAD PUSH1 0x20 DUP2 DUP4 SUB SUB DUP2 MSTORE SWAP1 PUSH1 0x40 MSTORE SWAP1 POP PUSH2 0x87D DUP7 DUP3 PUSH2 0x1619 JUMP JUMPDEST POP POP POP POP POP POP JUMP JUMPDEST PUSH0 DUP6 MLOAD SWAP1 POP DUP5 MLOAD DUP2 EQ ISZERO DUP1 PUSH2 0x89B JUMPI POP DUP4 MLOAD DUP2 EQ ISZERO JUMPDEST DUP1 PUSH2 0x8A7 JUMPI POP DUP3 MLOAD DUP2 EQ ISZERO JUMPDEST DUP1 PUSH2 0x8B3 JUMPI POP DUP2 MLOAD DUP2 EQ ISZERO JUMPDEST ISZERO PUSH2 0x8EA JUMPI PUSH1 0x40 MLOAD PUSH32 0x263EEE8D00000000000000000000000000000000000000000000000000000000 DUP2 MSTORE PUSH1 0x4 ADD PUSH1 0x40 MLOAD DUP1 SWAP2 SUB SWAP1 REVERT JUMPDEST PUSH0 JUMPDEST DUP2 DUP2 LT ISZERO PUSH2 0x98E JUMPI PUSH2 0x983 DUP8 DUP3 DUP2 MLOAD DUP2 LT PUSH2 0x90A JUMPI PUSH2 0x909 PUSH2 0x3920 JUMP JUMPDEST JUMPDEST PUSH1 0x20 MUL PUSH1 0x20 ADD ADD MLOAD DUP8 DUP4 DUP2 MLOAD DUP2 LT PUSH2 0x925 JUMPI PUSH2 0x924 PUSH2 0x3920 JUMP JUMPDEST JUMPDEST PUSH1 0x20 MUL PUSH1 0x20 ADD ADD MLOAD DUP8 DUP5 DUP2 MLOAD DUP2 LT PUSH2 0x940 JUMPI PUSH2 0x93F PUSH2 0x3920 JUMP JUMPDEST JUMPDEST PUSH1 0x20 MUL PUSH1 0x20 ADD ADD MLOAD DUP8 DUP6 DUP2 MLOAD DUP2 LT PUSH2 0x95B JUMPI PUSH2 0x95A PUSH2 0x3920 JUMP JUMPDEST JUMPDEST PUSH1 0x20 MUL PUSH1 0x20 ADD ADD MLOAD DUP8 DUP7 DUP2 MLOAD DUP2 LT PUSH2 0x976 JUMPI PUSH2 0x975 PUSH2 0x3920 JUMP JUMPDEST JUMPDEST PUSH1 0x20 MUL PUSH1 0x20 ADD ADD MLOAD PUSH2 0xD49 JUMP JUMPDEST DUP1 PUSH1 0x1 ADD SWAP1 POP PUSH2 0x8EC JUMP JUMPDEST POP POP POP POP POP POP POP JUMP JUMPDEST PUSH0 PUSH1 0x2 PUSH0 SWAP1 SLOAD SWAP1 PUSH2 0x100 EXP SWAP1 DIV PUSH1 0xFF AND PUSH2 0x9B2 JUMPI PUSH1 0x12 PUSH2 0x9B4 JUMP JUMPDEST PUSH0 JUMPDEST SWAP1 POP SWAP1 JUMP JUMPDEST DUP3 PUSH20 0xFFFFFFFFFFFFFFFFFFFFFFFFFFFFFFFFFFFFFFFF AND CALLER PUSH20 0xFFFFFFFFFFFFFFFFFFFFFFFFFFFFFFFFFFFFFFFF AND EQ PUSH2 0x9F8 JUMPI PUSH2 0x9F7 CALLER DUP5 DUP5 PUSH2 0x164A JUMP JUMPDEST JUMPDEST PUSH2 0xA03 DUP4 DUP4 DUP4 PUSH2 0x173D JUMP JUMPDEST POP POP POP JUMP JUMPDEST PUSH2 0xA15 CALLER DUP5 PUSH0 DUP6 DUP6 PUSH2 0x1350 JUMP JUMPDEST DUP2 ISZERO PUSH2 0xA4E JUMPI PUSH0 CALLER PUSH0 DUP4 PUSH1 0x40 MLOAD PUSH1 0x20 ADD PUSH2 0xA31 SWAP4 SWAP3 SWAP2 SWAP1 PUSH2 0x398F JUMP JUMPDEST PUSH1 0x40 MLOAD PUSH1 0x20 DUP2 DUP4 SUB SUB DUP2 MSTORE SWAP1 PUSH1 0x40 MSTORE SWAP1 POP PUSH2 0xA4C DUP5 DUP3 PUSH2 0x1619 JUMP JUMPDEST POP JUMPDEST POP POP POP JUMP JUMPDEST PUSH1 0x60 PUSH2 0xA5E DUP3 PUSH2 0x196B JUMP JUMPDEST SWAP1 POP SWAP2 SWAP1 POP JUMP JUMPDEST PUSH0 DUP3 PUSH20 0xFFFFFFFFFFFFFFFFFFFFFFFFFFFFFFFFFFFFFFFF AND DUP3 PUSH20 0xFFFFFFFFFFFFFFFFFFFFFFFFFFFFFFFFFFFFFFFF AND SUB PUSH2 0xADE JUMPI PUSH1 0x4 PUSH0 DUP4 PUSH20 0xFFFFFFFFFFFFFFFFFFFFFFFFFFFFFFFFFFFFFFFF AND PUSH20 0xFFFFFFFFFFFFFFFFFFFFFFFFFFFFFFFFFFFFFFFF AND DUP2 MSTORE PUSH1 0x20 ADD SWAP1 DUP2 MSTORE PUSH1 0x20 ADD PUSH0 KECCAK256 SLOAD SWAP1 POP PUSH2 0xB5A JUMP JUMPDEST PUSH1 0x6 PUSH0 DUP4 PUSH20 0xFFFFFFFFFFFFFFFFFFFFFFFFFFFFFFFFFFFFFFFF AND PUSH20 0xFFFFFFFFFFFFFFFFFFFFFFFFFFFFFFFFFFFFFFFF AND DUP2 MSTORE PUSH1 0x20 ADD SWAP1 DUP2 MSTORE PUSH1 0x20 ADD PUSH0 KECCAK256 PUSH0 DUP5 PUSH20 0xFFFFFFFFFFFFFFFFFFFFFFFFFFFFFFFFFFFFFFFF AND PUSH20 0xFFFFFFFFFFFFFFFFFFFFFFFFFFFFFFFFFFFFFFFF AND DUP2 MSTORE PUSH1 0x20 ADD SWAP1 DUP2 MSTORE PUSH1 0x20 ADD PUSH0 KECCAK256 SLOAD SWAP1 POP JUMPDEST SWAP3 SWAP2 POP POP JUMP JUMPDEST PUSH1 0x60 DUP3 DUP3 SWAP1 POP PUSH8 0xFFFFFFFFFFFFFFFF DUP2 GT ISZERO PUSH2 0xB7F JUMPI PUSH2 0xB7E PUSH2 0x29D7 JUMP JUMPDEST JUMPDEST PUSH1 0x40 MLOAD SWAP1 DUP1 DUP3 MSTORE DUP1 PUSH1 0x20 MUL PUSH1 0x20 ADD DUP3 ADD PUSH1 0x40 MSTORE DUP1 ISZERO PUSH2 0xBB2 JUMPI DUP2 PUSH1 0x20 ADD JUMPDEST PUSH1 0x60 DUP2 MSTORE PUSH1 0x20 ADD SWAP1 PUSH1 0x1 SWAP1 SUB SWAP1 DUP2 PUSH2 0xB9D JUMPI SWAP1 POP JUMPDEST POP SWAP1 POP PUSH0 JUMPDEST DUP4 DUP4 SWAP1 POP DUP2 LT ISZERO PUSH2 0xCCF JUMPI PUSH0 DUP1 ADDRESS PUSH20 0xFFFFFFFFFFFFFFFFFFFFFFFFFFFFFFFFFFFFFFFF AND DUP7 DUP7 DUP6 DUP2 DUP2 LT PUSH2 0xBEE JUMPI PUSH2 0xBED PUSH2 0x3920 JUMP JUMPDEST JUMPDEST SWAP1 POP PUSH1 0x20 MUL DUP2 ADD SWAP1 PUSH2 0xC00 SWAP2 SWAP1 PUSH2 0x39D7 JUMP JUMPDEST PUSH1 0x40 MLOAD PUSH2 0xC0E SWAP3 SWAP2 SWAP1 PUSH2 0x3A39 JUMP JUMPDEST PUSH0 PUSH1 0x40 MLOAD DUP1 DUP4 SUB DUP2 DUP6 GAS DELEGATECALL SWAP2 POP POP RETURNDATASIZE DUP1 PUSH0 DUP2 EQ PUSH2 0xC46 JUMPI PUSH1 0x40 MLOAD SWAP2 POP PUSH1 0x1F NOT PUSH1 0x3F RETURNDATASIZE ADD AND DUP3 ADD PUSH1 0x40 MSTORE RETURNDATASIZE DUP3 MSTORE RETURNDATASIZE PUSH0 PUSH1 0x20 DUP5 ADD RETURNDATACOPY PUSH2 0xC4B JUMP JUMPDEST PUSH1 0x60 SWAP2 POP JUMPDEST POP SWAP2 POP SWAP2 POP DUP2 PUSH2 0xCA3 JUMPI PUSH0 DUP2 MLOAD EQ PUSH2 0xC66 JUMPI DUP1 MLOAD DUP1 DUP3 PUSH1 0x20 ADD REVERT JUMPDEST DUP3 PUSH1 0x40 MLOAD PUSH32 0xB774C28400000000000000000000000000000000000000000000000000000000 DUP2 MSTORE PUSH1 0x4 ADD PUSH2 0xC9A SWAP2 SWAP1 PUSH2 0x2932 JUMP JUMPDEST PUSH1 0x40 MLOAD DUP1 SWAP2 SUB SWAP1 REVERT JUMPDEST DUP1 DUP5 DUP5 DUP2 MLOAD DUP2 LT PUSH2 0xCB7 JUMPI PUSH2 0xCB6 PUSH2 0x3920 JUMP JUMPDEST JUMPDEST PUSH1 0x20 MUL PUSH1 0x20 ADD ADD DUP2 SWAP1 MSTORE POP DUP3 PUSH1 0x1 ADD SWAP3 POP POP POP PUSH2 0xBB7 JUMP JUMPDEST POP SWAP3 SWAP2 POP POP JUMP JUMPDEST PUSH0 PUSH1 0x4 PUSH0 DUP4 PUSH20 0xFFFFFFFFFFFFFFFFFFFFFFFFFFFFFFFFFFFFFFFF AND PUSH20 0xFFFFFFFFFFFFFFFFFFFFFFFFFFFFFFFFFFFFFFFF AND DUP2 MSTORE PUSH1 0x20 ADD SWAP1 DUP2 MSTORE PUSH1 0x20 ADD PUSH0 KECCAK256 SLOAD SWAP1 POP SWAP2 SWAP1 POP JUMP JUMPDEST PUSH2 0xD24 PUSH2 0x1A0C JUMP JUMPDEST PUSH2 0xD2D PUSH0 PUSH2 0x1A85 JUMP JUMPDEST JUMP JUMPDEST PUSH2 0xD37 PUSH2 0x1A0C JUMP JUMPDEST PUSH2 0xD43 DUP5 DUP5 DUP5 DUP5 PUSH2 0x1B7B JUMP JUMPDEST POP POP POP POP JUMP JUMPDEST DUP4 PUSH20 0xFFFFFFFFFFFFFFFFFFFFFFFFFFFFFFFFFFFFFFFF AND DUP6 PUSH20 0xFFFFFFFFFFFFFFFFFFFFFFFFFFFFFFFFFFFFFFFF AND SUB PUSH2 0xDAE JUMPI PUSH1 0x40 MLOAD PUSH32 0xB9AFB00000000000000000000000000000000000000000000000000000000000 DUP2 MSTORE PUSH1 0x4 ADD PUSH1 0x40 MLOAD DUP1 SWAP2 SUB SWAP1 REVERT JUMPDEST DUP5 PUSH20 0xFFFFFFFFFFFFFFFFFFFFFFFFFFFFFFFFFFFFFFFF AND CALLER PUSH20 0xFFFFFFFFFFFFFFFFFFFFFFFFFFFFFFFFFFFFFFFF AND EQ PUSH2 0xDED JUMPI PUSH2 0xDEC CALLER DUP7 DUP6 PUSH2 0x164A JUMP JUMPDEST JUMPDEST PUSH2 0xDFA DUP6 DUP6 DUP6 DUP6 DUP6 PUSH2 0x1D20 JUMP JUMPDEST POP POP POP POP POP JUMP JUMPDEST PUSH0 PUSH2 0xE0C DUP5 CALLER PUSH2 0xA65 JUMP JUMPDEST SWAP1 POP DUP3 DUP2 LT ISZERO PUSH2 0xE48 JUMPI PUSH1 0x40 MLOAD PUSH32 0xEF76C3500000000000000000000000000000000000000000000000000000000 DUP2 MSTORE PUSH1 0x4 ADD PUSH1 0x40 MLOAD DUP1 SWAP2 SUB SWAP1 REVERT JUMPDEST PUSH0 DUP4 DUP3 SUB SWAP1 POP PUSH2 0xE5C CALLER DUP7 DUP4 PUSH1 0x1 DUP8 PUSH2 0x1350 JUMP JUMPDEST PUSH0 CALLER DUP3 DUP6 PUSH1 0x40 MLOAD PUSH1 0x20 ADD PUSH2 0xE72 SWAP4 SWAP3 SWAP2 SWAP1 PUSH2 0x38E4 JUMP JUMPDEST PUSH1 0x40 MLOAD PUSH1 0x20 DUP2 DUP4 SUB SUB DUP2 MSTORE SWAP1 PUSH1 0x40 MSTORE SWAP1 POP PUSH2 0xE8D DUP7 DUP3 PUSH2 0x1619 JUMP JUMPDEST POP POP POP POP POP POP JUMP JUMPDEST PUSH2 0xE9D PUSH2 0x1A0C JUMP JUMPDEST PUSH0 CALLVALUE EQ PUSH2 0xED6 JUMPI PUSH1 0x40 MLOAD PUSH32 0xF36BA73700000000000000000000000000000000000000000000000000000000 DUP2 MSTORE PUSH1 0x4 ADD PUSH1 0x40 MLOAD DUP1 SWAP2 SUB SWAP1 REVERT JUMPDEST PUSH2 0xEE0 DUP3 DUP3 PUSH2 0x1FCD JUMP JUMPDEST POP POP JUMP JUMPDEST PUSH0 DUP1 PUSH0 SWAP1 SLOAD SWAP1 PUSH2 0x100 EXP SWAP1 DIV PUSH20 0xFFFFFFFFFFFFFFFFFFFFFFFFFFFFFFFFFFFFFFFF AND SWAP1 POP SWAP1 JUMP JUMPDEST PUSH2 0xF13 PUSH2 0x1A0C JUMP JUMPDEST PUSH0 CALLVALUE EQ PUSH2 0xF4C JUMPI PUSH1 0x40 MLOAD PUSH32 0xF36BA73700000000000000000000000000000000000000000000000000000000 DUP2 MSTORE PUSH1 0x4 ADD PUSH1 0x40 MLOAD DUP1 SWAP2 SUB SWAP1 REVERT JUMPDEST DUP1 MLOAD DUP3 MLOAD EQ PUSH2 0xF87 JUMPI PUSH1 0x40 MLOAD PUSH32 0x3BCC897900000000000000000000000000000000000000000000000000000000 DUP2 MSTORE PUSH1 0x4 ADD PUSH1 0x40 MLOAD DUP1 SWAP2 SUB SWAP1 REVERT JUMPDEST PUSH0 DUP3 MLOAD SUB PUSH2 0xFC1 JUMPI PUSH1 0x40 MLOAD PUSH32 0x97DA5F9500000000000000000000000000000000000000000000000000000000 DUP2 MSTORE PUSH1 0x4 ADD PUSH1 0x40 MLOAD DUP1 SWAP2 SUB SWAP1 REVERT JUMPDEST PUSH0 JUMPDEST DUP3 MLOAD DUP2 LT ISZERO PUSH2 0x1015 JUMPI PUSH2 0x100A DUP4 DUP3 DUP2 MLOAD DUP2 LT PUSH2 0xFE2 JUMPI PUSH2 0xFE1 PUSH2 0x3920 JUMP JUMPDEST JUMPDEST PUSH1 0x20 MUL PUSH1 0x20 ADD ADD MLOAD DUP4 DUP4 DUP2 MLOAD DUP2 LT PUSH2 0xFFD JUMPI PUSH2 0xFFC PUSH2 0x3920 JUMP JUMPDEST JUMPDEST PUSH1 0x20 MUL PUSH1 0x20 ADD ADD MLOAD PUSH2 0x1FCD JUMP JUMPDEST DUP1 PUSH1 0x1 ADD SWAP1 POP PUSH2 0xFC3 JUMP JUMPDEST POP POP POP JUMP JUMPDEST PUSH2 0x1028 CALLER DUP5 DUP5 PUSH1 0x1 DUP6 PUSH2 0x1350 JUMP JUMPDEST PUSH0 CALLER DUP4 DUP4 PUSH1 0x40 MLOAD PUSH1 0x20 ADD PUSH2 0x103E SWAP4 SWAP3 SWAP2 SWAP1 PUSH2 0x38E4 JUMP JUMPDEST PUSH1 0x40 MLOAD PUSH1 0x20 DUP2 DUP4 SUB SUB DUP2 MSTORE SWAP1 PUSH1 0x40 MSTORE SWAP1 POP PUSH2 0x1059 DUP5 DUP3 PUSH2 0x1619 JUMP JUMPDEST POP POP POP POP JUMP JUMPDEST PUSH1 0x60 PUSH2 0x10A6 PUSH1 0x5 PUSH0 DUP5 PUSH20 0xFFFFFFFFFFFFFFFFFFFFFFFFFFFFFFFFFFFFFFFF AND PUSH20 0xFFFFFFFFFFFFFFFFFFFFFFFFFFFFFFFFFFFFFFFF AND DUP2 MSTORE PUSH1 0x20 ADD SWAP1 DUP2 MSTORE PUSH1 0x20 ADD PUSH0 KECCAK256 PUSH2 0x1FDB JUMP JUMPDEST SWAP1 POP SWAP2 SWAP1 POP JUMP JUMPDEST PUSH1 0x60 DUP2 MLOAD PUSH8 0xFFFFFFFFFFFFFFFF DUP2 GT ISZERO PUSH2 0x10CA JUMPI PUSH2 0x10C9 PUSH2 0x29D7 JUMP JUMPDEST JUMPDEST PUSH1 0x40 MLOAD SWAP1 DUP1 DUP3 MSTORE DUP1 PUSH1 0x20 MUL PUSH1 0x20 ADD DUP3 ADD PUSH1 0x40 MSTORE DUP1 ISZERO PUSH2 0x10FD JUMPI DUP2 PUSH1 0x20 ADD JUMPDEST PUSH1 0x60 DUP2 MSTORE PUSH1 0x20 ADD SWAP1 PUSH1 0x1 SWAP1 SUB SWAP1 DUP2 PUSH2 0x10E8 JUMPI SWAP1 POP JUMPDEST POP SWAP1 POP PUSH0 JUMPDEST DUP3 MLOAD DUP2 LT ISZERO PUSH2 0x1157 JUMPI PUSH2 0x112E DUP4 DUP3 DUP2 MLOAD DUP2 LT PUSH2 0x1121 JUMPI PUSH2 0x1120 PUSH2 0x3920 JUMP JUMPDEST JUMPDEST PUSH1 0x20 MUL PUSH1 0x20 ADD ADD MLOAD PUSH2 0x196B JUMP JUMPDEST DUP3 DUP3 DUP2 MLOAD DUP2 LT PUSH2 0x1141 JUMPI PUSH2 0x1140 PUSH2 0x3920 JUMP JUMPDEST JUMPDEST PUSH1 0x20 MUL PUSH1 0x20 ADD ADD DUP2 SWAP1 MSTORE POP DUP1 PUSH1 0x1 ADD SWAP1 POP PUSH2 0x1102 JUMP JUMPDEST POP SWAP2 SWAP1 POP JUMP JUMPDEST PUSH2 0x1165 PUSH2 0x1A0C JUMP JUMPDEST PUSH0 PUSH20 0xFFFFFFFFFFFFFFFFFFFFFFFFFFFFFFFFFFFFFFFF AND DUP2 PUSH20 0xFFFFFFFFFFFFFFFFFFFFFFFFFFFFFFFFFFFFFFFF AND SUB PUSH2 0x11CA JUMPI PUSH1 0x40 MLOAD PUSH32 0x1AD8836C00000000000000000000000000000000000000000000000000000000 DUP2 MSTORE PUSH1 0x4 ADD PUSH1 0x40 MLOAD DUP1 SWAP2 SUB SWAP1 REVERT JUMPDEST PUSH2 0x11D3 DUP2 PUSH2 0x1A85 JUMP JUMPDEST POP JUMP JUMPDEST PUSH0 DUP1 PUSH0 PUSH2 0x120F PUSH10 0xCEE78B4094DA86011096 PUSH1 0xB0 SHL DUP6 PUSH28 0xFFFFFFFFFFFFFFFFFFFFFFFFFFFFFFFFFFFFFFFFFFFFFFFFFFFFFFFF NOT AND PUSH2 0x1FFA JUMP JUMPDEST SWAP1 POP PUSH0 PUSH2 0x121B DUP3 PUSH2 0x196B JUMP JUMPDEST SWAP1 POP PUSH1 0x14 DUP2 MLOAD EQ ISZERO DUP1 ISZERO PUSH2 0x1230 JUMPI POP PUSH0 DUP2 MLOAD EQ ISZERO JUMPDEST ISZERO PUSH2 0x1272 JUMPI DUP1 PUSH1 0x40 MLOAD PUSH32 0x42BFE79F00000000000000000000000000000000000000000000000000000000 DUP2 MSTORE PUSH1 0x4 ADD PUSH2 0x1269 SWAP2 SWAP1 PUSH2 0x3110 JUMP JUMPDEST PUSH1 0x40 MLOAD DUP1 SWAP2 SUB SWAP1 REVERT JUMPDEST DUP1 PUSH2 0x127C SWAP1 PUSH2 0x3AAB JUMP JUMPDEST PUSH1 0x60 SHR PUSH1 0x1 SWAP4 POP SWAP4 POP POP POP SWAP2 POP SWAP2 JUMP JUMPDEST PUSH0 PUSH4 0xA918FA6B PUSH1 0xE0 SHL PUSH28 0xFFFFFFFFFFFFFFFFFFFFFFFFFFFFFFFFFFFFFFFFFFFFFFFFFFFFFFFF NOT AND DUP3 PUSH28 0xFFFFFFFFFFFFFFFFFFFFFFFFFFFFFFFFFFFFFFFFFFFFFFFFFFFFFFFF NOT AND EQ DUP1 PUSH2 0x12E5 JUMPI POP PUSH2 0x12E4 DUP3 PUSH2 0x2038 JUMP JUMPDEST JUMPDEST SWAP1 POP SWAP2 SWAP1 POP JUMP JUMPDEST PUSH0 DUP1 PUSH2 0x12FE PUSH4 0x1FFC9A7 PUSH1 0xE0 SHL PUSH2 0x11D6 JUMP JUMPDEST POP SWAP1 POP PUSH0 PUSH20 0xFFFFFFFFFFFFFFFFFFFFFFFFFFFFFFFFFFFFFFFF AND DUP2 PUSH20 0xFFFFFFFFFFFFFFFFFFFFFFFFFFFFFFFFFFFFFFFF AND SUB PUSH2 0x133D JUMPI PUSH0 SWAP2 POP POP PUSH2 0x134B JUMP JUMPDEST PUSH2 0x1347 DUP2 DUP5 PUSH2 0x2101 JUMP JUMPDEST SWAP2 POP POP JUMPDEST SWAP2 SWAP1 POP JUMP JUMPDEST PUSH0 PUSH20 0xFFFFFFFFFFFFFFFFFFFFFFFFFFFFFFFFFFFFFFFF AND DUP5 PUSH20 0xFFFFFFFFFFFFFFFFFFFFFFFFFFFFFFFFFFFFFFFF AND SUB PUSH2 0x13B5 JUMPI PUSH1 0x40 MLOAD PUSH32 0x6355E76600000000000000000000000000000000000000000000000000000000 DUP2 MSTORE PUSH1 0x4 ADD PUSH1 0x40 MLOAD DUP1 SWAP2 SUB SWAP1 REVERT JUMPDEST DUP5 PUSH20 0xFFFFFFFFFFFFFFFFFFFFFFFFFFFFFFFFFFFFFFFF AND DUP5 PUSH20 0xFFFFFFFFFFFFFFFFFFFFFFFFFFFFFFFFFFFFFFFF AND SUB PUSH2 0x141A JUMPI PUSH1 0x40 MLOAD PUSH32 0xDAB7504700000000000000000000000000000000000000000000000000000000 DUP2 MSTORE PUSH1 0x4 ADD PUSH1 0x40 MLOAD DUP1 SWAP2 SUB SWAP1 REVERT JUMPDEST DUP3 PUSH1 0x6 PUSH0 DUP8 PUSH20 0xFFFFFFFFFFFFFFFFFFFFFFFFFFFFFFFFFFFFFFFF AND PUSH20 0xFFFFFFFFFFFFFFFFFFFFFFFFFFFFFFFFFFFFFFFF AND DUP2 MSTORE PUSH1 0x20 ADD SWAP1 DUP2 MSTORE PUSH1 0x20 ADD PUSH0 KECCAK256 PUSH0 DUP7 PUSH20 0xFFFFFFFFFFFFFFFFFFFFFFFFFFFFFFFFFFFFFFFF AND PUSH20 0xFFFFFFFFFFFFFFFFFFFFFFFFFFFFFFFFFFFFFFFF AND DUP2 MSTORE PUSH1 0x20 ADD SWAP1 DUP2 MSTORE PUSH1 0x20 ADD PUSH0 KECCAK256 DUP2 SWAP1 SSTORE POP PUSH0 DUP4 EQ PUSH2 0x1559 JUMPI PUSH2 0x14ED DUP5 PUSH1 0x5 PUSH0 DUP9 PUSH20 0xFFFFFFFFFFFFFFFFFFFFFFFFFFFFFFFFFFFFFFFF AND PUSH20 0xFFFFFFFFFFFFFFFFFFFFFFFFFFFFFFFFFFFFFFFF AND DUP2 MSTORE PUSH1 0x20 ADD SWAP1 DUP2 MSTORE PUSH1 0x20 ADD PUSH0 KECCAK256 PUSH2 0x219A SWAP1 SWAP2 SWAP1 PUSH4 0xFFFFFFFF AND JUMP JUMPDEST POP DUP3 DUP6 PUSH20 0xFFFFFFFFFFFFFFFFFFFFFFFFFFFFFFFFFFFFFFFF AND DUP6 PUSH20 0xFFFFFFFFFFFFFFFFFFFFFFFFFFFFFFFFFFFFFFFF AND PUSH32 0xF772A43BFDF4729B196E3FB54A818B91A2CA6C49D10B2E16278752F9F515C25D DUP5 PUSH1 0x40 MLOAD PUSH2 0x154C SWAP2 SWAP1 PUSH2 0x3110 JUMP JUMPDEST PUSH1 0x40 MLOAD DUP1 SWAP2 SUB SWAP1 LOG4 PUSH2 0x1612 JUMP JUMPDEST PUSH2 0x15A8 DUP5 PUSH1 0x5 PUSH0 DUP9 PUSH20 0xFFFFFFFFFFFFFFFFFFFFFFFFFFFFFFFFFFFFFFFF AND PUSH20 0xFFFFFFFFFFFFFFFFFFFFFFFFFFFFFFFFFFFFFFFF AND DUP2 MSTORE PUSH1 0x20 ADD SWAP1 DUP2 MSTORE PUSH1 0x20 ADD PUSH0 KECCAK256 PUSH2 0x21C7 SWAP1 SWAP2 SWAP1 PUSH4 0xFFFFFFFF AND JUMP JUMPDEST POP DUP2 ISZERO ISZERO DUP6 PUSH20 0xFFFFFFFFFFFFFFFFFFFFFFFFFFFFFFFFFFFFFFFF AND DUP6 PUSH20 0xFFFFFFFFFFFFFFFFFFFFFFFFFFFFFFFFFFFFFFFF AND PUSH32 0xEBF5762D8855CBE012D2CA42FB33A81175E17C8A8751F8859931BA453BD4167 DUP5 PUSH1 0x40 MLOAD PUSH2 0x1609 SWAP2 SWAP1 PUSH2 0x3110 JUMP JUMPDEST PUSH1 0x40 MLOAD DUP1 SWAP2 SUB SWAP1 LOG4 JUMPDEST POP POP POP POP POP JUMP JUMPDEST PUSH2 0x1646 DUP3 PUSH32 0x386072CC5A58E61263B434C722725F21031CD06E7C552CFAA06DB5DE8A320DBC PUSH0 SHL DUP4 PUSH2 0x21F4 JUMP JUMPDEST POP POP JUMP JUMPDEST PUSH0 PUSH1 0x6 PUSH0 DUP5 PUSH20 0xFFFFFFFFFFFFFFFFFFFFFFFFFFFFFFFFFFFFFFFF AND PUSH20 0xFFFFFFFFFFFFFFFFFFFFFFFFFFFFFFFFFFFFFFFF AND DUP2 MSTORE PUSH1 0x20 ADD SWAP1 DUP2 MSTORE PUSH1 0x20 ADD PUSH0 KECCAK256 PUSH0 DUP6 PUSH20 0xFFFFFFFFFFFFFFFFFFFFFFFFFFFFFFFFFFFFFFFF AND PUSH20 0xFFFFFFFFFFFFFFFFFFFFFFFFFFFFFFFFFFFFFFFF AND DUP2 MSTORE PUSH1 0x20 ADD SWAP1 DUP2 MSTORE PUSH1 0x20 ADD PUSH0 KECCAK256 SLOAD SWAP1 POP DUP1 DUP3 GT ISZERO PUSH2 0x1711 JUMPI DUP3 DUP2 DUP6 DUP5 PUSH1 0x40 MLOAD PUSH32 0xF3A6B69100000000000000000000000000000000000000000000000000000000 DUP2 MSTORE PUSH1 0x4 ADD PUSH2 0x1708 SWAP5 SWAP4 SWAP3 SWAP2 SWAP1 PUSH2 0x3B11 JUMP JUMPDEST PUSH1 0x40 MLOAD DUP1 SWAP2 SUB SWAP1 REVERT JUMPDEST PUSH2 0x1737 DUP4 DUP6 DUP5 DUP5 PUSH2 0x1722 SWAP2 SWAP1 PUSH2 0x3B54 JUMP JUMPDEST PUSH0 PUSH1 0x40 MLOAD DUP1 PUSH1 0x20 ADD PUSH1 0x40 MSTORE DUP1 PUSH0 DUP2 MSTORE POP PUSH2 0x1350 JUMP JUMPDEST POP POP POP POP JUMP JUMPDEST PUSH0 PUSH20 0xFFFFFFFFFFFFFFFFFFFFFFFFFFFFFFFFFFFFFFFF AND DUP4 PUSH20 0xFFFFFFFFFFFFFFFFFFFFFFFFFFFFFFFFFFFFFFFF AND SUB PUSH2 0x17A2 JUMPI PUSH1 0x40 MLOAD PUSH32 0xD2D5EC3000000000000000000000000000000000000000000000000000000000 DUP2 MSTORE PUSH1 0x4 ADD PUSH1 0x40 MLOAD DUP1 SWAP2 SUB SWAP1 REVERT JUMPDEST PUSH0 PUSH1 0x4 PUSH0 DUP6 PUSH20 0xFFFFFFFFFFFFFFFFFFFFFFFFFFFFFFFFFFFFFFFF AND PUSH20 0xFFFFFFFFFFFFFFFFFFFFFFFFFFFFFFFFFFFFFFFF AND DUP2 MSTORE PUSH1 0x20 ADD SWAP1 DUP2 MSTORE PUSH1 0x20 ADD PUSH0 KECCAK256 SLOAD SWAP1 POP DUP1 DUP4 GT ISZERO PUSH2 0x182C JUMPI DUP1 DUP5 DUP5 PUSH1 0x40 MLOAD PUSH32 0x8D4794900000000000000000000000000000000000000000000000000000000 DUP2 MSTORE PUSH1 0x4 ADD PUSH2 0x1823 SWAP4 SWAP3 SWAP2 SWAP1 PUSH2 0x3B87 JUMP JUMPDEST PUSH1 0x40 MLOAD DUP1 SWAP2 SUB SWAP1 REVERT JUMPDEST PUSH2 0x1838 DUP5 PUSH0 DUP6 DUP6 PUSH2 0x22AE JUMP JUMPDEST DUP3 PUSH1 0x3 PUSH0 DUP3 DUP3 SLOAD PUSH2 0x1849 SWAP2 SWAP1 PUSH2 0x3B54 JUMP JUMPDEST SWAP3 POP POP DUP2 SWAP1 SSTORE POP DUP3 PUSH1 0x4 PUSH0 DUP7 PUSH20 0xFFFFFFFFFFFFFFFFFFFFFFFFFFFFFFFFFFFFFFFF AND PUSH20 0xFFFFFFFFFFFFFFFFFFFFFFFFFFFFFFFFFFFFFFFF AND DUP2 MSTORE PUSH1 0x20 ADD SWAP1 DUP2 MSTORE PUSH1 0x20 ADD PUSH0 KECCAK256 PUSH0 DUP3 DUP3 SLOAD PUSH2 0x189C SWAP2 SWAP1 PUSH2 0x3B54 JUMP JUMPDEST SWAP3 POP POP DUP2 SWAP1 SSTORE POP PUSH0 PUSH20 0xFFFFFFFFFFFFFFFFFFFFFFFFFFFFFFFFFFFFFFFF AND DUP5 PUSH20 0xFFFFFFFFFFFFFFFFFFFFFFFFFFFFFFFFFFFFFFFF AND CALLER PUSH20 0xFFFFFFFFFFFFFFFFFFFFFFFFFFFFFFFFFFFFFFFF AND PUSH32 0x3997E418D2CEF0B3B0E907B1E39605C3F7D32DBD061E82EA5B4A770D46A160A6 DUP7 PUSH0 DUP8 PUSH1 0x40 MLOAD PUSH2 0x191B SWAP4 SWAP3 SWAP2 SWAP1 PUSH2 0x3BBC JUMP JUMPDEST PUSH1 0x40 MLOAD DUP1 SWAP2 SUB SWAP1 LOG4 PUSH2 0x192F DUP5 PUSH0 DUP6 DUP6 PUSH2 0x22B4 JUMP JUMPDEST PUSH0 CALLER DUP6 PUSH0 DUP7 DUP7 PUSH1 0x40 MLOAD PUSH1 0x20 ADD PUSH2 0x1949 SWAP6 SWAP5 SWAP4 SWAP3 SWAP2 SWAP1 PUSH2 0x3BF8 JUMP JUMPDEST PUSH1 0x40 MLOAD PUSH1 0x20 DUP2 DUP4 SUB SUB DUP2 MSTORE SWAP1 PUSH1 0x40 MSTORE SWAP1 POP PUSH2 0x1964 DUP6 DUP3 PUSH2 0x22BA JUMP JUMPDEST POP POP POP POP POP JUMP JUMPDEST PUSH1 0x60 PUSH1 0x1 PUSH0 DUP4 DUP2 MSTORE PUSH1 0x20 ADD SWAP1 DUP2 MSTORE PUSH1 0x20 ADD PUSH0 KECCAK256 DUP1 SLOAD PUSH2 0x1989 SWAP1 PUSH2 0x3C7D JUMP JUMPDEST DUP1 PUSH1 0x1F ADD PUSH1 0x20 DUP1 SWAP2 DIV MUL PUSH1 0x20 ADD PUSH1 0x40 MLOAD SWAP1 DUP2 ADD PUSH1 0x40 MSTORE DUP1 SWAP3 SWAP2 SWAP1 DUP2 DUP2 MSTORE PUSH1 0x20 ADD DUP3 DUP1 SLOAD PUSH2 0x19B5 SWAP1 PUSH2 0x3C7D JUMP JUMPDEST DUP1 ISZERO PUSH2 0x1A00 JUMPI DUP1 PUSH1 0x1F LT PUSH2 0x19D7 JUMPI PUSH2 0x100 DUP1 DUP4 SLOAD DIV MUL DUP4 MSTORE SWAP2 PUSH1 0x20 ADD SWAP2 PUSH2 0x1A00 JUMP JUMPDEST DUP3 ADD SWAP2 SWAP1 PUSH0 MSTORE PUSH1 0x20 PUSH0 KECCAK256 SWAP1 JUMPDEST DUP2 SLOAD DUP2 MSTORE SWAP1 PUSH1 0x1 ADD SWAP1 PUSH1 0x20 ADD DUP1 DUP4 GT PUSH2 0x19E3 JUMPI DUP3 SWAP1 SUB PUSH1 0x1F AND DUP3 ADD SWAP2 JUMPDEST POP POP POP POP POP SWAP1 POP SWAP2 SWAP1 POP JUMP JUMPDEST CALLER PUSH20 0xFFFFFFFFFFFFFFFFFFFFFFFFFFFFFFFFFFFFFFFF AND PUSH2 0x1A2B PUSH2 0xEE4 JUMP JUMPDEST PUSH20 0xFFFFFFFFFFFFFFFFFFFFFFFFFFFFFFFFFFFFFFFF AND EQ PUSH2 0x1A83 JUMPI CALLER PUSH1 0x40 MLOAD PUSH32 0xBF1169C500000000000000000000000000000000000000000000000000000000 DUP2 MSTORE PUSH1 0x4 ADD PUSH2 0x1A7A SWAP2 SWAP1 PUSH2 0x34DC JUMP JUMPDEST PUSH1 0x40 MLOAD DUP1 SWAP2 SUB SWAP1 REVERT JUMPDEST JUMP JUMPDEST PUSH2 0x1A8D PUSH2 0xEE4 JUMP JUMPDEST PUSH20 0xFFFFFFFFFFFFFFFFFFFFFFFFFFFFFFFFFFFFFFFF AND DUP2 PUSH20 0xFFFFFFFFFFFFFFFFFFFFFFFFFFFFFFFFFFFFFFFF AND EQ PUSH2 0x1B78 JUMPI DUP1 PUSH20 0xFFFFFFFFFFFFFFFFFFFFFFFFFFFFFFFFFFFFFFFF AND PUSH0 DUP1 SLOAD SWAP1 PUSH2 0x100 EXP SWAP1 DIV PUSH20 0xFFFFFFFFFFFFFFFFFFFFFFFFFFFFFFFFFFFFFFFF AND PUSH20 0xFFFFFFFFFFFFFFFFFFFFFFFFFFFFFFFFFFFFFFFF AND PUSH32 0x8BE0079C531659141344CD1FD0A4F28419497F9722A3DAAFE3B4186F6B6457E0 PUSH1 0x40 MLOAD PUSH1 0x40 MLOAD DUP1 SWAP2 SUB SWAP1 LOG3 DUP1 PUSH0 DUP1 PUSH2 0x100 EXP DUP2 SLOAD DUP2 PUSH20 0xFFFFFFFFFFFFFFFFFFFFFFFFFFFFFFFFFFFFFFFF MUL NOT AND SWAP1 DUP4 PUSH20 0xFFFFFFFFFFFFFFFFFFFFFFFFFFFFFFFFFFFFFFFF AND MUL OR SWAP1 SSTORE POP JUMPDEST POP JUMP JUMPDEST PUSH0 PUSH20 0xFFFFFFFFFFFFFFFFFFFFFFFFFFFFFFFFFFFFFFFF AND DUP5 PUSH20 0xFFFFFFFFFFFFFFFFFFFFFFFFFFFFFFFFFFFFFFFF AND SUB PUSH2 0x1BE0 JUMPI PUSH1 0x40 MLOAD PUSH32 0xD2D5EC3000000000000000000000000000000000000000000000000000000000 DUP2 MSTORE PUSH1 0x4 ADD PUSH1 0x40 MLOAD DUP1 SWAP2 SUB SWAP1 REVERT JUMPDEST PUSH2 0x1BEC PUSH0 DUP6 DUP6 DUP5 PUSH2 0x22AE JUMP JUMPDEST DUP3 PUSH1 0x3 PUSH0 DUP3 DUP3 SLOAD PUSH2 0x1BFD SWAP2 SWAP1 PUSH2 0x38B1 JUMP JUMPDEST SWAP3 POP POP DUP2 SWAP1 SSTORE POP DUP3 PUSH1 0x4 PUSH0 DUP7 PUSH20 0xFFFFFFFFFFFFFFFFFFFFFFFFFFFFFFFFFFFFFFFF AND PUSH20 0xFFFFFFFFFFFFFFFFFFFFFFFFFFFFFFFFFFFFFFFF AND DUP2 MSTORE PUSH1 0x20 ADD SWAP1 DUP2 MSTORE PUSH1 0x20 ADD PUSH0 KECCAK256 PUSH0 DUP3 DUP3 SLOAD PUSH2 0x1C50 SWAP2 SWAP1 PUSH2 0x38B1 JUMP JUMPDEST SWAP3 POP POP DUP2 SWAP1 SSTORE POP DUP4 PUSH20 0xFFFFFFFFFFFFFFFFFFFFFFFFFFFFFFFFFFFFFFFF AND PUSH0 PUSH20 0xFFFFFFFFFFFFFFFFFFFFFFFFFFFFFFFFFFFFFFFF AND CALLER PUSH20 0xFFFFFFFFFFFFFFFFFFFFFFFFFFFFFFFFFFFFFFFF AND PUSH32 0x3997E418D2CEF0B3B0E907B1E39605C3F7D32DBD061E82EA5B4A770D46A160A6 DUP7 DUP7 DUP7 PUSH1 0x40 MLOAD PUSH2 0x1CCF SWAP4 SWAP3 SWAP2 SWAP1 PUSH2 0x3BBC JUMP JUMPDEST PUSH1 0x40 MLOAD DUP1 SWAP2 SUB SWAP1 LOG4 PUSH2 0x1CE3 PUSH0 DUP6 DUP6 DUP5 PUSH2 0x22B4 JUMP JUMPDEST PUSH0 CALLER PUSH0 DUP7 DUP7 DUP6 PUSH1 0x40 MLOAD PUSH1 0x20 ADD PUSH2 0x1CFD SWAP6 SWAP5 SWAP4 SWAP3 SWAP2 SWAP1 PUSH2 0x3BF8 JUMP JUMPDEST PUSH1 0x40 MLOAD PUSH1 0x20 DUP2 DUP4 SUB SUB DUP2 MSTORE SWAP1 PUSH1 0x40 MSTORE SWAP1 POP PUSH2 0x1D19 DUP6 DUP5 DUP4 PUSH2 0x22EB JUMP JUMPDEST POP POP POP POP POP JUMP JUMPDEST PUSH0 PUSH20 0xFFFFFFFFFFFFFFFFFFFFFFFFFFFFFFFFFFFFFFFF AND DUP6 PUSH20 0xFFFFFFFFFFFFFFFFFFFFFFFFFFFFFFFFFFFFFFFF AND EQ DUP1 PUSH2 0x1D85 JUMPI POP PUSH0 PUSH20 0xFFFFFFFFFFFFFFFFFFFFFFFFFFFFFFFFFFFFFFFF AND DUP5 PUSH20 0xFFFFFFFFFFFFFFFFFFFFFFFFFFFFFFFFFFFFFFFF AND EQ JUMPDEST ISZERO PUSH2 0x1DBC JUMPI PUSH1 0x40 MLOAD PUSH32 0xD2D5EC3000000000000000000000000000000000000000000000000000000000 DUP2 MSTORE PUSH1 0x4 ADD PUSH1 0x40 MLOAD DUP1 SWAP2 SUB SWAP1 REVERT JUMPDEST PUSH0 PUSH1 0x4 PUSH0 DUP8 PUSH20 0xFFFFFFFFFFFFFFFFFFFFFFFFFFFFFFFFFFFFFFFF AND PUSH20 0xFFFFFFFFFFFFFFFFFFFFFFFFFFFFFFFFFFFFFFFF AND DUP2 MSTORE PUSH1 0x20 ADD SWAP1 DUP2 MSTORE PUSH1 0x20 ADD PUSH0 KECCAK256 SLOAD SWAP1 POP DUP1 DUP5 GT ISZERO PUSH2 0x1E46 JUMPI DUP1 DUP7 DUP6 PUSH1 0x40 MLOAD PUSH32 0x8D4794900000000000000000000000000000000000000000000000000000000 DUP2 MSTORE PUSH1 0x4 ADD PUSH2 0x1E3D SWAP4 SWAP3 SWAP2 SWAP1 PUSH2 0x3B87 JUMP JUMPDEST PUSH1 0x40 MLOAD DUP1 SWAP2 SUB SWAP1 REVERT JUMPDEST PUSH2 0x1E52 DUP7 DUP7 DUP7 DUP6 PUSH2 0x22AE JUMP JUMPDEST DUP4 PUSH1 0x4 PUSH0 DUP9 PUSH20 0xFFFFFFFFFFFFFFFFFFFFFFFFFFFFFFFFFFFFFFFF AND PUSH20 0xFFFFFFFFFFFFFFFFFFFFFFFFFFFFFFFFFFFFFFFF AND DUP2 MSTORE PUSH1 0x20 ADD SWAP1 DUP2 MSTORE PUSH1 0x20 ADD PUSH0 KECCAK256 PUSH0 DUP3 DUP3 SLOAD PUSH2 0x1E9E SWAP2 SWAP1 PUSH2 0x3B54 JUMP JUMPDEST SWAP3 POP POP DUP2 SWAP1 SSTORE POP DUP4 PUSH1 0x4 PUSH0 DUP8 PUSH20 0xFFFFFFFFFFFFFFFFFFFFFFFFFFFFFFFFFFFFFFFF AND PUSH20 0xFFFFFFFFFFFFFFFFFFFFFFFFFFFFFFFFFFFFFFFF AND DUP2 MSTORE PUSH1 0x20 ADD SWAP1 DUP2 MSTORE PUSH1 0x20 ADD PUSH0 KECCAK256 PUSH0 DUP3 DUP3 SLOAD PUSH2 0x1EF1 SWAP2 SWAP1 PUSH2 0x38B1 JUMP JUMPDEST SWAP3 POP POP DUP2 SWAP1 SSTORE POP DUP5 PUSH20 0xFFFFFFFFFFFFFFFFFFFFFFFFFFFFFFFFFFFFFFFF AND DUP7 PUSH20 0xFFFFFFFFFFFFFFFFFFFFFFFFFFFFFFFFFFFFFFFF AND CALLER PUSH20 0xFFFFFFFFFFFFFFFFFFFFFFFFFFFFFFFFFFFFFFFF AND PUSH32 0x3997E418D2CEF0B3B0E907B1E39605C3F7D32DBD061E82EA5B4A770D46A160A6 DUP8 DUP8 DUP8 PUSH1 0x40 MLOAD PUSH2 0x1F70 SWAP4 SWAP3 SWAP2 SWAP1 PUSH2 0x3BBC JUMP JUMPDEST PUSH1 0x40 MLOAD DUP1 SWAP2 SUB SWAP1 LOG4 PUSH2 0x1F84 DUP7 DUP7 DUP7 DUP6 PUSH2 0x22B4 JUMP JUMPDEST PUSH0 CALLER DUP8 DUP8 DUP8 DUP7 PUSH1 0x40 MLOAD PUSH1 0x20 ADD PUSH2 0x1F9E SWAP6 SWAP5 SWAP4 SWAP3 SWAP2 SWAP1 PUSH2 0x3BF8 JUMP JUMPDEST PUSH1 0x40 MLOAD PUSH1 0x20 DUP2 DUP4 SUB SUB DUP2 MSTORE SWAP1 PUSH1 0x40 MSTORE SWAP1 POP PUSH2 0x1FB9 DUP8 DUP3 PUSH2 0x22BA JUMP JUMPDEST PUSH2 0x1FC4 DUP7 DUP6 DUP4 PUSH2 0x22EB JUMP JUMPDEST POP POP POP POP POP POP POP JUMP JUMPDEST PUSH2 0x1FD7 DUP3 DUP3 PUSH2 0x244A JUMP JUMPDEST POP POP JUMP JUMPDEST PUSH1 0x60 PUSH0 PUSH2 0x1FE9 DUP4 PUSH0 ADD PUSH2 0x25B6 JUMP JUMPDEST SWAP1 POP PUSH1 0x60 DUP2 SWAP1 POP DUP1 SWAP3 POP POP POP SWAP2 SWAP1 POP JUMP JUMPDEST PUSH0 DUP1 DUP4 PUSH0 PUSH1 0xF0 SHL DUP5 PUSH1 0x40 MLOAD PUSH1 0x20 ADD PUSH2 0x2014 SWAP4 SWAP3 SWAP2 SWAP1 PUSH2 0x3D63 JUMP JUMPDEST PUSH1 0x40 MLOAD PUSH1 0x20 DUP2 DUP4 SUB SUB DUP2 MSTORE SWAP1 PUSH1 0x40 MSTORE SWAP1 POP DUP1 PUSH2 0x202F SWAP1 PUSH2 0x3DB3 JUMP JUMPDEST SWAP2 POP POP SWAP3 SWAP2 POP POP JUMP JUMPDEST PUSH0 PUSH4 0x629AA694 PUSH1 0xE0 SHL PUSH28 0xFFFFFFFFFFFFFFFFFFFFFFFFFFFFFFFFFFFFFFFFFFFFFFFFFFFFFFFF NOT AND DUP3 PUSH28 0xFFFFFFFFFFFFFFFFFFFFFFFFFFFFFFFFFFFFFFFFFFFFFFFFFFFFFFFF NOT AND EQ DUP1 PUSH2 0x2091 JUMPI POP PUSH2 0x2090 DUP3 PUSH2 0x2098 JUMP JUMPDEST JUMPDEST SWAP1 POP SWAP2 SWAP1 POP JUMP JUMPDEST PUSH0 PUSH32 0x1FFC9A700000000000000000000000000000000000000000000000000000000 PUSH28 0xFFFFFFFFFFFFFFFFFFFFFFFFFFFFFFFFFFFFFFFFFFFFFFFFFFFFFFFF NOT AND DUP3 PUSH28 0xFFFFFFFFFFFFFFFFFFFFFFFFFFFFFFFFFFFFFFFFFFFFFFFFFFFFFFFF NOT AND EQ SWAP1 POP SWAP2 SWAP1 POP JUMP JUMPDEST PUSH0 DUP1 DUP3 PUSH1 0x40 MLOAD PUSH1 0x24 ADD PUSH2 0x2114 SWAP2 SWAP1 PUSH2 0x3758 JUMP JUMPDEST PUSH1 0x40 MLOAD PUSH1 0x20 DUP2 DUP4 SUB SUB DUP2 MSTORE SWAP1 PUSH1 0x40 MSTORE PUSH4 0x1FFC9A7 PUSH1 0xE0 SHL PUSH1 0x20 DUP3 ADD DUP1 MLOAD PUSH28 0xFFFFFFFFFFFFFFFFFFFFFFFFFFFFFFFFFFFFFFFFFFFFFFFFFFFFFFFF DUP4 DUP2 DUP4 AND OR DUP4 MSTORE POP POP POP POP SWAP1 POP PUSH0 DUP1 PUSH0 PUSH1 0x20 PUSH0 DUP6 MLOAD PUSH1 0x20 DUP8 ADD DUP11 PUSH2 0x7530 STATICCALL SWAP3 POP RETURNDATASIZE SWAP2 POP PUSH0 MLOAD SWAP1 POP DUP3 DUP1 ISZERO PUSH2 0x2183 JUMPI POP PUSH1 0x20 DUP3 LT ISZERO JUMPDEST DUP1 ISZERO PUSH2 0x218E JUMPI POP PUSH0 DUP2 GT JUMPDEST SWAP5 POP POP POP POP POP SWAP3 SWAP2 POP POP JUMP JUMPDEST PUSH0 PUSH2 0x21BF DUP4 PUSH0 ADD DUP4 PUSH20 0xFFFFFFFFFFFFFFFFFFFFFFFFFFFFFFFFFFFFFFFF AND PUSH0 SHL PUSH2 0x260F JUMP JUMPDEST SWAP1 POP SWAP3 SWAP2 POP POP JUMP JUMPDEST PUSH0 PUSH2 0x21EC DUP4 PUSH0 ADD DUP4 PUSH20 0xFFFFFFFFFFFFFFFFFFFFFFFFFFFFFFFFFFFFFFFF AND PUSH0 SHL PUSH2 0x2676 JUMP JUMPDEST SWAP1 POP SWAP3 SWAP2 POP POP JUMP JUMPDEST PUSH2 0x2224 PUSH4 0x6BB56A14 PUSH1 0xE0 SHL DUP5 PUSH20 0xFFFFFFFFFFFFFFFFFFFFFFFFFFFFFFFFFFFFFFFF AND PUSH2 0x2101 SWAP1 SWAP2 SWAP1 PUSH4 0xFFFFFFFF AND JUMP JUMPDEST ISZERO PUSH2 0x22A9 JUMPI DUP3 PUSH20 0xFFFFFFFFFFFFFFFFFFFFFFFFFFFFFFFFFFFFFFFF AND PUSH4 0x6BB56A14 DUP4 DUP4 PUSH1 0x40 MLOAD DUP4 PUSH4 0xFFFFFFFF AND PUSH1 0xE0 SHL DUP2 MSTORE PUSH1 0x4 ADD PUSH2 0x2264 SWAP3 SWAP2 SWAP1 PUSH2 0x3E28 JUMP JUMPDEST PUSH0 PUSH1 0x40 MLOAD DUP1 DUP4 SUB DUP2 PUSH0 DUP8 GAS CALL ISZERO DUP1 ISZERO PUSH2 0x227F JUMPI RETURNDATASIZE PUSH0 DUP1 RETURNDATACOPY RETURNDATASIZE PUSH0 REVERT JUMPDEST POP POP POP POP PUSH1 0x40 MLOAD RETURNDATASIZE PUSH0 DUP3 RETURNDATACOPY RETURNDATASIZE PUSH1 0x1F NOT PUSH1 0x1F DUP3 ADD AND DUP3 ADD DUP1 PUSH1 0x40 MSTORE POP DUP2 ADD SWAP1 PUSH2 0x22A7 SWAP2 SWAP1 PUSH2 0x3EC4 JUMP JUMPDEST POP JUMPDEST POP POP POP JUMP JUMPDEST POP POP POP POP JUMP JUMPDEST POP POP POP POP JUMP JUMPDEST PUSH2 0x22E7 DUP3 PUSH32 0x429AC7A06903DBC9C13DFCB3C9D11DF8194581FA047C96D7A4171FC7402958EA PUSH0 SHL DUP4 PUSH2 0x21F4 JUMP JUMPDEST POP POP JUMP JUMPDEST PUSH2 0x22FC DUP4 PUSH4 0x6BB56A14 PUSH1 0xE0 SHL PUSH2 0x2101 JUMP JUMPDEST ISZERO PUSH2 0x23A7 JUMPI DUP3 PUSH20 0xFFFFFFFFFFFFFFFFFFFFFFFFFFFFFFFFFFFFFFFF AND PUSH4 0x6BB56A14 PUSH32 0x20804611B3E2EA21C480DC465142210ACF4A2485947541770EC1FB87DEE4A55C PUSH0 SHL DUP4 PUSH1 0x40 MLOAD DUP4 PUSH4 0xFFFFFFFF AND PUSH1 0xE0 SHL DUP2 MSTORE PUSH1 0x4 ADD PUSH2 0x235E SWAP3 SWAP2 SWAP1 PUSH2 0x3E28 JUMP JUMPDEST PUSH0 PUSH1 0x40 MLOAD DUP1 DUP4 SUB DUP2 PUSH0 DUP8 GAS CALL ISZERO DUP1 ISZERO PUSH2 0x2379 JUMPI RETURNDATASIZE PUSH0 DUP1 RETURNDATACOPY RETURNDATASIZE PUSH0 REVERT JUMPDEST POP POP POP POP PUSH1 0x40 MLOAD RETURNDATASIZE PUSH0 DUP3 RETURNDATACOPY RETURNDATASIZE PUSH1 0x1F NOT PUSH1 0x1F DUP3 ADD AND DUP3 ADD DUP1 PUSH1 0x40 MSTORE POP DUP2 ADD SWAP1 PUSH2 0x23A1 SWAP2 SWAP1 PUSH2 0x3EC4 JUMP JUMPDEST POP PUSH2 0x2445 JUMP JUMPDEST DUP2 PUSH2 0x2444 JUMPI PUSH0 DUP4 PUSH20 0xFFFFFFFFFFFFFFFFFFFFFFFFFFFFFFFFFFFFFFFF AND EXTCODESIZE EQ PUSH2 0x2407 JUMPI DUP3 PUSH1 0x40 MLOAD PUSH32 0xA608FBB600000000000000000000000000000000000000000000000000000000 DUP2 MSTORE PUSH1 0x4 ADD PUSH2 0x23FE SWAP2 SWAP1 PUSH2 0x34DC JUMP JUMPDEST PUSH1 0x40 MLOAD DUP1 SWAP2 SUB SWAP1 REVERT JUMPDEST DUP3 PUSH1 0x40 MLOAD PUSH32 0x26C247F400000000000000000000000000000000000000000000000000000000 DUP2 MSTORE PUSH1 0x4 ADD PUSH2 0x243B SWAP2 SWAP1 PUSH2 0x34DC JUMP JUMPDEST PUSH1 0x40 MLOAD DUP1 SWAP2 SUB SWAP1 REVERT JUMPDEST JUMPDEST POP POP POP JUMP JUMPDEST PUSH32 0xDEBA1E292F8BA88238E10AB3C7F88BD4BE4FAC56CAD5194B6ECCEAF653468AF1 PUSH0 SHL DUP3 SUB PUSH2 0x24A5 JUMPI PUSH1 0x40 MLOAD PUSH32 0x85C169BD00000000000000000000000000000000000000000000000000000000 DUP2 MSTORE PUSH1 0x4 ADD PUSH1 0x40 MLOAD DUP1 SWAP2 SUB SWAP1 REVERT JUMPDEST PUSH32 0x2F0A68AB07768E01943A599E73362A0E17A63A72E94DD2E384D2C1D4DB932756 PUSH0 SHL DUP3 SUB PUSH2 0x2500 JUMPI PUSH1 0x40 MLOAD PUSH32 0x76755B3800000000000000000000000000000000000000000000000000000000 DUP2 MSTORE PUSH1 0x4 ADD PUSH1 0x40 MLOAD DUP1 SWAP2 SUB SWAP1 REVERT JUMPDEST PUSH32 0xE0261FA95DB2EB3B5439BD033CDA66D56B96F92F243A8228FD87550ED7BDFDB3 PUSH0 SHL DUP3 SUB PUSH2 0x255B JUMPI PUSH1 0x40 MLOAD PUSH32 0x4EF6D7FB00000000000000000000000000000000000000000000000000000000 DUP2 MSTORE PUSH1 0x4 ADD PUSH1 0x40 MLOAD DUP1 SWAP2 SUB SWAP1 REVERT JUMPDEST DUP1 PUSH1 0x1 PUSH0 DUP5 DUP2 MSTORE PUSH1 0x20 ADD SWAP1 DUP2 MSTORE PUSH1 0x20 ADD PUSH0 KECCAK256 SWAP1 DUP2 PUSH2 0x2579 SWAP2 SWAP1 PUSH2 0x4093 JUMP JUMPDEST POP DUP2 PUSH32 0xECE574603820D07BC9B91F2A932BAADF4628AABCB8AFBA49776529C14A6104B2 DUP3 PUSH1 0x40 MLOAD PUSH2 0x25AA SWAP2 SWAP1 PUSH2 0x3110 JUMP JUMPDEST PUSH1 0x40 MLOAD DUP1 SWAP2 SUB SWAP1 LOG2 POP POP JUMP JUMPDEST PUSH1 0x60 DUP2 PUSH0 ADD DUP1 SLOAD DUP1 PUSH1 0x20 MUL PUSH1 0x20 ADD PUSH1 0x40 MLOAD SWAP1 DUP2 ADD PUSH1 0x40 MSTORE DUP1 SWAP3 SWAP2 SWAP1 DUP2 DUP2 MSTORE PUSH1 0x20 ADD DUP3 DUP1 SLOAD DUP1 ISZERO PUSH2 0x2603 JUMPI PUSH1 0x20 MUL DUP3 ADD SWAP2 SWAP1 PUSH0 MSTORE PUSH1 0x20 PUSH0 KECCAK256 SWAP1 JUMPDEST DUP2 SLOAD DUP2 MSTORE PUSH1 0x20 ADD SWAP1 PUSH1 0x1 ADD SWAP1 DUP1 DUP4 GT PUSH2 0x25EF JUMPI JUMPDEST POP POP POP POP POP SWAP1 POP SWAP2 SWAP1 POP JUMP JUMPDEST PUSH0 PUSH2 0x261A DUP4 DUP4 PUSH2 0x2772 JUMP JUMPDEST PUSH2 0x266C JUMPI DUP3 PUSH0 ADD DUP3 SWAP1 DUP1 PUSH1 0x1 DUP2 SLOAD ADD DUP1 DUP3 SSTORE DUP1 SWAP2 POP POP PUSH1 0x1 SWAP1 SUB SWAP1 PUSH0 MSTORE PUSH1 0x20 PUSH0 KECCAK256 ADD PUSH0 SWAP1 SWAP2 SWAP1 SWAP2 SWAP1 SWAP2 POP SSTORE DUP3 PUSH0 ADD DUP1 SLOAD SWAP1 POP DUP4 PUSH1 0x1 ADD PUSH0 DUP5 DUP2 MSTORE PUSH1 0x20 ADD SWAP1 DUP2 MSTORE PUSH1 0x20 ADD PUSH0 KECCAK256 DUP2 SWAP1 SSTORE POP PUSH1 0x1 SWAP1 POP PUSH2 0x2670 JUMP JUMPDEST PUSH0 SWAP1 POP JUMPDEST SWAP3 SWAP2 POP POP JUMP JUMPDEST PUSH0 DUP1 DUP4 PUSH1 0x1 ADD PUSH0 DUP5 DUP2 MSTORE PUSH1 0x20 ADD SWAP1 DUP2 MSTORE PUSH1 0x20 ADD PUSH0 KECCAK256 SLOAD SWAP1 POP PUSH0 DUP2 EQ PUSH2 0x2767 JUMPI PUSH0 PUSH1 0x1 DUP3 PUSH2 0x26A3 SWAP2 SWAP1 PUSH2 0x3B54 JUMP JUMPDEST SWAP1 POP PUSH0 PUSH1 0x1 DUP7 PUSH0 ADD DUP1 SLOAD SWAP1 POP PUSH2 0x26B9 SWAP2 SWAP1 PUSH2 0x3B54 JUMP JUMPDEST SWAP1 POP DUP1 DUP3 EQ PUSH2 0x271F JUMPI PUSH0 DUP7 PUSH0 ADD DUP3 DUP2 SLOAD DUP2 LT PUSH2 0x26D8 JUMPI PUSH2 0x26D7 PUSH2 0x3920 JUMP JUMPDEST JUMPDEST SWAP1 PUSH0 MSTORE PUSH1 0x20 PUSH0 KECCAK256 ADD SLOAD SWAP1 POP DUP1 DUP8 PUSH0 ADD DUP5 DUP2 SLOAD DUP2 LT PUSH2 0x26F9 JUMPI PUSH2 0x26F8 PUSH2 0x3920 JUMP JUMPDEST JUMPDEST SWAP1 PUSH0 MSTORE PUSH1 0x20 PUSH0 KECCAK256 ADD DUP2 SWAP1 SSTORE POP DUP4 DUP8 PUSH1 0x1 ADD PUSH0 DUP4 DUP2 MSTORE PUSH1 0x20 ADD SWAP1 DUP2 MSTORE PUSH1 0x20 ADD PUSH0 KECCAK256 DUP2 SWAP1 SSTORE POP POP JUMPDEST DUP6 PUSH0 ADD DUP1 SLOAD DUP1 PUSH2 0x2732 JUMPI PUSH2 0x2731 PUSH2 0x4162 JUMP JUMPDEST JUMPDEST PUSH1 0x1 SWAP1 SUB DUP2 DUP2 SWAP1 PUSH0 MSTORE PUSH1 0x20 PUSH0 KECCAK256 ADD PUSH0 SWAP1 SSTORE SWAP1 SSTORE DUP6 PUSH1 0x1 ADD PUSH0 DUP7 DUP2 MSTORE PUSH1 0x20 ADD SWAP1 DUP2 MSTORE PUSH1 0x20 ADD PUSH0 KECCAK256 PUSH0 SWAP1 SSTORE PUSH1 0x1 SWAP4 POP POP POP POP PUSH2 0x276C JUMP JUMPDEST PUSH0 SWAP2 POP POP JUMPDEST SWAP3 SWAP2 POP POP JUMP JUMPDEST PUSH0 DUP1 DUP4 PUSH1 0x1 ADD PUSH0 DUP5 DUP2 MSTORE PUSH1 0x20 ADD SWAP1 DUP2 MSTORE PUSH1 0x20 ADD PUSH0 KECCAK256 SLOAD EQ ISZERO SWAP1 POP SWAP3 SWAP2 POP POP JUMP JUMPDEST PUSH0 DUP3 DUP3 MSTORE PUSH1 0x20 DUP3 ADD SWAP1 POP SWAP3 SWAP2 POP POP JUMP JUMPDEST PUSH0 DUP1 DUP3 ADD MSTORE POP JUMP JUMPDEST PUSH0 PUSH2 0x27B6 PUSH1 0x4 DUP4 PUSH2 0x2792 JUMP JUMPDEST SWAP2 POP PUSH2 0x27C1 DUP3 PUSH2 0x27A2 JUMP JUMPDEST PUSH1 0x20 DUP3 ADD SWAP1 POP SWAP2 SWAP1 POP JUMP JUMPDEST PUSH0 PUSH1 0x20 DUP3 ADD SWAP1 POP DUP2 DUP2 SUB PUSH0 DUP4 ADD MSTORE PUSH2 0x27E3 DUP2 PUSH2 0x27AA JUMP JUMPDEST SWAP1 POP SWAP2 SWAP1 POP JUMP JUMPDEST DUP3 DUP2 DUP4 CALLDATACOPY PUSH0 DUP4 DUP4 ADD MSTORE POP POP POP JUMP JUMPDEST PUSH0 PUSH1 0x1F NOT PUSH1 0x1F DUP4 ADD AND SWAP1 POP SWAP2 SWAP1 POP JUMP JUMPDEST PUSH0 PUSH2 0x2813 DUP4 DUP6 PUSH2 0x2792 JUMP JUMPDEST SWAP4 POP PUSH2 0x2820 DUP4 DUP6 DUP5 PUSH2 0x27EA JUMP JUMPDEST PUSH2 0x2829 DUP4 PUSH2 0x27F8 JUMP JUMPDEST DUP5 ADD SWAP1 POP SWAP4 SWAP3 POP POP POP JUMP JUMPDEST PUSH0 PUSH1 0x20 DUP3 ADD SWAP1 POP DUP2 DUP2 SUB PUSH0 DUP4 ADD MSTORE PUSH2 0x284D DUP2 DUP5 DUP7 PUSH2 0x2808 JUMP JUMPDEST SWAP1 POP SWAP4 SWAP3 POP POP POP JUMP JUMPDEST PUSH0 PUSH1 0x40 MLOAD SWAP1 POP SWAP1 JUMP JUMPDEST PUSH0 DUP1 REVERT JUMPDEST PUSH0 DUP1 REVERT JUMPDEST PUSH0 PUSH32 0xFFFFFFFF00000000000000000000000000000000000000000000000000000000 DUP3 AND SWAP1 POP SWAP2 SWAP1 POP JUMP JUMPDEST PUSH2 0x289B DUP2 PUSH2 0x2867 JUMP JUMPDEST DUP2 EQ PUSH2 0x28A5 JUMPI PUSH0 DUP1 REVERT JUMPDEST POP JUMP JUMPDEST PUSH0 DUP2 CALLDATALOAD SWAP1 POP PUSH2 0x28B6 DUP2 PUSH2 0x2892 JUMP JUMPDEST SWAP3 SWAP2 POP POP JUMP JUMPDEST PUSH0 PUSH1 0x20 DUP3 DUP5 SUB SLT ISZERO PUSH2 0x28D1 JUMPI PUSH2 0x28D0 PUSH2 0x285F JUMP JUMPDEST JUMPDEST PUSH0 PUSH2 0x28DE DUP5 DUP3 DUP6 ADD PUSH2 0x28A8 JUMP JUMPDEST SWAP2 POP POP SWAP3 SWAP2 POP POP JUMP JUMPDEST PUSH0 DUP2 ISZERO ISZERO SWAP1 POP SWAP2 SWAP1 POP JUMP JUMPDEST PUSH2 0x28FB DUP2 PUSH2 0x28E7 JUMP JUMPDEST DUP3 MSTORE POP POP JUMP JUMPDEST PUSH0 PUSH1 0x20 DUP3 ADD SWAP1 POP PUSH2 0x2914 PUSH0 DUP4 ADD DUP5 PUSH2 0x28F2 JUMP JUMPDEST SWAP3 SWAP2 POP POP JUMP JUMPDEST PUSH0 DUP2 SWAP1 POP SWAP2 SWAP1 POP JUMP JUMPDEST PUSH2 0x292C DUP2 PUSH2 0x291A JUMP JUMPDEST DUP3 MSTORE POP POP JUMP JUMPDEST PUSH0 PUSH1 0x20 DUP3 ADD SWAP1 POP PUSH2 0x2945 PUSH0 DUP4 ADD DUP5 PUSH2 0x2923 JUMP JUMPDEST SWAP3 SWAP2 POP POP JUMP JUMPDEST PUSH0 PUSH20 0xFFFFFFFFFFFFFFFFFFFFFFFFFFFFFFFFFFFFFFFF DUP3 AND SWAP1 POP SWAP2 SWAP1 POP JUMP JUMPDEST PUSH0 PUSH2 0x2974 DUP3 PUSH2 0x294B JUMP JUMPDEST SWAP1 POP SWAP2 SWAP1 POP JUMP JUMPDEST PUSH2 0x2984 DUP2 PUSH2 0x296A JUMP JUMPDEST DUP2 EQ PUSH2 0x298E JUMPI PUSH0 DUP1 REVERT JUMPDEST POP JUMP JUMPDEST PUSH0 DUP2 CALLDATALOAD SWAP1 POP PUSH2 0x299F DUP2 PUSH2 0x297B JUMP JUMPDEST SWAP3 SWAP2 POP POP JUMP JUMPDEST PUSH2 0x29AE DUP2 PUSH2 0x291A JUMP JUMPDEST DUP2 EQ PUSH2 0x29B8 JUMPI PUSH0 DUP1 REVERT JUMPDEST POP JUMP JUMPDEST PUSH0 DUP2 CALLDATALOAD SWAP1 POP PUSH2 0x29C9 DUP2 PUSH2 0x29A5 JUMP JUMPDEST SWAP3 SWAP2 POP POP JUMP JUMPDEST PUSH0 DUP1 REVERT JUMPDEST PUSH0 DUP1 REVERT JUMPDEST PUSH32 0x4E487B7100000000000000000000000000000000000000000000000000000000 PUSH0 MSTORE PUSH1 0x41 PUSH1 0x4 MSTORE PUSH1 0x24 PUSH0 REVERT JUMPDEST PUSH2 0x2A0D DUP3 PUSH2 0x27F8 JUMP JUMPDEST DUP2 ADD DUP2 DUP2 LT PUSH8 0xFFFFFFFFFFFFFFFF DUP3 GT OR ISZERO PUSH2 0x2A2C JUMPI PUSH2 0x2A2B PUSH2 0x29D7 JUMP JUMPDEST JUMPDEST DUP1 PUSH1 0x40 MSTORE POP POP POP JUMP JUMPDEST PUSH0 PUSH2 0x2A3E PUSH2 0x2856 JUMP JUMPDEST SWAP1 POP PUSH2 0x2A4A DUP3 DUP3 PUSH2 0x2A04 JUMP JUMPDEST SWAP2 SWAP1 POP JUMP JUMPDEST PUSH0 PUSH8 0xFFFFFFFFFFFFFFFF DUP3 GT ISZERO PUSH2 0x2A69 JUMPI PUSH2 0x2A68 PUSH2 0x29D7 JUMP JUMPDEST JUMPDEST PUSH2 0x2A72 DUP3 PUSH2 0x27F8 JUMP JUMPDEST SWAP1 POP PUSH1 0x20 DUP2 ADD SWAP1 POP SWAP2 SWAP1 POP JUMP JUMPDEST PUSH0 PUSH2 0x2A91 PUSH2 0x2A8C DUP5 PUSH2 0x2A4F JUMP JUMPDEST PUSH2 0x2A35 JUMP JUMPDEST SWAP1 POP DUP3 DUP2 MSTORE PUSH1 0x20 DUP2 ADD DUP5 DUP5 DUP5 ADD GT ISZERO PUSH2 0x2AAD JUMPI PUSH2 0x2AAC PUSH2 0x29D3 JUMP JUMPDEST JUMPDEST PUSH2 0x2AB8 DUP5 DUP3 DUP6 PUSH2 0x27EA JUMP JUMPDEST POP SWAP4 SWAP3 POP POP POP JUMP JUMPDEST PUSH0 DUP3 PUSH1 0x1F DUP4 ADD SLT PUSH2 0x2AD4 JUMPI PUSH2 0x2AD3 PUSH2 0x29CF JUMP JUMPDEST JUMPDEST DUP2 CALLDATALOAD PUSH2 0x2AE4 DUP5 DUP3 PUSH1 0x20 DUP7 ADD PUSH2 0x2A7F JUMP JUMPDEST SWAP2 POP POP SWAP3 SWAP2 POP POP JUMP JUMPDEST PUSH0 DUP1 PUSH0 PUSH1 0x60 DUP5 DUP7 SUB SLT ISZERO PUSH2 0x2B04 JUMPI PUSH2 0x2B03 PUSH2 0x285F JUMP JUMPDEST JUMPDEST PUSH0 PUSH2 0x2B11 DUP7 DUP3 DUP8 ADD PUSH2 0x2991 JUMP JUMPDEST SWAP4 POP POP PUSH1 0x20 PUSH2 0x2B22 DUP7 DUP3 DUP8 ADD PUSH2 0x29BB JUMP JUMPDEST SWAP3 POP POP PUSH1 0x40 DUP5 ADD CALLDATALOAD PUSH8 0xFFFFFFFFFFFFFFFF DUP2 GT ISZERO PUSH2 0x2B43 JUMPI PUSH2 0x2B42 PUSH2 0x2863 JUMP JUMPDEST JUMPDEST PUSH2 0x2B4F DUP7 DUP3 DUP8 ADD PUSH2 0x2AC0 JUMP JUMPDEST SWAP2 POP POP SWAP3 POP SWAP3 POP SWAP3 JUMP JUMPDEST PUSH0 PUSH8 0xFFFFFFFFFFFFFFFF DUP3 GT ISZERO PUSH2 0x2B73 JUMPI PUSH2 0x2B72 PUSH2 0x29D7 JUMP JUMPDEST JUMPDEST PUSH1 0x20 DUP3 MUL SWAP1 POP PUSH1 0x20 DUP2 ADD SWAP1 POP SWAP2 SWAP1 POP JUMP JUMPDEST PUSH0 DUP1 REVERT JUMPDEST PUSH0 PUSH2 0x2B9A PUSH2 0x2B95 DUP5 PUSH2 0x2B59 JUMP JUMPDEST PUSH2 0x2A35 JUMP JUMPDEST SWAP1 POP DUP1 DUP4 DUP3 MSTORE PUSH1 0x20 DUP3 ADD SWAP1 POP PUSH1 0x20 DUP5 MUL DUP4 ADD DUP6 DUP2 GT ISZERO PUSH2 0x2BBD JUMPI PUSH2 0x2BBC PUSH2 0x2B84 JUMP JUMPDEST JUMPDEST DUP4 JUMPDEST DUP2 DUP2 LT ISZERO PUSH2 0x2BE6 JUMPI DUP1 PUSH2 0x2BD2 DUP9 DUP3 PUSH2 0x2991 JUMP JUMPDEST DUP5 MSTORE PUSH1 0x20 DUP5 ADD SWAP4 POP POP PUSH1 0x20 DUP2 ADD SWAP1 POP PUSH2 0x2BBF JUMP JUMPDEST POP POP POP SWAP4 SWAP3 POP POP POP JUMP JUMPDEST PUSH0 DUP3 PUSH1 0x1F DUP4 ADD SLT PUSH2 0x2C04 JUMPI PUSH2 0x2C03 PUSH2 0x29CF JUMP JUMPDEST JUMPDEST DUP2 CALLDATALOAD PUSH2 0x2C14 DUP5 DUP3 PUSH1 0x20 DUP7 ADD PUSH2 0x2B88 JUMP JUMPDEST SWAP2 POP POP SWAP3 SWAP2 POP POP JUMP JUMPDEST PUSH0 PUSH8 0xFFFFFFFFFFFFFFFF DUP3 GT ISZERO PUSH2 0x2C37 JUMPI PUSH2 0x2C36 PUSH2 0x29D7 JUMP JUMPDEST JUMPDEST PUSH1 0x20 DUP3 MUL SWAP1 POP PUSH1 0x20 DUP2 ADD SWAP1 POP SWAP2 SWAP1 POP JUMP JUMPDEST PUSH0 PUSH2 0x2C5A PUSH2 0x2C55 DUP5 PUSH2 0x2C1D JUMP JUMPDEST PUSH2 0x2A35 JUMP JUMPDEST SWAP1 POP DUP1 DUP4 DUP3 MSTORE PUSH1 0x20 DUP3 ADD SWAP1 POP PUSH1 0x20 DUP5 MUL DUP4 ADD DUP6 DUP2 GT ISZERO PUSH2 0x2C7D JUMPI PUSH2 0x2C7C PUSH2 0x2B84 JUMP JUMPDEST JUMPDEST DUP4 JUMPDEST DUP2 DUP2 LT ISZERO PUSH2 0x2CA6 JUMPI DUP1 PUSH2 0x2C92 DUP9 DUP3 PUSH2 0x29BB JUMP JUMPDEST DUP5 MSTORE PUSH1 0x20 DUP5 ADD SWAP4 POP POP PUSH1 0x20 DUP2 ADD SWAP1 POP PUSH2 0x2C7F JUMP JUMPDEST POP POP POP SWAP4 SWAP3 POP POP POP JUMP JUMPDEST PUSH0 DUP3 PUSH1 0x1F DUP4 ADD SLT PUSH2 0x2CC4 JUMPI PUSH2 0x2CC3 PUSH2 0x29CF JUMP JUMPDEST JUMPDEST DUP2 CALLDATALOAD PUSH2 0x2CD4 DUP5 DUP3 PUSH1 0x20 DUP7 ADD PUSH2 0x2C48 JUMP JUMPDEST SWAP2 POP POP SWAP3 SWAP2 POP POP JUMP JUMPDEST PUSH0 PUSH8 0xFFFFFFFFFFFFFFFF DUP3 GT ISZERO PUSH2 0x2CF7 JUMPI PUSH2 0x2CF6 PUSH2 0x29D7 JUMP JUMPDEST JUMPDEST PUSH1 0x20 DUP3 MUL SWAP1 POP PUSH1 0x20 DUP2 ADD SWAP1 POP SWAP2 SWAP1 POP JUMP JUMPDEST PUSH2 0x2D11 DUP2 PUSH2 0x28E7 JUMP JUMPDEST DUP2 EQ PUSH2 0x2D1B JUMPI PUSH0 DUP1 REVERT JUMPDEST POP JUMP JUMPDEST PUSH0 DUP2 CALLDATALOAD SWAP1 POP PUSH2 0x2D2C DUP2 PUSH2 0x2D08 JUMP JUMPDEST SWAP3 SWAP2 POP POP JUMP JUMPDEST PUSH0 PUSH2 0x2D44 PUSH2 0x2D3F DUP5 PUSH2 0x2CDD JUMP JUMPDEST PUSH2 0x2A35 JUMP JUMPDEST SWAP1 POP DUP1 DUP4 DUP3 MSTORE PUSH1 0x20 DUP3 ADD SWAP1 POP PUSH1 0x20 DUP5 MUL DUP4 ADD DUP6 DUP2 GT ISZERO PUSH2 0x2D67 JUMPI PUSH2 0x2D66 PUSH2 0x2B84 JUMP JUMPDEST JUMPDEST DUP4 JUMPDEST DUP2 DUP2 LT ISZERO PUSH2 0x2D90 JUMPI DUP1 PUSH2 0x2D7C DUP9 DUP3 PUSH2 0x2D1E JUMP JUMPDEST DUP5 MSTORE PUSH1 0x20 DUP5 ADD SWAP4 POP POP PUSH1 0x20 DUP2 ADD SWAP1 POP PUSH2 0x2D69 JUMP JUMPDEST POP POP POP SWAP4 SWAP3 POP POP POP JUMP JUMPDEST PUSH0 DUP3 PUSH1 0x1F DUP4 ADD SLT PUSH2 0x2DAE JUMPI PUSH2 0x2DAD PUSH2 0x29CF JUMP JUMPDEST JUMPDEST DUP2 CALLDATALOAD PUSH2 0x2DBE DUP5 DUP3 PUSH1 0x20 DUP7 ADD PUSH2 0x2D32 JUMP JUMPDEST SWAP2 POP POP SWAP3 SWAP2 POP POP JUMP JUMPDEST PUSH0 PUSH8 0xFFFFFFFFFFFFFFFF DUP3 GT ISZERO PUSH2 0x2DE1 JUMPI PUSH2 0x2DE0 PUSH2 0x29D7 JUMP JUMPDEST JUMPDEST PUSH1 0x20 DUP3 MUL SWAP1 POP PUSH1 0x20 DUP2 ADD SWAP1 POP SWAP2 SWAP1 POP JUMP JUMPDEST PUSH0 PUSH2 0x2E04 PUSH2 0x2DFF DUP5 PUSH2 0x2DC7 JUMP JUMPDEST PUSH2 0x2A35 JUMP JUMPDEST SWAP1 POP DUP1 DUP4 DUP3 MSTORE PUSH1 0x20 DUP3 ADD SWAP1 POP PUSH1 0x20 DUP5 MUL DUP4 ADD DUP6 DUP2 GT ISZERO PUSH2 0x2E27 JUMPI PUSH2 0x2E26 PUSH2 0x2B84 JUMP JUMPDEST JUMPDEST DUP4 JUMPDEST DUP2 DUP2 LT ISZERO PUSH2 0x2E6E JUMPI DUP1 CALLDATALOAD PUSH8 0xFFFFFFFFFFFFFFFF DUP2 GT ISZERO PUSH2 0x2E4C JUMPI PUSH2 0x2E4B PUSH2 0x29CF JUMP JUMPDEST JUMPDEST DUP1 DUP7 ADD PUSH2 0x2E59 DUP10 DUP3 PUSH2 0x2AC0 JUMP JUMPDEST DUP6 MSTORE PUSH1 0x20 DUP6 ADD SWAP5 POP POP POP PUSH1 0x20 DUP2 ADD SWAP1 POP PUSH2 0x2E29 JUMP JUMPDEST POP POP POP SWAP4 SWAP3 POP POP POP JUMP JUMPDEST PUSH0 DUP3 PUSH1 0x1F DUP4 ADD SLT PUSH2 0x2E8C JUMPI PUSH2 0x2E8B PUSH2 0x29CF JUMP JUMPDEST JUMPDEST DUP2 CALLDATALOAD PUSH2 0x2E9C DUP5 DUP3 PUSH1 0x20 DUP7 ADD PUSH2 0x2DF2 JUMP JUMPDEST SWAP2 POP POP SWAP3 SWAP2 POP POP JUMP JUMPDEST PUSH0 DUP1 PUSH0 DUP1 PUSH0 PUSH1 0xA0 DUP7 DUP9 SUB SLT ISZERO PUSH2 0x2EBE JUMPI PUSH2 0x2EBD PUSH2 0x285F JUMP JUMPDEST JUMPDEST PUSH0 DUP7 ADD CALLDATALOAD PUSH8 0xFFFFFFFFFFFFFFFF DUP2 GT ISZERO PUSH2 0x2EDB JUMPI PUSH2 0x2EDA PUSH2 0x2863 JUMP JUMPDEST JUMPDEST PUSH2 0x2EE7 DUP9 DUP3 DUP10 ADD PUSH2 0x2BF0 JUMP JUMPDEST SWAP6 POP POP PUSH1 0x20 DUP7 ADD CALLDATALOAD PUSH8 0xFFFFFFFFFFFFFFFF DUP2 GT ISZERO PUSH2 0x2F08 JUMPI PUSH2 0x2F07 PUSH2 0x2863 JUMP JUMPDEST JUMPDEST PUSH2 0x2F14 DUP9 DUP3 DUP10 ADD PUSH2 0x2BF0 JUMP JUMPDEST SWAP5 POP POP PUSH1 0x40 DUP7 ADD CALLDATALOAD PUSH8 0xFFFFFFFFFFFFFFFF DUP2 GT ISZERO PUSH2 0x2F35 JUMPI PUSH2 0x2F34 PUSH2 0x2863 JUMP JUMPDEST JUMPDEST PUSH2 0x2F41 DUP9 DUP3 DUP10 ADD PUSH2 0x2CB0 JUMP JUMPDEST SWAP4 POP POP PUSH1 0x60 DUP7 ADD CALLDATALOAD PUSH8 0xFFFFFFFFFFFFFFFF DUP2 GT ISZERO PUSH2 0x2F62 JUMPI PUSH2 0x2F61 PUSH2 0x2863 JUMP JUMPDEST JUMPDEST PUSH2 0x2F6E DUP9 DUP3 DUP10 ADD PUSH2 0x2D9A JUMP JUMPDEST SWAP3 POP POP PUSH1 0x80 DUP7 ADD CALLDATALOAD PUSH8 0xFFFFFFFFFFFFFFFF DUP2 GT ISZERO PUSH2 0x2F8F JUMPI PUSH2 0x2F8E PUSH2 0x2863 JUMP JUMPDEST JUMPDEST PUSH2 0x2F9B DUP9 DUP3 DUP10 ADD PUSH2 0x2E78 JUMP JUMPDEST SWAP2 POP POP SWAP3 SWAP6 POP SWAP3 SWAP6 SWAP1 SWAP4 POP JUMP JUMPDEST PUSH0 PUSH1 0xFF DUP3 AND SWAP1 POP SWAP2 SWAP1 POP JUMP JUMPDEST PUSH2 0x2FBD DUP2 PUSH2 0x2FA8 JUMP JUMPDEST DUP3 MSTORE POP POP JUMP JUMPDEST PUSH0 PUSH1 0x20 DUP3 ADD SWAP1 POP PUSH2 0x2FD6 PUSH0 DUP4 ADD DUP5 PUSH2 0x2FB4 JUMP JUMPDEST SWAP3 SWAP2 POP POP JUMP JUMPDEST PUSH0 DUP1 PUSH0 PUSH1 0x60 DUP5 DUP7 SUB SLT ISZERO PUSH2 0x2FF3 JUMPI PUSH2 0x2FF2 PUSH2 0x285F JUMP JUMPDEST JUMPDEST PUSH0 PUSH2 0x3000 DUP7 DUP3 DUP8 ADD PUSH2 0x2991 JUMP JUMPDEST SWAP4 POP POP PUSH1 0x20 PUSH2 0x3011 DUP7 DUP3 DUP8 ADD PUSH2 0x2D1E JUMP JUMPDEST SWAP3 POP POP PUSH1 0x40 DUP5 ADD CALLDATALOAD PUSH8 0xFFFFFFFFFFFFFFFF DUP2 GT ISZERO PUSH2 0x3032 JUMPI PUSH2 0x3031 PUSH2 0x2863 JUMP JUMPDEST JUMPDEST PUSH2 0x303E DUP7 DUP3 DUP8 ADD PUSH2 0x2AC0 JUMP JUMPDEST SWAP2 POP POP SWAP3 POP SWAP3 POP SWAP3 JUMP JUMPDEST PUSH0 DUP2 SWAP1 POP SWAP2 SWAP1 POP JUMP JUMPDEST PUSH2 0x305A DUP2 PUSH2 0x3048 JUMP JUMPDEST DUP2 EQ PUSH2 0x3064 JUMPI PUSH0 DUP1 REVERT JUMPDEST POP JUMP JUMPDEST PUSH0 DUP2 CALLDATALOAD SWAP1 POP PUSH2 0x3075 DUP2 PUSH2 0x3051 JUMP JUMPDEST SWAP3 SWAP2 POP POP JUMP JUMPDEST PUSH0 PUSH1 0x20 DUP3 DUP5 SUB SLT ISZERO PUSH2 0x3090 JUMPI PUSH2 0x308F PUSH2 0x285F JUMP JUMPDEST JUMPDEST PUSH0 PUSH2 0x309D DUP5 DUP3 DUP6 ADD PUSH2 0x3067 JUMP JUMPDEST SWAP2 POP POP SWAP3 SWAP2 POP POP JUMP JUMPDEST PUSH0 DUP2 MLOAD SWAP1 POP SWAP2 SWAP1 POP JUMP JUMPDEST PUSH0 JUMPDEST DUP4 DUP2 LT ISZERO PUSH2 0x30CD JUMPI DUP1 DUP3 ADD MLOAD DUP2 DUP5 ADD MSTORE PUSH1 0x20 DUP2 ADD SWAP1 POP PUSH2 0x30B2 JUMP JUMPDEST PUSH0 DUP5 DUP5 ADD MSTORE POP POP POP POP JUMP JUMPDEST PUSH0 PUSH2 0x30E2 DUP3 PUSH2 0x30A6 JUMP JUMPDEST PUSH2 0x30EC DUP2 DUP6 PUSH2 0x2792 JUMP JUMPDEST SWAP4 POP PUSH2 0x30FC DUP2 DUP6 PUSH1 0x20 DUP7 ADD PUSH2 0x30B0 JUMP JUMPDEST PUSH2 0x3105 DUP2 PUSH2 0x27F8 JUMP JUMPDEST DUP5 ADD SWAP2 POP POP SWAP3 SWAP2 POP POP JUMP JUMPDEST PUSH0 PUSH1 0x20 DUP3 ADD SWAP1 POP DUP2 DUP2 SUB PUSH0 DUP4 ADD MSTORE PUSH2 0x3128 DUP2 DUP5 PUSH2 0x30D8 JUMP JUMPDEST SWAP1 POP SWAP3 SWAP2 POP POP JUMP JUMPDEST PUSH0 DUP1 PUSH1 0x40 DUP4 DUP6 SUB SLT ISZERO PUSH2 0x3146 JUMPI PUSH2 0x3145 PUSH2 0x285F JUMP JUMPDEST JUMPDEST PUSH0 PUSH2 0x3153 DUP6 DUP3 DUP7 ADD PUSH2 0x2991 JUMP JUMPDEST SWAP3 POP POP PUSH1 0x20 PUSH2 0x3164 DUP6 DUP3 DUP7 ADD PUSH2 0x2991 JUMP JUMPDEST SWAP2 POP POP SWAP3 POP SWAP3 SWAP1 POP JUMP JUMPDEST PUSH0 DUP1 REVERT JUMPDEST PUSH0 DUP1 DUP4 PUSH1 0x1F DUP5 ADD SLT PUSH2 0x3187 JUMPI PUSH2 0x3186 PUSH2 0x29CF JUMP JUMPDEST JUMPDEST DUP3 CALLDATALOAD SWAP1 POP PUSH8 0xFFFFFFFFFFFFFFFF DUP2 GT ISZERO PUSH2 0x31A4 JUMPI PUSH2 0x31A3 PUSH2 0x316E JUMP JUMPDEST JUMPDEST PUSH1 0x20 DUP4 ADD SWAP2 POP DUP4 PUSH1 0x20 DUP3 MUL DUP4 ADD GT ISZERO PUSH2 0x31C0 JUMPI PUSH2 0x31BF PUSH2 0x2B84 JUMP JUMPDEST JUMPDEST SWAP3 POP SWAP3 SWAP1 POP JUMP JUMPDEST PUSH0 DUP1 PUSH1 0x20 DUP4 DUP6 SUB SLT ISZERO PUSH2 0x31DD JUMPI PUSH2 0x31DC PUSH2 0x285F JUMP JUMPDEST JUMPDEST PUSH0 DUP4 ADD CALLDATALOAD PUSH8 0xFFFFFFFFFFFFFFFF DUP2 GT ISZERO PUSH2 0x31FA JUMPI PUSH2 0x31F9 PUSH2 0x2863 JUMP JUMPDEST JUMPDEST PUSH2 0x3206 DUP6 DUP3 DUP7 ADD PUSH2 0x3172 JUMP JUMPDEST SWAP3 POP SWAP3 POP POP SWAP3 POP SWAP3 SWAP1 POP JUMP JUMPDEST PUSH0 DUP2 MLOAD SWAP1 POP SWAP2 SWAP1 POP JUMP JUMPDEST PUSH0 DUP3 DUP3 MSTORE PUSH1 0x20 DUP3 ADD SWAP1 POP SWAP3 SWAP2 POP POP JUMP JUMPDEST PUSH0 DUP2 SWAP1 POP PUSH1 0x20 DUP3 ADD SWAP1 POP SWAP2 SWAP1 POP JUMP JUMPDEST PUSH0 DUP3 DUP3 MSTORE PUSH1 0x20 DUP3 ADD SWAP1 POP SWAP3 SWAP2 POP POP JUMP JUMPDEST PUSH0 PUSH2 0x3255 DUP3 PUSH2 0x30A6 JUMP JUMPDEST PUSH2 0x325F DUP2 DUP6 PUSH2 0x323B JUMP JUMPDEST SWAP4 POP PUSH2 0x326F DUP2 DUP6 PUSH1 0x20 DUP7 ADD PUSH2 0x30B0 JUMP JUMPDEST PUSH2 0x3278 DUP2 PUSH2 0x27F8 JUMP JUMPDEST DUP5 ADD SWAP2 POP POP SWAP3 SWAP2 POP POP JUMP JUMPDEST PUSH0 PUSH2 0x328E DUP4 DUP4 PUSH2 0x324B JUMP JUMPDEST SWAP1 POP SWAP3 SWAP2 POP POP JUMP JUMPDEST PUSH0 PUSH1 0x20 DUP3 ADD SWAP1 POP SWAP2 SWAP1 POP JUMP JUMPDEST PUSH0 PUSH2 0x32AC DUP3 PUSH2 0x3212 JUMP JUMPDEST PUSH2 0x32B6 DUP2 DUP6 PUSH2 0x321C JUMP JUMPDEST SWAP4 POP DUP4 PUSH1 0x20 DUP3 MUL DUP6 ADD PUSH2 0x32C8 DUP6 PUSH2 0x322C JUMP JUMPDEST DUP1 PUSH0 JUMPDEST DUP6 DUP2 LT ISZERO PUSH2 0x3303 JUMPI DUP5 DUP5 SUB DUP10 MSTORE DUP2 MLOAD PUSH2 0x32E4 DUP6 DUP3 PUSH2 0x3283 JUMP JUMPDEST SWAP5 POP PUSH2 0x32EF DUP4 PUSH2 0x3296 JUMP JUMPDEST SWAP3 POP PUSH1 0x20 DUP11 ADD SWAP10 POP POP PUSH1 0x1 DUP2 ADD SWAP1 POP PUSH2 0x32CB JUMP JUMPDEST POP DUP3 SWAP8 POP DUP8 SWAP6 POP POP POP POP POP POP SWAP3 SWAP2 POP POP JUMP JUMPDEST PUSH0 PUSH1 0x20 DUP3 ADD SWAP1 POP DUP2 DUP2 SUB PUSH0 DUP4 ADD MSTORE PUSH2 0x332D DUP2 DUP5 PUSH2 0x32A2 JUMP JUMPDEST SWAP1 POP SWAP3 SWAP2 POP POP JUMP JUMPDEST PUSH0 PUSH1 0x20 DUP3 DUP5 SUB SLT ISZERO PUSH2 0x334A JUMPI PUSH2 0x3349 PUSH2 0x285F JUMP JUMPDEST JUMPDEST PUSH0 PUSH2 0x3357 DUP5 DUP3 DUP6 ADD PUSH2 0x2991 JUMP JUMPDEST SWAP2 POP POP SWAP3 SWAP2 POP POP JUMP JUMPDEST PUSH0 DUP1 PUSH0 DUP1 PUSH1 0x80 DUP6 DUP8 SUB SLT ISZERO PUSH2 0x3378 JUMPI PUSH2 0x3377 PUSH2 0x285F JUMP JUMPDEST JUMPDEST PUSH0 PUSH2 0x3385 DUP8 DUP3 DUP9 ADD PUSH2 0x2991 JUMP JUMPDEST SWAP5 POP POP PUSH1 0x20 PUSH2 0x3396 DUP8 DUP3 DUP9 ADD PUSH2 0x29BB JUMP JUMPDEST SWAP4 POP POP PUSH1 0x40 PUSH2 0x33A7 DUP8 DUP3 DUP9 ADD PUSH2 0x2D1E JUMP JUMPDEST SWAP3 POP POP PUSH1 0x60 DUP6 ADD CALLDATALOAD PUSH8 0xFFFFFFFFFFFFFFFF DUP2 GT ISZERO PUSH2 0x33C8 JUMPI PUSH2 0x33C7 PUSH2 0x2863 JUMP JUMPDEST JUMPDEST PUSH2 0x33D4 DUP8 DUP3 DUP9 ADD PUSH2 0x2AC0 JUMP JUMPDEST SWAP2 POP POP SWAP3 SWAP6 SWAP2 SWAP5 POP SWAP3 POP JUMP JUMPDEST PUSH0 DUP1 PUSH0 DUP1 PUSH0 PUSH1 0xA0 DUP7 DUP9 SUB SLT ISZERO PUSH2 0x33F9 JUMPI PUSH2 0x33F8 PUSH2 0x285F JUMP JUMPDEST JUMPDEST PUSH0 PUSH2 0x3406 DUP9 DUP3 DUP10 ADD PUSH2 0x2991 JUMP JUMPDEST SWAP6 POP POP PUSH1 0x20 PUSH2 0x3417 DUP9 DUP3 DUP10 ADD PUSH2 0x2991 JUMP JUMPDEST SWAP5 POP POP PUSH1 0x40 PUSH2 0x3428 DUP9 DUP3 DUP10 ADD PUSH2 0x29BB JUMP JUMPDEST SWAP4 POP POP PUSH1 0x60 PUSH2 0x3439 DUP9 DUP3 DUP10 ADD PUSH2 0x2D1E JUMP JUMPDEST SWAP3 POP POP PUSH1 0x80 DUP7 ADD CALLDATALOAD PUSH8 0xFFFFFFFFFFFFFFFF DUP2 GT ISZERO PUSH2 0x345A JUMPI PUSH2 0x3459 PUSH2 0x2863 JUMP JUMPDEST JUMPDEST PUSH2 0x3466 DUP9 DUP3 DUP10 ADD PUSH2 0x2AC0 JUMP JUMPDEST SWAP2 POP POP SWAP3 SWAP6 POP SWAP3 SWAP6 SWAP1 SWAP4 POP JUMP JUMPDEST PUSH0 DUP1 PUSH1 0x40 DUP4 DUP6 SUB SLT ISZERO PUSH2 0x3489 JUMPI PUSH2 0x3488 PUSH2 0x285F JUMP JUMPDEST JUMPDEST PUSH0 PUSH2 0x3496 DUP6 DUP3 DUP7 ADD PUSH2 0x3067 JUMP JUMPDEST SWAP3 POP POP PUSH1 0x20 DUP4 ADD CALLDATALOAD PUSH8 0xFFFFFFFFFFFFFFFF DUP2 GT ISZERO PUSH2 0x34B7 JUMPI PUSH2 0x34B6 PUSH2 0x2863 JUMP JUMPDEST JUMPDEST PUSH2 0x34C3 DUP6 DUP3 DUP7 ADD PUSH2 0x2AC0 JUMP JUMPDEST SWAP2 POP POP SWAP3 POP SWAP3 SWAP1 POP JUMP JUMPDEST PUSH2 0x34D6 DUP2 PUSH2 0x296A JUMP JUMPDEST DUP3 MSTORE POP POP JUMP JUMPDEST PUSH0 PUSH1 0x20 DUP3 ADD SWAP1 POP PUSH2 0x34EF PUSH0 DUP4 ADD DUP5 PUSH2 0x34CD JUMP JUMPDEST SWAP3 SWAP2 POP POP JUMP JUMPDEST PUSH0 PUSH8 0xFFFFFFFFFFFFFFFF DUP3 GT ISZERO PUSH2 0x350F JUMPI PUSH2 0x350E PUSH2 0x29D7 JUMP JUMPDEST JUMPDEST PUSH1 0x20 DUP3 MUL SWAP1 POP PUSH1 0x20 DUP2 ADD SWAP1 POP SWAP2 SWAP1 POP JUMP JUMPDEST PUSH0 PUSH2 0x3532 PUSH2 0x352D DUP5 PUSH2 0x34F5 JUMP JUMPDEST PUSH2 0x2A35 JUMP JUMPDEST SWAP1 POP DUP1 DUP4 DUP3 MSTORE PUSH1 0x20 DUP3 ADD SWAP1 POP PUSH1 0x20 DUP5 MUL DUP4 ADD DUP6 DUP2 GT ISZERO PUSH2 0x3555 JUMPI PUSH2 0x3554 PUSH2 0x2B84 JUMP JUMPDEST JUMPDEST DUP4 JUMPDEST DUP2 DUP2 LT ISZERO PUSH2 0x357E JUMPI DUP1 PUSH2 0x356A DUP9 DUP3 PUSH2 0x3067 JUMP JUMPDEST DUP5 MSTORE PUSH1 0x20 DUP5 ADD SWAP4 POP POP PUSH1 0x20 DUP2 ADD SWAP1 POP PUSH2 0x3557 JUMP JUMPDEST POP POP POP SWAP4 SWAP3 POP POP POP JUMP JUMPDEST PUSH0 DUP3 PUSH1 0x1F DUP4 ADD SLT PUSH2 0x359C JUMPI PUSH2 0x359B PUSH2 0x29CF JUMP JUMPDEST JUMPDEST DUP2 CALLDATALOAD PUSH2 0x35AC DUP5 DUP3 PUSH1 0x20 DUP7 ADD PUSH2 0x3520 JUMP JUMPDEST SWAP2 POP POP SWAP3 SWAP2 POP POP JUMP JUMPDEST PUSH0 DUP1 PUSH1 0x40 DUP4 DUP6 SUB SLT ISZERO PUSH2 0x35CB JUMPI PUSH2 0x35CA PUSH2 0x285F JUMP JUMPDEST JUMPDEST PUSH0 DUP4 ADD CALLDATALOAD PUSH8 0xFFFFFFFFFFFFFFFF DUP2 GT ISZERO PUSH2 0x35E8 JUMPI PUSH2 0x35E7 PUSH2 0x2863 JUMP JUMPDEST JUMPDEST PUSH2 0x35F4 DUP6 DUP3 DUP7 ADD PUSH2 0x3588 JUMP JUMPDEST SWAP3 POP POP PUSH1 0x20 DUP4 ADD CALLDATALOAD PUSH8 0xFFFFFFFFFFFFFFFF DUP2 GT ISZERO PUSH2 0x3615 JUMPI PUSH2 0x3614 PUSH2 0x2863 JUMP JUMPDEST JUMPDEST PUSH2 0x3621 DUP6 DUP3 DUP7 ADD PUSH2 0x2E78 JUMP JUMPDEST SWAP2 POP POP SWAP3 POP SWAP3 SWAP1 POP JUMP JUMPDEST PUSH0 DUP2 MLOAD SWAP1 POP SWAP2 SWAP1 POP JUMP JUMPDEST PUSH0 DUP3 DUP3 MSTORE PUSH1 0x20 DUP3 ADD SWAP1 POP SWAP3 SWAP2 POP POP JUMP JUMPDEST PUSH0 DUP2 SWAP1 POP PUSH1 0x20 DUP3 ADD SWAP1 POP SWAP2 SWAP1 POP JUMP JUMPDEST PUSH2 0x365D DUP2 PUSH2 0x296A JUMP JUMPDEST DUP3 MSTORE POP POP JUMP JUMPDEST PUSH0 PUSH2 0x366E DUP4 DUP4 PUSH2 0x3654 JUMP JUMPDEST PUSH1 0x20 DUP4 ADD SWAP1 POP SWAP3 SWAP2 POP POP JUMP JUMPDEST PUSH0 PUSH1 0x20 DUP3 ADD SWAP1 POP SWAP2 SWAP1 POP JUMP JUMPDEST PUSH0 PUSH2 0x3690 DUP3 PUSH2 0x362B JUMP JUMPDEST PUSH2 0x369A DUP2 DUP6 PUSH2 0x3635 JUMP JUMPDEST SWAP4 POP PUSH2 0x36A5 DUP4 PUSH2 0x3645 JUMP JUMPDEST DUP1 PUSH0 JUMPDEST DUP4 DUP2 LT ISZERO PUSH2 0x36D5 JUMPI DUP2 MLOAD PUSH2 0x36BC DUP9 DUP3 PUSH2 0x3663 JUMP JUMPDEST SWAP8 POP PUSH2 0x36C7 DUP4 PUSH2 0x367A JUMP JUMPDEST SWAP3 POP POP PUSH1 0x1 DUP2 ADD SWAP1 POP PUSH2 0x36A8 JUMP JUMPDEST POP DUP6 SWAP4 POP POP POP POP SWAP3 SWAP2 POP POP JUMP JUMPDEST PUSH0 PUSH1 0x20 DUP3 ADD SWAP1 POP DUP2 DUP2 SUB PUSH0 DUP4 ADD MSTORE PUSH2 0x36FA DUP2 DUP5 PUSH2 0x3686 JUMP JUMPDEST SWAP1 POP SWAP3 SWAP2 POP POP JUMP JUMPDEST PUSH0 PUSH1 0x20 DUP3 DUP5 SUB SLT ISZERO PUSH2 0x3717 JUMPI PUSH2 0x3716 PUSH2 0x285F JUMP JUMPDEST JUMPDEST PUSH0 DUP3 ADD CALLDATALOAD PUSH8 0xFFFFFFFFFFFFFFFF DUP2 GT ISZERO PUSH2 0x3734 JUMPI PUSH2 0x3733 PUSH2 0x2863 JUMP JUMPDEST JUMPDEST PUSH2 0x3740 DUP5 DUP3 DUP6 ADD PUSH2 0x3588 JUMP JUMPDEST SWAP2 POP POP SWAP3 SWAP2 POP POP JUMP JUMPDEST PUSH2 0x3752 DUP2 PUSH2 0x2867 JUMP JUMPDEST DUP3 MSTORE POP POP JUMP JUMPDEST PUSH0 PUSH1 0x20 DUP3 ADD SWAP1 POP PUSH2 0x376B PUSH0 DUP4 ADD DUP5 PUSH2 0x3749 JUMP JUMPDEST SWAP3 SWAP2 POP POP JUMP JUMPDEST PUSH0 DUP2 SWAP1 POP SWAP3 SWAP2 POP POP JUMP JUMPDEST PUSH0 PUSH2 0x3786 DUP4 DUP6 PUSH2 0x3771 JUMP JUMPDEST SWAP4 POP PUSH2 0x3793 DUP4 DUP6 DUP5 PUSH2 0x27EA JUMP JUMPDEST DUP3 DUP5 ADD SWAP1 POP SWAP4 SWAP3 POP POP POP JUMP JUMPDEST PUSH0 DUP2 PUSH1 0x60 SHL SWAP1 POP SWAP2 SWAP1 POP JUMP JUMPDEST PUSH0 PUSH2 0x37B5 DUP3 PUSH2 0x379F JUMP JUMPDEST SWAP1 POP SWAP2 SWAP1 POP JUMP JUMPDEST PUSH0 PUSH2 0x37C6 DUP3 PUSH2 0x37AB JUMP JUMPDEST SWAP1 POP SWAP2 SWAP1 POP JUMP JUMPDEST PUSH2 0x37DE PUSH2 0x37D9 DUP3 PUSH2 0x296A JUMP JUMPDEST PUSH2 0x37BC JUMP JUMPDEST DUP3 MSTORE POP POP JUMP JUMPDEST PUSH0 DUP2 SWAP1 POP SWAP2 SWAP1 POP JUMP JUMPDEST PUSH2 0x37FE PUSH2 0x37F9 DUP3 PUSH2 0x291A JUMP JUMPDEST PUSH2 0x37E4 JUMP JUMPDEST DUP3 MSTORE POP POP JUMP JUMPDEST PUSH0 PUSH2 0x3810 DUP3 DUP7 DUP9 PUSH2 0x377B JUMP JUMPDEST SWAP2 POP PUSH2 0x381C DUP3 DUP6 PUSH2 0x37CD JUMP JUMPDEST PUSH1 0x14 DUP3 ADD SWAP2 POP PUSH2 0x382C DUP3 DUP5 PUSH2 0x37ED JUMP JUMPDEST PUSH1 0x20 DUP3 ADD SWAP2 POP DUP2 SWAP1 POP SWAP6 SWAP5 POP POP POP POP POP JUMP JUMPDEST PUSH0 PUSH2 0x3848 DUP3 PUSH2 0x30A6 JUMP JUMPDEST PUSH2 0x3852 DUP2 DUP6 PUSH2 0x3771 JUMP JUMPDEST SWAP4 POP PUSH2 0x3862 DUP2 DUP6 PUSH1 0x20 DUP7 ADD PUSH2 0x30B0 JUMP JUMPDEST DUP1 DUP5 ADD SWAP2 POP POP SWAP3 SWAP2 POP POP JUMP JUMPDEST PUSH0 PUSH2 0x3879 DUP3 DUP5 PUSH2 0x383E JUMP JUMPDEST SWAP2 POP DUP2 SWAP1 POP SWAP3 SWAP2 POP POP JUMP JUMPDEST PUSH32 0x4E487B7100000000000000000000000000000000000000000000000000000000 PUSH0 MSTORE PUSH1 0x11 PUSH1 0x4 MSTORE PUSH1 0x24 PUSH0 REVERT JUMPDEST PUSH0 PUSH2 0x38BB DUP3 PUSH2 0x291A JUMP JUMPDEST SWAP2 POP PUSH2 0x38C6 DUP4 PUSH2 0x291A JUMP JUMPDEST SWAP3 POP DUP3 DUP3 ADD SWAP1 POP DUP1 DUP3 GT ISZERO PUSH2 0x38DE JUMPI PUSH2 0x38DD PUSH2 0x3884 JUMP JUMPDEST JUMPDEST SWAP3 SWAP2 POP POP JUMP JUMPDEST PUSH0 PUSH1 0x60 DUP3 ADD SWAP1 POP PUSH2 0x38F7 PUSH0 DUP4 ADD DUP7 PUSH2 0x34CD JUMP JUMPDEST PUSH2 0x3904 PUSH1 0x20 DUP4 ADD DUP6 PUSH2 0x2923 JUMP JUMPDEST DUP2 DUP2 SUB PUSH1 0x40 DUP4 ADD MSTORE PUSH2 0x3916 DUP2 DUP5 PUSH2 0x30D8 JUMP JUMPDEST SWAP1 POP SWAP5 SWAP4 POP POP POP POP JUMP JUMPDEST PUSH32 0x4E487B7100000000000000000000000000000000000000000000000000000000 PUSH0 MSTORE PUSH1 0x32 PUSH1 0x4 MSTORE PUSH1 0x24 PUSH0 REVERT JUMPDEST PUSH0 DUP2 SWAP1 POP SWAP2 SWAP1 POP JUMP JUMPDEST PUSH0 DUP2 SWAP1 POP SWAP2 SWAP1 POP JUMP JUMPDEST PUSH0 PUSH2 0x3979 PUSH2 0x3974 PUSH2 0x396F DUP5 PUSH2 0x394D JUMP JUMPDEST PUSH2 0x3956 JUMP JUMPDEST PUSH2 0x2FA8 JUMP JUMPDEST SWAP1 POP SWAP2 SWAP1 POP JUMP JUMPDEST PUSH2 0x3989 DUP2 PUSH2 0x395F JUMP JUMPDEST DUP3 MSTORE POP POP JUMP JUMPDEST PUSH0 PUSH1 0x60 DUP3 ADD SWAP1 POP PUSH2 0x39A2 PUSH0 DUP4 ADD DUP7 PUSH2 0x34CD JUMP JUMPDEST PUSH2 0x39AF PUSH1 0x20 DUP4 ADD DUP6 PUSH2 0x3980 JUMP JUMPDEST DUP2 DUP2 SUB PUSH1 0x40 DUP4 ADD MSTORE PUSH2 0x39C1 DUP2 DUP5 PUSH2 0x30D8 JUMP JUMPDEST SWAP1 POP SWAP5 SWAP4 POP POP POP POP JUMP JUMPDEST PUSH0 DUP1 REVERT JUMPDEST PUSH0 DUP1 REVERT JUMPDEST PUSH0 DUP1 REVERT JUMPDEST PUSH0 DUP1 DUP4 CALLDATALOAD PUSH1 0x1 PUSH1 0x20 SUB DUP5 CALLDATASIZE SUB SUB DUP2 SLT PUSH2 0x39F3 JUMPI PUSH2 0x39F2 PUSH2 0x39CB JUMP JUMPDEST JUMPDEST DUP1 DUP5 ADD SWAP3 POP DUP3 CALLDATALOAD SWAP2 POP PUSH8 0xFFFFFFFFFFFFFFFF DUP3 GT ISZERO PUSH2 0x3A15 JUMPI PUSH2 0x3A14 PUSH2 0x39CF JUMP JUMPDEST JUMPDEST PUSH1 0x20 DUP4 ADD SWAP3 POP PUSH1 0x1 DUP3 MUL CALLDATASIZE SUB DUP4 SGT ISZERO PUSH2 0x3A31 JUMPI PUSH2 0x3A30 PUSH2 0x39D3 JUMP JUMPDEST JUMPDEST POP SWAP3 POP SWAP3 SWAP1 POP JUMP JUMPDEST PUSH0 PUSH2 0x3A45 DUP3 DUP5 DUP7 PUSH2 0x377B JUMP JUMPDEST SWAP2 POP DUP2 SWAP1 POP SWAP4 SWAP3 POP POP POP JUMP JUMPDEST PUSH0 DUP2 SWAP1 POP PUSH1 0x20 DUP3 ADD SWAP1 POP SWAP2 SWAP1 POP JUMP JUMPDEST PUSH0 PUSH32 0xFFFFFFFFFFFFFFFFFFFFFFFFFFFFFFFFFFFFFFFF000000000000000000000000 DUP3 AND SWAP1 POP SWAP2 SWAP1 POP JUMP JUMPDEST PUSH0 PUSH2 0x3A96 DUP3 MLOAD PUSH2 0x3A60 JUMP JUMPDEST DUP1 SWAP2 POP POP SWAP2 SWAP1 POP JUMP JUMPDEST PUSH0 DUP3 DUP3 SHL SWAP1 POP SWAP3 SWAP2 POP POP JUMP JUMPDEST PUSH0 PUSH2 0x3AB5 DUP3 PUSH2 0x30A6 JUMP JUMPDEST DUP3 PUSH2 0x3ABF DUP5 PUSH2 0x3A51 JUMP JUMPDEST SWAP1 POP PUSH2 0x3ACA DUP2 PUSH2 0x3A8B JUMP JUMPDEST SWAP3 POP PUSH1 0x14 DUP3 LT ISZERO PUSH2 0x3B0A JUMPI PUSH2 0x3B05 PUSH32 0xFFFFFFFFFFFFFFFFFFFFFFFFFFFFFFFFFFFFFFFF000000000000000000000000 DUP4 PUSH1 0x14 SUB PUSH1 0x8 MUL PUSH2 0x3A9F JUMP JUMPDEST DUP4 AND SWAP3 POP JUMPDEST POP POP SWAP2 SWAP1 POP JUMP JUMPDEST PUSH0 PUSH1 0x80 DUP3 ADD SWAP1 POP PUSH2 0x3B24 PUSH0 DUP4 ADD DUP8 PUSH2 0x34CD JUMP JUMPDEST PUSH2 0x3B31 PUSH1 0x20 DUP4 ADD DUP7 PUSH2 0x2923 JUMP JUMPDEST PUSH2 0x3B3E PUSH1 0x40 DUP4 ADD DUP6 PUSH2 0x34CD JUMP JUMPDEST PUSH2 0x3B4B PUSH1 0x60 DUP4 ADD DUP5 PUSH2 0x2923 JUMP JUMPDEST SWAP6 SWAP5 POP POP POP POP POP JUMP JUMPDEST PUSH0 PUSH2 0x3B5E DUP3 PUSH2 0x291A JUMP JUMPDEST SWAP2 POP PUSH2 0x3B69 DUP4 PUSH2 0x291A JUMP JUMPDEST SWAP3 POP DUP3 DUP3 SUB SWAP1 POP DUP2 DUP2 GT ISZERO PUSH2 0x3B81 JUMPI PUSH2 0x3B80 PUSH2 0x3884 JUMP JUMPDEST JUMPDEST SWAP3 SWAP2 POP POP JUMP JUMPDEST PUSH0 PUSH1 0x60 DUP3 ADD SWAP1 POP PUSH2 0x3B9A PUSH0 DUP4 ADD DUP7 PUSH2 0x2923 JUMP JUMPDEST PUSH2 0x3BA7 PUSH1 0x20 DUP4 ADD DUP6 PUSH2 0x34CD JUMP JUMPDEST PUSH2 0x3BB4 PUSH1 0x40 DUP4 ADD DUP5 PUSH2 0x2923 JUMP JUMPDEST SWAP5 SWAP4 POP POP POP POP JUMP JUMPDEST PUSH0 PUSH1 0x60 DUP3 ADD SWAP1 POP PUSH2 0x3BCF PUSH0 DUP4 ADD DUP7 PUSH2 0x2923 JUMP JUMPDEST PUSH2 0x3BDC PUSH1 0x20 DUP4 ADD DUP6 PUSH2 0x28F2 JUMP JUMPDEST DUP2 DUP2 SUB PUSH1 0x40 DUP4 ADD MSTORE PUSH2 0x3BEE DUP2 DUP5 PUSH2 0x30D8 JUMP JUMPDEST SWAP1 POP SWAP5 SWAP4 POP POP POP POP JUMP JUMPDEST PUSH0 PUSH1 0xA0 DUP3 ADD SWAP1 POP PUSH2 0x3C0B PUSH0 DUP4 ADD DUP9 PUSH2 0x34CD JUMP JUMPDEST PUSH2 0x3C18 PUSH1 0x20 DUP4 ADD DUP8 PUSH2 0x34CD JUMP JUMPDEST PUSH2 0x3C25 PUSH1 0x40 DUP4 ADD DUP7 PUSH2 0x34CD JUMP JUMPDEST PUSH2 0x3C32 PUSH1 0x60 DUP4 ADD DUP6 PUSH2 0x2923 JUMP JUMPDEST DUP2 DUP2 SUB PUSH1 0x80 DUP4 ADD MSTORE PUSH2 0x3C44 DUP2 DUP5 PUSH2 0x30D8 JUMP JUMPDEST SWAP1 POP SWAP7 SWAP6 POP POP POP POP POP POP JUMP JUMPDEST PUSH32 0x4E487B7100000000000000000000000000000000000000000000000000000000 PUSH0 MSTORE PUSH1 0x22 PUSH1 0x4 MSTORE PUSH1 0x24 PUSH0 REVERT JUMPDEST PUSH0 PUSH1 0x2 DUP3 DIV SWAP1 POP PUSH1 0x1 DUP3 AND DUP1 PUSH2 0x3C94 JUMPI PUSH1 0x7F DUP3 AND SWAP2 POP JUMPDEST PUSH1 0x20 DUP3 LT DUP2 SUB PUSH2 0x3CA7 JUMPI PUSH2 0x3CA6 PUSH2 0x3C50 JUMP JUMPDEST JUMPDEST POP SWAP2 SWAP1 POP JUMP JUMPDEST PUSH0 PUSH32 0xFFFFFFFFFFFFFFFFFFFF00000000000000000000000000000000000000000000 DUP3 AND SWAP1 POP SWAP2 SWAP1 POP JUMP JUMPDEST PUSH0 DUP2 SWAP1 POP SWAP2 SWAP1 POP JUMP JUMPDEST PUSH2 0x3CF2 PUSH2 0x3CED DUP3 PUSH2 0x3CAD JUMP JUMPDEST PUSH2 0x3CD8 JUMP JUMPDEST DUP3 MSTORE POP POP JUMP JUMPDEST PUSH0 PUSH32 0xFFFF000000000000000000000000000000000000000000000000000000000000 DUP3 AND SWAP1 POP SWAP2 SWAP1 POP JUMP JUMPDEST PUSH0 DUP2 SWAP1 POP SWAP2 SWAP1 POP JUMP JUMPDEST PUSH2 0x3D3D PUSH2 0x3D38 DUP3 PUSH2 0x3CF8 JUMP JUMPDEST PUSH2 0x3D23 JUMP JUMPDEST DUP3 MSTORE POP POP JUMP JUMPDEST PUSH0 DUP2 SWAP1 POP SWAP2 SWAP1 POP JUMP JUMPDEST PUSH2 0x3D5D PUSH2 0x3D58 DUP3 PUSH2 0x3A60 JUMP JUMPDEST PUSH2 0x3D43 JUMP JUMPDEST DUP3 MSTORE POP POP JUMP JUMPDEST PUSH0 PUSH2 0x3D6E DUP3 DUP7 PUSH2 0x3CE1 JUMP JUMPDEST PUSH1 0xA DUP3 ADD SWAP2 POP PUSH2 0x3D7E DUP3 DUP6 PUSH2 0x3D2C JUMP JUMPDEST PUSH1 0x2 DUP3 ADD SWAP2 POP PUSH2 0x3D8E DUP3 DUP5 PUSH2 0x3D4C JUMP JUMPDEST PUSH1 0x14 DUP3 ADD SWAP2 POP DUP2 SWAP1 POP SWAP5 SWAP4 POP POP POP POP JUMP JUMPDEST PUSH0 PUSH2 0x3DAA DUP3 MLOAD PUSH2 0x3048 JUMP JUMPDEST DUP1 SWAP2 POP POP SWAP2 SWAP1 POP JUMP JUMPDEST PUSH0 PUSH2 0x3DBD DUP3 PUSH2 0x30A6 JUMP JUMPDEST DUP3 PUSH2 0x3DC7 DUP5 PUSH2 0x3A51 JUMP JUMPDEST SWAP1 POP PUSH2 0x3DD2 DUP2 PUSH2 0x3D9F JUMP JUMPDEST SWAP3 POP PUSH1 0x20 DUP3 LT ISZERO PUSH2 0x3E12 JUMPI PUSH2 0x3E0D PUSH32 0xFFFFFFFFFFFFFFFFFFFFFFFFFFFFFFFFFFFFFFFFFFFFFFFFFFFFFFFFFFFFFFFF DUP4 PUSH1 0x20 SUB PUSH1 0x8 MUL PUSH2 0x3A9F JUMP JUMPDEST DUP4 AND SWAP3 POP JUMPDEST POP POP SWAP2 SWAP1 POP JUMP JUMPDEST PUSH2 0x3E22 DUP2 PUSH2 0x3048 JUMP JUMPDEST DUP3 MSTORE POP POP JUMP JUMPDEST PUSH0 PUSH1 0x40 DUP3 ADD SWAP1 POP PUSH2 0x3E3B PUSH0 DUP4 ADD DUP6 PUSH2 0x3E19 JUMP JUMPDEST DUP2 DUP2 SUB PUSH1 0x20 DUP4 ADD MSTORE PUSH2 0x3E4D DUP2 DUP5 PUSH2 0x30D8 JUMP JUMPDEST SWAP1 POP SWAP4 SWAP3 POP POP POP JUMP JUMPDEST PUSH0 PUSH2 0x3E68 PUSH2 0x3E63 DUP5 PUSH2 0x2A4F JUMP JUMPDEST PUSH2 0x2A35 JUMP JUMPDEST SWAP1 POP DUP3 DUP2 MSTORE PUSH1 0x20 DUP2 ADD DUP5 DUP5 DUP5 ADD GT ISZERO PUSH2 0x3E84 JUMPI PUSH2 0x3E83 PUSH2 0x29D3 JUMP JUMPDEST JUMPDEST PUSH2 0x3E8F DUP5 DUP3 DUP6 PUSH2 0x30B0 JUMP JUMPDEST POP SWAP4 SWAP3 POP POP POP JUMP JUMPDEST PUSH0 DUP3 PUSH1 0x1F DUP4 ADD SLT PUSH2 0x3EAB JUMPI PUSH2 0x3EAA PUSH2 0x29CF JUMP JUMPDEST JUMPDEST DUP2 MLOAD PUSH2 0x3EBB DUP5 DUP3 PUSH1 0x20 DUP7 ADD PUSH2 0x3E56 JUMP JUMPDEST SWAP2 POP POP SWAP3 SWAP2 POP POP JUMP JUMPDEST PUSH0 PUSH1 0x20 DUP3 DUP5 SUB SLT ISZERO PUSH2 0x3ED9 JUMPI PUSH2 0x3ED8 PUSH2 0x285F JUMP JUMPDEST JUMPDEST PUSH0 DUP3 ADD MLOAD PUSH8 0xFFFFFFFFFFFFFFFF DUP2 GT ISZERO PUSH2 0x3EF6 JUMPI PUSH2 0x3EF5 PUSH2 0x2863 JUMP JUMPDEST JUMPDEST PUSH2 0x3F02 DUP5 DUP3 DUP6 ADD PUSH2 0x3E97 JUMP JUMPDEST SWAP2 POP POP SWAP3 SWAP2 POP POP JUMP JUMPDEST PUSH0 DUP2 SWAP1 POP DUP2 PUSH0 MSTORE PUSH1 0x20 PUSH0 KECCAK256 SWAP1 POP SWAP2 SWAP1 POP JUMP JUMPDEST PUSH0 PUSH1 0x20 PUSH1 0x1F DUP4 ADD DIV SWAP1 POP SWAP2 SWAP1 POP JUMP JUMPDEST PUSH0 PUSH1 0x8 DUP4 MUL PUSH2 0x3F5B PUSH32 0xFFFFFFFFFFFFFFFFFFFFFFFFFFFFFFFFFFFFFFFFFFFFFFFFFFFFFFFFFFFFFFFF DUP3 PUSH2 0x3A9F JUMP JUMPDEST PUSH2 0x3F65 DUP7 DUP4 PUSH2 0x3A9F JUMP JUMPDEST SWAP6 POP DUP1 NOT DUP5 AND SWAP4 POP DUP1 DUP7 AND DUP5 OR SWAP3 POP POP POP SWAP4 SWAP3 POP POP POP JUMP JUMPDEST PUSH0 PUSH2 0x3F97 PUSH2 0x3F92 PUSH2 0x3F8D DUP5 PUSH2 0x291A JUMP JUMPDEST PUSH2 0x3956 JUMP JUMPDEST PUSH2 0x291A JUMP JUMPDEST SWAP1 POP SWAP2 SWAP1 POP JUMP JUMPDEST PUSH0 DUP2 SWAP1 POP SWAP2 SWAP1 POP JUMP JUMPDEST PUSH2 0x3FB0 DUP4 PUSH2 0x3F7D JUMP JUMPDEST PUSH2 0x3FC4 PUSH2 0x3FBC DUP3 PUSH2 0x3F9E JUMP JUMPDEST DUP5 DUP5 SLOAD PUSH2 0x3F2C JUMP JUMPDEST DUP3 SSTORE POP POP POP POP JUMP JUMPDEST PUSH0 SWAP1 JUMP JUMPDEST PUSH2 0x3FD8 PUSH2 0x3FCC JUMP JUMPDEST PUSH2 0x3FE3 DUP2 DUP5 DUP5 PUSH2 0x3FA7 JUMP JUMPDEST POP POP POP JUMP JUMPDEST JUMPDEST DUP2 DUP2 LT ISZERO PUSH2 0x4006 JUMPI PUSH2 0x3FFB PUSH0 DUP3 PUSH2 0x3FD0 JUMP JUMPDEST PUSH1 0x1 DUP2 ADD SWAP1 POP PUSH2 0x3FE9 JUMP JUMPDEST POP POP JUMP JUMPDEST PUSH1 0x1F DUP3 GT ISZERO PUSH2 0x404B JUMPI PUSH2 0x401C DUP2 PUSH2 0x3F0B JUMP JUMPDEST PUSH2 0x4025 DUP5 PUSH2 0x3F1D JUMP JUMPDEST DUP2 ADD PUSH1 0x20 DUP6 LT ISZERO PUSH2 0x4034 JUMPI DUP2 SWAP1 POP JUMPDEST PUSH2 0x4048 PUSH2 0x4040 DUP6 PUSH2 0x3F1D JUMP JUMPDEST DUP4 ADD DUP3 PUSH2 0x3FE8 JUMP JUMPDEST POP POP JUMPDEST POP POP POP JUMP JUMPDEST PUSH0 DUP3 DUP3 SHR SWAP1 POP SWAP3 SWAP2 POP POP JUMP JUMPDEST PUSH0 PUSH2 0x406B PUSH0 NOT DUP5 PUSH1 0x8 MUL PUSH2 0x4050 JUMP JUMPDEST NOT DUP1 DUP4 AND SWAP2 POP POP SWAP3 SWAP2 POP POP JUMP JUMPDEST PUSH0 PUSH2 0x4083 DUP4 DUP4 PUSH2 0x405C JUMP JUMPDEST SWAP2 POP DUP3 PUSH1 0x2 MUL DUP3 OR SWAP1 POP SWAP3 SWAP2 POP POP JUMP JUMPDEST PUSH2 0x409C DUP3 PUSH2 0x30A6 JUMP JUMPDEST PUSH8 0xFFFFFFFFFFFFFFFF DUP2 GT ISZERO PUSH2 0x40B5 JUMPI PUSH2 0x40B4 PUSH2 0x29D7 JUMP JUMPDEST JUMPDEST PUSH2 0x40BF DUP3 SLOAD PUSH2 0x3C7D JUMP JUMPDEST PUSH2 0x40CA DUP3 DUP3 DUP6 PUSH2 0x400A JUMP JUMPDEST PUSH0 PUSH1 0x20 SWAP1 POP PUSH1 0x1F DUP4 GT PUSH1 0x1 DUP2 EQ PUSH2 0x40FB JUMPI PUSH0 DUP5 ISZERO PUSH2 0x40E9 JUMPI DUP3 DUP8 ADD MLOAD SWAP1 POP JUMPDEST PUSH2 0x40F3 DUP6 DUP3 PUSH2 0x4078 JUMP JUMPDEST DUP7 SSTORE POP PUSH2 0x415A JUMP JUMPDEST PUSH1 0x1F NOT DUP5 AND PUSH2 0x4109 DUP7 PUSH2 0x3F0B JUMP JUMPDEST PUSH0 JUMPDEST DUP3 DUP2 LT ISZERO PUSH2 0x4130 JUMPI DUP5 DUP10 ADD MLOAD DUP3 SSTORE PUSH1 0x1 DUP3 ADD SWAP2 POP PUSH1 0x20 DUP6 ADD SWAP5 POP PUSH1 0x20 DUP2 ADD SWAP1 POP PUSH2 0x410B JUMP JUMPDEST DUP7 DUP4 LT ISZERO PUSH2 0x414D JUMPI DUP5 DUP10 ADD MLOAD PUSH2 0x4149 PUSH1 0x1F DUP10 AND DUP3 PUSH2 0x405C JUMP JUMPDEST DUP4 SSTORE POP JUMPDEST PUSH1 0x1 PUSH1 0x2 DUP9 MUL ADD DUP9 SSTORE POP POP POP JUMPDEST POP POP POP POP POP POP JUMP JUMPDEST PUSH32 0x4E487B7100000000000000000000000000000000000000000000000000000000 PUSH0 MSTORE PUSH1 0x31 PUSH1 0x4 MSTORE PUSH1 0x24 PUSH0 REVERT INVALID LOG2 PUSH5 0x6970667358 0x22 SLT KECCAK256 EXTCODEHASH GASPRICE EXTCODEHASH 0xCE DUP7 0xD3 PUSH7 0x17E99AFB4A29FA DUP8 MLOAD DUP9 0xD5 SLT 0xE6 PUSH2 0x8B09 PUSH26 0xA92241D77D847E7864736F6C6343000818003300000000000000 "
		},
		"gasEstimates": {
			"creation": {
				"codeDepositCost": "3367400",
				"executionCost": "infinite",
				"totalCost": "infinite"
			},
			"external": {
				"": "infinite",
				"authorizeOperator(address,uint256,bytes)": "infinite",
				"authorizedAmountFor(address,address)": "infinite",
				"balanceOf(address)": "2962",
				"batchCalls(bytes[])": "infinite",
				"burn(address,uint256,bytes)": "infinite",
				"decimals()": "2613",
				"decreaseAllowance(address,uint256,bytes)": "infinite",
				"getData(bytes32)": "infinite",
				"getDataBatch(bytes32[])": "infinite",
				"getOperatorsOf(address)": "infinite",
				"increaseAllowance(address,uint256,bytes)": "infinite",
				"mint(address,uint256,bool,bytes)": "infinite",
				"owner()": "2537",
				"renounceOwnership()": "infinite",
				"revokeOperator(address,bool,bytes)": "infinite",
				"setData(bytes32,bytes)": "infinite",
				"setDataBatch(bytes32[],bytes[])": "infinite",
				"supportsInterface(bytes4)": "infinite",
				"totalSupply()": "2478",
				"transfer(address,address,uint256,bool,bytes)": "infinite",
				"transferBatch(address[],address[],uint256[],bool[],bytes[])": "infinite",
				"transferOwnership(address)": "infinite"
			}
		},
		"methodIdentifiers": {
			"authorizeOperator(address,uint256,bytes)": "b49506fd",
			"authorizedAmountFor(address,address)": "65aeaa95",
			"balanceOf(address)": "70a08231",
			"batchCalls(bytes[])": "6963d438",
			"burn(address,uint256,bytes)": "44d17187",
			"decimals()": "313ce567",
			"decreaseAllowance(address,uint256,bytes)": "7b204c4e",
			"getData(bytes32)": "54f6127f",
			"getDataBatch(bytes32[])": "dedff9c6",
			"getOperatorsOf(address)": "d72fc29a",
			"increaseAllowance(address,uint256,bytes)": "2bc1da82",
			"mint(address,uint256,bool,bytes)": "7580d920",
			"owner()": "8da5cb5b",
			"renounceOwnership()": "715018a6",
			"revokeOperator(address,bool,bytes)": "4521748e",
			"setData(bytes32,bytes)": "7f23690c",
			"setDataBatch(bytes32[],bytes[])": "97902421",
			"supportsInterface(bytes4)": "01ffc9a7",
			"totalSupply()": "18160ddd",
			"transfer(address,address,uint256,bool,bytes)": "760d9bba",
			"transferBatch(address[],address[],uint256[],bool[],bytes[])": "2d7667c9",
			"transferOwnership(address)": "f2fde38b"
		}
	},
	"abi": [
		{
			"inputs": [
				{
					"internalType": "address",
					"name": "tokenContractOwner_",
					"type": "address"
				}
			],
			"stateMutability": "nonpayable",
			"type": "constructor"
		},
		{
			"inputs": [],
			"name": "ERC725Y_DataKeysValuesEmptyArray",
			"type": "error"
		},
		{
			"inputs": [],
			"name": "ERC725Y_DataKeysValuesLengthMismatch",
			"type": "error"
		},
		{
			"inputs": [],
			"name": "ERC725Y_MsgValueDisallowed",
			"type": "error"
		},
		{
			"inputs": [
				{
					"internalType": "bytes",
					"name": "storedData",
					"type": "bytes"
				}
			],
			"name": "InvalidExtensionAddress",
			"type": "error"
		},
		{
			"inputs": [
				{
					"internalType": "bytes",
					"name": "data",
					"type": "bytes"
				}
			],
			"name": "InvalidFunctionSelector",
			"type": "error"
		},
		{
			"inputs": [],
			"name": "LSP4TokenNameNotEditable",
			"type": "error"
		},
		{
			"inputs": [],
			"name": "LSP4TokenSymbolNotEditable",
			"type": "error"
		},
		{
			"inputs": [],
			"name": "LSP4TokenTypeNotEditable",
			"type": "error"
		},
		{
			"inputs": [
				{
					"internalType": "address",
					"name": "tokenOwner",
					"type": "address"
				},
				{
					"internalType": "uint256",
					"name": "authorizedAmount",
					"type": "uint256"
				},
				{
					"internalType": "address",
					"name": "operator",
					"type": "address"
				},
				{
					"internalType": "uint256",
					"name": "amount",
					"type": "uint256"
				}
			],
			"name": "LSP7AmountExceedsAuthorizedAmount",
			"type": "error"
		},
		{
			"inputs": [
				{
					"internalType": "uint256",
					"name": "balance",
					"type": "uint256"
				},
				{
					"internalType": "address",
					"name": "tokenOwner",
					"type": "address"
				},
				{
					"internalType": "uint256",
					"name": "amount",
					"type": "uint256"
				}
			],
			"name": "LSP7AmountExceedsBalance",
			"type": "error"
		},
		{
			"inputs": [
				{
					"internalType": "uint256",
					"name": "callIndex",
					"type": "uint256"
				}
			],
			"name": "LSP7BatchCallFailed",
			"type": "error"
		},
		{
			"inputs": [],
			"name": "LSP7CannotSendToSelf",
			"type": "error"
		},
		{
			"inputs": [],
			"name": "LSP7CannotSendWithAddressZero",
			"type": "error"
		},
		{
			"inputs": [],
			"name": "LSP7CannotUseAddressZeroAsOperator",
			"type": "error"
		},
		{
			"inputs": [],
			"name": "LSP7DecreasedAllowanceBelowZero",
			"type": "error"
		},
		{
			"inputs": [],
			"name": "LSP7InvalidTransferBatch",
			"type": "error"
		},
		{
			"inputs": [
				{
					"internalType": "address",
					"name": "tokenReceiver",
					"type": "address"
				}
			],
			"name": "LSP7NotifyTokenReceiverContractMissingLSP1Interface",
			"type": "error"
		},
		{
			"inputs": [
				{
					"internalType": "address",
					"name": "tokenReceiver",
					"type": "address"
				}
			],
			"name": "LSP7NotifyTokenReceiverIsEOA",
			"type": "error"
		},
		{
			"inputs": [],
			"name": "LSP7TokenContractCannotHoldValue",
			"type": "error"
		},
		{
			"inputs": [],
			"name": "LSP7TokenOwnerCannotBeOperator",
			"type": "error"
		},
		{
			"inputs": [
				{
					"internalType": "bytes4",
					"name": "functionSelector",
					"type": "bytes4"
				}
			],
			"name": "NoExtensionFoundForFunctionSelector",
			"type": "error"
		},
		{
			"inputs": [
				{
					"internalType": "address",
					"name": "operator",
					"type": "address"
				}
			],
			"name": "OperatorAllowanceCannotBeIncreasedFromZero",
			"type": "error"
		},
		{
			"inputs": [
				{
					"internalType": "address",
					"name": "callerAddress",
					"type": "address"
				}
			],
			"name": "OwnableCallerNotTheOwner",
			"type": "error"
		},
		{
			"inputs": [],
			"name": "OwnableCannotSetZeroAddressAsOwner",
			"type": "error"
		},
		{
			"anonymous": false,
			"inputs": [
				{
					"indexed": true,
					"internalType": "bytes32",
					"name": "dataKey",
					"type": "bytes32"
				},
				{
					"indexed": false,
					"internalType": "bytes",
					"name": "dataValue",
					"type": "bytes"
				}
			],
			"name": "DataChanged",
			"type": "event"
		},
		{
			"anonymous": false,
			"inputs": [
				{
					"indexed": true,
					"internalType": "address",
					"name": "operator",
					"type": "address"
				},
				{
					"indexed": true,
					"internalType": "address",
					"name": "tokenOwner",
					"type": "address"
				},
				{
					"indexed": true,
					"internalType": "uint256",
					"name": "amount",
					"type": "uint256"
				},
				{
					"indexed": false,
					"internalType": "bytes",
					"name": "operatorNotificationData",
					"type": "bytes"
				}
			],
			"name": "OperatorAuthorizationChanged",
			"type": "event"
		},
		{
			"anonymous": false,
			"inputs": [
				{
					"indexed": true,
					"internalType": "address",
					"name": "operator",
					"type": "address"
				},
				{
					"indexed": true,
					"internalType": "address",
					"name": "tokenOwner",
					"type": "address"
				},
				{
					"indexed": true,
					"internalType": "bool",
					"name": "notified",
					"type": "bool"
				},
				{
					"indexed": false,
					"internalType": "bytes",
					"name": "operatorNotificationData",
					"type": "bytes"
				}
			],
			"name": "OperatorRevoked",
			"type": "event"
		},
		{
			"anonymous": false,
			"inputs": [
				{
					"indexed": true,
					"internalType": "address",
					"name": "previousOwner",
					"type": "address"
				},
				{
					"indexed": true,
					"internalType": "address",
					"name": "newOwner",
					"type": "address"
				}
			],
			"name": "OwnershipTransferred",
			"type": "event"
		},
		{
			"anonymous": false,
			"inputs": [
				{
					"indexed": true,
					"internalType": "address",
					"name": "operator",
					"type": "address"
				},
				{
					"indexed": true,
					"internalType": "address",
					"name": "from",
					"type": "address"
				},
				{
					"indexed": true,
					"internalType": "address",
					"name": "to",
					"type": "address"
				},
				{
					"indexed": false,
					"internalType": "uint256",
					"name": "amount",
					"type": "uint256"
				},
				{
					"indexed": false,
					"internalType": "bool",
					"name": "force",
					"type": "bool"
				},
				{
					"indexed": false,
					"internalType": "bytes",
					"name": "data",
					"type": "bytes"
				}
			],
			"name": "Transfer",
			"type": "event"
		},
		{
			"stateMutability": "payable",
			"type": "fallback"
		},
		{
			"inputs": [
				{
					"internalType": "address",
					"name": "operator",
					"type": "address"
				},
				{
					"internalType": "uint256",
					"name": "amount",
					"type": "uint256"
				},
				{
					"internalType": "bytes",
					"name": "operatorNotificationData",
					"type": "bytes"
				}
			],
			"name": "authorizeOperator",
			"outputs": [],
			"stateMutability": "nonpayable",
			"type": "function"
		},
		{
			"inputs": [
				{
					"internalType": "address",
					"name": "operator",
					"type": "address"
				},
				{
					"internalType": "address",
					"name": "tokenOwner",
					"type": "address"
				}
			],
			"name": "authorizedAmountFor",
			"outputs": [
				{
					"internalType": "uint256",
					"name": "",
					"type": "uint256"
				}
			],
			"stateMutability": "view",
			"type": "function"
		},
		{
			"inputs": [
				{
					"internalType": "address",
					"name": "tokenOwner",
					"type": "address"
				}
			],
			"name": "balanceOf",
			"outputs": [
				{
					"internalType": "uint256",
					"name": "",
					"type": "uint256"
				}
			],
			"stateMutability": "view",
			"type": "function"
		},
		{
			"inputs": [
				{
					"internalType": "bytes[]",
					"name": "data",
					"type": "bytes[]"
				}
			],
			"name": "batchCalls",
			"outputs": [
				{
					"internalType": "bytes[]",
					"name": "results",
					"type": "bytes[]"
				}
			],
			"stateMutability": "nonpayable",
			"type": "function"
		},
		{
			"inputs": [
				{
					"internalType": "address",
					"name": "from",
					"type": "address"
				},
				{
					"internalType": "uint256",
					"name": "amount",
					"type": "uint256"
				},
				{
					"internalType": "bytes",
					"name": "data",
					"type": "bytes"
				}
			],
			"name": "burn",
			"outputs": [],
			"stateMutability": "nonpayable",
			"type": "function"
		},
		{
			"inputs": [],
			"name": "decimals",
			"outputs": [
				{
					"internalType": "uint8",
					"name": "",
					"type": "uint8"
				}
			],
			"stateMutability": "view",
			"type": "function"
		},
		{
			"inputs": [
				{
					"internalType": "address",
					"name": "operator",
					"type": "address"
				},
				{
					"internalType": "uint256",
					"name": "subtractedAmount",
					"type": "uint256"
				},
				{
					"internalType": "bytes",
					"name": "operatorNotificationData",
					"type": "bytes"
				}
			],
			"name": "decreaseAllowance",
			"outputs": [],
			"stateMutability": "nonpayable",
			"type": "function"
		},
		{
			"inputs": [
				{
					"internalType": "bytes32",
					"name": "dataKey",
					"type": "bytes32"
				}
			],
			"name": "getData",
			"outputs": [
				{
					"internalType": "bytes",
					"name": "dataValue",
					"type": "bytes"
				}
			],
			"stateMutability": "view",
			"type": "function"
		},
		{
			"inputs": [
				{
					"internalType": "bytes32[]",
					"name": "dataKeys",
					"type": "bytes32[]"
				}
			],
			"name": "getDataBatch",
			"outputs": [
				{
					"internalType": "bytes[]",
					"name": "dataValues",
					"type": "bytes[]"
				}
			],
			"stateMutability": "view",
			"type": "function"
		},
		{
			"inputs": [
				{
					"internalType": "address",
					"name": "tokenOwner",
					"type": "address"
				}
			],
			"name": "getOperatorsOf",
			"outputs": [
				{
					"internalType": "address[]",
					"name": "",
					"type": "address[]"
				}
			],
			"stateMutability": "view",
			"type": "function"
		},
		{
			"inputs": [
				{
					"internalType": "address",
					"name": "operator",
					"type": "address"
				},
				{
					"internalType": "uint256",
					"name": "addedAmount",
					"type": "uint256"
				},
				{
					"internalType": "bytes",
					"name": "operatorNotificationData",
					"type": "bytes"
				}
			],
			"name": "increaseAllowance",
			"outputs": [],
			"stateMutability": "nonpayable",
			"type": "function"
		},
		{
			"inputs": [
				{
					"internalType": "address",
					"name": "to",
					"type": "address"
				},
				{
					"internalType": "uint256",
					"name": "amount",
					"type": "uint256"
				},
				{
					"internalType": "bool",
					"name": "force",
					"type": "bool"
				},
				{
					"internalType": "bytes",
					"name": "data",
					"type": "bytes"
				}
			],
			"name": "mint",
			"outputs": [],
			"stateMutability": "nonpayable",
			"type": "function"
		},
		{
			"inputs": [],
			"name": "owner",
			"outputs": [
				{
					"internalType": "address",
					"name": "",
					"type": "address"
				}
			],
			"stateMutability": "view",
			"type": "function"
		},
		{
			"inputs": [],
			"name": "renounceOwnership",
			"outputs": [],
			"stateMutability": "nonpayable",
			"type": "function"
		},
		{
			"inputs": [
				{
					"internalType": "address",
					"name": "operator",
					"type": "address"
				},
				{
					"internalType": "bool",
					"name": "notify",
					"type": "bool"
				},
				{
					"internalType": "bytes",
					"name": "operatorNotificationData",
					"type": "bytes"
				}
			],
			"name": "revokeOperator",
			"outputs": [],
			"stateMutability": "nonpayable",
			"type": "function"
		},
		{
			"inputs": [
				{
					"internalType": "bytes32",
					"name": "dataKey",
					"type": "bytes32"
				},
				{
					"internalType": "bytes",
					"name": "dataValue",
					"type": "bytes"
				}
			],
			"name": "setData",
			"outputs": [],
			"stateMutability": "payable",
			"type": "function"
		},
		{
			"inputs": [
				{
					"internalType": "bytes32[]",
					"name": "dataKeys",
					"type": "bytes32[]"
				},
				{
					"internalType": "bytes[]",
					"name": "dataValues",
					"type": "bytes[]"
				}
			],
			"name": "setDataBatch",
			"outputs": [],
			"stateMutability": "payable",
			"type": "function"
		},
		{
			"inputs": [
				{
					"internalType": "bytes4",
					"name": "interfaceId",
					"type": "bytes4"
				}
			],
			"name": "supportsInterface",
			"outputs": [
				{
					"internalType": "bool",
					"name": "",
					"type": "bool"
				}
			],
			"stateMutability": "view",
			"type": "function"
		},
		{
			"inputs": [],
			"name": "totalSupply",
			"outputs": [
				{
					"internalType": "uint256",
					"name": "",
					"type": "uint256"
				}
			],
			"stateMutability": "view",
			"type": "function"
		},
		{
			"inputs": [
				{
					"internalType": "address",
					"name": "from",
					"type": "address"
				},
				{
					"internalType": "address",
					"name": "to",
					"type": "address"
				},
				{
					"internalType": "uint256",
					"name": "amount",
					"type": "uint256"
				},
				{
					"internalType": "bool",
					"name": "force",
					"type": "bool"
				},
				{
					"internalType": "bytes",
					"name": "data",
					"type": "bytes"
				}
			],
			"name": "transfer",
			"outputs": [],
			"stateMutability": "nonpayable",
			"type": "function"
		},
		{
			"inputs": [
				{
					"internalType": "address[]",
					"name": "from",
					"type": "address[]"
				},
				{
					"internalType": "address[]",
					"name": "to",
					"type": "address[]"
				},
				{
					"internalType": "uint256[]",
					"name": "amount",
					"type": "uint256[]"
				},
				{
					"internalType": "bool[]",
					"name": "force",
					"type": "bool[]"
				},
				{
					"internalType": "bytes[]",
					"name": "data",
					"type": "bytes[]"
				}
			],
			"name": "transferBatch",
			"outputs": [],
			"stateMutability": "nonpayable",
			"type": "function"
		},
		{
			"inputs": [
				{
					"internalType": "address",
					"name": "newOwner",
					"type": "address"
				}
			],
			"name": "transferOwnership",
			"outputs": [],
			"stateMutability": "nonpayable",
			"type": "function"
		},
		{
			"stateMutability": "payable",
			"type": "receive"
		}
	]
}